:020000040800F2
:1000000058170020F10100080B2E0008D32100082A
:10001000092E0008FD040008B53B000800000000A0
:100020000000000000000000000000009132000805
:10003000FF040008000000000D2E000841340008F5
:100040000B0200080B0200080B0200080B0200085C
:100050000B0200080B0200080B0200080B0200084C
:100060000B0200080B0200080B0200080B0200083C
:100070000B0200080B0200080B0200080B0200082C
:100080000B020008000000000B0200080B02000831
:100090000B0200080B0200080B0200080B0200080C
:1000A0000B0200080B0200080B0200080B020008FC
:1000B0000B0200080B020008ED3400080B020008D8
:1000C0000B0200080B0200080B0200080B020008DC
:1000D0000B020008A93B00080B0200080B020008F5
:1000E0000B0200080B0200080B0200080B020008BC
:1000F0000B0200080B0200080B02000800000000C1
:10010000000000000B020008000000000B020008C5
:100110000B020008000000000B0200080B020008A0
:100120000B0200080B0200080B0200080B0200087B
:100130000B02000800000000000000000B02000895
:100140000B0200080B020008000000000000000085
:10015000000000000000000000000000000000009F
:100160000000000000000000000000000B0200087A
:100170000B0200080000000000000000000000006A
:10018000000000000B02000800000000000000005A
:10019000000000000000000000000000000000005F
:1001A00000000000000000000B0200080B02000825
:1001B0000B0200080B0200080B0200080000000000
:1001C000000000000B02000800000000000000001A
:1001D0000B0200080B020008DFF810D000F092F8C4
:1001E000004800471D400008AFF30080581700206A
:1001F0000648804706480047FEE7FEE7FEE7FEE7C1
:10020000FEE7FEE7FEE7FEE7FEE7FEE7D134000883
:10021000D90100082DE9F05F0546002092469B4673
:1002200088460646814640241BE02846414647460C
:10023000224600F057F853465A46C01A914110D34F
:1002400011461846224600F03EF82D1A67EB0108C9
:100250004F4622460120002100F035F817EB000937
:100260004E41201EA4F10104DFDC484631462A46F7
:100270004346BDE8F09FD2B201E000F8012B491ED1
:10028000FBD270470022F6E710B513460A46044633
:100290001946FFF7F0FF204610BD30B50B4601466A
:1002A00000202022012409E021FA02F59D4205D315
:1002B00003FA02F5491B04FA02F52844151EA2F1BF
:1002C0000102F1DC30BD202A04DB203A00FA02F101
:1002D000002070479140C2F1200320FA03F3194334
:1002E00090407047202A04DB203A21FA02F00021D6
:1002F000704721FA02F3D040C2F120029140084336
:1003000019467047064C074D06E0E06840F00103CF
:1003100094E8070098471034AC42F6D3FFF760FF2B
:10032000BC400008DC40000870B58D1810F8014B87
:1003300014F0030201D110F8012B231106D110F89B
:10034000013B03E010F8016B01F8016B521EF9D17B
:10035000ABB110F8012B04F00C048A1A0C2C03D05A
:10036000A2EB84129B1C08E010F8014BA2EB0422C4
:10037000F8E712F8014B01F8014B5B1EF9D5A942D1
:10038000D4D3002070BD000070B551A1182002F038
:100390008FFA56A1574803F01FFC5649482002F037
:1003A00087FA554D0A244FF478466878012840D0E2
:1003B000E879BF21B0FBF4F03030C2B2482002F03F
:1003C0006BFAE879B0FBF4F104FB1102AF2148208D
:1003D000303202F061FA6878022844D0287A8F21FE
:1003E000B0FBF4F03030C2B2482002F055FA287A5F
:1003F000B0FBF4F104FB11027F214820303202F0FF
:100400004BFA6878032848D0687A5F21B0FBF4F093
:100410003030C2B2482002F03FFA687AB0FBF4F103
:1004200004FB1102BDE870404F214820303202F039
:1004300033BA304602F0ECFAE879BF21B0FBF4F0B1
:100440003030C2B2482002F027FAE879B0FBF4F16C
:1004500004FB1102AF214820303202F01DFA0020C7
:1004600002F0D6FAB7E7304602F0D2FA287A8F21A6
:10047000B0FBF4F03030C2B2482002F00DFA287A16
:10048000B0FBF4F104FB11027F214820303202F06E
:1004900003FA002002F0BCFAB3E7304602F0B8FAE3
:1004A000687A5F21B0FBF4F03030C2B2482002F02D
:1004B000F3F9687AB0FBF4F104FB11024F214820F4
:1004C000303202F0E9F9BDE87040002002F0A0BA35
:1004D00020202020414C41524D2D53455454494E2B
:1004E00047202020202020202000000020416C6197
:1004F000726D000044120020D6110020FEE7704704
:10050000002240F6B83306E00021491C89B2994226
:10051000FBD3521C92B28242F6D370470648007851
:1005200028B1012805D0022805D1FFF72DBF00F022
:1005300005B802F0AFBE7047D611002008B5002202
:100540001149124800F07AFF002211490F4800F0CB
:1005500051FF10A1182002F0ABF90B480C491A39D1
:1005600002780A7143784B71807888710090064850
:100570000EA13C3003F030FB0349BDE808403C319C
:10058000482002F095B900000812002058120020FF
:10059000F011002020202020202020204D41494E15
:1005A0002020202020202020202020002020205239
:1005B00054433A20253032643A253032643A2530AB
:1005C000326420202000000072B6FEE770B590F87B
:1005D0002520002401212346022A07D00422C263D9
:1005E00080F8251080F82430012429E0026815687D
:1005F00025F00E0515600268156825F001051560E7
:10060000826C156825F48075156090F84420056C9F
:1006100002F01F0201FA02F26A60D0E91325556068
:10062000426D32B1156825F480751560D0E9162544
:10063000556080F8251080F82430816B01B188471F
:10064000204670BD70B5044600F0FCF80546601CFD
:1006500002D004484068044400F0F4F8401BA04273
:10066000FAD370BDF41100202DE9FC4FDFF8A0A1F2
:10067000002301250AF1040B03244FF00F0C0BF1AA
:10068000040EBDE005FA03F632406FD04F68012F2B
:1006900005D0022F03D0112F01D0122F17D1D0F87F
:1006A00008905F0004FA07F829EA08090097D1F8D2
:1006B0000C8008FA07F848EA0908C0F8088047687B
:1006C000B7430E79C6F300169E403E434660C668A7
:1006D0004FEA430804FA08F7BE4301978F6807FA08
:1006E00008F73743C7604E68022E01D0122E13D18F
:1006F000DE0800EB86060096366A5F07FF0E0CFAEE
:1007000007F926EA0906D1F8109009FA07F949EA2B
:100710000609009EC6F820900668019FBE430F7927
:1007200007F0030707FA08F7374307604E68F6003B
:1007300065D5384E376E47F001073766366E23F0C1
:10074000030706F001060096334E3E44B146B668F4
:100750009F074FEA17780CFA08F7BE43B0F1904FA5
:1007600005D02E4FB84204D1012717E047E00027FB
:1007700014E02B4FB84201D102270FE0294FB842B5
:1007800001D103270AE0284FB84201D1042705E030
:10079000264FB84201D1052700E0062707FA08F7DF
:1007A0003743C9F80870DAF800605746D1F804807A
:1007B00096435FEAC83800D516433E60DBF8006018
:1007C0005F46D1F8048096435FEA883800D5164327
:1007D0003E60DEF800607746D1F8048096435FEA19
:1007E000C82800D516433E60094F0C373E68D1F843
:1007F000048096435FEA882800D516433E605B1C60
:100800000A6832FA03F67FF43DAFBDE8FC8F0000C2
:1008100000040140001002400000014000040048B4
:1008200000080048000C0048001000480014004870
:100830000069084000D0012070470AB1816170470B
:10084000816270470148806870470000F411002001
:10085000024881684268114481607047F4110020A9
:1008600010B50024032000F073F8002000F008F811
:1008700008B1012401E000F025F8204610BD000079
:1008800070B50E4E05460024706898B14FF47A7129
:10089000B1FBF0F00A490968B1FBF0F000F0DCFFB1
:1008A00040B9102D06D200222946501E00F030F823
:1008B000356000E00124204670BD0000F4110020E6
:1008C000001200200A4882B0016E41F00101016669
:1008D000016E01F001010091816D41F0805181654F
:1008E000806D00F08050009002B000F0A1B80000D0
:1008F00000100240002809DB00F01F020121914096
:100900004009800000F1E020C0F8001170470000AD
:10091000F0B40E4B1B680C46C3F30223C3F107056A
:10092000042D00D90425191D072901D2002300E058
:10093000DB1E012606FA05F1491E214099409E4022
:10094000761E16403143F0BC03F05AB90CED00E0BE
:10095000064900F0070208684FF6FF03184040EA16
:100960000220034A10430860704700000CED00E0CD
:100970000000FA052B492C4B0A6832214A432B49C7
:1009800040B1B0F5007F086829D020F4C06040F481
:1009900080602CE00868C0F34120022804D051F8A0
:1009A000800F20F4807022E0D1F8800020F4807065
:1009B000C1F88000086820F4C06040F4007008604E
:1009C000B2FBF3F0401C00E0401E4A69520501D51D
:1009D0000028F9D1486940050AD503207047C0F3C3
:1009E0004120022806D051F8800F40F48070086042
:1009F00000207047D1F8800040F48070C1F880007A
:100A0000086820F4C06040F400700860B2FBF3F0A6
:100A1000401C00E0401E4A695205DBD50028F9D190
:100A2000D8E700000012002040420F000070004094
:100A30000248816841F48041816070470070004045
:100A40002DE9F8430446006800269D4D00035ED55D
:100A5000A86D0027C00008D4A86D40F08050A8659C
:100A6000A86D012700F080500090DFF85892D9F867
:100A7000001041F48071C9F80010FFF7E3FE8046D2
:100A800006E000BFFFF7DEFEA0EB080002282BD82F
:100A9000D9F80000C005F5D5D5F8900010F44070E5
:100AA00014D0216C814211D0D5F89000D5F8901067
:100AB00020F4407041F48031C5F89010D5F89010C2
:100AC00021F48031C5F89010C5F89000C00711D00E
:100AD000FFF7B8FE804641F2883907E0FFF7B2FE23
:100AE000A0EB0801494501D903260BE0D5F8900099
:100AF0008007F3D5D5F89000216C20F440700843AE
:100B0000C5F890001FB1A86D20F08050A86520782E
:100B1000C00707D0D5F88800616820F003000843BB
:100B2000C5F888002078800707D5D5F88800A16827
:100B300020F00C000843C5F888002078400707D54E
:100B4000D5F88800E16820F030000843C5F8880037
:100B50002078000707D5D5F88800216920F0C0006B
:100B60000843C5F888002078800607D5D5F88800A6
:100B7000616920F440600843C5F888002078400689
:100B800007D5D5F88800A16920F440500843C5F87E
:100B900088002078000607D5D5F88800E16920F4A0
:100BA00040400843C5F888002088C00507D5D5F81F
:100BB0008800216A20F440300843C5F88800208866
:100BC000800507D5D5F88800616A20F440200843E5
:100BD000C5F88800208840050FD5D5F88800A16A9F
:100BE00020F440100843C5F88800A06AB0F5801FC3
:100BF00003D1E86840F48010E860208800050FD534
:100C0000D5F88800E16A20F440000843C5F8880060
:100C1000E06AB0F5800F03D1E86840F48010E86026
:100C20002088C0040FD5D5F88800216B20F04070D3
:100C30000843C5F88800206BB0F1807F03D1E868D5
:100C400040F48010E86020884FF0006180040ED5E9
:100C5000D5F88800626B20F040601043C5F888002A
:100C6000606B884203D1E86840F48010E860208817
:100C700040040ED5D5F88800A26B20F040601043E8
:100C8000C5F88800A06B884203D1E86840F4801062
:100C9000E860208800040FD5D5F88800E16B20F0CB
:100CA00040500843C5F88800E06BB0F1805F03D185
:100CB000E86840F48030E8603046BDE8F883000022
:100CC00000100240007000402DE9F0470E4605007C
:100CD0004FF0000725D0DFF8AC81D8F8000000F015
:100CE0000F00B0420CD2D8F8001021F00F013143B0
:100CF000C8F80010D8F8000000F00F00B04210D182
:100D00002968614CC80741F2883A5AD06868DFF810
:100D10007C91032808D0022820682DD040050028A7
:100D20002CDB0120BDE8F08720688001F9D5E06860
:100D300000F00302E068C0F30310401C032A19D03E
:100D4000534A00BFB2FBF0F0E268C2F30622504300
:100D5000E268C2F34162521C5200B0FBF2F0484517
:100D600017D9A06810F0F00F0CD0880711D5A8682B
:100D700040B10EE0474AE5E78003D0E700F0B6F85F
:100D8000484506D9A06820F0F00040F08000A0603F
:100D90008027A068696820F003000843A060FFF77F
:100DA00051FD814606E000BFFFF74CFDA0EB0901B5
:100DB00051453AD8A068696800F00C00B0EB810F8B
:100DC000F2D12868810714D5400703D5A06840F404
:100DD000E060A0602878000705D5A06820F4605086
:100DE00040F4E060A060A068A96820F0F00008432B
:100DF00004E0802F03D1A06820F0F000A060D8F8B4
:100E00000010404601F00F01B14216D9016821F0EF
:100E10000F0131430160FFF715FD074607E000BFF2
:100E2000FFF710FDC11B514501D903207AE7D8F81F
:100E3000000000F00F00B042F2D12878400705D53D
:100E4000A068E96820F4E0600843A0602878000703
:100E500006D5A068296920F4605040EAC100A0606E
:100E600000F044F8A1680C4AC1F30311515C01F091
:100E70001F01C8400949086009480068BDE8F047FB
:100E8000FFF7FEBC002002400010024000B4C40482
:100E90000024F40000366E01A44000080012002077
:100EA000F41100200548064900688968054AC1F325
:100EB0000221515C01F01F01C84070470012002060
:100EC00000100240B44000080548064900688968DF
:100ED000054AC1F3C221515C01F01F01C8407047AF
:100EE0000012002000100240B4400008184910B55C
:100EF0008868C0F381021748012A0BD08A68164B14
:100F0000C2F38102022A06D08A68C2F38102032A50
:100F100003D0002010BD184610BDCA6802F00304BB
:100F2000CA68C2F30312521C032C02D0B0FBF2F0C9
:100F300001E0B3FBF2F0CA68C968C2F3062250436D
:100F4000C1F34161491C4900B0FBF1F010BD000044
:100F5000001002400024F40000366E012DE9F84331
:100F600004007AD02078FA4DC00747D0A868E96815
:100F700000F00C0001F003010C2802D0082817D063
:100F800001E0032914D06068B0F5803F17D0B0F5B8
:100F9000A02F286817D020F480302860286820F41B
:100FA000802028606068E0B1FFF74CFC064614E042
:100FB0002868800322D560680028D2D01EE0286807
:100FC00040F48030EDE740F480202860F7E700BF70
:100FD000FFF738FC801B642870D828688003F7D599
:100FE0000CE0FFF72FFC064605E000BFFFF72AFCE8
:100FF000801B6428F0D828688003F7D42078800705
:101000004CD5A868E96800F00C0001F003010C2839
:1010100002D004280DD001E002290AD0E06800289F
:1010200028682BD040F480702860FFF70BFC064640
:1010300019E02868400502D5E068002891D068686A
:10104000217C20F0FE4040EA01606860C1480068F1
:10105000FFF716FC002800D120E076E1FFF7F2FB55
:10106000801B0228B8D828684005F7D56868217C1D
:1010700020F0FE4040EA016068600FE020F48070DC
:101080002860FFF7DFFB064605E000BFFFF7DAFB4D
:10109000801B0228A0D828684005F7D420780007D4
:1010A00029D560690028D5F8940013D040F00100DC
:1010B000C5F89400FFF7C6FB064606E090E000BFC7
:1010C000FFF7C0FB801B022886D8D5F89400800764
:1010D000F6D510E020F00100C5F89400FFF7B2FB50
:1010E000064604E0FFF7AEFB801B022878D8D5F84F
:1010F00094008007F6D42078400761D5A86D0026BB
:10110000C00008D4A86D40F08050A865A86D0126E5
:1011100000F08050009090480168C90511D4016822
:10112000804641F480710160FFF78CFB074604E0C4
:10113000FFF788FBC01B022852D8D8F80000C00572
:10114000F6D5A068012815D00528D5F8900016D04E
:1011500020F00100C5F89000D5F8900020F00400C0
:10116000C5F89000A06841F28838B8B1FFF76AFB73
:1011700007460EE0D5F8900040F00100F0E740F09F
:101180000400C5F89000F5E7FFF75CFBC11B414583
:1011900026D8D5F890008007F6D50CE0FFF752FB73
:1011A000074604E0FFF74EFBC11B414518D8D5F8B0
:1011B00090008007F6D41EB1A86D20F08050A8657D
:1011C0002078800629D5A0690028D5F8980013D08A
:1011D00040F00100C5F89800FFF734FB064606E032
:1011E00077E000BFFFF72EFB801B022877D8D5F8E9
:1011F00098008007F6D510E020F00100C5F89800AF
:10120000FFF720FB064604E0FFF71CFB801B0228CB
:1012100065D8D5F898008007F6D4E069F0B3A968DE
:10122000C1F38101032961D00228286820F0807071
:1012300028600BD0E86820F00300E860E8684749C0
:101240000840E860FFF7FEFA04464BE0FFF7FAFAC1
:10125000064604E0FFF7F6FA801B02283FD828680C
:101260008001F7D4F4E908016FF00F0202EB0111DD
:101270000843218A5204490802EB4151A26841EA1D
:1012800002210843217D4FF07E42490802EB416173
:101290000843217B40EAC160E96800E062E0304A2F
:1012A00011400843E860286840F080702860E868D2
:1012B00040F08070E860FFF7C5FA044605E000BF23
:1012C000FFF7C0FA001B022809D828688001F7D56B
:1012D00048E004E0FFF7B6FA001B022802D9032019
:1012E000BDE8F88328688001F4D43BE00128F7D0FA
:1012F000E868226A00F00301914226D1616A00F099
:10130000F0020901103991421FD1A26A00F4FE4196
:10131000B1EB022F19D194F82C2000F07841B1EBF9
:10132000C26F12D1218E00F4C00249084905A1F50F
:101330000011914209D194F8341000F0C0604908BE
:101340004906A1F1007181420CD00120C8E70000DC
:1013500000100240F411002000700040FFFFEEFE7C
:101360000C809F010020BBE710B54FF480700C4645
:10137000824205D160621E4800681D49091D07E0D0
:101380004FF4007060621A480830006818490C3148
:101390000968C0F305422270C0F30622627000F0B3
:1013A0007F02A270C0F38052C1F30E01E27061604F
:1013B000C0F3056184F8201000F0804100F0803017
:1013C000E16160618BB9207801F0ABFE207060783C
:1013D00001F0A7FE6070A07801F0A3FEA07094F861
:1013E000200001F09EFE84F82000002010BD0000C7
:1013F000402800400F4810B50B4601680E480140D8
:10140000080CD870C1F304245C7001F03F049C7098
:10141000C1F34231197052B901F083FED870587887
:1014200001F07FFE5870987801F07BFE98700020E4
:1014300010BD0000042800403FFFFF00144810B515
:1014400000680B464860124808300068C0F30E0080
:1014500088600F48083801680E480140C1F3054014
:101460001870C1F306245C7001F07F049C70890D34
:10147000D97052B901F055FE1870587801F051FE3C
:101480005870987801F04DFE9870002010BD000053
:10149000082800407F7F7F0070B504004FF00100F6
:1014A0003ED094F8250028B9002084F82400204676
:1014B00000F03CF8022084F825001A4ECA20306063
:1014C00053203060204601F041FE10BB154D0C3D0D
:1014D000286815490840286028686168A26908439F
:1014E00021691143084328602189E06840EA0140EE
:1014F0000C4914390860204601F04EFE48B9D4E981
:101500000721114362692B6823F060431A4311439A
:101510002960FF213160002802D1012184F82510C3
:1015200070BD000024280040BFFF8FFB0068054904
:10153000884205D1044850F8901F41F400410160F1
:101540007047000000280040001002402DE9F05FC5
:10155000044690F824000B46012842D04FF0010BBE
:1015600084F824B0022084F825004F480026006843
:101570004FEA4060A2B3002800DBDE70987819784B
:10158000DA7840EA01405978090241EA8251084379
:1015900093F8201040EA0165D8695F6805435869EF
:1015A000DFF804910543986909F10C090743CA2142
:1015B000C9F800105321C9F800103B49586A44315A
:1015C000B0F5807F38484FF0FF0A026826D022F439
:1015D0000852026002200860FFF734F980464CE0B0
:1015E00002E00220BDE8F09F002800DBDE701878E2
:1015F00001F0A0FD0504587801F09CFD45EA0025A6
:10160000987801F097FD0543D87845EA805593F81E
:10161000200001F08FFD45EA0065BDE722F4885205
:101620000260C1F800B0FFF70DF9804607E000BF87
:10163000FFF708F9A0EB0800B0F57A7F15D81A4833
:101640000C380068C007F3D0174828300560001D2B
:1016500007601548016841F480711CE0FFF7F2F85B
:10166000A0EB0800B0F57A7F07D9C9F800A00320E5
:1016700084F8250084F82460B4E70B480C3800682F
:101680008007EBD5084830300560001D076006482C
:10169000016841F400710160C9F800A084F825B028
:1016A00084F8246000209DE7182800402DE9F041CF
:1016B000044690F824000B4601281AD0012684F82D
:1016C0002460022084F82500B2B19878D97840EAE5
:1016D000014558781978000240EA413005431B4F14
:1016E000CA20386053203860204601F02FFDD8B161
:1016F00022E00220BDE8F0815878C10603D500F051
:10170000EF000A305870D87801F014FD05045878BD
:1017100001F010FD45EA0025987801F00BFD054326
:10172000187845EA4035DAE7094805400748203887
:101730000560204601F030FDFF21396008B984F8CA
:101740002560002184F82410D4E7000024280040FC
:101750003FFFFF002DE9F047054690F824001746AB
:101760000C46012814D04FF0010985F8249002207E
:1017700085F82500DFF8A480CA21C8F8001053219D
:10178000C8F80010284601F0E1FC002618B127E057
:101790000220BDE8F087214B0C3B18684FEA4060FF
:1017A0001FB3002800DBE670A0782178E27840EAD9
:1017B00001406178090241EA825108431849084012
:1017C000164924390860186820F480201860D4E98C
:1017D00003010843196808431860284601F0DCFC3F
:1017E000FF22C8F80020A0B115E0002800DBE67059
:1017F000207801F09FFC0704607801F09BFC47EA29
:101800000027A07801F096FC0743E07847EA805073
:10181000D4E785F8259085F82460BAE724280040AD
:101820007F7F7F0070B50B4D286860F0A0002860B6
:10183000FFF708F804464FF47A7606E0FFF702F85F
:10184000001BB04201D9032070BD28688006F5D581
:10185000002070BD0C28004010B5401EB0F1807F04
:1018600001D3012010BD4FF0E02460610F2160170B
:1018700002F0C6F90020A06107202061002010BD01
:10188000704770477047704770477047F0B590F8E1
:101890003C20012A3AD0012580F83C50022280F8F1
:1018A0003D2003685A689C68194E1A4FB34201D014
:1018B000BB4204D122F4700C4A6842EA0C02DFF801
:1018C00058C002EA0C02D1F800C04CEA020CC3F87E
:1018D00004C00268B2420DD0B2F1804F0AD00F4B63
:1018E0009A4207D00E4B9A4204D0BA4202D00D4B16
:1018F0009A4204D1896824F080031943916080F8EA
:101900003D50002180F83C100846F0BD0220F0BD9B
:10191000002C0140003401408FFFFFFD0004004017
:101920000008004000400140704710B5040003D09B
:1019300094F83D0010B107E0012010BD002084F8AC
:101940003C00204600F022F8022084F83D00211DD2
:10195000206801F0D1FD012084F8480084F83E00A1
:1019600084F83F0084F8400084F8410084F8420085
:1019700084F8430084F8440084F8450084F8460065
:1019800084F8470084F83D00002010BD08B50068C9
:101990000B49884212D10B48816D41F004018165E9
:1019A000806D002200F00400009011461E20FEF71A
:1019B000AFFFBDE808401E20FEF79CBF08BD000039
:1019C000000800400010024090F83D10012901D0AD
:1019D00001207047022180F83D100168CA6842F07A
:1019E0000102CA600068104988420ED0B0F1804FF1
:1019F0000BD00E49884208D00D49884205D00D49C8
:101A0000884202D00C49884207D181680B4A1140B4
:101A1000062906D0B1F5803F03D0016841F00101ED
:101A20000160002070470000002C014000040040CD
:101A30000008004000340140004001400700010060
:101A400070B5044690F83C00012814D0012584F8B4
:101A50003C50022084F83D0022689068344B1840C6
:101A600020F47F4090600868702827D010DC10F0C8
:101A70000F0F03D04AE04FF0020070BD4FEA201272
:101A8000072A43D2DFE802F0505050504831390065
:101A9000284BC21A984247D009DCB0F5805F35D098
:101AA000B0F5005F15D0B0F1101F2FD13CE0102A27
:101AB0003AD0202A38D0502A28D135E0CB68D1E955
:101AC0000121206801F070FD2068816841F07701F4
:101AD00009E0CB68D1E90121206801F065FD2068AB
:101AE000816841F48041816010E0CA6849682068DB
:101AF00001F06EFD5021206806E0CA684968206840
:101B000001F077FD6021206801F058FD84F83D5018
:101B1000002084F83C0070BDCA684968206801F064
:101B200057FD40212068EFE7226801461046EBE7A9
:101B300088FFCEFF20001000704770B50446006893
:101B400001694FF00005C943890715D4C168C9432D
:101B5000890711D4E91E016101202077206880697E
:101B60008007204602D0FFF7E7FF04E000F0E3F82B
:101B7000204600F0E1F8257720680169C94349074C
:101B800017D4C168C943490713D46FF00401016138
:101B9000022020772068806910F4407F204602D020
:101BA000FFF7CAFF04E000F0C6F8204600F0C4F8D2
:101BB000257720680169C943090716D4C168C9435C
:101BC000090712D46FF00801016104202077206812
:101BD000C0698007204602D0FFF7AEFF04E000F0A6
:101BE000AAF8204600F0A8F8257720680169C943C3
:101BF000C90617D4C168C943C90613D46FF01001D0
:101C00000161082020772068C06910F4407F2046D9
:101C100002D0FFF791FF04E000F08DF8204600F0BD
:101C20008BF8257720680169C943C90708D1C168C5
:101C3000C943C90704D1891E0161204600F07EF81E
:101C400020680169C943090609D4C168C943090666
:101C500005D46FF0800101612046FFF712FE206875
:101C60000169C943C90509D4C168C943090605D436
:101C70006FF4807101612046FFF702FE2068016960
:101C8000C943490609D4C168C943490605D46FF060
:101C900040010161204600F07BF820680169C943DA
:101CA000890609D4C168C943890605D46FF02001AB
:101CB00001612046FFF7E6FD20680169C943C902BA
:101CC00009D4C168C943C90205D46FF48011016108
:101CD0002046FFF7D9FD20680169C943890209D46C
:101CE000C168C943890205D46FF40011016120461F
:101CF000FFF7C9FD20680169C943490209D4C168D9
:101D0000C943490205D46FF4800101612046FFF701
:101D1000BCFD20680169C94309020BD4C168C943ED
:101D2000090207D46FF4000101612046BDE870404C
:101D3000FFF7FABD70BD70477047000010B504464C
:101D40001048FFF741FE10492068884219D10F481A
:101D5000818A491C8AB2002182820A2A02D1012288
:101D6000827081820278002A0BD1C28A521C92B200
:101D7000C282B2F57A7F04D1C182BDE8104000F082
:101D8000EBBE10BD8012002000080040D6110020DC
:101D9000704790F87C10012918D0012180F87C1040
:101DA0002421C0F8801050F8601B0A680B6823F0EB
:101DB00001030B6022F000510022426050F8603CA9
:101DC0001960202101620277104670470220704797
:101DD000704770B5044690F87C0001281DD00120A2
:101DE00084F87C002420C4F880002068056802681C
:101DF00022F0010202602068826822F060620A43D9
:101E00008260204601F060FC206805602020C4F854
:101E10008000002084F87C0070BD022070BD70B589
:101E2000044690F87C0001281DD0012084F87C0035
:101E30002420C4F8800020680568026822F00102AE
:101E400002602068826822F060420A438260204675
:101E500001F03AFC206805602020C4F880000020D2
:101E600084F87C0070BD022070BD704770477047D9
:101E70002DE9F04103680446D86919689A6840F66C
:101E80000F0528424FF0000509D186067ED501F0E6
:101E9000200602F080573E4378D0E16E9EE0624E0D
:101EA000624F16400F40374370D0C70709D0CF05A7
:101EB00007D501271F62D4F8883043F00103C4F826
:101EC000883083070AD5D30708D0276802233B62EE
:101ED000D4F8883043F00403C4F8883043070AD5A7
:101EE000D30708D0276804233B62D4F8883043F036
:101EF0000203C4F8883003070CD501F020033343F4
:101F000008D0266808233362D4F8883043F00803E9
:101F1000C4F8883003050BD54B0109D526684FF46A
:101F200000633362D4F8883043F02003C4F888306B
:101F3000D4F88830002B34D0800609D501F0200079
:101F400002F08051084303D0E16E09B12046884772
:101F5000D4F8880021688968490602D410F0280F57
:101F600021D0204601F080FC20688168490615D503
:101F7000816821F040018160A06F78B12C498163B4
:101F8000A06FFEF723FB00280BD000E011E0A06F4C
:101F9000816B00E02046BDE8F04108472046FFF78E
:101FA00066FFBDE8F0812046FFF761FFC4F8885066
:101FB000F7E7C60209D5560207D54FF4801018621C
:101FC0002046BDE8F041FFF751BF060609D501F0F4
:101FD000800602F40002164303D0216F0029D9D1F4
:101FE000DFE742060DD54A060BD51968204621F0D9
:101FF000400119602021C4F88010256700F0E8F83E
:10200000CFE7020206D54A0004D52046BDE8F041DC
:10201000FFF72BBFC001C4D50029C2DA2046BDE8B6
:10202000F041FFF7D5BE00000100001020010004C0
:102030005338000810B5040003D0D4F8800010B164
:1020400007E0012010BD002084F87C00204600F04D
:1020500027F82420C4F880002068016821F00101DD
:102060000160204601F012FC0128EBD0A06A10B1FB
:10207000204601F05BFB2068416821F490414160FB
:102080002068816821F02A0181602068016841F0A0
:10209000010101602046BDE8104001F0ABBB00002B
:1020A00010B586B0044614216846FEF7EBF81749D0
:1020B0002068884227D11648016E41F480410166AC
:1020C000016E01F480410591C16C41F00101C164D0
:1020D000C06C694600F0010005904FF4C0600090AC
:1020E00002200190002002900390072004904FF0FE
:1020F0009040FEF7B9FA002211462520FEF708FCB1
:102100002520FEF7F7FB06B010BD000000380140A7
:10211000001002402DE9F8430446D0F880001F4625
:1021200016460D46202851D1DDB1D6B194F87C0079
:1021300001284BD0012084F87C004FF00008C4F83F
:1021400088802120C4F880001834FEF77BFBA68726
:102150008146E68754F8100C183CB0F5805F03D038
:1021600004E00120BDE8F883206920B12E46002557
:1021700084F87C8010E00026FAE78021204601F0F8
:10218000C1FCB8B9C6B116F8010B21688862B4F871
:102190005600401EA4F85600B4F856004B464FF0C7
:1021A000000200970028E8D14FF04001204601F0DE
:1021B000A9FC30B10320D5E735F8020BC0F30800C5
:1021C000E3E72020C4F880000020CBE70220C9E725
:1021D0007047FEE700B585B014216846FEF752F857
:1021E000C0200090012001900290022003906946D7
:1021F0000248FEF739FA05B000BD000000040048AF
:1022000070B50824002501F00BF813E06806050EF0
:10221000002000F0EDFF142001F0B8FE142001F0C2
:10222000B5FE012000F0E4FF142001F0AFFE00F045
:10223000EBFF0543641EE4B2E8D2002000F0D8FFB3
:10224000142001F0A3FE01F00DF8284670BD70B512
:102250000446082516E000F0CBFF142001F096FE9E
:1022600004F0800000F0F2FF142001F08FFE600601
:10227000040E142001F08AFE012000F0B9FF1420A2
:1022800001F084FE6D1EEDB24FF00000E3D200F0CD
:10229000AFFFBDE87040142001F078BE10B50120FA
:1022A00000F0D4FF142001F071FE012000F0A0FF27
:1022B000142001F06BFE002000F0C8FF142001F094
:1022C00065FE002000F094FFBDE81040142001F0EE
:1022D0005DBE10B5002000F08BFF142001F056FE0B
:1022E000002000F0B3FF142001F050FE012000F0A8
:1022F0007FFF142001F04AFE012000F0A7FFBDE897
:102300001040142001F042BE10B5052400F088FFF3
:10231000142001F03BFE012000F06AFF142001F0C0
:1023200035FE05E0641EA4B2142001F02FFE6CB14E
:1023300000F06AFF0028F5D100F094FF002000F0C3
:1023400057FF142001F022FE002010BD00F08AFF8C
:10235000FFF7BFFF012010BD2DE9F041DFF8DC835E
:1023600001214046FEF764FA0327F54E0025F54C9F
:10237000002844D1A089401C80B2A08101283ED110
:102380002078022806D16178B1FBF7F207FB121121
:10239000491C617010B1012831D10AE0D6F89000D3
:1023A00020F40040C6F8900000F0EAFB0120207005
:1023B00025E0D6F8900040F40040C6F890000220D6
:1023C00001F02AF9E0482179002201706179417019
:1023D000A17981700146DD48FFF7BCF9A3796279E4
:1023E0002179DBA001F0E8FB2570A07A401CC1B286
:1023F000A172022001F0EEFD0520FEF723F9012174
:102400004046FEF715FA012800D1A5810221404679
:10241000FEF70EFA002855D1E089401C80B2E08119
:1024200001284FD12078012806D16178B1FBF7F25D
:1024300007FB1211491C6170C34F143710B10228F9
:1024400040D117E056F8900F20F40040306000F0C3
:102450009FFBBD4900234FF480721431BB48FEF747
:1024600083FF3878E07178782072B8786072022043
:10247000207027E0E07A401CE07256F8900F40F49C
:1024800000403060032001F0C7F8E0793870207A0E
:102490007870607AAC49B87000221431AB48FFF70D
:1024A00055F8637A227AE179B0A001F085FB2570B6
:1024B000E07A401CC1B2E172022001F08BFD0520E0
:1024C000FEF7C0F8022147464046FEF7B1F9012861
:1024D00000D1E58104213846FEF7AAF95F260028DD
:1024E0007ED1208A401C80B22082012847D12078EA
:1024F000012820D16078012804D002280AD00328BE
:1025000017D10FE02079401CC0B22071182810D1DB
:1025100025710EE06079401CC0B260713C2808D182
:10252000657106E0A079401CC0B2A0713C2800D1C2
:10253000A57100F0AFFE2078022820D16078012834
:1025400004D002280AD0032817D10FE0E079401CFC
:10255000C0B2E071182810D1E5710EE0207A401C5D
:10256000C0B220723C2808D1257206E0607A401C77
:10257000C0B260723C2800D16572FDF705FF208A69
:1025800064284BD12078012821D16078012804D01B
:1025900002280AD0032817D10FE02079401CC0B2CE
:1025A0002071182810D325710EE06079401CC0B24C
:1025B00060713C2808D3657106E0A079401CC0B268
:1025C000A0713C2800D3A57100F064FE268220781B
:1025D000022823D16078012806D002280CD000E020
:1025E0001CE0032817D10FE0E079401CC0B2E07175
:1025F000182810D1E5710EE0207A401CC0B220727C
:102600003C2808D1257206E0607A401CC0B2607296
:102610003C2800D16572FDF7B7FE268204213846BA
:10262000FEF706F9012800D125824FF090470121DD
:102630003846FEF7FDF880BB608A401C80B260829D
:10264000012836D12078012817D16078012804D0DC
:10265000022807D003280ED109E0207958B1401E86
:10266000207108E0607930B1401E607103E0A0790C
:1026700008B1401EA07100F00DFE2078022818D18C
:102680006078012804D0022808D003280FD10AE07E
:10269000E07960B1401EE07109E045E0207A30B198
:1026A000401E207203E0607A08B1401E6072FDF7A0
:1026B0006BFE608A642837D12078012818D16078B1
:1026C000012804D0022807D003280ED109E0207980
:1026D00058B1401E207108E0607930B1401E607131
:1026E00003E0A07908B1401EA07100F0D3FD66821E
:1026F0002078022818D16078012804D0022807D059
:1027000003280ED109E0E07958B1401EE07108E0DD
:10271000207A30B1401E207203E0607A08B1401E7A
:102720006072FDF731FE668201213846FEF780F8BF
:10273000012800D16582BDE8F08100000004004856
:1027400000100240D611002008120020581200206C
:102750004E6577205254433A253032643A25303260
:10276000643A253032640D0A000000004E6577207F
:10277000416C61726D3A253032643A253032643AE8
:10278000253032640D0A000000B585B0142168467A
:10279000FDF778FD4FF6FF70009000200321CDE992
:1027A0000201019069460248FDF75EFF05B000BDD9
:1027B0000008004800B585B014216846FDF762FDA9
:1027C0004FF6FF700090012001900320039000203D
:1027D000029069460248FDF747FF05B000BD0000C2
:1027E0000008004870B5002406462146204600F047
:1027F00003F900F045F94FF49635304600F010F932
:10280000641CAC42F9D370BD30B587B01421684662
:10281000FDF738FD1E48C16C41F00401C164C16C74
:1028200001F004010591C16C41F00101C164C16C6A
:1028300001F001010591C16C41F00201C164C06C5D
:10284000012500F0020005904FF44870CDE9000525
:1028500000240394694602940E48FDF705FF280200
:1028600003940090CDE901544FF09044694620460E
:10287000FDF7FAFEFFF79EFFA06940F48070A061AB
:1028800004481830016841F40871016007B030BD98
:102890000010024000040048203AD2B2034B02EB81
:1028A000420203EB021200F019B8000006000020FB
:1028B000F0B50E460746002540F23F1407E02146DA
:1028C0003846FFF7E9FF103C6D1CA4B2761C327845
:1028D000002A01D0142DF2D3F0BD00002DE9F047FD
:1028E00091468A460026044600F086F8DFF84080CC
:1028F000012700BF00F0C4F85FF0000539F81600AA
:1029000007FA05F10842404601D1408800E00088FE
:1029100000F086F86D1C102DF0D3641CE4B2514613
:10292000204600F069F8761C182EE3D3BDE8F08746
:102930000000002010B5FFF767FF002000F014F83A
:10294000084CA080A088A0F50241303906D000F0E4
:10295000E7FA002000F008F8A08010BD00F057FA58
:10296000F7E700000000002070B51D490A6842F436
:1029700000720A600A6842F480720A60184C103CC7
:10298000226842F020022260164A1060086840F077
:102990002000086000BF00BF00BF206840F020009A
:1029A0002060206840F480702060FFF7EDFE4FF05B
:1029B0009041886A40F48070886200BF00BF00BF09
:1029C0000848001F006885B2886940F480708861FB
:1029D000FFF7F0FE206840F400702060284670BDCC
:1029E000280400481408004801B5BDF8000001495A
:1029F000488008BD0000002010B50C46014620208C
:102A000000F070F82146BDE81040212000F06AB8BF
:102A100001B5BDF800000149088008BD0000002094
:102A200030B5154B1968154A8CB2116841F4007124
:102A30001160124910390D6845F480750D600D68FC
:102A400045F020050D601860106840F0200010600F
:102A500000BF00BF00BF086840F0200008600868A1
:102A600040F48070086000BF00BF00BF086840F4F9
:102A7000007008601C6030BD14080048280400483D
:102A8000164A10B51068164983B2086840F4007001
:102A90000860086840F480700860114810380468C5
:102AA00044F020040460222414600C6844F02004E4
:102AB0000C6000BF00BF00BF016841F02001016051
:102AC000016841F48071016000BF00BF00BF016870
:102AD00041F400710160136010BD0000140800484B
:102AE0002804004870B51A4C22681A4B95B21A682F
:102AF00042F400721A601A6842F480721A60154A31
:102B0000103A166846F0200616602060186840F0FB
:102B10002000186000BF00BF00BF106840F0200018
:102B20001060106840F4807010602160186840F0F8
:102B30002000186000BF00BF00BF106840F02000F8
:102B40001060106840F480701060256070BD000057
:102B5000140800482804004810B5084CE078002804
:102B60004FF0010002D000F091FD01E000F054FDB3
:102B7000E07880F00100E07010BD0000D611002068
:102B800010B500F067FDBDE81040022000F07EBDEA
:102B900010B500F05FFDBDE81040032000F076BDE9
:102BA000F0B587B014216846FDF76CFB2D48C16C69
:102BB00041F00401C164C16C01F004010591C16CD4
:102BC00041F02001C164C16C01F020010591C16C8C
:102BD00041F00101C164C16C01F001010591C16CBA
:102BE00041F00201C164C16C01F002010591C16CA8
:102BF00041F00801C164C06C1B4E00F00800059054
:102C0000002204213046FDF718FE184F0022C02193
:102C10003846FDF712FE00240125CDE9005469462F
:102C20004FF090400294FDF71FFD0720CDE900040E
:102C3000694638460294FDF717FD04200090CDE95F
:102C40000154694630460394FDF70EFDC020009004
:102C5000CDE90154694638460394FDF705FD07B0F8
:102C6000F0BD000000100240000C004800040048C5
:102C700030B591B014210AA8FDF704FB00242821E7
:102C800068460F94FDF7FEFA2A482949C0E9001466
:102C90007F218160FF21C0E903144FF0804144612E
:102CA000C0E906410462FEF7F7FB08B1FDF78CFCB2
:102CB00011208DF8280059208DF8290050208DF81A
:102CC0002A000B940D9401220AA91A480E94FEF7CB
:102CD00041FD08B1FDF778FC01258DF83C508DF8D9
:102CE0003D508DF83E508DF83F402A460FA91148BF
:102CF000FEF7DCFC08B1FDF767FC12208DF8000040
:102D00008DF801404FF480708DF8024001940990D5
:102D10000594069407948DF82050012269460548D1
:102D2000FEF714FC002801D0FDF74EFC11B030BDB9
:102D3000002800405812002010B588B00024174821
:102D40000094019402940394049405941249069407
:102D500001604F21C0E9011440F2E731C0E90314DA
:102D60008461FEF7E2FD08B1FDF72EFC4FF48050C0
:102D7000009069460948FEF763FE08B1FDF724FCA0
:102D8000049404A905480694FEF780FD002801D0AC
:102D9000FDF71AFC08B010BD0008004080120020AA
:102DA000184810B5164901604FF4165141600021D2
:102DB00081600C22C160C0E904128161C1610162BD
:102DC00041628162FFF736F908B1FDF7FDFB002192
:102DD0000C48FFF724F808B1FDF7F6FB002109487D
:102DE000FEF7F7FF08B1FDF7EFFB0648FEF7D1FF4E
:102DF000002803D0BDE81040FDF7E6BB10BD000081
:102E000000380140CC120020FEE7FEE7704730B5E5
:102E100001210020FFF766FE4FF47A70FDF770FB8A
:102E200000210120FFF75EFE41F290711020FFF7B4
:102E300059FE4FF41C516020FFF754FE0121612020
:102E4000FFF750FE02214620FFF74CFE48F210012A
:102E50001320FFF747FE48F2FE011220FFF742FE63
:102E60004FF4A0610220FFF73DFE41F23001032044
:102E7000FFF738FE40F2033421463020FFF732FEE0
:102E800021463120FFF72EFE21463220FFF72AFE91
:102E9000E51E29463320FFF725FE03213420FFF7E6
:102EA00021FE21463520FFF71DFE14213620FFF7B5
:102EB00019FE21463720FFF715FE21463820FFF77F
:102EC00011FE21463920FFF70DFE29463A20FFF773
:102ED00009FE03213B20FFF705FE21463C20FFF7BA
:102EE00001FE4FF4A0513D20FFF7FCFD4FF40071AF
:102EF0009220FFF7F7FD21469320FFF7F3FD40F600
:102F00000D019020FFF7EEFD41F218010320FFF7BD
:102F1000E9FDBDE8304040F273110720FFF7E2BD44
:102F200010B543F20801E320FFF7DCFD1221E72092
:102F3000FFF7D8FD41F23121EF20FFF7D3FD00214B
:102F40000120FFF7CFFD4FF4E0610220FFF7CAFD3B
:102F500041F230010320FFF7C5FD00210420FFF7F7
:102F6000C1FD40F207210820FFF7BCFD0021092028
:102F7000FFF7B8FD00210A20FFF7B4FD00210C2067
:102F8000FFF7B0FD00210D20FFF7ACFD00210F2061
:102F9000FFF7A8FD00211020FFF7A4FD0721112055
:102FA000FFF7A0FD00211220FFF79CFD0021132058
:102FB000FFF798FDC820FDF745FB41F29061102016
:102FC000FFF790FD40F227211120FFF78BFD322003
:102FD000FDF738FB1D211220FFF784FD3220FDF79D
:102FE00031FB4FF400611320FFF77CFD14212920F1
:102FF000FFF778FD0B212B20FFF774FD3220FDF742
:1030000021FB00212020FFF76DFD00212120FFF78B
:1030100069FD07213020FFF765FD40F2077131207F
:10302000FFF760FD06213220FFF75CFD40F20471DE
:103030003520FFF757FD41F604713620FFF752FDAA
:1030400004213720FFF74EFD00213820FFF74AFD0D
:1030500040F206713920FFF745FD40F201713C2036
:10306000FFF740FD0F213D20FFF73CFD00215020E0
:10307000FFF738FDEF215120FFF734FD00215220EA
:10308000FFF730FD40F23F115320FFF72BFD4FF4C7
:103090001C516020FFF726FD01216120FFF722FD72
:1030A00000216A20FFF71EFD00218020FFF71AFD96
:1030B00000218120FFF716FD00218220FFF712FD7D
:1030C00000218320FFF70EFD00218420FFF70AFD79
:1030D00000218520FFF706FD10219020FFF702FD5B
:1030E00000219220FFF7FEFC03219320FFF7FAFC5A
:1030F0004FF488719520FFF7F5FC00219720FFF72A
:10310000F1FC00219820FFF7EDFC41F218010320AB
:10311000FFF7E8FCBDE8104040F273110720FFF70D
:10312000E1BC010901EB810100F00F0000EB41005F
:10313000C0B270470022014602E00A39C9B2521CEF
:103140000A29FAD2100741EA106070472DE9F047CA
:10315000104C814600252068400618D4206840F0B5
:1031600080002060FDF76EFB06464FF47A78032757
:1031700008E000BFFDF766FB801B404502D9032530
:1031800089F825702068400601D4032DF2D1284625
:10319000BDE8F0870C2800402DE9F04106461348B1
:1031A0000025016821F080010160104C0C3420687A
:1031B0004FF00307800607D43046FEF733FB90B18B
:1031C00086F8257003250EE0206820F0200020609E
:1031D0003046FEF727FB10B186F8257003252068DE
:1031E00040F0200020602846BDE8F0810C28004017
:1031F00008B1044801E003481030016841F0400183
:10320000016070471804004810B580210348FDF79D
:103210000FFB012800D0002010BD00000004004872
:1032200000B585B014216846FDF72CF88020009089
:10323000002001900120029002200390694602487C
:10324000FDF712FA05B000BD0004004808B10448BB
:1032500001E003481030016841F0800101607047CF
:103260001804004800B585B014216846FDF70AF837
:1032700080200090112001900020029002200390F5
:1032800069460248FDF7F0F905B000BD00040048AA
:103290007047000070B563A11820FFF709FB674D68
:1032A0000A244FF478466878012847D0022874D061
:1032B000032871D10020FFF7ABFB2879BF21B0FBB9
:1032C000F4F03030C2B24820FFF7E6FA2879B0FBBC
:1032D000F4F104FB1102AF2148203032FFF7DCFA91
:1032E00068798F21B0FBF4F03030C2B24820FFF78C
:1032F000D3FA6879B0FBF4F104FB11027F21482076
:103300003032FFF7C9FA3046FFF782FBA8795F2118
:10331000B0FBF4F03030C2B24820FFF7BDFAA87914
:10332000B0FBF4F104FB11024F2148203032FFF7CB
:10333000B3FABDE870400020FFF76ABB3046FFF7E4
:1033400067FB2879BF21B0FBF4F03030C2B24820CF
:10335000FFF7A2FA2879B0FBF4F104FB1102AF21C8
:1033600048203032FFF798FA0020FFF751FB6879C8
:103370008F21B0FBF4F03030C2B24820FFF78CFA56
:103380006879B0FBF4F104FB11027F214820303250
:10339000FFF782FA30E000E043E00020FFF738FB5F
:1033A0002879BF21B0FBF4F03030C2B24820FFF7DB
:1033B00073FA2879B0FBF4F104FB1102AF21482025
:1033C0003032FFF769FA3046FFF722FB68798F2128
:1033D000B0FBF4F03030C2B24820FFF75DFA6879F4
:1033E000B0FBF4F104FB11027F2148203032FFF7DB
:1033F00053FA0020FFF70CFBA8795F21B0FBF4F033
:103400003030C2B24820FFF747FAA879B0FBF4F198
:1034100004FB1102BDE870404F2148203032FFF715
:103420003BBA70BD202020205254432D53455454A4
:10343000494E47202020202020202000D6110020A7
:10344000FDF706BA30B5A5B038216846FCF71AFF7B
:1034500014211FA8FCF716FF44210EA8FCF712FF49
:103460004FF400752846FDF785FA09200090E80121
:1034700001900120059002210324CDE907141420B6
:10348000CDE90A0109940C9168460D91FDF766FD9E
:1034900008B172B6FEE70F20CDE91F040024219485
:1034A000229402211FA82394FDF70EFC08B172B6E6
:1034B000FEE706481E95CDE90E040EA8FDF7C0FAFA
:1034C000002801D072B6FEE725B030BD010008002B
:1034D0000548016841F47001016003494FF0006044
:1034E000803908607047000088ED00E00148FEF771
:1034F00024BB0000801200202DE9F0430268234B1A
:10350000234D244E244C4FF08049984207D0484523
:1035100005D0A84203D0B04201D0A04203D122F08E
:1035200070074A683A431D4FDFF874C0DFF87480B3
:1035300098420DD048450BD0A84209D0B04207D0E0
:10354000A04205D0B84203D0604501D0404503D128
:1035500022F44075CA682A434D6922F080022A434A
:1035600002608A68C2620A688262984207D0A042FA
:1035700005D0B84203D0604501D0404501D109696A
:10358000016301214161BDE8F0830000002C01408E
:1035900000040040000800400034014000400140A9
:1035A000004401400048014010B5846842EA03220B
:1035B00024F47F440A432243826010BD8268034B97
:1035C0001A400A4342F00701816070478FFFCFFF26
:1035D00010B5036A046A24F001040462846924F0CB
:1035E000F00444EA021423F00A020A4384610262EE
:1035F00010BD10B5036A23F0100303628369046AE7
:1036000023F4704343EA023224F0A00343EA011199
:103610008261016210BD000070B50B4C0121C01D1C
:103620008140208B094D014321830122042128463A
:10363000FDF703F90649208B08602846BDE8704075
:1036400000220421FDF7F9B8D6110020000C004833
:103650001408004870B50A4C0A4D0122208B042141
:1036600040F47F4020832846FDF7E7F80649208B89
:1036700008602846BDE8704000220421FDF7DDB84F
:10368000D6110020000C00481408004870B50B4CFF
:103690000121C01D8140208B094D884320830122D8
:1036A00004212846FDF7C9F80649208B0860284602
:1036B000BDE8704000220421FDF7BFB8D6110020FC
:1036C000000C0048140800483FB514A1D1E90021BE
:1036D000CDE9002113A2D2E90012CDE90212416E18
:1036E000B9B1026891689268C1F34261520F1DF846
:1036F0000240E50002ACA25CB5FBF2F2A0F86A2041
:103700001DF80120615CD200B2FBF1F1A0F8681055
:103710003FBD0121A0F86A10F8E700000101010394
:1037200007010000080402040801010190F82810B4
:10373000C90706D001684A68C36A22F400321A43F6
:103740004A6090F82810890706D501684A68036B1B
:1037500022F480321A434A6090F82810490706D5AF
:1037600001684A68436B22F480221A434A6090F849
:103770002810090706D501684A68836B22F40042C5
:103780001A434A6090F82810C90606D501688A686D
:10379000C36B22F480521A438A6090F8281089067D
:1037A00006D501688A68036C22F400521A438A60C5
:1037B00090F82810490611D501684A68436C22F434
:1037C00080121A434A60416CB1F5801F06D101682E
:1037D0004A68836C22F4C0021A434A6090F82810A9
:1037E000090606D501684A68C06C22F4002202432B
:1037F0004A607047F8B500260446C0F88860FDF7B7
:1038000021F80546206800686FF07E47000708D55C
:103810002B4600224FF400112046009700F072F969
:1038200060B92068006840070AD52B4600224FF493
:1038300080012046009700F065F908B10320F8BD2B
:103840002020C4F88000C4F8840084F87C60002044
:10385000F8BD10B5806A0021A0F85E10A0F85610DF
:10386000FEF705FB10BD000001680A6822F49072A3
:103870000A6001688A68044B1A408A602021C0F8F7
:1038800084100021C1667047FEFFFFEF2DE9F04173
:103890000446026880682169E3690843616900257C
:1038A00019430843616EDFF830C2014310688B4B47
:1038B00018400843106020684168E26821F44051D4
:1038C000114341602168A069614501D0226A10431B
:1038D0008A68834B1A4002438A602068C16A626A20
:1038E00021F00F011143C1627E4923687E488B425B
:1038F0000DD1D0F8880010F0030006D0012855D073
:10390000022842D003283FD152E001203DE0774910
:103910008B420BD1D0F8880010F00C0035D0042871
:1039200033D0082840D00C282ED141E070498B427A
:103930000BD1D0F8880010F0300026D0102835D0F8
:10394000202831D030281FD132E06A498B420BD178
:10395000D0F8880010F0C00017D0402826D080286A
:1039600022D0C02810D123E063450DD1D0F88800C3
:1039700010F4406009D0B0F5806F17D0B0F5006F3B
:1039800012D0B0F5406F13D010205B495B4F00267A
:103990004FF40042634539D160B1022813D00428A6
:1039A0000BD0082831D10DE00220EEE70420ECE72F
:1039B0000820EAE7FDF776FA01E0FDF797FA010043
:1039C00001D17EE01146606A37F810206768B1FBCC
:1039D000F2F007EB470383426FD8B0EB073F6CD898
:1039E000002308461946FCF715FC090241EA10615C
:1039F00002027808101871413A460023FCF70AFCCD
:103A00003F4AA0F54071914259D956E0E3694FF61B
:103A1000EF7893422DD109284FD2DFE800F0050856
:103A2000114E0D4E4E4E1000FDF73CFA01E0FDF731
:103A30004BFA010004D144E0FDF758FAF9E71146CA
:103A4000606A37F81000B1FBF0F04100606801EBEC
:103A50005001B1FBF0F080B2A0F1100141452CD82B
:103A60004FF6F0710140C0F3420001432068C1608D
:103A700027E0092821D2DFE800F0050811200D20F9
:103A800020201000FDF70EFA01E0FDF71DFA0100FD
:103A900004D116E0FDF72AFAF9E71146606A37F813
:103AA0001000B1FBF0F1606801EB5001B1FBF0F0E8
:103AB00080B2A0F11001414501D9012501E0216842
:103AC000C8600120A4F86A0024F8680F28466660E0
:103AD000A660BDE8F081000000800040F369FFCFE0
:103AE000FFF4FF1100380140001002400044004084
:103AF00000480040004C00400024F4008C400008C6
:103B0000FFFC0F002DE9F0479A4617460E46044683
:103B10004FF000094FF02008089D39E0681C37D0AD
:103B2000FCF790FEA0EB0A00A84222D80DB3206853
:103B3000016849072CD5C069C043000528D4216815
:103B40004FF4006008622068016821F4D0710160C0
:103B50002068816821F001018160C4F88080C4F888
:103B60008480C4F8888000BF84F87C900320BDE87E
:103B7000F0872068016821F4D071016020688168B5
:103B800021F001018160C4F88080C4F88480EBE7F3
:103B90002068C06936EA000004D00020B842BDD0D9
:103BA0000020E4E70120F9E70148FEF761B90000D1
:103BB000CC120020FEE700000FB4054B10B503A99E
:103BC000044A029800F03CF810BC5DF814FB0000B9
:103BD00005400008041200200FB4084B10B504A9DA
:103BE00002AA039800F02CF8044602A9002000F075
:103BF000C8F9204610BC5DF814FB0000833F0008A4
:103C00000907090E002804DB00F1E02080F8001409
:103C1000704700F00F0000F1E02080F8141D70479D
:103C200002E008C8121F08C1002AFAD17047704785
:103C3000002001E001C1121F002AFBD170470000E3
:103C40002DE9FF4F8BB088460546002606E0252863
:103C50000BD0DDE90D1290476D1C761C28780028EA
:103C6000F5D10FB03046BDE8F08F0024A146A24642
:103C70000122AE4900E0044315F8013F203B02FA5F
:103C800003F00842F7D128782A2810D06FF02F02CD
:103C90002878A0F13001092915D809EB890102EB38
:103CA000410144F0020400EB01096D1CF0E758F8F3
:103CB000041B5FEA010903D544F40054C9F100096B
:103CC00044F002046D1C28782E2817D115F8010F36
:103CD00044F004042A280ED06FF02F022878A0F1B7
:103CE000300109290AD80AEB8A0102EB410100EBF5
:103CF000010A6D1CF2E758F804AB6D1C28786C289B
:103D00000FD006DC4C2817D068280DD06A2814D1B3
:103D100004E0742810D07A280FD10DE044F4001488
:103D20000AE044F4801401E044F4401469788142CC
:103D300002D104F580146D1C6D1C2878692865D0AB
:103D400006DC00288DD0632827D0642806D15DE0EA
:103D50006E2808D073282AD0752877D0DDE90D1297
:103D60009047761CE0E0C4F30250022809D00328F3
:103D70000DD0D8F8001004280DD00E6008F104080A
:103D8000D2E0D8F80010F217C1E90062F6E7D8F8DF
:103D900000100E80F2E70E70F0E718F8041B8DF8A3
:103DA000001000208DF80100EB46012003E058F8D8
:103DB00004BB4FF0FF3061074FF0000701D40AE069
:103DC0007F1C57450DDA8742FADB1BF807100029E4
:103DD000F6D106E07F1C8742FCDB1BF807100029A8
:103DE000F8D1DDE90D23A9EB07008146214600F05B
:103DF000B1F83044C61904E0DDE90D121BF8010BDF
:103E000090477F1EF8D22146484688E058F8040BB8
:103E1000C4F302514FF00A0B032900D100B2042968
:103E200000D140B2002802DA40422D2102E02105F3
:103E300005D52B218DF82410012104E006E0E107CF
:103E400010D02021F6E708AF089113E058F8040BD2
:103E5000C4F302514FF00A0B032900D180B20429A8
:103E600000D1C0B20021EEE75946FCF716FA303116
:103E700007F8011D0028F7D1ADEB070000F1200B7A
:103E8000600702D524F4803401E04FF0010ADA45DE
:103E900002DDAAEB0B0000E00020824600EB0B01E4
:103EA00008980144A9EB01000A90E00306D4DDE97B
:103EB0000D2321460A9800F04DF806444FF0000902
:103EC00008E009A911F80900DDE90D12904709F190
:103ED0000109761C08998945F3DBE0030CD5DDE97F
:103EE0000D2321460A9800F035F8064404E0DDE988
:103EF0000D1230209047761CBAF10001AAF1010A98
:103F0000F5DC05E0DDE90D1217F8010B9047761C92
:103F1000BBF10001ABF1010BF4DC0A982146DDE9AD
:103F20000D2300F005F806446D1C97E609280100F2
:103F30002DE9F041044600251E461746880404D4A6
:103F400005E039462020B0476D1C641EF9D528468F
:103F5000BDE8F0812DE9F041044600251E4690465B
:103F6000C80301D5302700E02027880404D505E0E8
:103F700041463846B0476D1C641EF9D52846BDE859
:103F8000F0810A68531C0B6010707047002100E03C
:103F9000491C8142FCD3704710B50446FEF77EF9F8
:103FA000A020FEF754F9FEF7AFF92046FEF74FF9CF
:103FB000FEF7AAF9FEF772F9A120FEF748F9FEF71D
:103FC000A3F9FEF71DF90446FEF79EF9FEF781F905
:103FD000204610BD70B50D460446FEF75FF9A020DF
:103FE000FEF735F9FEF790F92046FEF730F9FEF7B7
:103FF0008BF92846FEF72BF9FEF786F9BDE87040ED
:10400000FEF767B913B54FF0FF3301226946024846
:10401000FEF780F800981CBDCC120020FCF720FCB5
:10402000FFF710FAFEF7BCFDFEF722FEFEF784FE56
:10403000FEF7B6FEFEF7CEF8FEF77CFC4FF6FF74F7
:104040002046FEF7CFFB2046FEF7CEFC0020FEF711
:10405000DFFC0120FFF7A0FF0A4CE0720220FFF70F
:104060009BFFA072FFF7F6FA0748FDF7ADFC0025AD
:10407000FCF754FAA0780028FAD0A570FEF76CF986
:10408000F6E70000D6110020801200200100020097
:104090000400060008000A000C0010002000400088
:1040A0008000000100000000000000000102030485
:1040B000060708090000000001020304DC400008B4
:1040C0000000002008120000280300086C470008C8
:1040D0000812002050050000303C000800063100A6
:1040E00000FFFF00010316800102611EE13292CC45
:1040F00002012A6A23600C02200F30063006FE1FE0
:10410000FE1F3006380718030A2007180318038C0F
:1041100001023172201700E003F80F9C0E8C1C8CFA
:10412000188C009800F801E007800E800E100B1824
:104130009C18B80CF00FE0038026A15A10090E1845
:104140001B0C110C11060210110311039B018E01AF
:10415000C038C06C60446044300260071844186C7A
:104160000C38BE1005E001F0037A10140618063072
:1041700003F001F000F8009C310E33061E061C020D
:10418000E0063FFC73F021B8920C020121E7100B0E
:104190000200038001C000C0006002D2300221147E
:1041A000211C155E12032A151632201235701203D7
:1041B00002D20602111425A2214ED62088214810D1
:1041C00008D806F807E00130D2052AEAC405FC3F0A
:1041D000FC3FE8092C30120002021B806C080532FB
:1041E000E007E0078E41D6F57F750C155C3510456C
:1041F000624564D17AE00A03F007380E180C0C18F7
:1042000002D409180C380EF007E003B0214C0C075B
:104210001901F0019801880803A16043F80F5E229C
:104220000002219C35F025ECD0071800FC1FFC1F74
:1042300090100701F807180E0C0121C81805C003DB
:10424000C00751113C41920210F8904C0B0C000E2B
:10425000000F000F800DC03003116B270C0CB2094A
:10426000148513F80F9031893009EC03FC071C0EFC
:10427000001C98115E0005101C0C180E602009C06F
:1042800007F00F381C1818325409CC03EC0F3C0E01
:104290001C1C2006121C2031D24582357C16C07AA7
:1042A0003AE0C85A70DE051480215384073806F0BE
:1042B00007F0078CE005380CF80F604130521C24E1
:1042C00030091C1C381EF81BE019D1130C1CC00B44
:1042D0001BF0018A012114011F30091ACE1C0510A0
:1042E000001C80720416F8DC1AF85C17800F600A54
:1042F0001810F8C3F81F080D1E1405180708003819
:1043000000F00114121F61161F9C130138140917C5
:1043100070796E6D2603FD2E033D7C03400C18184A
:104320000420C229224A11440902EC0C221113E292
:104330000C024004201818980315D4200403C0066A
:1043400002396E2218022C07F83FF83F1C70AF05A7
:104350002119D9106C0503FC0F0C5E0310040CFC32
:10436000070E1A18A541021E180003FA0770BC0AAE
:104370001F38381C300C700660DD04E008600C70DB
:104380001C30F01F903C08FE03FE0F060E06A10530
:10439000B1022DB305E8050EFE0FFEA01DCC048D65
:1043A000A20529AEADB0053D3803C5A211DC4DBB59
:1043B000032D27038005F81FF81F0E4DD303DDCA18
:1043C000043C0C0FF83F3C780E6006E007C0810407
:1043D00011A11DC5031533DC090EC03CF0F83FE008
:1043E0000FBF03A23002319EB1120F260C3080079E
:1043F0000D15A005021406022531DC063807F0036E
:10440000E0B004353A10140C060606038601C60017
:1044100066007600DE008E01060312360C64DD4174
:1044200005021B18022530CD210320050EE01EF0E9
:10443000024336D8022366CC0252C601E40586C385
:1044400086C32010041C303C02126C0212CC0210F5
:10445000058C310C3302123602123C02E638201C65
:1044600005E007F81F9904193EA303C002F80806E7
:10447000600E701C38F8401BFC0F02CA38920E19EF
:104480000CC407916082E05E140907E006630E3FEA
:104490001C3CE0CEF79106198258041F06389C1E7A
:1044A00038C00876074C49B20E106030065DDE0455
:1044B0001D9B051BF80330331E00401C050E301CED
:1044C0001C1005ED000308042A7FFE7F10E95EA999
:1044D0007E0710181820430360BC6D14072D1607C3
:1044E0002D9409140570076003631DE005E1302376
:1044F000C3610283663302236C1B02CC092C1A3C75
:104500001E380E380E31051C090FE00C70183030C3
:10451000183F043C040EC0075E04140503E0067057
:10452000F71D8107D006300E6007E0602D79044C3E
:1045300008301C383818300C65030D1C80075C05EA
:10454000FC7FFC7F6D07DD7C072D2708253EED10E5
:10455000082FE003AE06011E0221282DA60A6DA633
:10456000094DA8091D64096D0E0B7E03A009F160B9
:104570000221000261601D82071D4407256C3F6017
:1045800003D7042919013901CFFFFFF80B0D2DAE18
:104590000A9D4A081805F003F807AA2C070C000F1B
:1045A000F00FF8B1081F0C1C5C080F16F01820045F
:1045B0001ED8A80B1E38370881012DE0070F17D829
:1045C00003DA091D9A096F300E39092DA3081E3030
:1045D0009009EEC00009711F2805C01BF01F36812D
:1045E00060000719301CF01FC01B601E0F83066E91
:1045F00018D4051952EC051CF00FC0F00644040F46
:10460000C00FDA2D9C0855E4B1020D17D40A1E0D17
:10461000FA093DCA0961011D600924050FE00D007A
:104620002A6E06AA0895204F07F86A09D1010D16CF
:10463000F00A0215C002012E3041DEEC04F80078C9
:10464000BE0C1C050C0C060C6A0D100DCC006C0089
:10465000FC009C018C030C03120E100C560C011C68
:10466000020D169009E0097C3CFF7EC7E383C1027E
:104670000D16EA0B062398200510E099101D0E0E6A
:104680000A17C0700916A00D16EA070917700D1554
:104690001B081EB06E07FE70E20D0E1830140D1EC2
:1046A000037A0E1D1A0B1DF2093D060C0D15900C18
:1046B0001D020F0919A00F170780EA0D09106A12D1
:1046C00038C01D4C0B0D15DB0A4DFE053E18920F30
:1046D0001DB7060E140300068DF80F3008C141C146
:1046E00041C3616301323601321C010D16F00F3EE9
:1046F0001CF70952605A1D5E061D75061E38E10B37
:104700000117C01D36061D38062E1828102FE00C84
:10471000940A2D3E064DF00D1DA20D1D700C0D15B9
:104720009A0C0D1B800D8D300B8D320E2DE205BACB
:1047300040D63D900F0D259009CD22119E60240694
:104740009DC60FB3030048FEC0A80E5D74050C069D
:104750001910F81F080F4E100F190101A00F2D8915
:0C4760000C7D1F073F24F44706000000FA
:04000005080001D915
:00000001FF
