:020000040800F2
:1000000040160020F1010008B31800081B13000877
:10001000B1180008E7020008731D00080000000086
:10002000000000000000000000000000CB1B0008E2
:10003000E902000800000000B5180008CD1B000808
:100040000B0200080B0200080B0200080B0200085C
:100050000B0200080B0200080B0200080B0200084C
:100060000B0200080B0200080B0200080B0200083C
:100070000B0200080B0200080B0200080B0200082C
:100080000B020008000000000B0200080B02000831
:100090000B0200080B0200080B0200080B0200080C
:1000A0000B0200080B0200080B0200080B020008FC
:1000B0000B0200080B020008491C00080B02000894
:1000C0000B0200080B0200080B0200080B020008DC
:1000D0000B0200080B0200080B0200080B020008CC
:1000E0000B0200080B0200080B0200080B020008BC
:1000F0000B0200080B0200080B02000800000000C1
:10010000000000000B020008000000000B020008C5
:100110000B020008000000000B0200080B020008A0
:100120000B0200080B0200080B0200080B0200087B
:100130000B02000800000000000000000B02000895
:100140000B0200080B020008000000000000000085
:10015000000000000000000000000000000000009F
:100160000000000000000000000000000B0200087A
:100170000B0200080000000000000000000000006A
:10018000000000000B02000800000000000000005A
:10019000000000000000000000000000000000005F
:1001A00000000000000000000B0200080B02000825
:1001B0000B0200080B0200080B0200080000000000
:1001C000000000000B02000800000000000000001A
:1001D0000B0200080B020008DFF810D000F042F814
:1001E000004800473D1F0008AFF300804016002084
:1001F0000648804706480047FEE7FEE7FEE7FEE7C1
:10020000FEE7FEE7FEE7FEE7FEE7FEE7391C000833
:10021000D9010008D2B201E000F8012B491EFBD23F
:1002200070470022F6E710B513460A460446194601
:10023000FFF7F0FF204610BD30B50B460146002009
:100240002022012409E021FA02F59D4205D303FA98
:1002500002F5491B04FA02F52844151EA2F1010219
:10026000F1DC30BD064C074D06E0E06840F00103CC
:1002700094E8070098471034AC42F6D3FFF7B0FF7C
:10028000A81F0008C81F000870B58D1810F8014B92
:1002900014F0030201D110F8012B231106D110F83C
:1002A000013B03E010F8016B01F8016B521EF9D11C
:1002B000ABB110F8012B04F00C048A1A0C2C03D0FB
:1002C000A2EB84129B1C08E010F8014BA2EB042265
:1002D000F8E712F8014B01F8014B5B1EF9D5A94272
:1002E000D4D3002070BDFEE77047002240F6B8333B
:1002F00006E00021491C89B29942FBD3521C92B2FC
:100300008242F6D37047000010B5134C88B013A199
:10031000A278684601F02EFD6946002001F0BEF883
:10032000E27813A1684601F025FD6946302001F00E
:10033000B5F8227912A1684601F01CFD69466020DB
:1003400001F0ACF813A1684601F014FD6946C02025
:1003500001F0A4F808B010BD000000202020536870
:100360006F727420436C69636B3A2564000000006F
:1003700020204C6F6E6720436C69636B3A256400E4
:100380002020446F75626C6520436C69636B3A256D
:100390006400000020202020204231202020202046
:1003A0002020000070B5044600F0FCF80546601CF3
:1003B00002D004484068044400F0F4F8401BA04216
:1003C000FAD370BDE01100202DE9FC4FDFF8A0A1A9
:1003D000002301250AF1040B03244FF00F0C0BF14D
:1003E000040EBDE005FA03F632406FD04F68012FCE
:1003F00005D0022F03D0112F01D0122F17D1D0F822
:1004000008905F0004FA07F829EA08090097D1F874
:100410000C8008FA07F848EA0908C0F8088047681D
:10042000B7430E79C6F300169E403E434660C66849
:100430004FEA430804FA08F7BE4301978F6807FAAA
:1004400008F73743C7604E68022E01D0122E13D131
:10045000DE0800EB86060096366A5F07FF0E0CFA90
:1004600007F926EA0906D1F8109009FA07F949EACE
:100470000609009EC6F820900668019FBE430F79CA
:1004800007F0030707FA08F7374307604E68F600DE
:1004900065D5384E376E47F001073766366E23F064
:1004A000030706F001060096334E3E44B146B66897
:1004B0009F074FEA17780CFA08F7BE43B0F1904F48
:1004C00005D02E4FB84204D1012717E047E000279E
:1004D00014E02B4FB84201D102270FE0294FB84258
:1004E00001D103270AE0284FB84201D1042705E0D3
:1004F000264FB84201D1052700E0062707FA08F782
:100500003743C9F80870DAF800605746D1F804801C
:1005100096435FEAC83800D516433E60DBF80060BA
:100520005F46D1F8048096435FEA883800D51643C9
:100530003E60DEF800607746D1F8048096435FEABB
:10054000C82800D516433E60094F0C373E68D1F8E5
:10055000048096435FEA882800D516433E605B1C02
:100560000A6832FA03F67FF43DAFBDE8FC8F000065
:100570000004014000100240000001400004004857
:1005800000080048000C0048001000480014004813
:100590000069084000D0012070470AB181617047AE
:1005A000816270470148806870470000E0110020B8
:1005B000024881684268114481607047E011002060
:1005C00010B50024032000F073F8002000F008F8B4
:1005D00008B1012401E000F025F8204610BD00001C
:1005E00070B50E4E05460024706898B14FF47A71CC
:1005F000B1FBF0F00A490968B1FBF0F000F0FCFB38
:1006000040B9102D06D200222946501E00F030F8C5
:10061000356000E00124204670BD0000E01100209C
:10062000EC1100200A4882B0016E41F00101016620
:10063000016E01F001010091816D41F080518165F1
:10064000806D00F08050009002B000F0A1B8000072
:1006500000100240002809DB00F01F020121914038
:100660004009800000F1E020C0F800117047000050
:10067000F0B40E4B1B680C46C3F30223C3F107050D
:10068000042D00D90425191D072901D2002300E0FB
:10069000DB1E012606FA05F1491E214099409E40C5
:1006A000761E16403143F0BC01F078BB0CED00E043
:1006B000064900F0070208684FF6FF03184040EAB9
:1006C0000220034A10430860704700000CED00E070
:1006D0000000FA052B492C4B0A6832214A432B496A
:1006E00040B1B0F5007F086829D020F4C06040F424
:1006F00080602CE00868C0F34120022804D051F843
:10070000800F20F4807022E0D1F8800020F4807007
:10071000C1F88000086820F4C06040F400700860F0
:10072000B2FBF3F0401C00E0401E4A69520501D5BF
:100730000028F9D1486940050AD503207047C0F365
:100740004120022806D051F8800F40F480700860E4
:1007500000207047D1F8800040F48070C1F880001C
:10076000086820F4C06040F400700860B2FBF3F049
:10077000401C00E0401E4A695205DBD50028F9D133
:10078000D8E70000EC11002040420F00007000404C
:100790000248816841F480418160704700700040E8
:1007A0002DE9F0470E4605004FF0000725D0DFF891
:1007B000AC81D8F8000000F00F00B0420CD2D8F89D
:1007C000001021F00F013143C8F80010D8F80000E4
:1007D00000F00F00B04210D12968614CC80741F207
:1007E000883A5AD06868DFF87C91032808D002283C
:1007F00020682DD0400500282CDB0120BDE8F087C3
:1008000020688001F9D5E06800F00302E068C0F3D9
:100810000310401C032A19D0534A00BFB2FBF0F06A
:10082000E268C2F306225043E268C2F34162521CFE
:100830005200B0FBF2F0484517D9A06810F0F00F55
:100840000CD0880711D5A86840B10EE0474AE5E70B
:100850008003D0E700F092F8484506D9A06820F060
:10086000F00040F08000A0608027A068696820F058
:1008700003000843A060FFF795FE814606E000BF35
:10088000FFF790FEA0EB090151453AD8A0686968CE
:1008900000F00C00B0EB810FF2D12868810714D56D
:1008A000400703D5A06840F4E060A0602878000706
:1008B00005D5A06820F4605040F4E060A060A06816
:1008C000A96820F0F000084304E0802F03D1A0685D
:1008D00020F0F000A060D8F80010404601F00F01B1
:1008E000B14216D9016821F00F0131430160FFF7D1
:1008F00059FE074607E000BFFFF754FEC11B5145F4
:1009000001D903207AE7D8F8000000F00F00B042C8
:10091000F2D12878400705D5A068E96820F4E060A6
:100920000843A0602878000706D5A068296920F44C
:10093000605040EAC100A06000F020F8A1680C4AB5
:10094000C1F30311515C01F01F01C840094908605F
:1009500009480068BDE8F047FFF742BE00200240AA
:100960000010024000B4C4040024F40000366E01FC
:10097000981F0008EC110020E0110020184910B564
:100980008868C0F381021748012A0BD08A68164B89
:10099000C2F38102022A06D08A68C2F38102032AC6
:1009A00003D0002010BD184610BDCA6802F0030431
:1009B000CA68C2F30312521C032C02D0B0FBF2F03F
:1009C00001E0B3FBF2F0CA68C968C2F306225043E3
:1009D000C1F34161491C4900B0FBF1F010BD0000BA
:1009E000001002400024F40000366E012DE9F843A7
:1009F00004007AD02078FA4DC00747D0A868E9688B
:100A000000F00C0001F003010C2802D0082817D0D8
:100A100001E0032914D06068B0F5803F17D0B0F52D
:100A2000A02F286817D020F480302860286820F490
:100A3000802028606068E0B1FFF7B4FD064614E04E
:100A40002868800322D560680028D2D01EE028687C
:100A500040F48030EDE740F480202860F7E700BFE5
:100A6000FFF7A0FD801B642870D828688003F7D5A5
:100A70000CE0FFF797FD064605E000BFFFF792FD8B
:100A8000801B6428F0D828688003F7D4207880077A
:100A90004CD5A868E96800F00C0001F003010C28AF
:100AA00002D004280DD001E002290AD0E068002815
:100AB00028682BD040F480702860FFF773FD06464D
:100AC00019E02868400502D5E068002891D06868E0
:100AD000217C20F0FE4040EA01606860C148006867
:100AE000FFF77EFD002800D120E076E1FFF75AFDF8
:100AF000801B0228B8D828684005F7D56868217C93
:100B000020F0FE4040EA016068600FE020F4807051
:100B10002860FFF747FD064605E000BFFFF742FDEE
:100B2000801B0228A0D828684005F7D42078000749
:100B300029D560690028D5F8940013D040F0010051
:100B4000C5F89400FFF72EFD064606E090E000BFD2
:100B5000FFF728FD801B022886D8D5F8940080076F
:100B6000F6D510E020F00100C5F89400FFF71AFD5B
:100B7000064604E0FFF716FD801B022878D8D5F85A
:100B800094008007F6D42078400761D5A86D002630
:100B9000C00008D4A86D40F08050A865A86D01265B
:100BA00000F08050009090480168C90511D4016898
:100BB000804641F480710160FFF7F4FC074604E0D1
:100BC000FFF7F0FCC01B022852D8D8F80000C0057F
:100BD000F6D5A068012815D00528D5F8900016D0C4
:100BE00020F00100C5F89000D5F8900020F0040036
:100BF000C5F89000A06841F28838B8B1FFF7D2FC80
:100C000007460EE0D5F8900040F00100F0E740F014
:100C10000400C5F89000F5E7FFF7C4FCC11B41458F
:100C200026D8D5F890008007F6D50CE0FFF7BAFC7F
:100C3000074604E0FFF7B6FCC11B414518D8D5F8BC
:100C400090008007F6D41EB1A86D20F08050A865F2
:100C50002078800629D5A0690028D5F8980013D0FF
:100C600040F00100C5F89800FFF79CFC064606E03E
:100C700077E000BFFFF796FC801B022877D8D5F8F5
:100C800098008007F6D510E020F00100C5F8980024
:100C9000FFF788FC064604E0FFF784FC801B02286F
:100CA00065D8D5F898008007F6D4E069F0B3A96854
:100CB000C1F38101032961D00228286820F08070E7
:100CC00028600BD0E86820F00300E860E868474936
:100CD0000840E860FFF766FC04464BE0FFF762FC63
:100CE000064604E0FFF75EFC801B02283FD8286818
:100CF0008001F7D4F4E908016FF00F0202EB011153
:100D00000843218A5204490802EB4151A26841EA92
:100D100002210843217D4FF07E42490802EB4161E8
:100D20000843217B40EAC160E96800E062E0304AA4
:100D300011400843E860286840F080702860E86847
:100D400040F08070E860FFF72DFC044605E000BF2E
:100D5000FFF728FC001B022809D828688001F7D576
:100D600048E004E0FFF71EFC001B022802D9032024
:100D7000BDE8F88328688001F4D43BE00128F7D06F
:100D8000E868226A00F00301914226D1616A00F00E
:100D9000F0020901103991421FD1A26A00F4FE410C
:100DA000B1EB022F19D194F82C2000F07841B1EB6F
:100DB000C26F12D1218E00F4C00249084905A1F585
:100DC0000011914209D194F8341000F0C060490834
:100DD0004906A1F1007181420CD00120C8E7000052
:100DE00000100240E011002000700040FFFFEEFE06
:100DF0000C809F010020BBE710B5401EB0F1807F42
:100E000001D3012010BD4FF0E02460610F21601775
:100E100000F0C4FF0020A06107202061002010BD69
:100E2000704770477047704770477047F0B590F84B
:100E30003C20012A3AD0012580F83C50022280F85B
:100E40003D2003685A689C68194E1A4FB34201D07E
:100E5000BB4204D122F4700C4A6842EA0C02DFF86B
:100E600058C002EA0C02D1F800C04CEA020CC3F8E8
:100E700004C00268B2420DD0B2F1804F0AD00F4BCD
:100E80009A4207D00E4B9A4204D0BA4202D00D4B80
:100E90009A4204D1896824F080031943916080F854
:100EA0003D50002180F83C100846F0BD0220F0BD06
:100EB000002C0140003401408FFFFFFD0004004082
:100EC0000008004000400140704710B5040003D006
:100ED00094F83D0010B107E0012010BD002084F817
:100EE0003C00204600F022F8022084F83D00211D3D
:100EF000206800F0AFFE012084F8480084F83E002E
:100F000084F83F0084F8400084F8410084F84200EF
:100F100084F8430084F8440084F8450084F84600CF
:100F200084F8470084F83D00002010BD08B5006833
:100F30000B49884212D10B48816D41F00401816553
:100F4000806D002200F00400009011461E20FFF783
:100F50008FFBBDE808401E20FFF77CBB08BD0000EA
:100F6000000800400010024090F83D10012901D017
:100F700001207047022180F83D100168CA6842F0E4
:100F80000102CA600068104988420ED0B0F1804F5B
:100F90000BD00E49884208D00D49884205D00D4932
:100FA000884202D00C49884207D181680B4A11401F
:100FB000062906D0B1F5803F03D0016841F0010158
:100FC0000160002070470000002C01400004004038
:100FD00000080040003401400040014007000100CB
:100FE00070B5044690F83C00012814D0012584F81F
:100FF0003C50022084F83D0022689068344B184031
:1010000020F47F4090600868702827D010DC10F032
:101010000F0F03D04AE04FF0020070BD4FEA2012DC
:10102000072A43D2DFE802F05050505048313900CF
:10103000284BC21A984247D009DCB0F5805F35D002
:10104000B0F5005F15D0B0F1101F2FD13CE0102A91
:101050003AD0202A38D0502A28D135E0CB68D1E9BF
:101060000121206800F04EFE2068816841F0770180
:1010700009E0CB68D1E90121206800F043FE206837
:10108000816841F48041816010E0CA684968206845
:1010900000F04CFE5021206806E0CA6849682068CC
:1010A00000F055FE6021206800F036FE84F83D50C7
:1010B000002084F83C0070BDCA684968206800F0D0
:1010C00035FE40212068EFE7226801461046EBE735
:1010D00088FFCEFF20001000704770B504460068FE
:1010E00001694FF00005C943890715D4C168C94398
:1010F000890711D4E91E01610120207720688069E9
:101100008007204602D0FFF7E7FF04E000F0E3F895
:10111000204600F0E1F8257720680169C9434907B6
:1011200017D4C168C943490713D46FF004010161A2
:10113000022020772068806910F4407F204602D08A
:10114000FFF7CAFF04E000F0C6F8204600F0C4F83C
:10115000257720680169C943090716D4C168C943C6
:10116000090712D46FF0080101610420207720687C
:10117000C0698007204602D0FFF7AEFF04E000F010
:10118000AAF8204600F0A8F8257720680169C9432D
:10119000C90617D4C168C943C90613D46FF010013A
:1011A0000161082020772068C06910F4407F204644
:1011B00002D0FFF791FF04E000F08DF8204600F028
:1011C0008BF8257720680169C943C90708D1C16830
:1011D000C943C90704D1891E0161204600F07EF889
:1011E00020680169C943090609D4C168C9430906D1
:1011F00005D46FF0800101612046FFF712FE2068E0
:101200000169C943C90509D4C168C943090605D4A0
:101210006FF4807101612046FFF702FE20680169CA
:10122000C943490609D4C168C943490605D46FF0CA
:1012300040010161204600F06FF820680169C94350
:10124000890609D4C168C943890605D46FF0200115
:1012500001612046FFF7E6FD20680169C943C90224
:1012600009D4C168C943C90205D46FF48011016172
:101270002046FFF7D9FD20680169C943890209D4D6
:10128000C168C943890205D46FF400110161204689
:10129000FFF7C9FD20680169C943490209D4C16843
:1012A000C943490205D46FF4800101612046FFF76C
:1012B000BCFD20680169C94309020BD4C168C94358
:1012C000090207D46FF4000101612046BDE87040B7
:1012D000FFF7FABD70BD70477047000010B50C48AD
:1012E000FFF742FE0B484179491CCAB20021427106
:1012F0000A2A02D14171012202700289521C92B263
:101300000281B2F57A7F01D10181417010BD0000E8
:10131000F0110020000000207047FEE770B5134D6B
:1013200001212846FFF734F9114C40B9E088401CF0
:1013300080B2E080012802D16078401C60700121F9
:101340002846FFF725F9012808D1E0880021421E30
:10135000092A04D2A078401CA070E18070BD0A2840
:10136000FCD3E180E078401CE07070BD00040048D0
:101370000000002000B585B014216846FEF751FF3B
:101380004FF6FF70009000200321CDE9020101908B
:1013900069460248FFF718F805B000BD000800488C
:1013A00000B585B014216846FEF73BFF4FF6FF708D
:1013B00000900120019003200390002002906946D4
:1013C0000248FFF701F805B000BD00000008004822
:1013D00070B5002406462146204600F003F900F0CF
:1013E00041F94FF49635304600F010F9641CAC42D8
:1013F000F9D370BD30B587B014216846FEF711FFF0
:101400001E48C16C41F00401C164C16C01F00401CB
:101410000591C16C41F00101C164C16C01F0010191
:101420000591C16C41F00201C164C06C012500F05E
:10143000020005904FF44870CDE9000500240394A4
:10144000694602940E48FEF7BFFF280203940090FD
:10145000CDE901544FF0904469462046FEF7B4FFB1
:10146000FFF79EFFA06940F48070A0610448183027
:10147000016841F40871016007B030BD00100240FE
:1014800000040048203AD2B2034B02EB420203EBC5
:10149000021200F019B8000010000020F0B50E464E
:1014A0000746002540F23F1407E021463846FFF783
:1014B000E9FF103C6D1CA4B2761C3278002A01D0E2
:1014C000142DF2D3F0BD00002DE9F04791468A4675
:1014D0000026044600F086F8DFF84080012700BFB0
:1014E00000F0C0F85FF0000539F8160007FA05F1C2
:1014F0000842404601D1408800E0008800F086F8AC
:101500006D1C102DF0D3641CE4B25146204600F04F
:1015100069F8761C182EE3D3BDE8F0870A00002096
:1015200010B5FFF767FF002000F014F8084CA0800A
:10153000A088A0F50241303906D000F045FA00201D
:1015400000F008F8A08010BD00F0B5F9F7E7000042
:101550000A00002070B51D490A6842F400720A6052
:101560000A6842F480720A60184C103C226842F00B
:1015700020022260164A1060086840F020000860CF
:1015800000BF00BF00BF206840F02000206020683E
:1015900040F480702060FFF7EDFE4FF09041886AC4
:1015A00040F48070886200BF00BF00BF0848001F81
:1015B000006885B2886940F480708861FFF7F0FEAA
:1015C000206840F400702060284670BD2804004860
:1015D0001408004801B5BDF800000149488008BD65
:1015E0000A00002010B50C460146202000F068F8E3
:1015F0002146BDE81040212000F062B801B5BDF8D9
:1016000000000149088008BD0A000020134A116843
:1016100041F400711160114910390B6843F4807373
:101620000B600B6843F020030B600D4B18601068D3
:1016300040F02000106000BF00BF00BF086840F00D
:1016400020000860086840F48070086000BF00BF98
:1016500000BF086840F40070086070472804004824
:10166000140800481449086840F4007008600868CD
:1016700040F48070086010481038026842F0200280
:1016800002600E4B22221A600A6842F020020A60B1
:1016900000BF00BF00BF016841F020010160016888
:1016A00041F48071016000BF00BF00BF016841F4D8
:1016B00000710160704700002804004814080048C9
:1016C000184B10B51A6842F400721A601A6842F496
:1016D00080721A60134A103A146844F020041460AF
:1016E000114C2060186840F02000186000BF00BF57
:1016F00000BF106840F020001060106840F4807057
:1017000010602160186840F02000186000BF00BF22
:1017100000BF106840F020001060106840F4807036
:10172000106010BD28040048140800482DE9F04F4F
:1017300087B014216846FEF774FD3F48C16C41F044
:101740000401C164C16C01F004010591C16C41F058
:101750002001C164C16C01F020010591C16C41F010
:101760000101C164C16C01F001010591C16C41F03E
:101770000201C164C16C01F002010591C16C41F02C
:101780000801C164C06CDFF8B48000F008004FF6B7
:10179000FF740590002221464046FEF7FEFE4FF4FE
:1017A00080764FF09049002231464846FEF7F5FE1C
:1017B000DFF88CA0002204215046FEF7EEFEDFF891
:1017C00084B04FF44877002239465846FEF7E5FECC
:1017D0000125CDE900450024029469464046039462
:1017E000FEF7F2FDCDE90054694648460295FEF742
:1017F000EBFD07208DE8310069465846FEF7E4FD11
:101800000096CDE90154694648460394FEF7DCFD95
:1018100004200090CDE90154694650460394FEF738
:10182000D3FD0097CDE90154694658460394FEF76D
:10183000CBFD07B0BDE8F08F001002400008004863
:10184000000C00480004004810B588B00024174878
:10185000009401940294039404940594124906940C
:1018600001604F21C0E9011440F2E731C0E90314DF
:101870008461FFF72AFB08B172B6FEE74FF480508F
:10188000009069460948FFF7ABFB08B172B6FEE766
:10189000049404A905480694FFF7C8FA002801D06B
:1018A00072B6FEE708B010BD00080040F01100203D
:1018B000FEE7FEE7704730B501210020FFF700FF8B
:1018C0004FF47A70FEF711FD00210120FFF7F8FEBA
:1018D00041F290711020FFF7F3FE4FF41C5160208D
:1018E000FFF7EEFE01216120FFF7EAFE022146200C
:1018F000FFF7E6FE48F210011320FFF7E1FE48F281
:10190000FE011220FFF7DCFE4FF4A0610220FFF77A
:10191000D7FE41F230010320FFF7D2FE40F203343C
:1019200021463020FFF7CCFE21463120FFF7C8FECC
:1019300021463220FFF7C4FEE51E29463320FFF77B
:10194000BFFE03213420FFF7BBFE21463520FFF701
:10195000B7FE14213620FFF7B3FE21463720FFF7EC
:10196000AFFE21463820FFF7ABFE21463920FFF7B6
:10197000A7FE29463A20FFF7A3FE03213B20FFF7ED
:101980009FFE21463C20FFF79BFE4FF4A0513D20D7
:10199000FFF796FE4FF400719220FFF791FE21466B
:1019A0009320FFF78DFE40F60D019020FFF788FE93
:1019B00041F218010320FFF783FEBDE8304040F2FA
:1019C00073110720FFF77CBE10B543F20801E32036
:1019D000FFF776FE1221E720FFF772FE41F2312178
:1019E000EF20FFF76DFE00210120FFF769FE4FF4A5
:1019F000E0610220FFF764FE41F230010320FFF7AF
:101A00005FFE00210420FFF75BFE40F20721082063
:101A1000FFF756FE00210920FFF752FE00210A20A1
:101A2000FFF74EFE00210C20FFF74AFE00210D209B
:101A3000FFF746FE00210F20FFF742FE0021102095
:101A4000FFF73EFE07211120FFF73AFE002112208A
:101A5000FFF736FE00211320FFF732FEC820FEF705
:101A6000A1FC41F290611020FFF72AFE40F22721ED
:101A70001120FFF725FE3220FEF794FC1D211220D5
:101A8000FFF71EFE3220FEF78DFC4FF4006113209D
:101A9000FFF716FE14212920FFF712FE0B212B2041
:101AA000FFF70EFE3220FEF77DFC00212020FFF71D
:101AB00007FE00212120FFF703FE07213020FFF75A
:101AC000FFFD40F207713120FFF7FAFD06213220B9
:101AD000FFF7F6FD40F204713520FFF7F1FD41F606
:101AE00004713620FFF7ECFD04213720FFF7E8FDF5
:101AF00000213820FFF7E4FD40F206713920FFF79E
:101B0000DFFD40F201713C20FFF7DAFD0F213D209F
:101B1000FFF7D6FD00215020FFF7D2FDEF21512025
:101B2000FFF7CEFD00215220FFF7CAFD40F23F1122
:101B30005320FFF7C5FD4FF41C516020FFF7C0FD97
:101B400001216120FFF7BCFD00216A20FFF7B8FDED
:101B500000218020FFF7B4FD00218120FFF7B0FDB8
:101B600000218220FFF7ACFD00218320FFF7A8FDB4
:101B700000218420FFF7A4FD00218520FFF7A0FDB0
:101B800010219020FFF79CFD00219220FFF798FD87
:101B900003219320FFF794FD4FF488719520FFF700
:101BA0008FFD00219720FFF78BFD00219820FFF784
:101BB00087FD41F218010320FFF782FDBDE81040C8
:101BC00040F273110720FFF77BBD7047FEF7F0BCB2
:101BD00000B593B038216846FEF723FB14210EA808
:101BE000FEF71FFB4FF40070FEF774FD0220C101E9
:101BF0000391402104910090079008901421CDE9B1
:101C000009010B900C900D906846FEF7EFFE08B1AD
:101C100072B6FEE70F200E9003200F900020109068
:101C20001190129002210EA8FEF7BAFD002801D0F3
:101C300072B6FEE713B000BD0248016841F47001BE
:101C40000160704788ED00E00148FFF746BA0000E8
:101C5000F01100202DE9F0430268234B234D244E60
:101C6000244C4FF08049984207D0484505D0A842FF
:101C700003D0B04201D0A04203D122F070074A68DD
:101C80003A431D4FDFF874C0DFF8748098420DD0DE
:101C900048450BD0A84209D0B04207D0A04205D099
:101CA000B84203D0604501D0404503D122F44075CD
:101CB000CA682A434D6922F080022A4302608A687A
:101CC000C2620A688262984207D0A04205D0B84238
:101CD00003D0604501D0404501D10969016301216C
:101CE0004161BDE8F0830000002C01400004004089
:101CF0000008004000340140004001400044014021
:101D00000048014010B5846842EA032224F47F446D
:101D10000A432243826010BD8268034B1A400A4383
:101D200042F00701816070478FFFCFFF10B5036A53
:101D3000046A24F001040462846924F0F00444EA93
:101D4000021423F00A020A438461026210BD10B536
:101D5000036A23F0100303628369046A23F4704367
:101D600043EA023224F0A00343EA011182610162D6
:101D700010BDFEE70FB4084B10B504A902AA0398E2
:101D800000F02CF8044602A9002000F0D1F820460B
:101D900010BC5DF814FB0000311F00080907090E94
:101DA000002804DB00F1E02080F80014704700F008
:101DB0000F0000F1E02080F8141D704702E008C811
:101DC000121F08C1002AFAD170477047002001E0B5
:101DD00001C1121F002AFBD1704700002DE9FF4FFF
:101DE00089B09B460446002506E025280BD05A46BC
:101DF0000B999047641C6D1C20780028F5D10DB01C
:101E00002846BDE8F08F0027B8460122474900E088
:101E1000074314F8013F203B02FA03F00842F7D1D0
:101E200020782E2819D114F8010F47F004072A282A
:101E30000ED06FF02F022078A0F1300109290CD8C4
:101E400008EB880102EB410100EB0108641CF2E79A
:101E50000A98641C50F8048B0A9020780028CED091
:101E6000642808D0692806D075281ED05A460B99D8
:101E700090476D1C58E00A994FF00A0901C90A9170
:101E8000002802DA40422D2102E0390504D52B2139
:101E90008DF82010012103E0F90704D02021F7E795
:101EA0008A4608AE0DE00021FAE70A994FF00A09C8
:101EB00001C90A91F7E74946FEF7BEF9303106F845
:101EC000011D0028F7D1ADEB060000F120097807CD
:101ED00001D44FF00108C84502DDA8EB090000E07D
:101EE00000208046002706E008A85A46C05D0B99EE
:101EF00090476D1C7F1C5745F6DB04E030205A46A6
:101F00000B9990476D1CB8F10001A8F10108F5DCB0
:101F100005E016F8010B5A460B9990476D1CB9F174
:101F20000001A9F10109F4DC641C65E7092801003E
:101F30000A68531C0B60107070470000FEF740FBEE
:101F4000FFF746FEFFF7F2FBFFF77EFC1048FFF7B6
:101F50000BF8FFF7E5FA4FF6FF742046FFF738FA63
:101F60002046FFF737FB0020FFF748FB0025094C10
:101F7000FEF7CAF9207810B12570FFF7CFF9607825
:101F80000228F5D365702079401C2071F0E700002D
:101F9000F011002000000020000000000000000000
:101FA0000102030406070809C81F000800000020FA
:101FB000F01100008802000854260008F0110020EB
:101FC00050040000CC1D0008920001000431FFFF06
:101FD00000010316800102611EE13292CC02012A47
:101FE0006A23600C02200F30063006FE1FFE1F30F1
:101FF00006380718030A2007180318038C0102315A
:1020000072201700E003F80F9C0E8C1C8C188C00BB
:102010009800F801E007800E800E100B189C18B88D
:102020000CF00FE0038026A15A10090E181B0C11AA
:102030000C11060210110311039B018E01C038C060
:102040006C60446044300264071844186C0C3826F5
:102050001005E001F0037A10140618063003F001B1
:10206000F000F8009C310E33061E061C02E0063F0D
:10207000FC73F021B8920C020121E7100B0200035F
:102080008001C000C0006002D230022114211C1562
:102090005E12032A15163220123570120302D20680
:1020A00002111425A2214ED6208821481008D806F6
:1020B000F807E00130D2052AEAC405FC3FFC3FE8FE
:1020C000092C30120002021B806C080532E007E088
:1020D000078E41D6F57F750C155C35104562456459
:1020E000D17AE00A03F007380E180C0C1802D40954
:1020F000180C380EF007E003B0214C0C071901F062
:10210000019801880803A16043F80F5E22000221B4
:102110009C35F025ECD0071800FC1FFC1F90100721
:1021200001F807180E0C0121C81805C003C007519B
:10213000113C41920210F8904C0B0C000E000F0065
:102140000F800DC03003116B270C0CB209148513DE
:10215000F80F9031893009EC03FC071C0E001C9825
:10216000115E0005101C0C180E602009C007F00F4E
:10217000381C1818325409CC03EC0F3C0E1C1C20E0
:1021800006121C2031D24582357C16C07A3AE0C84E
:102190005A70DE051480215384073806F007F007D3
:1021A0008CE005380CF80F604130521C2430091CBB
:1021B0001C381EF81BE019D1130C1CC00B1BF001BE
:1021C0008A012114011F30091ACE1C0510001C8041
:1021D000720416F8DC1AF85C17800F600A1810F801
:1021E000C3F81F080D1E1405180708003800F00179
:1021F00014121F61161F9C13013814091770796E91
:102200006D2603FD2E033D7C03400C18180420C2EC
:1022100029224A11440902EC0C221113E20C02405B
:1022200004201818980315D4200403C00602396E40
:102230002218022C07F83FF83F1C70AF052119D96E
:10224000106C0503FC0F0C5E0310040CFC070E1A47
:1022500018A541021E180003FA0770BC0A1F38387F
:102260001C300C700660DD04E008600C701C30F05F
:102270001F903C08FE03FE0F060E06A105B1022DBD
:10228000B305E8050EFE0FFEA01DCC048DA20529A6
:10229000AEADB0053D3803C5A211DC4DBB032D2703
:1022A000038005F81FF81F0E4DD303DDCA043C0C54
:1022B0000FF83F3C780E6006E007C0810411A11DB5
:1022C000C5031533DC090EC03CF0F83FE00FBF0337
:1022D000A23002319EB1120F260C3080070D15A0DE
:1022E00005021406022531DC063807F003E0B004CD
:1022F000353A10140C060606038601C60066007601
:1023000000DE008E01060312360C64DD4105021B5F
:1023100018022530CD210320050EE01EF0024336C1
:10232000D8022366CC0252C601E40586C386C320C8
:1023300010041C303C02126C0212CC0210058C31CD
:102340000C3302123602123C02E638201C05E0076C
:10235000F81F9904193EA303C002F80806600E7026
:102360001C38F8401BFC0F02CA38920E190CC40727
:10237000916082E05E140907E006630E3F1C3CE0BA
:10238000CEF79106198258041F06389C1E38C008E3
:1023900076074C49B20E106030065DDE041D9B05C9
:1023A0001BF80330331E00401C050E301C1C1005AA
:1023B000ED000308042A7FFE7F10E95EA97E071066
:1023C000181820430360BC6D14072D16072D9409BF
:1023D000140570076003631DE005E13023C361024B
:1023E00083663302236C1B02CC092C1A3C1E380E68
:1023F000380E31051C090FE00C70183030183F04FE
:102400003C040EC0075E04140503E00670F71D814E
:1024100007D006300E6007E0602D79044C08301CB0
:10242000383818300C65030D1C80075C05FC7FFCF8
:102430007F6D07DD7C072D2708253EED10082FE076
:1024400003AE06011E0221282DA60A6DA6094DA87D
:10245000091D64096D0E0B7E03A009F160022100C5
:102460000261601D82071D4407256C3F6003D7048D
:102470002919013901CFFFFFF80B0D2DAE0A9D4A36
:10248000081805F003F807AA2C070C000FF00FF846
:10249000B1081F0C1C5C080F16F01820041ED8A8E9
:1024A0000B1E38370881012DE0070F17D803DA0912
:1024B0001D9A096F300E39092DA3081E309009EEC0
:1024C000C00009711F2805C01BF01F36816000077E
:1024D00019301CF01FC01B601E0F83066E18D40538
:1024E0001952EC051CF00FC0F00644040FC00FDABF
:1024F0002D9C0855E4B1020D17D40A1E0DFA093DB2
:10250000CA0961011D600924050FE00D002A6E064D
:10251000AA0895204F07F86A09D1010D16F00A02A2
:1025200015C002012E3041DEEC04F80078BE0C1C10
:10253000050C0C060C6A0D100DCC006C00FC009C08
:10254000018C030C03120E100C560C011C020D160C
:102550009009E0097C3CFF7EC7E383C1020D16EAC7
:102560000B062398200510E099101D0E0E0A17C0C7
:10257000700916A00D16EA070917700D151B081E25
:10258000B06E07FE70E20D0E1830140D1E037A0EA9
:102590001D1A0B1DF2093D060C0D15900C1D020FA6
:1025A0000919A00F170780EA0D09106A1238C01D1B
:1025B0004C0B0D15DB0A4DFE053E18920F1DB7069C
:1025C0000E140300068DF80F3008C141C141C361EC
:1025D0006301323601321C010D16F00F3E1CF70963
:1025E00052605A1D5E061D75061E38E10B0117C0AC
:1025F0001D36061D38062E1828102FE00C940A2DC3
:102600003E064DF00D1DA20D1D700C0D159A0C0D02
:102610001B800D8D300B8D320E2DE205BA40D63D5C
:10262000900F0D259009CD22119E6024069DC60FA6
:10263000B3030048FEC0A80E5D74050C061810F820
:102640001F080F34112D6B0C7D010700040024F4CA
:042650000000000086
:04000005080001D915
:00000001FF
