:020000040800F2
:1000000028180020F1010008BB370008832F0008E2
:10001000B93700086D090008FD4500080000000020
:10002000000000000000000000000000D33A0008BB
:100030001F0A000800000000BD370008553B0008FB
:100040000B0200080B0200080B0200080B0200085C
:100050000B0200080B0200080B0200080B0200084C
:100060000B0200080B0200080B02000871090008CF
:100070000B0200080B0200080B0200080B0200082C
:100080000B020008000000000B0200080B02000831
:100090000B0200080B0200080B0200080B0200080C
:1000A0000B0200080B0200080B0200080B020008FC
:1000B0000B0200080B020008FD3B00080B020008C1
:1000C0000B0200080B0200080B0200080B020008DC
:1000D0000B020008F14500080B0200080B020008A3
:1000E0000B0200080B0200080B0200080B020008BC
:1000F0000B0200080B0200080B02000800000000C1
:10010000000000000B020008000000000B020008C5
:100110000B020008000000000B0200080B020008A0
:100120000B0200080B0200080B0200080B0200087B
:100130000B02000800000000000000000B02000895
:100140000B0200080B020008000000000000000085
:10015000000000000000000000000000000000009F
:100160000000000000000000000000000B0200087A
:100170000B0200080000000000000000000000006A
:10018000000000000B02000800000000000000005A
:10019000000000000000000000000000000000005F
:1001A00000000000000000000B0200080B02000825
:1001B0000B0200080B0200080B0200080000000000
:1001C000000000000B02000800000000000000001A
:1001D0000B0200080B020008DFF810D000F05EFAF6
:1001E00000480047994F0008AFF30080281800200E
:1001F0000648804706480047FEE7FEE7FEE7FEE7C1
:10020000FEE7FEE7FEE7FEE7FEE7FEE7E13B00086C
:10021000D90100082DE9F05F0546002092469B4673
:1002200088460646814640241BE02846414647460C
:10023000224600F06AF853465A46C01A914110D33C
:1002400011461846224600F051F82D1A67EB0108B6
:100250004F4622460120002100F048F817EB000924
:100260004E41201EA4F10104DFDC484631462A46F7
:100270004346BDE8F09FD2B201E000F8012B491ED1
:10028000FBD270470022F6E710B513460A46044633
:100290001946FFF7F0FF204610BD00F0004230F095
:1002A00000400AD0C10D01F56071C0F3160042EAAA
:1002B0000151C208400711437047002001467047B2
:1002C00030B50B46014600202022012409E021FA26
:1002D00002F59D4205D303FA02F5491B04FA02F523
:1002E0002844151EA2F10102F1DC30BD202A04DBF6
:1002F000203A00FA02F1002070479140C2F1200339
:1003000020FA03F3194390407047202A04DB203A77
:1003100021FA02F00021704721FA02F3D040C2F125
:10032000200291400843194670472DE9FE4F804650
:1003300081EA0300C00F0C46009021F0004123F039
:100340000045B8EB0200A94105D24046214690463F
:100350001C460B46024623F00040104347D0270DB1
:10036000C7F30A00C3F30A510290401A01904028D3
:100370006BDAC3F3130040F4801B0098924620B15F
:100380000023D2EB030A63EB0B0B01985946C0F133
:1003900040025046FFF7AAFF06460D465046594612
:1003A000019A00F08DF910EB08006141002487EA02
:1003B000115284EAE7731A4340D0009A62B3019A5B
:1003C000012A4FEA075215DC001B61EB02014FF0D6
:1003D000004202EA0752CDE90042001C41F58011BB
:1003E00032462B4600F08DF903B0BDE8F08F404651
:1003F0002146F9E7001B61EB0201001C41F5801367
:1004000000185B412018A2F5001747EB030140EAF2
:10041000D570B6196D4111E06D084FEA360645EA10
:10042000C0754FEA0752001B61EB0201001C41F549
:10043000801149084FEA30000019514132462B46DD
:1004400003B0BDE8F04F00F04DB900980122400024
:100450000023D0EB020263EBE073009821464FEAE1
:10046000E074B8EB000061EB0401E9E783F00043BE
:100470005BE781F0004158E72DE9FE4F81EA030474
:1004800004F0004421F0004100944FF0000B23F0F1
:10049000004350EA01045ED052EA03045BD0C3F388
:1004A0000A54C1F30A552C44A4F2F3340194A0FB7E
:1004B0000254C1F3130141F48011C3F3130343F455
:1004C000801301FB024400FB034E840A970A44EAAE
:1004D000815447EA8357A4FB076802958D0A05FB00
:1004E00007854FEA932C04FB0C542705029D4FEA25
:1004F000065847EA1637B5EB08056EEB070C870E72
:10050000920E47EA811742EA8312A7FB0201B6EB7B
:100510000B0164EB00042B0D43EA0C335E1844EB33
:100520001C50DA465146E7FB0201C5F313044FEABB
:100530000B3343EA14534FEA0432019C43EA0603A7
:10054000A4F10C040294009CCDE900B400F0D9F8A9
:1005500003B0BDE8F08F00200146F9E72DE9F04D2A
:1005600081EA030404F0004B21F0004514464FF0EB
:10057000000A23F0004150EA050220D054EA0102AB
:100580001DD0C5F30A570246C5F31303C1F3130088
:10059000C1F30A5640F4801543F48013A7EB060814
:1005A000101BD64608F2FD3873EB050002D308F1A4
:1005B000010801E092185B41B8F1000F03DA002056
:1005C0000146BDE8F08D00204FF4801106468446B8
:1005D0000EE0171B73EB050705D3121B63EB050336
:1005E00006434CEA010C49084FEA300092185B417F
:1005F00050EA0107EDD152EA030012D082EA04006A
:1006000083EA0501084305D0101BAB4106D2012245
:10061000002306E000224FF0004302E06FF00102E9
:1006200053101AEB06004CEB085110EB0A0041EB9B
:100630000B01BDE8F04D00F055B8C1F30A52C1F30B
:10064000130140F2FF3341F480119A4202DA002094
:100650000146704740F233439A42A2F2334202DC31
:100660005242FFF752BEFFF741BE000030B5041EF4
:1006700071F1000404DB4FF00044404264EB0101DF
:10068000141E73F1000405DB1C464FF00043524278
:1006900063EB0403994208BF904230BD064C074DFE
:1006A00006E0E06840F0010394E807009847103442
:1006B000AC42F6D3FFF794FD3C5100085C510008B2
:1006C000202A06DBCB17203A41FA02F043EAE07316
:1006D00006E041FA02F3D040C2F120029140084303
:1006E0001946704710B5141E73F1000408DA401C57
:1006F00041F1000192185B411A4301D120F0010041
:1007000010BD2DE9F04D92469B4611B1B1FA81F230
:1007100002E0B0FA80F220329046FFF7E7FD04468F
:100720000F4640EA0A0041EA0B0153465A46084385
:1007300013D0114653EA010019D0C8F140025046C7
:10074000FFF7E3FD05460E46504659464246FFF781
:10075000CDFD084305D0012004E020463946BDE820
:10076000F08D0020054346EAE0762C4337430A9893
:100770006305E40AA0EB08000022FD0A44EA47549E
:100780000A3002D500200146E9E701051019694148
:10079000DDE9084500196941BDE8F04DA2E770B5F3
:1007A0008D1810F8014B14F0030201D110F8012B41
:1007B000231106D110F8013B03E010F8016B01F89A
:1007C000016B521EF9D1ABB110F8012B04F00C04EF
:1007D0008A1A0C2C03D0A2EB84129B1C08E010F8A0
:1007E000014BA2EB0422F8E712F8014B01F8014B90
:1007F0005B1EF9D5A942D4D3002070BD10B5846A20
:10080000E16D11F0500F06D0E16DC90625D52046E7
:1008100000F0C3FB10BDE06D40F40070E06520689F
:100820000168090716D502F045FE78B12068C06856
:10083000800400280ADBE06D20F48070E065E06D44
:10084000C00403D4E06D40F00100E065204600F0F4
:1008500097FB10BDC0688007EBE7616D496BBDE891
:100860001040084710B5806AC16D41F04001C16574
:10087000016E41F00401016600F08FFB10BD10B560
:10088000806A00F089FB10BD70B50446006881687D
:100890008268C1F3400112F0010F28D039BB816892
:1008A00001F00D01012914D18168124A1140891CFF
:1008B000816021680320086000F0A6FF054612E071
:1008C00000F0A2FF401B02280DD920688068C007F5
:1008D00009D0E06D40F01000E065206E40F00100AE
:1008E0002066012070BD20688068C007E8D1002024
:1008F00070BD0000C0FFFF7F70B5044600688168CE
:1009000011F0010F2DD18168174A11421AD1816867
:10091000D5432940491C816000F076FF06461BE064
:10092000816811F0010F03D181682940491C816061
:1009300000F06AFF801B02280ED920680068C043BF
:10094000C00709D0E06D40F01000E065206E40F077
:1009500001002066012070BD20680168C943C907F5
:10096000DED1002070BD00003F000080FEE70000E7
:10097000014800F046BD0000A01200200D490268A9
:100980008A4201D20C4901E00B492031D2B2142332
:10099000083AB2FBF3F2436C02F01F0223F00303A8
:1009A0001944816404498031C16401219140016589
:1009B0007047000008040240000802400179074A1D
:1009C00002EB81024265054A4432491E826501F00C
:1009D0001F0201219140C16570470000FC080240E0
:1009E00030B5D0E913456560446D14B1D0E91645C2
:1009F000656090F8444004F01F050124AC40056C8C
:100A00006C60046863608368102B036803D099608E
:100A10000068C26030BD9A600068C16030BD704738
:100A2000002240F6B83306E00021491C89B2994201
:100A3000FBD3521C92B28242F6D3704710B588B0F5
:100A400011A1182002F0D4FB124CA069FFF725FC7D
:100A500041EC100B10A153EC102B684603F0D0FDB5
:100A60006946602002F0C4FB20216846FFF70AFCBB
:100A7000627A0CA1684603F0C3FD6946782002F053
:100A8000B7FB08B010BD00002020202020204461CA
:100A900074610000D811002020563A252E32665687
:100AA0000000000020413A25642000000448007A3C
:100AB00018B1012803D103F00DB8FFF7BFBF70478D
:100AC000D811002072B6FEE7F8B50026044600965D
:100AD00090F858000D4601280BD0012084F85800EA
:100AE0002046FFF7D1FE0100E06D04D040F0100079
:100AF0002AE00220F8BD20F4885040F00200E065B2
:100B000020688268134B1A4005F080431A4342F074
:100B100000428260104A20680EE0009B5B1C00933C
:100B2000934209D3E06D20F0020040F01000E06530
:100B300084F858600120F8BD8368DB0FEDD1E06DCB
:100B400020F0020040F00100E06584F8586008469B
:100B5000F8BD0000C0FFFF3F02DE04002DE9F84FA2
:100B600000270446009790F85800DFF8E0930D4600
:100B7000B846012811D0012684F85860206802F098
:100B800095FC60B1E06D40F02000E0655FF001078A
:100B900084F858803846BDE8F88F0220FBE7D5E995
:100BA00000210C23206803EA91131844036B01F021
:100BB0001F014FF01F0C0CFA01FCC2F3846223EA00
:100BC0000C038A4013430363206802F06FFC8246E3
:100BD000206802F067FC5AEA00003CD1AA68296844
:100BE0002068B2F1004F37D002F06CFC20684169F8
:100BF00021F00041416120686969C268C2F3C10205
:100C0000520091402A69042A31D000EB82002B68FF
:100C1000026EDFF83CC303F0F84302EA0C020B4318
:100C20001A4342F00041016620682A69A96900EB75
:100C30008200026E22F080720A430266297F2268D7
:100C40002869012910D0002102EB8000026E22F0F9
:100C500000720A4302667DE0002202F033FC206845
:100C6000416941F00041C5E74FF00071ECE7002118
:100C700002F012FC400320684FF0000172D002F035
:100C80000BFC90FAA0F0B0FA80F1286842036ED015
:100C900090FAA0F0B0FA80F0814204D1002211460F
:100CA000206802F01EFC0121206802F0F5FB4003E1
:100CB00020684FF001015DD002F0EEFB90FAA0F049
:100CC000B0FA80F12868420359D090FAA0F0B0FA47
:100CD00080F0814204D100220121206802F001FC51
:100CE0000221206802F0D8FB400320684FF0020187
:100CF00048D002F0D1FB90FAA0F0B0FA80F1286859
:100D0000420344D090FAA0F0B0FA80F0814204D1BE
:100D100000220221206802F0E4FB0321206802F097
:100D2000BBFB400320684FF0030133D002F0B4FB5B
:100D300090FAA0F0B0FA80F1286842032FD090FA20
:100D4000A0F0B0FA80F0814204D100220321206893
:100D500002F0C7FB2068816811F0010F22D0ACE0DF
:100D600000E004E002F098FBC0F384618DE7C0F37B
:100D7000846091E702F090FBC0F38461A2E7C0F3C6
:100D80008460A6E702F088FBC0F38461B7E7C0F394
:100D90008460BBE702F080FBC0F38461CCE7C0F362
:100DA0008460D0E72A7B296850F8B03FC1F3120C69
:100DB00023EA0C0302F0180C664A22FA0CF20A40ED
:100DC00013430360E968494577D1286841031CD083
:100DD00090FAA0F1B1FA81F1491C01F01F01092933
:100DE0004FEA403132D8002912D000BF90FAA0F16A
:100DF000B1FA81F101F1010101F01F0106FA01F6DA
:100E000009D100BFC0F3846109E0C0F38461E3E766
:100E1000C0F38461EEE790FAA0F1B1FA81F101F13B
:100E2000010101F01F0146EA816102D1C0F3846033
:100E300003E090FAA0F0B0FA80F000F1010000F0B9
:100E40001F0000EB400041EA005132E000290ED0C3
:100E500090FAA0F1B1FA81F101F1010101F01F0155
:100E600006FA01F606D100BFC0F3846106E0C0F3C4
:100E70008461F1E790FAA0F1B1FA81F101F1010189
:100E800001F01F0146EA816102D1C0F3846003E0F2
:100E900090FAA0F0B0FA80F000F1010000F01F001D
:100EA0002D4A00EB400002EB005041EA000141F006
:100EB0000071AA68206802F005FB28482A680242EF
:100EC0003FF466AE26488168264B01F0E0719A42F5
:100ED00002D0254B9A421CD10B021AD42268B2F1DF
:100EE000A04F7FF455AE826841F4000122F0E07219
:100EF0000A4382601D481E490068B0FBF1F0401CA7
:100F000000EB4000800000E0401E00900028FBD174
:100F10003EE6184D184BAA4207D1CD0105D42268F0
:100F20009A42F5D041F0807109E0144DAA42EFD108
:100F30004A02EDD422689A42EAD041F480018268E4
:100F400022F0E0720A43826022E6000000007F4047
:100F500000F0FF03FFFF0700000020FE00000880F4
:100F600000030050000021C31000C09008120020B0
:100F7000400D0300000052C700010050000084CB68
:100F80000349884202D1034901208870704700005C
:100F900034120020D811002070477047F8B54FF088
:100FA000000504002E46009502D0E06D10B107E068
:100FB0000120F8BD204600F0EFF8266684F858605E
:100FC00020688168C1F3407119B181686A4A114093
:100FD000816020688168C1F3007189B98168674ABE
:100FE000114041F080518160654866490068B0FB5E
:100FF000F1F04000801C00E0401E00900028FBD172
:1010000020688168C1F3007141B9E16D41F01001C0
:10101000E165216E41F001012166012502F046FAE9
:10102000E16DC90600D430B1E06D40F01000E0651C
:1010300001252846F8BDE06D20F4807040F00200E4
:10104000E0652068806810F0010F11D14FF0A040DA
:1010500080684D4900F00100896801F001010843F2
:1010600006D14A486168826822F47C120A43826091
:10107000E168E06B627F0843A16841EA42310843BE
:1010800094F8241040EA0140012904D1218D404AFE
:1010900002EB41410843E16A29B101F47871226B06
:1010A000014342EA01002168CA683A4B1A400243F0
:1010B000CA6020680169626B21F0406111430161DF
:1010C000206802F0F3F90646206802F0EBF930439D
:1010D0002ED1207F94F83810800340EA4102206826
:1010E000C16844F2020399431143C160206900289A
:1010F000206801690AD041F480310161206850F80C
:10110000C01F22696FF30D01114307E021F4803104
:101110000161206850F8C01F6FF30D01016094F861
:10112000400001280CD02068016921F00101016113
:10113000606901282068016B21F00F0111D013E0D4
:10114000D4E911010843D4E913121143084321687B
:101150000A6940F2FC739A43104340F001000861B1
:10116000E6E7226A521E11430163E06D20F002009F
:1011700040F00100E0655CE7C0FFFF5FC0FFFF7F5C
:1011800008120020400D0300000100500003005031
:101190000000FEFF0740F0FF70B586B00546142141
:1011A0006846FFF76FF81D492868884233D11C490B
:1011B000C86C40F40050C864C86C00F4005005903E
:1011C000C86C40F00200C864C86C002600F0020041
:1011D00005904FF4004000900320CDE901066946D8
:1011E000104800F023FA114C0F4820602420C4E975
:1011F00001068020C4E90360800060618000A06176
:101200002020C4E90706204600F058F908B1FFF78E
:1012100059FC6C65A56206B070BD0000000100506D
:10122000001002400004004808000240A012002004
:101230002DE9F0410446344817468846806800F09E
:101240001F05206802F032F900285AD194F858009E
:10125000012856D0012084F85800002625B1052D1C
:1012600002D0092D00D003E02046FFF745FB18B15E
:1012700084F85860BDE8F081E06D40F60161884374
:1012800040F48070E06521492068884202D14FF027
:10129000A04100E00146814200D01DB9E06D20F47C
:1012A0008010E065E06DC00404D5206E20F00600DB
:1012B000206600E02666616D1548C862616D1548BC
:1012C0000863616D1448486321681C20086084F835
:1012D00058602068416841F0100141602068C16891
:1012E00041F00101C16021683B4642464031606DDA
:1012F00000F044F921688A68084B1A40121D8A6080
:10130000B8E70220B6E700000003005000010050DB
:10131000FD0700087F08000865080008C0FFFF7F80
:1013200010B590F8253000210122022B03D00421B2
:10133000C163012122E003681C6824F00E041C60D4
:10134000836C1C6824F480741C6003681C6824F09F
:1013500001041C6090F84430046C03F01F0302FA8F
:1013600003F36360D0E913345C60436D33B11C68F0
:1013700024F480741C60D0E916345C6080F8252069
:10138000002280F82420084610BD70B590F8252072
:10139000002401212346022A07D00422C26380F8D8
:1013A000251080F82430012429E00268156825F012
:1013B0000E0515600268156825F001051560826C40
:1013C000156825F48075156090F84420056C02F0CE
:1013D0001F0201FA02F26A60D0E913255560426DDE
:1013E00032B1156825F480751560D0E91625556071
:1013F00080F8251080F82430816B01B188472046A1
:1014000070BDF0B4016C0C6801680D6890F8442060
:1014100002F01F06042202FA06F3234211D06B07E2
:101420000FD50B689B0603D40B6823F004030B60F5
:1014300090F8441001F01F018A40016C4A60016B72
:101440001DE0022303FA06F727424FF0000C4FF08D
:10145000010218D0AF0716D50C68A40605D40C6895
:1014600024F00A040C6080F8252090F8441001F064
:101470001F018B40016C4B6080F824C0C16A0029B9
:101480001AD0F0BC08470823B340234214D02B07DE
:1014900012D50B6823F00E030B6090F84410036C18
:1014A00001F01F0102FA01F15960C26380F82520A2
:1014B00080F824C0416BE2E7F0BC704770B50400CF
:1014C0000CD02B4A21681420914209D2294A0A449F
:1014D000B2FBF0F08000606427480AE0012070BD94
:1014E000234A52420A44B2FBF0F080006064204874
:1014F00008382064022084F825000A6847F6F07056
:101500008243D4E902031843D4E904352B4318433A
:10151000A3691843E3691843236A1843104308601A
:101520002046FFF72BFAA0680025B0F5804F00D1C8
:101530006560A16C20790860D4E91301416060689E
:10154000401E032808D82046FFF738FA606D056072
:10155000D4E91601416002E06565A565E565E563CE
:10156000012084F8250084F82450002070BD00007C
:1015700008040240F8FFFDBF0000024070B50446B9
:1015800090F82400002501280CD0012084F82400C4
:1015900094F825600020012E06D084F8240002254E
:1015A000284670BD022070BD022684F82560E063E5
:1015B0002068066826F0010606602046FFF710FA4C
:1015C000206B00282068016802D041F00E0106E07F
:1015D00021F0040101602068016841F00A01016006
:1015E000A06C0168C90303D5016841F480710160F2
:1015F000606D18B1016841F4807101602068016874
:1016000041F001010160CBE770B5044600F0FCF841
:101610000546601C02D004484068044400F0F4F819
:10162000401BA042FAD370BDFC1100202DE9FC4FF5
:10163000DFF8A0A1002301250AF1040B03244FF0D9
:101640000F0C0BF1040EBDE005FA03F632406FD02B
:101650004F68012F05D0022F03D0112F01D0122F78
:1016600017D1D0F808905F0004FA07F829EA0809B2
:101670000097D1F80C8008FA07F848EA0908C0F882
:1016800008804768B7430E79C6F300169E403E4374
:101690004660C6684FEA430804FA08F7BE4301975C
:1016A0008F6807FA08F73743C7604E68022E01D0EB
:1016B000122E13D1DE0800EB86060096366A5F070D
:1016C000FF0E0CFA07F926EA0906D1F8109009FA7C
:1016D00007F949EA0609009EC6F820900668019FAE
:1016E000BE430F7907F0030707FA08F7374307608F
:1016F0004E68F60065D5384E376E47F001073766FD
:10170000366E23F0030706F001060096334E3E4482
:10171000B146B6689F074FEA17780CFA08F7BE4340
:10172000B0F1904F05D02E4FB84204D1012717E0F9
:1017300047E0002714E02B4FB84201D102270FE009
:10174000294FB84201D103270AE0284FB84201D1FE
:10175000042705E0264FB84201D1052700E00627FF
:1017600007FA08F73743C9F80870DAF800605746F7
:10177000D1F8048096435FEAC83800D516433E602E
:10178000DBF800605F46D1F8048096435FEA883852
:1017900000D516433E60DEF800607746D1F804803D
:1017A00096435FEAC82800D516433E60094F0C37C0
:1017B0003E68D1F8048096435FEA882800D5164336
:1017C0003E605B1C0A6832FA03F67FF43DAFBDE869
:1017D000FC8F0000000401400010024000000140A6
:1017E0000004004800080048000C004800100048B1
:1017F000001400480069084000D0012070470AB179
:1018000081617047816270470148806870470000BD
:10181000FC110020024881684268114481607047D1
:10182000FC11002010B50024032000F073F8002004
:1018300000F008F808B1012401E000F025F8204686
:1018400010BD000070B50E4E05460024706898B1BA
:101850004FF47A71B1FBF0F00A490968B1FBF0F07E
:1018600000F064FD40B9102D06D200222946501E1A
:1018700000F030F8356000E00124204670BD000023
:10188000FC110020081200200A4882B0016E41F0CD
:1018900001010166016E01F001010091816D41F0CD
:1018A00080518165806D00F08050009002B000F0A2
:1018B000A1B8000000100240002809DB00F01F0260
:1018C000012191404009800000F1E020C0F80011A2
:1018D00070470000F0B40E4B1B680C46C3F30223A4
:1018E000C3F10705042D00D90425191D072901D2CC
:1018F000002300E0DB1E012606FA05F1491E214007
:1019000099409E40761E16403143F0BC02F08CBEDA
:101910000CED00E0064900F0070208684FF6FF03EF
:10192000184040EA0220034A104308607047000054
:101930000CED00E00000FA052B492C4B0A6832211F
:101940004A432B4940B1B0F5007F086829D020F404
:10195000C06040F480602CE00868C0F34120022899
:1019600004D051F8800F20F4807022E0D1F880007C
:1019700020F48070C1F88000086820F4C06040F452
:1019800000700860B2FBF3F0401C00E0401E4A69A2
:10199000520501D50028F9D1486940050AD5032030
:1019A0007047C0F34120022806D051F8800F40F460
:1019B0008070086000207047D1F8800040F480708B
:1019C000C1F88000086820F4C06040F4007008602E
:1019D000B2FBF3F0401C00E0401E4A695205DBD523
:1019E0000028F9D1D8E700000812002040420F007B
:1019F000007000400248816841F480418160704776
:101A0000007000402DE9F8430446006800269D4D13
:101A100000035ED5A86D0027C00008D4A86D40F073
:101A20008050A865A86D012700F080500090DFF875
:101A30005892D9F8001041F48071C9F80010FFF7EE
:101A4000E3FE804606E000BFFFF7DEFEA0EB0800E5
:101A500002282BD8D9F80000C005F5D5D5F890009C
:101A600010F4407014D0216C814211D0D5F8900050
:101A7000D5F8901020F4407041F48031C5F89010F2
:101A8000D5F8901021F48031C5F89010C5F8900079
:101A9000C00711D0FFF7B8FE804641F2883907E051
:101AA000FFF7B2FEA0EB0801494501D903260BE080
:101AB000D5F890008007F3D5D5F89000216C20F47C
:101AC00040700843C5F890001FB1A86D20F0805009
:101AD000A8652078C00707D0D5F88800616820F095
:101AE00003000843C5F888002078800707D5D5F89B
:101AF0008800A16820F00C000843C5F88800207811
:101B0000400707D5D5F88800E16820F03000084389
:101B1000C5F888002078000707D5D5F88800216926
:101B200020F0C0000843C5F888002078800607D55B
:101B3000D5F88800616920F440600843C5F8880042
:101B40002078400607D5D5F88800A16920F44050D8
:101B50000843C5F888002078000607D5D5F8880026
:101B6000E16920F440400843C5F888002088C0059A
:101B700007D5D5F88800216A20F440300843C5F81D
:101B800088002088800507D5D5F88800616A20F490
:101B900040200843C5F88800208840050FD5D5F8B7
:101BA0008800A16A20F440100843C5F88800A06AA4
:101BB000B0F5801F03D1E86840F48010E860208809
:101BC00000050FD5D5F88800E16A20F440000843ED
:101BD000C5F88800E06AB0F5800F03D1E86840F4EA
:101BE0008010E8602088C0040FD5D5F88800216BEC
:101BF00020F040700843C5F88800206BB0F1807F6A
:101C000003D1E86840F48010E86020884FF000615C
:101C100080040ED5D5F88800626B20F04060104338
:101C2000C5F88800606B884203D1E86840F48010F2
:101C3000E860208840040ED5D5F88800A26B20F01B
:101C400040601043C5F88800A06B884203D1E86863
:101C500040F48010E860208800040FD5D5F8880093
:101C6000E16B20F040500843C5F88800E06BB0F10C
:101C7000805F03D1E86840F48030E8603046BDE81A
:101C8000F883000000100240007000402DE9F0478A
:101C90000E4605004FF0000725D0DFF8AC81D8F8DC
:101CA000000000F00F00B0420CD2D8F8001021F074
:101CB0000F013143C8F80010D8F8000000F00F0001
:101CC000B04210D12968614CC80741F2883A5AD015
:101CD0006868DFF87C91032808D0022820682DD09E
:101CE000400500282CDB0120BDE8F087206880013A
:101CF000F9D5E06800F00302E068C0F30310401C6F
:101D0000032A19D0534A00BFB2FBF0F0E268C2F3D5
:101D100006225043E268C2F34162521C5200B0FBFB
:101D2000F2F0484517D9A06810F0F00F0CD08807E2
:101D300011D5A86840B10EE0474AE5E78003D0E737
:101D400000F0B6F8484506D9A06820F0F00040F051
:101D50008000A0608027A068696820F00300084325
:101D6000A060FFF751FD814606E000BFFFF74CFD84
:101D7000A0EB090151453AD8A068696800F00C0051
:101D8000B0EB810FF2D12868810714D5400703D545
:101D9000A06840F4E060A0602878000705D5A0683E
:101DA00020F4605040F4E060A060A068A96820F0D2
:101DB000F000084304E0802F03D1A06820F0F00079
:101DC000A060D8F80010404601F00F01B14216D9CA
:101DD000016821F00F0131430160FFF715FD07464F
:101DE00007E000BFFFF710FDC11B514501D90320DB
:101DF0007AE7D8F8000000F00F00B042F2D128785E
:101E0000400705D5A068E96820F4E0600843A060B9
:101E10002878000706D5A068296920F4605040EAB8
:101E2000C100A06000F044F8A1680C4AC1F303119E
:101E3000515C01F01F01C840094908600948006869
:101E4000BDE8F047FFF7FEBC002002400010024052
:101E500000B4C4040024F40000366E0124510008CC
:101E600008120020FC110020054806490068896816
:101E7000054AC1F30221515C01F01F01C8407047BF
:101E8000081200200010024034510008054806499D
:101E900000688968054AC1F3C221515C01F01F0145
:101EA000C84070470812002000100240345100085A
:101EB000184910B58868C0F381021748012A0BD071
:101EC0008A68164BC2F38102022A06D08A68C2F3DE
:101ED0008102032A03D0002010BD184610BDCA6835
:101EE00002F00304CA68C2F30312521C032C02D08E
:101EF000B0FBF2F001E0B3FBF2F0CA68C968C2F3CC
:101F000006225043C1F34161491C4900B0FBF1F086
:101F100010BD0000001002400024F40000366E01E5
:101F20002DE9F84304007AD02078FA4DC00747D055
:101F3000A868E96800F00C0001F003010C2802D049
:101F4000082817D001E0032914D06068B0F5803F5D
:101F500017D0B0F5A02F286817D020F48030286063
:101F6000286820F4802028606068E0B1FFF74CFC0E
:101F7000064614E02868800322D560680028D2D085
:101F80001EE0286840F48030EDE740F480202860AF
:101F9000F7E700BFFFF738FC801B642870D828687B
:101FA0008003F7D50CE0FFF72FFC064605E000BFE5
:101FB000FFF72AFC801B6428F0D828688003F7D438
:101FC000207880074CD5A868E96800F00C0001F083
:101FD00003010C2802D004280DD001E002290AD008
:101FE000E068002828682BD040F480702860FFF754
:101FF0000BFC064619E02868400502D5E068002879
:1020000091D06868217C20F0FE4040EA0160686061
:10201000C1480068FFF716FC002800D120E076E1F7
:10202000FFF7F2FB801B0228B8D828684005F7D5D7
:102030006868217C20F0FE4040EA016068600FE0A3
:1020400020F480702860FFF7DFFB064605E000BF44
:10205000FFF7DAFB801B0228A0D828684005F7D4D8
:102060002078000729D560690028D5F8940013D09E
:1020700040F00100C5F89400FFF7C6FB064606E0F5
:1020800090E000BFFFF7C0FB801B022886D8D5F880
:1020900094008007F6D510E020F00100C5F8940008
:1020A000FFF7B2FB064604E0FFF7AEFB801B0228F9
:1020B00078D8D5F894008007F6D42078400761D509
:1020C000A86D0026C00008D4A86D40F08050A86517
:1020D000A86D012600F08050009090480168C90565
:1020E00011D40168804641F480710160FFF78CFBD8
:1020F000074604E0FFF788FBC01B022852D8D8F837
:102100000000C005F6D5A068012815D00528D5F82F
:10211000900016D020F00100C5F89000D5F890008E
:1021200020F00400C5F89000A06841F28838B8B1EA
:10213000FFF76AFB07460EE0D5F8900040F001007B
:10214000F0E740F00400C5F89000F5E7FFF75CFB0E
:10215000C11B414526D8D5F890008007F6D50CE084
:10216000FFF752FB074604E0FFF74EFBC11B41455A
:1021700018D8D5F890008007F6D41EB1A86D20F0CD
:102180008050A8652078800629D5A0690028D5F858
:10219000980013D040F00100C5F89800FFF734FB19
:1021A000064606E077E000BFFFF72EFB801B022803
:1021B00077D8D5F898008007F6D510E020F0010018
:1021C000C5F89800FFF720FB064604E0FFF71CFB6C
:1021D000801B022865D8D5F898008007F6D4E069FE
:1021E000F0B3A968C1F38101032961D002282868EE
:1021F00020F0807028600BD0E86820F00300E860D1
:10220000E86847490840E860FFF7FEFA04464BE0FB
:10221000FFF7FAFA064604E0FFF7F6FA801B0228F9
:102220003FD828688001F7D4F4E908016FF00F0265
:1022300002EB01110843218A5204490802EB415183
:10224000A26841EA02210843217D4FF07E424908FD
:1022500002EB41610843217B40EAC160E96800E08C
:1022600062E0304A11400843E860286840F080701E
:102270002860E86840F08070E860FFF7C5FA04461F
:1022800005E000BFFFF7C0FA001B022809D8286844
:102290008001F7D548E004E0FFF7B6FA001B0228FA
:1022A00002D90320BDE8F88328688001F4D43BE01C
:1022B0000128F7D0E868226A00F00301914226D194
:1022C000616A00F0F0020901103991421FD1A26A3F
:1022D00000F4FE41B1EB022F19D194F82C2000F04C
:1022E0007841B1EBC26F12D1218E00F4C0024908CF
:1022F0004905A1F50011914209D194F8341000F07C
:10230000C06049084906A1F1007181420CD001204A
:10231000C8E7000000100240FC11002000700040DF
:10232000FFFFEEFE0C809F010020BBE710B5401EB2
:10233000B0F1807F01D3012010BD4FF0E024606137
:102340000F21601702F070F90020A06107202061C2
:10235000002010BD70477047704770477047704746
:10236000F0B590F83C20012A3AD0012580F83C5085
:10237000022280F83D2003685A689C68194E1A4F63
:10238000B34201D0BB4204D122F4700C4A6842EA45
:102390000C02DFF858C002EA0C02D1F800C04CEA87
:1023A000020CC3F804C00268B2420DD0B2F1804FF3
:1023B0000AD00F4B9A4207D00E4B9A4204D0BA4231
:1023C00002D00D4B9A4204D1896824F0800319434E
:1023D000916080F83D50002180F83C100846F0BD27
:1023E0000220F0BD002C0140003401408FFFFFFDB2
:1023F000000400400008004000400140704710B554
:10240000040003D094F83D0010B107E0012010BD96
:10241000002084F83C00204600F022F8022084F8D6
:102420003D00211D206801F0EFFB012084F84800E9
:1024300084F83E0084F83F0084F8400084F84100AE
:1024400084F8420084F8430084F8440084F845008E
:1024500084F8460084F8470084F83D00002010BD51
:1024600008B501681048B1F1804F14D00F4A91426D
:1024700019D1816D41F004018165806D002200F069
:102480000400009011461E20FFF724FABDE8084022
:102490001E20FFF711BA816D41F001018165806D49
:1024A00000F00100009008BD00100240000800404C
:1024B00090F83D10012901D001207047022180F8D9
:1024C0003D100168CA6842F00102CA600068104904
:1024D00088420ED0B0F1804F0BD00E49884208D010
:1024E0000D49884205D00D49884202D00C498842E6
:1024F00007D181680B4A1140062906D0B1F5803F0B
:1025000003D0016841F00101016000207047000024
:10251000002C01400004004000080040003401404D
:10252000004001400700010070B5044690F83C00EF
:10253000012814D0012584F83C50022084F83D0085
:1025400022689068344B184020F47F4090600868FF
:10255000702827D010DC10F00F0F03D04AE04FF0A6
:10256000020070BD4FEA2012072A43D2DFE802F0D2
:102570005050505048313900284BC21A984247D029
:1025800009DCB0F5805F35D0B0F5005F15D0B0F153
:10259000101F2FD13CE0102A3AD0202A38D0502AE0
:1025A00028D135E0CB68D1E90121206801F091FB09
:1025B0002068816841F0770109E0CB68D1E9012109
:1025C000206801F086FB2068816841F480418160C9
:1025D00010E0CA684968206801F026FD5021206893
:1025E00006E0CA684968206801F02FFD6021206874
:1025F00001F07AFB84F83D50002084F83C0070BD67
:10260000CA684968206801F00FFD40212068EFE7A3
:10261000226801461046EBE788FFCEFF200010003D
:10262000704770B50446006801694FF00005C94362
:10263000890715D4C168C943890711D4E91E01610E
:1026400001202077206880698007204602D0FFF7AC
:10265000E7FF04E000F00AF9204600F0C9F9257709
:1026600020680169C943490717D4C168C9434907AC
:1026700013D46FF004010161022020772068806983
:1026800010F4407F204602D0FFF7CAFF04E000F0BC
:10269000EDF8204600F0ACF9257720680169C943C0
:1026A000090716D4C168C943090712D46FF008019D
:1026B0000161042020772068C0698007204602D08D
:1026C000FFF7AEFF04E000F0D1F8204600F090F9EB
:1026D000257720680169C943C90617D4C168C94371
:1026E000C90613D46FF0100101610820207720681B
:1026F000C06910F4407F204602D0FFF791FF04E04C
:1027000000F0B4F8204600F073F9257720680169DD
:10271000C943C90708D1C168C943C90704D1891E83
:102720000161204600F0E4F920680169C943090607
:1027300009D4C168C943090605D46FF0800101615D
:102740002046FFF708FE20680169C943C90509D47E
:10275000C168C943090605D46FF480710161204640
:10276000FFF7F8FD20680169C943490609D4C1682B
:10277000C943490605D46FF040010161204600F0CD
:10278000DBF920680169C943890609D4C168C943D6
:10279000890605D46FF0200101612046FFF7DCFDBA
:1027A00020680169C943C90209D4C168C943C90283
:1027B00005D46FF4801101612046FFF7CFFD20683A
:1027C0000169C943890209D4C168C943890205D492
:1027D0006FF4001101612046FFF7BFFD2068016919
:1027E000C943490209D4C168C943490205D46FF4F9
:1027F000800101612046FFF7B2FD20680169C943ED
:1028000009020BD4C168C943090207D46FF400015F
:1028100001612046BDE87040FFF7F0BD70BD0000CB
:1028200010B586B0044614216846FDF72BFD2068DC
:10283000B0F1804F15D10C48C16C41F00101C16469
:10284000C06C694600F001000590022000900190E4
:10285000002002900390012004904FF09040FEF77A
:10286000E5FE06B010BD000000100240704770B5D4
:10287000044690F83C000D4601280BD0012084F856
:102880003C000C2A45D007DC5AB1042A1BD0082A88
:1028900078D12CE0022070BD102A4ED0142A71D1BC
:1028A0005DE0206801F02AFA2068816941F00801A2
:1028B00081612068816921F004018161206881695A
:1028C0002A69114311E0206801F066FA20688169E5
:1028D00041F4006181612068816921F48061816136
:1028E000206881692A6941EA022181614AE0206801
:1028F00001F09AFA2068C16941F00801C1612068BD
:10290000C16921F00401C1612068C1692A691143CC
:1029100011E0206801F0D0FA2068C16941F400613B
:10292000C1612068C16921F48061C1612068C16909
:102930002A6941EA0221C16124E0206801F004FB18
:102940002068016D41F0080101652068016D21F0EA
:10295000040101652068016D2A69114311E02068B6
:1029600001F02AFB2068016D41F4006101652068D7
:10297000016D21F4806101652068016D2A6941EAD9
:1029800002210165002084F83C0070BD10B50400F0
:1029900003D094F83D0010B107E0012010BD0020E5
:1029A00084F83C00204600F022F8022084F83D0024
:1029B000211D206801F028F9012084F8480084F8DE
:1029C0003E0084F83F0084F8400084F8410084F819
:1029D000420084F8430084F8440084F8450084F8F9
:1029E000460084F8470084F83D00002010BD704781
:1029F0007047000030B50446022269B1042912D0A4
:102A0000082917D00C291CD0102921D094F8430094
:102A1000012824D0012030BD94F83E000128F9D1CE
:102A200084F83E201DE094F83F000128F2D184F89C
:102A30003F2016E094F840000128EBD184F84020B4
:102A40000FE094F841000128E4D184F8412008E027
:102A500094F842000128DDD184F8422001E084F896
:102A600043200122206801F027F9194B20681949F9
:102A7000194A984209D0884207D0904205D0174D94
:102A8000A84202D0164DA84203D1456C45F400453A
:102A90004564206898420CD0B0F1804F09D0114BAA
:102AA000984206D0104B984203D0884201D0904201
:102AB00007D181680D4A1140062906D0B1F5803F43
:102AC00003D0016841F001010160002030BD000029
:102AD000002C01400034014000400140004401400E
:102AE00000480140000400400008004007000100C9
:102AF00010B504460D48FFF7DBFC0D4920688842FD
:102B000012D10C4800228179491CCBB2012183717A
:102B10000A2B01D182710170C3795B1CDBB2C371D6
:102B2000642B01D1C271417010BD00004C13002014
:102B300000080040D8110020704790F8801001294B
:102B400018D0012180F880102421C0F8841050F89A
:102B5000641B0A680B6823F001030B6022F000512C
:102B60000022026050F8643C196020210162027763
:102B700010467047022070477047704770B5044692
:102B800090F8800001281DD0012084F880002420C6
:102B9000C4F8840020680568026822F0010202601F
:102BA0002068826822F060620A438260204601F059
:102BB000B7FA206805602020C4F88400002084F85B
:102BC000800070BD022070BD70B5044690F8800092
:102BD00001281DD0012084F880002420C4F884003E
:102BE00020680568026822F001020260206882689D
:102BF00022F060420A438260204601F091FA206888
:102C000005602020C4F88400002084F8800070BD96
:102C1000022070BD70477047704700002DE9F041F9
:102C200003680446D86919689A6840F60F05284277
:102C30004FF0000509D186067ED501F0200602F08E
:102C400080573E4378D0216FFFE0924E924F16405E
:102C50000F40374370D0C70709D0CF0507D50127EC
:102C60001F62D4F88C3043F00103C4F88C30830722
:102C70000AD5D30708D0276802233B62D4F88C30EA
:102C800043F00403C4F88C3043070AD5D30708D0B7
:102C9000276804233B62D4F88C3043F00203C4F865
:102CA0008C3003070CD501F02003334308D026688D
:102CB00008233362D4F88C3043F00803C4F88C3016
:102CC00003050BD54B0109D526684FF40063336229
:102CD000D4F88C3043F02003C4F88C30D4F88C3016
:102CE000002B34D0800609D501F0200002F080517D
:102CF000084303D0216F09B120468847D4F88C00DF
:102D000021688968490602D410F0280F21D0204696
:102D100001F0C6FA20688168490615D5816821F05E
:102D200040018160E06F78B15C498163E06FFEF73C
:102D30002CFB00280BD000E011E0E06F816B00E07D
:102D40002046BDE8F04108472046FFF765FFBDE893
:102D5000F0812046FFF760FFC4F88C50F7E7E76E7C
:102D60002026012F5CD1C7065AD5CF0658D5102092
:102D700018622068816849062FD5E26F116849689A
:102D80000904090CE3D0B4F85C308B42DFD9A4F815
:102D90005E1011680968890618D4016821F48071F1
:102DA00001602068816821F00101816020688168EC
:102DB00021F040018160C4F88860E5662068016800
:102DC00021F010010160E06FFEF7AAFAB4F85C0090
:102DD000B4F85E10401A81B21EE0B4F85C10B4F88A
:102DE0005E20891AB4F85E2089B2002AAFD000298B
:102DF000ADD0026822F49072026020688268254B90
:102E0000DB431A408260C4F88860E5662567206865
:102E1000026822F0100202602046FFF7ADFE96E73E
:102E2000C70209D5570207D54FF480101862204613
:102E3000BDE8F041FFF7EFBE07060AD501F08007B5
:102E400002F40002174304D0616F00297FF478AFC9
:102E50007DE742060CD54A060AD51968204621F0BE
:102E600040011960C4F88460656700F089F86EE776
:102E7000020206D54A0004D52046BDE8F041FFF71E
:102E8000C9BEC001CBD50029C9DA2046BDE8F04152
:102E9000FFF773BE01000010200100048D420008FE
:102EA00010B5040003D0D4F8840010B107E001206D
:102EB00010BD002084F88000204600F027F8242070
:102EC000C4F884002068016821F0010101602046F7
:102ED00001F002FA0128EBD0A06A10B1204601F0FF
:102EE00041F92068416821F490414160206881687F
:102EF00021F02A0181602068016841F00101016030
:102F00002046BDE8104001F091B9000010B586B030
:102F1000044614216846FDF7B5F917492068884230
:102F200027D11648016E41F480410166016E01F41B
:102F300080410591C16C41F00101C164C06C6946DA
:102F400000F0010005904FF4C06000900220019055
:102F5000002002900390072004904FF09040FEF76D
:102F600065FB002211462520FEF7B4FC2520FEF764
:102F7000A3FC06B010BD0000003801400010024064
:102F80007047FEE770B54A4E01212DED028B3046A9
:102F9000FEF730FC474C002530B101213046FEF7EA
:102FA00029FC012833D033E0E078401CC0B2E07047
:102FB00001282DD1217A4FF6FF7011B1012927D1B7
:102FC0000CE094ED030A84ED070A94ED040A84ED05
:102FD000080A00F0A7F80120207219E094ED040A15
:102FE000F6EE000A30EE200AD4ED030AB4EEE00A51
:102FF000F1EE10FA07DB94ED070A84ED030A94ED75
:10300000080A84ED040A00F08DF8257200E0E570EE
:1030100002213046FEF7EEFB9FED278A30B10221F8
:103020003046FEF7E7FB012819D019E02079401C53
:10303000C0B22071012813D1207A012810D194ED5B
:10304000030A30EE480A84ED030AB5EEC00AF1EE39
:1030500010FA05D29FED190A84ED030A00E02571EC
:1030600004213046FEF7C6FB48B104213046FEF786
:10307000C1FB012800D16571BDEC028B70BD607988
:10308000401CC0B260710128F6D1207A0128F3D12A
:1030900094ED040A0A4930EE080A10EE100A84ED95
:1030A000040A8842E8DD9FED070A84ED040AE3E79D
:1030B00000040048D8110020CDCCCC3D3333534020
:1030C000333353400000000000B585B0142168463A
:1030D000FDF7D8F84FF6FF70009000200321CDE9EE
:1030E0000201019069460248FEF7A0FA05B000BD52
:1030F0000008004800B585B014216846FDF7C2F805
:103100004FF6FF70009001200190032003900020F3
:10311000029069460248FEF789FA05B000BD00003A
:103120000008004870B5002406462146204600F0FD
:1031300003F900F045F94FF49635304600F010F9E8
:10314000641CAC42F9D370BD30B587B01421684619
:10315000FDF798F81E48C16C41F00401C164C16CD0
:1031600001F004010591C16C41F00101C164C16C21
:1031700001F001010591C16C41F00201C164C06C14
:10318000012500F0020005904FF44870CDE90005DC
:1031900000240394694602940E48FEF747FA280279
:1031A00003940090CDE901544FF0904469462046C5
:1031B000FEF73CFAFFF79EFFA06940F48070A06123
:1031C00004481830016841F40871016007B030BD4F
:1031D0000010024000040048203AD2B2034B02EB38
:1031E000420203EB021200F019B8000006000020B2
:1031F000F0B50E460746002540F23F1407E0214691
:103200003846FFF7E9FF103C6D1CA4B2761C3278FB
:10321000002A01D0142DF2D3F0BD00002DE9F047B3
:1032200091468A460026044600F086F8DFF8408082
:10323000012700BF00F0C4F85FF0000539F8160060
:1032400007FA05F10842404601D1408800E00088B5
:1032500000F086F86D1C102DF0D3641CE4B25146CA
:10326000204600F069F8761C182EE3D3BDE8F087FD
:103270000000002010B5FFF767FF002000F014F8F1
:10328000084CA080A088A0F50241303906D000F09B
:103290001FFB002000F008F8A08010BD00F08FFA9E
:1032A000F7E700000000002070B51D490A6842F4ED
:1032B00000720A600A6842F480720A60184C103C7E
:1032C000226842F020022260164A1060086840F02E
:1032D0002000086000BF00BF00BF206840F0200051
:1032E0002060206840F480702060FFF7EDFE4FF012
:1032F0009041886A40F48070886200BF00BF00BFC0
:103300000848001F006885B2886940F480708861B1
:10331000FFF7F0FE206840F400702060284670BD82
:10332000280400481408004801B5BDF80000014910
:10333000488008BD0000002010B50C460146202042
:1033400000F070F82146BDE81040212000F06AB876
:1033500001B5BDF800000149088008BD000000204B
:1033600030B5154B1968154A8CB2116841F40071DB
:103370001160124910390D6845F480750D600D68B3
:1033800045F020050D601860106840F020001060C6
:1033900000BF00BF00BF086840F020000860086858
:1033A00040F48070086000BF00BF00BF086840F4B0
:1033B000007008601C6030BD1408004828040048F4
:1033C000164A10B51068164983B2086840F40070B8
:1033D0000860086840F4807008601148103804687C
:1033E00044F020040460222414600C6844F020049B
:1033F0000C6000BF00BF00BF016841F02001016008
:10340000016841F48071016000BF00BF00BF016826
:1034100041F400710160136010BD00001408004801
:103420002804004870B51A4C22681A4B95B21A68E5
:1034300042F400721A601A6842F480721A60154AE7
:10344000103A166846F0200616602060186840F0B2
:103450002000186000BF00BF00BF106840F02000CF
:103460001060106840F4807010602160186840F0AF
:103470002000186000BF00BF00BF106840F02000AF
:103480001060106840F480701060256070BD00000E
:10349000140800482804004800EB8100006E00F08A
:1034A000F84070478068C0F3C00070478068C0F380
:1034B00080007047C06810F4406F01D00020704752
:1034C00001207047042303EAD15310B5184443691F
:1034D000C1F3045107248C40A3438A401343436142
:1034E00010BD00EB8100016E21F000411143016627
:1034F0007047000030B589B020216846FCF7C2FE55
:1035000019481849002401604902C0E90114C46047
:1035100004250461C0E9054504774477012101626F
:1035200080F82440C462046380F83810C46380F8D3
:103530004040FDF733FD08B1FDF7C4FA0B48009099
:103540000620CDE901047F200594CDE903056946F5
:103550000548FDF703FB002801D0FDF7B3FA09B0D9
:1035600030BD000000010050341200200080F03E09
:103570000D4808B5816C41F004018164816C01F053
:1035800004010091816C41F001018164806C002292
:1035900000F0010000900F210B20FEF79BF9BDE821
:1035A00008400B20FEF788B90010024070B586B0C5
:1035B00014216846FCF766FE2148C16C41F02001E9
:1035C000C164C16C01F020010591C16C41F00101A1
:1035D000C164C16C01F001010591C16C41F00201AF
:1035E000C164C16C01F002010591C16C41F0080198
:1035F000C164C06C134E00F0080005900022042145
:103600003046FEF7FCF800240125CDE90054694658
:103610004FF090400294FEF709F80720CDE900042E
:10362000694609480294FEF701F804200090CDE9AC
:103630000154694630460394FDF7F8FF06B070BDAB
:1036400000100240000C00480004004810B58EB085
:1036500000240794089409940A940B940C941C2158
:1036600068460D94FCF70EFE1E484FF08041016045
:103670004F21C0E9011440F2E731C0E9031484612D
:10368000FEF7BDFE08B1FDF71DFA4FF4805007901C
:1036900007A91448FEF748FF08B1FDF713FA1148CF
:1036A000FFF774F908B1FDF70DFA0B940BA90D485B
:1036B0000D94FEF755FE08B1FDF704FA6020009066
:1036C0004FF4FA70CDE901040422694605480494D8
:1036D000FFF7CDF808B1FDF7F5F90248FFF7A0F8BC
:1036E0000EB010BD0013002010B588B0002417489C
:1036F000009401940294039404940594124906944E
:1037000001604F21C0E9011440F2E731C0E9031420
:103710008461FEF774FE08B1FDF7D4F94FF48050D0
:10372000009069460948FEF7FFFE08B1FDF7CAF9A7
:10373000049404A905480694FEF712FE002801D05F
:10374000FDF7C0F908B010BD000800404C13002080
:10375000184810B5164901604FF416514160002118
:1037600081600C22C160C0E904128161C161016203
:1037700041628162FFF794FB08B1FDF7A3F90021D4
:103780000C48FFF721FA08B1FDF79CF90021094820
:10379000FFF7F4F908B1FDF795F90648FFF7CDF901
:1037A000002803D0BDE81040FDF78CB910BD000023
:1037B0000038014098130020FEE7FEE7704730B55F
:1037C00001210020FFF72EFE4FF47A70FDF728F953
:1037D00000210120FFF726FE41F290711020FFF733
:1037E00021FE4FF41C516020FFF71CFE01216120D7
:1037F000FFF718FE02214620FFF714FE48F21001E1
:103800001320FFF70FFE48F2FE011220FFF70AFE19
:103810004FF4A0610220FFF705FE41F230010320C2
:10382000FFF700FE40F2033421463020FFF7FAFD97
:1038300021463120FFF7F6FD21463220FFF7F2FD49
:10384000E51E29463320FFF7EDFD03213420FFF765
:10385000E9FD21463520FFF7E5FD14213620FFF76D
:10386000E1FD21463720FFF7DDFD21463820FFF737
:10387000D9FD21463920FFF7D5FD29463A20FFF72B
:10388000D1FD03213B20FFF7CDFD21463C20FFF772
:10389000C9FD4FF4A0513D20FFF7C4FD4FF4007166
:1038A0009220FFF7BFFD21469320FFF7BBFD40F6B6
:1038B0000D019020FFF7B6FD41F218010320FFF73C
:1038C000B1FDBDE8304040F273110720FFF7AABDFB
:1038D00010B543F20801E320FFF7A4FD1221E72011
:1038E000FFF7A0FD41F23121EF20FFF79BFD002102
:1038F0000120FFF797FD4FF4E0610220FFF792FDF2
:1039000041F230010320FFF78DFD00210420FFF775
:1039100089FD40F207210820FFF784FD00210920DE
:10392000FFF780FD00210A20FFF77CFD00210C201D
:10393000FFF778FD00210D20FFF774FD00210F2017
:10394000FFF770FD00211020FFF76CFD072111200B
:10395000FFF768FD00211220FFF764FD002113200E
:10396000FFF760FDC820FDF74FFE41F29061102087
:10397000FFF758FD40F227211120FFF753FD3220B9
:10398000FDF742FE1D211220FFF74CFD3220FDF70E
:103990003BFE4FF400611320FFF744FD1421292062
:1039A000FFF740FD0B212B20FFF73CFD3220FDF7F8
:1039B0002BFE00212020FFF735FD00212120FFF7FD
:1039C00031FD07213020FFF72DFD40F20771312036
:1039D000FFF728FD06213220FFF724FD40F2047195
:1039E0003520FFF71FFD41F604713620FFF71AFD61
:1039F00004213720FFF716FD00213820FFF712FDC4
:103A000040F206713920FFF70DFD40F201713C20B4
:103A1000FFF708FD0F213D20FFF704FD0021502096
:103A2000FFF700FDEF215120FFF7FCFC00215220A1
:103A3000FFF7F8FC40F23F115320FFF7F3FC4FF47F
:103A40001C516020FFF7EEFC01216120FFF7EAFC2A
:103A500000216A20FFF7E6FC00218020FFF7E2FC4E
:103A600000218120FFF7DEFC00218220FFF7DAFC35
:103A700000218320FFF7D6FC00218420FFF7D2FC31
:103A800000218520FFF7CEFC10219020FFF7CAFC13
:103A900000219220FFF7C6FC03219320FFF7C2FC10
:103AA0004FF488719520FFF7BDFC00219720FFF7A8
:103AB000B9FC00219820FFF7B5FC41F21801032062
:103AC000FFF7B0FCBDE8104040F273110720FFF78C
:103AD000A9BC704710B588B014A11820FFF788FB67
:103AE000154CE068FCF7D9FB41EC100B13A153EC2B
:103AF000102B684600F084FD69466020FFF778FBD4
:103B000020216846FCF7BEFB2069FCF7C6FB41ECB0
:103B1000100B0DA153EC102B684600F071FD6946A7
:103B20007820FFF765FB08B010BD000020202020A2
:103B30002020506172610000D811002020566D6174
:103B4000783A252E3166560020566D696E3A252E3C
:103B500031665600FDF75EBE10B5A4B03821684648
:103B6000FCF790FB14211FA8FCF78CFB44210EA846
:103B7000FCF788FB4FF40070FDF7DEFE012000909B
:103B80000004019002200324CDE907041421CDE9AB
:103B90000A100C900D9009946846FEF7C1F908B11F
:103BA00072B6FEE70F20CDE91F0400242194229471
:103BB00002211FA82394FEF769F808B172B6FEE748
:103BC00048F20100CDE90E0440071D900EA8FDF754
:103BD00019FF002801D072B6FEE724B010BD000026
:103BE0000548016841F47001016003494FF000602D
:103BF000803908607047000088ED00E00148FEF75A
:103C000010BD00004C1300202DE9F0430268234B47
:103C1000234D244E244C4FF08049984207D048450C
:103C200005D0A84203D0B04201D0A04203D122F077
:103C300070074A683A431D4FDFF874C0DFF874809C
:103C400098420DD048450BD0A84209D0B04207D0C9
:103C5000A04205D0B84203D0604501D0404503D111
:103C600022F44075CA682A434D6922F080022A4333
:103C700002608A68C2620A688262984207D0A042E3
:103C800005D0B84203D0604501D0404501D1096953
:103C9000016301214161BDE8F0830000002C014077
:103CA0000004004000080040003401400040014092
:103CB000004401400048014010B501F01F030121FC
:103CC000046A99408C430462016A9A40114301627C
:103CD00010BD10B5846842EA032224F47F440A43ED
:103CE0002243826010BD00008268034B1A400A43E1
:103CF00042F00701816070478FFFCFFF2DE9F0434D
:103D0000026A22F001020262056A436882691C4C61
:103D100025F0020522400C6822F0030214438A6851
:103D2000194E2A43174D194FDFF864C0DFF864902D
:103D3000A84207D0B04205D0B84203D0604501D0B8
:103D4000484506D122F00808CA6842EA080222F073
:103D50000402A84207D0B04205D0B84203D0604563
:103D600001D0484505D14D6923F440731D438B694B
:103D70002B4343608461496841630262BDE8F0837C
:103D80008FFFFEFF002C0140003401400040014045
:103D90000044014000480140F0B5026A22F01002E0
:103DA0000262056A42688369194C1B4E23400C6805
:103DB00023F4407343EA042425F020038D6843EA8A
:103DC0000513144DA84201D0B04206D1CF6823F0AC
:103DD000800343EA071323F04003A8420AD0B0420D
:103DE00008D00E4DA84205D00D4DA84202D00D4D71
:103DF000A84207D14D6922F4406242EA85028D69EA
:103E000042EA850242608461496881630362F0BDD1
:103E1000FF8FFFFE002C01400034014000400140B4
:103E20000044014000480140F0B5026A22F480726B
:103E30000262056A4368C269194C1B4E22400C6835
:103E400022F00302144325F400728D6842EA052231
:103E5000144DA84201D0B04206D1CF6822F40062CE
:103E600042EA072222F48062A8420AD0B04208D077
:103E70000E4DA84205D00E4DA84202D00D4DA842CD
:103E800007D14D6923F4405343EA05138D6943EA92
:103E900005134360C4614968C1630262F0BD00005C
:103EA0008FFFFEFF002C0140003401400040014024
:103EB0000044014000480140F0B5026A22F48052FB
:103EC0000262056A4268C369194C1B4E23400C68A4
:103ED00023F4407343EA042425F400538D6843EA35
:103EE0000533144DA84201D0B04206D1CF6823F467
:103EF000004343EA073323F48043A8420AD0B04288
:103F000008D00E4DA84205D00D4DA84202D00D4D4F
:103F1000A84207D14D6922F4404242EA85128D69D8
:103F200042EA85124260C461496801640362F0BDDF
:103F3000FF8FFFFE002C0140003401400040014093
:103F4000004401400048014030B5026A22F480324A
:103F50000262046A4268036D114D2B400D681D43D7
:103F600024F400330C8943EA04430E4CA0420BD0E6
:103F70000D4CA04208D00D4CA04205D00C4CA042E4
:103F800002D00C4CA04204D14C6922F4803242EAA7
:103F900004224260056549688164036230BD000007
:103FA0008FFFFEFF002C0140003401400040014023
:103FB000004401400048014030B5026A22F48012FA
:103FC0000262046A4268036D114D24F400142B4010
:103FD0000D6843EA05230D8944EA05540D4DA842B6
:103FE0000BD00D4DA84208D00C4DA84205D00C4D69
:103FF000A84202D00B4DA84204D14D6922F4802280
:1040000042EA8522426003654968C164046230BDAA
:10401000FF8FFFFE002C01400034014000400140B2
:10402000004401400048014010B5036A046A24F0CE
:1040300001040462846924F0F00444EA021423F0C9
:104040000A020A438461026210BD10B5036A23F0BC
:10405000100303628369046A23F4704343EA023263
:1040600024F0A00343EA01118261016210BD000047
:1040700070B50B4C0121C01D81406089094D014381
:104080006181012204212846FDF7B9FB06496089B8
:1040900008602846BDE8704000220421FDF7AFBB50
:1040A000D8110020000C00481408004870B50A4CD4
:1040B0004FF47F40094D6081012204212846FDF71D
:1040C0009EFB0749608908602846BDE870400022D1
:1040D0000421FDF794BB0000D8110020000C00481B
:1040E0001408004870B50B4C0121C01D8140608947
:1040F000094D88436081012204212846FDF77FFB9A
:104100000649608908602846BDE870400022042105
:10411000FDF775BBD8110020000C004814080048BA
:1041200030B5416EB9B1026891689268C1F34261DD
:104130000B4B520F9C5CE50003F10804A25CB5FB3D
:10414000F2F2A0F86A205A5C615CD200B2FBF1F195
:10415000A0F8681030BD0121A0F86A10F8E700004F
:104160001451000890F82810C90706D001684A6861
:10417000C36A22F400321A434A6090F82810890773
:1041800006D501684A68036B22F480321A434A60FC
:1041900090F82810490706D501684A68436B22F455
:1041A00080221A434A6090F82810090706D5016852
:1041B0004A68836B22F400421A434A6090F8281040
:1041C000C90606D501688A68C36B22F480521A4377
:1041D0008A6090F82810890606D501688A68036C01
:1041E00022F400521A438A6090F82810490611D52B
:1041F00001684A68436C22F480121A434A60416C99
:10420000B1F5801F06D101684A68836C22F4C002B0
:104210001A434A6090F82810090606D501684A68D2
:10422000C06C22F4002202434A607047F8B50026B1
:104230000446C0F88C60FDF7E7FA05462068006880
:104240006FF07E47000708D52B4600224FF400117F
:104250002046009700F07AF960B9206800684007AE
:104260000AD52B4600224FF480012046009700F02B
:104270006DF908B10320F8BD2020C4F88400C4F80B
:10428000880044F86C6F00202675F8BD10B5806A70
:104290000021A0F85E10A0F85610FEF7BDFC10BD7E
:1042A00001680A6822F490720A6001688A68094B02
:1042B0001A408A60C16E012904D101680A6822F09F
:1042C00010020A602021C0F888100021C166016731
:1042D00070470000FEFFFFEF2DE9F0410446016842
:1042E00080682269E3691043626900251A4310431C
:1042F000DFF82CC20A688B4B1A4002430A60206820
:104300004168E26821F44051114341602168A0698D
:10431000614501D0226A10438A68834B1A400243E8
:104320008A602068C16A626A21F00F011143C1628C
:104330007E4923687E488B420DD1D0F8880010F06A
:10434000030006D0012855D0022842D003283FD1CF
:1043500052E001203DE077498B420BD1D0F8880034
:1043600010F00C0035D0042833D0082840D00C2899
:104370002ED141E070498B420BD1D0F8880010F06B
:10438000300026D0102835D0202831D030281FD139
:1043900032E06A498B420BD1D0F8880010F0C0009F
:1043A00017D0402826D0802822D0C02810D123E062
:1043B00063450DD1D0F8880010F4406009D0B0F505
:1043C000806F17D0B0F5006F12D0B0F5406F13D0EA
:1043D00010205B4A5B4F00264FF40041634539D102
:1043E00060B102280DD004280DD0082831D10EE08C
:1043F0000220EEE70420ECE70820EAE7FDF734FDB1
:1044000003E0114603E0FDF753FD01007DD0606A33
:1044100037F810206768B1FBF2F007EB47038342DF
:104420006CD8B0EB073F69D8002308461946FBF764
:10443000F1FE090241EA1061020278081018714188
:104440003A460023FBF7E6FE3F4AA0F54071914251
:1044500059D953E0E3694FF6EF788B422DD1092803
:104460004CD2DFE800F005080D4B274B4B4B0E00FC
:10447000FDF7FAFC01E0FDF709FD010001D144E080
:104480001146606A37F81000B1FBF0F04100606837
:1044900001EB5001B1FBF0F080B2A0F110014145F9
:1044A0002CD84FF6F0710140C0F342000143206860
:1044B000C1602AE0FDF7FCFCDFE709281ED2DFE837
:1044C00000F005080D1D1F1D1D1D0E00FDF7CCFC85
:1044D00001E0FDF7DBFC010001D116E01146606A46
:1044E00037F81000B1FBF0F1606801EB5001B1FB4F
:1044F000F0F080B2A0F11001414504D9012504E09B
:10450000FDF7D6FCE7E72168C8600120A4F86A003F
:1045100024F8680F2846A660E660BDE8F081000038
:1045200000800040F369FFCFFFF4FF110038014025
:10453000001002400044004000480040004C004091
:104540000024F400FC500008FFFC0F002DE9F047A8
:104550009A4617460E4604464FF000094FF02008D1
:10456000089D39E0681C37D0FDF74EF9A0EB0A0032
:10457000A84222D80DB32068016849072CD5C0692C
:10458000C043000528D421684FF400600862206809
:10459000016821F4D07101602068816821F0010177
:1045A0008160C4F88480C4F88880C4F88C8000BF1F
:1045B00084F880900320BDE8F0872068016821F42A
:1045C000D07101602068816821F001018160C4F828
:1045D0008480C4F88880EBE72068C06936EA000070
:1045E00004D00020B842BDD00020E4E70120F9E764
:1045F0000148FEF713BB000098130020FEE70000FF
:104600000FB4084B10B504A902AA039800F0EEF805
:10461000044602A9002000F06CFC204610BC5DF8A6
:1046200014FB0000F34E00080907090E002804DB04
:1046300000F1E02080F80014704700F00F0000F156
:10464000E02080F8141D704702E008C8121F08C15E
:10465000002AFAD170477047002001E001C1121F03
:10466000002AFBD1704700002DE9FF5F82B00021D6
:10467000DDE90430020DDDF840B0034318D044F604
:104680001050A2F2FF3242431514119801281FD096
:10469000A5EB0B00401C5FEA000A4FF000064E4FEE
:1046A000DFF83891B046504615D5CAF1000413E042
:1046B000119801244AA3012801D16FEA0B01029845
:1046C000119AC0E90031C0E9024206B0BDE8F09F8E
:1046D000CBF10000DFE704460021404A491842EBD5
:1046E0000450CDE9001012E0E00707D032463B4607
:1046F00040464946FBF7C0FE8046894632463B4667
:1047000010461946FBF7B8FE06460F466410002C0B
:10471000EAD1DDE90401DDE90023BAF1000F06DA90
:10472000FBF7AAFE42464B46FBF7A6FE05E0FBF769
:1047300015FF42464B46FBF711FF04460E4600228A
:10474000284BFBF793FF03D84FF0FF30014607E0FB
:104750000022254B20463146FBF7E7FDFBF76DFFB6
:10476000102409E0002C0ADB0A220023FBF752FD8B
:10477000039B30321A55641E50EA0102F2D1641CC8
:10478000039AC4F111031444119A012A03D001229F
:1047900008430DD10AE0084304D000204FF0110B6C
:1047A000119072E7A3EB0B056D1E0DE05B4504DD78
:1047B0004FF0000205F1010504E003DA4FF00002BA
:1047C000A5F10105002AECD002981199C0E9023147
:1047D000C0E9004579E70000000014400000F03F08
:1047E000300000000000F0430000E03F2DE9FF4FE3
:1047F00095B09A46884606460025EEE1252877D1F1
:1048000000242746F94A0121039400E0044316F8E6
:10481000013F203B01FA03F01042F7D130782A28FB
:1048200011D06FF02F033078A0F13002092A16D88A
:10483000039A44F0020402EB820203EB42021044AA
:10484000761C0390EFE758F8042B0392002A03DA52
:10485000504244F40054039044F00204761C307833
:104860002E2816D116F8010F44F004042A280DD082
:104870006FF02F023078A0F13003092B09D807EB35
:10488000870302EB4303C718761CF3E758F8047B51
:10489000761C30786C280FD006DC4C2817D068289E
:1048A0000DD06A2814D104E0742810D07A280FD1D2
:1048B0000DE044F400140AE044F4801401E044F4F0
:1048C00040147278824202D104F58014761C761C62
:1048D000307866280BD013DC582877D009DC002804
:1048E00075D04528F6D04628F4D047281AD193E150
:1048F00018E0632835D0642879D0652812D18BE17F
:10490000702873D008DC6728F1D069286FD06E2832
:104910000DD06F2806D1ACE073282CD0752874D048
:10492000782853D05246179990476D1C54E1C4F330
:104930000250022809D003280DD0D8F8001004280E
:104940000DD00D6008F1040846E1D8F80010EA1710
:10495000C1E90052F6E7D8F800100D80F2E70D70BB
:10496000F0E718F8041B8DF8001000208DF8010006
:10497000EB46012003E058F804BB4FF0FF3061071D
:104980004FF0000102D40DE009F101018946B9425E
:104990000FDA8145F8DB1BF809100029F4D108E093
:1049A00009F1010189468142FADB1BF8091000294F
:1049B000F6D103985346A0EB090721463846179ACB
:1049C00000F080FA284400EB090507E044E008E124
:1049D0000DE01BF8010B524617999047B9F10109F8
:1049E000F7D2534621463846179AF2E039E00A21B9
:1049F000C4F302524FF0000B0091022A06D058F87F
:104A0000040BC117032A09D00AE023E008F10700CC
:104A100020F00702F2E80201904605E000B2C1175B
:104A2000042A01D140B2C117002906DA0A46002142
:104A3000404261EB02012D2202E0220504D52B2227
:104A40008DF80420012203E0E20701D02022F7E7DD
:104A5000914657E00A2100E010214FF0000B009131
:104A60000BE010214FF0000B44F0040408270091E4
:104A700003E008204FF0000B0090C4F30252022A1A
:104A800005D058F8040B0021032A08D008E008F1EB
:104A9000070020F00702F2E80201904603E080B22E
:104AA000042A00D1C0B24FF0000922072AD532787B
:104AB000702A07D0DDF800C08CF0100C5CEA0B0CFB
:104AC00005D00EE040228DF80420012208E050EAD3
:104AD000010306D030238DF804308DF80520022222
:104AE0009146009B83F0080353EA0B030AD150EA76
:104AF000010201D1620705D530228DF804204FF064
:104B000001097F1E3278582A04D039A20C920CAACF
:104B100002920BE03BA2F9E75B46009AFBF77AFBB7
:104B20000C9B9B5C029A521E0292137050EA010287
:104B3000F2D1029804A9081A00F1200B600702D5EF
:104B400024F4803400E001275F4502DDA7EB0B0071
:104B500000E0002000EB0B01009003984944401A4C
:104B60000390E00306D453462146179A039800F0B9
:104B7000A9F90544002706E001A85246C05D17992F
:104B800090476D1C7F1C4F45F6DBE0030CD5534668
:104B90002146179A039800F095F9054404E0302067
:104BA0005246179990476D1C0099481E00900029A5
:104BB000F5DC08E00298029952460078491C0291FF
:104BC000179990476D1CBBF10001ABF1010BF1DCB3
:104BD0005BE100F065F90544761C307800287FF42D
:104BE0000DAE19B02846BDE8F08F0000092801007D
:104BF0003031323334353637383961626364656653
:104C00000000000030313233343536373839414214
:104C10004344454600000000600700D4062708F121
:104C2000070020F00700F0E80223804603F0004C64
:104C30005FEA0C0001D097A009E0200501D596A0FD
:104C400005E0E00701D095A001E0AFF24C00139021
:104C5000307823F0004365280CD006DC452809D0C5
:104C600046281DD047287FD13BE0662818D067280A
:104C70007AD136E00021112F01DB112000E0781CF1
:104C8000CDE9000104A90CA8FFF7EEFCDDE90D0158
:104C90000C9A4FF0000B07F10109109200914EE0C1
:104CA0004FF000400097CDE9011004A90CA8FFF7D0
:104CB000DBFCDDE90D020C9B0F994FF0000B9146D8
:104CC0001093009211B9791C00EB0109B7EB0900B0
:104CD00003D4C0F1FF3B07F10109A9EB07000190E4
:104CE00042E0012F00DA01270021112F01DD112000
:104CF00000E03846CDE9000104A90CA8FFF7B4FC98
:104D0000DDE90D010C9A00914FF0000BB9461092AD
:104D100021070FD4009A4A4503DA914601E0A9F130
:104D20000109B9F1010F05DD109AA9F10101515CEA
:104D30003029F4D0B84202DA10F1040F03DA01216D
:104D4000CDE9011010E0002803DC8344A9EB000149
:104D500002E0411C494500DD8946A0EB0B00401CE8
:104D600001904FF000400290200705D4019848457B
:104D700002DB4FF0FF30019000208DF84B000298CD
:104D80000DF14B07B0F1004F25D002200C902B20E5
:104D90000D90029800280CDA404202902D200D90D0
:104DA00007E00A210298FBF78BFA3031029007F8EE
:104DB000011D0C99481E0C900029F2DC0298002875
:104DC000EFD1791E0D980870307800F0200040F087
:104DD000450007F8020D11A8C01BC01D02901398D2
:104DE000007800B1012000EB0901019801EBE071AE
:104DF000029801440398401A401E0390E00306D431
:104E000053462146179A039800F05CF8054413981E
:104E1000007818B15246179990476D1CE00323D5CE
:104E200053462146179A039800F04CF805441BE0BE
:104E3000BBF1000F07DB0098584504DD1098179967
:104E400010F80B0001E01799302052469047019866
:104E50000BF1010B401E05F10105019004D12E203C
:104E60005246179990476D1CB9F10001A9F101094B
:104E7000DEDC05E017F8010B5246179990476D1CD0
:104E80000299481E02900029F4DC53462146179AE5
:104E900003989EE62D0000002B000000200000007B
:104EA0002DE9F041044600251E461746880404D427
:104EB00005E039462020B0476D1C641EF9D5284610
:104EC000BDE8F0812DE9F041044600251E469046DC
:104ED000C80301D5302700E02027880404D505E069
:104EE00041463846B0476D1C641EF9D52846BDE8DA
:104EF000F0810A68531C0B6010707047F0B5224BAC
:104F00009FED200A214983ED050A00220020C2F10D
:104F1000090512E001EB800751F820407E68B44299
:104F200009D200EE904A41F82060F8EE600AFCEEEB
:104F3000E00AC7ED010A401CC0B28542EADC521CFF
:104F4000D2B2092AE2D3012051F82020401C00EE01
:104F5000902AC0B20928F8EE600A30EE800AF3D336
:104F6000F4EE000A83ED050A20EE200ADFED080AC0
:104F700020EE200ADFED070A20EE200A83ED060A64
:104F8000F0BD000000000000D81100200C1200202D
:104F90000000803933335340FCF744FCFEF7DCFD5E
:104FA000FEF704FBFEF7E4FAFEF79EFBFEF7A2FA1B
:104FB000FEF7CEFBFEF74AFB4B48FDF779FA0421DA
:104FC0004A48FDF717FD7F214948FBF77DFD0A227E
:104FD00048494748FCF72CF9FEF74CF94FF6FF74A7
:104FE0002046FEF79FF82046FEF79EF90020FEF7C8
:104FF000AFF9FFF75BF800263C4D3F4CFBF756FD41
:10500000607828B10A223B493948FCF711F96670EB
:10501000A07810B1A670FFF771FF207810B126704C
:10502000FDF7B0FF94ED060AD4ED030AB4EEE00AF2
:10503000F1EE10FA14DD0120FFF754F80220FFF71B
:1050400017F80320FFF714F8012060722868466201
:10505000296841F28830886329684000C862E860A6
:1050600094ED060AD4ED040AB4EEE00AF1EE10FA6B
:1050700015D20120FEF7FCFF0220FFF733F80320D2
:10508000FEF7F6FF022060722868466229684FF436
:105090004870886329684FF47A70C862E86094EDBC
:1050A000060AD4ED040AB4EEE00AF1EE10FAA5DB2C
:1050B000D4ED030AB4EEE00AF1EE10FA9ED201201C
:1050C000FEF7D6FF0220FEF7D3FF0320FFF70AF812
:1050D0000320607228684662296814208863296862
:1050E0006420C862E86089E74C13002000130020A8
:1050F000341200200C120020D81100200100020000
:105100000400060008000A000C0010002000400007
:1051100080000001010101030701000008040204EE
:10512000080101010000000000000000010203046A
:105130000607080900000000010203045C51000892
:10514000000000200C1200009E070008F057000825
:105150000C1200201C060000584600080006310012
:1051600000FFFF00010316800102611EE13292CCB4
:1051700002012A6A23600C02200F30063006FE1F4F
:10518000FE1F3006380718030A2007180318038C7F
:1051900001023172201700E003F80F9C0E8C1C8C6A
:1051A000188C009800F801E007800E800E100B1894
:1051B0009C18B80CF00FE0038026A15A10090E18B5
:1051C0001B0C110C11060210110311039B018E011F
:1051D000C038C06C60446044300260071844186CEA
:1051E0000C38BE1005E001F0037A101406180630E2
:1051F00003F001F000F8009C310E33061E061C027D
:10520000E0063FFC73F021B8920C020121E7100B7D
:105210000200038001C000C0006002D230022114ED
:10522000211C155E12032A15163220123570120346
:1052300002D20602111425A2214ED6208821481040
:1052400008D806F807E00130D2052AEAC405FC3F79
:10525000FC3FE8092C30120002021B806C0805326A
:10526000E007E0078E41D6F57F750C155C351045DB
:10527000624564D17AE00A03F007380E180C0C1866
:1052800002D409180C380EF007E003B0214C0C07CB
:105290001901F0019801880803A16043F80F5E220C
:1052A0000002219C35F025ECD0071800FC1FFC1FE4
:1052B00090100701F807180E0C0121C81805C0034B
:1052C000C00751113C41920210F8904C0B0C000E9B
:1052D000000F000F800DC03003116B270C0CB209BA
:1052E000148513F80F9031893009EC03FC071C0E6C
:1052F000001C98115E0005101C0C180E602009C0DF
:1053000007F00F381C1818325409CC03EC0F3C0E70
:105310001C1C2006121C2031D24582357C16C07A16
:105320003AE0C85A70DE051480215384073806F02D
:1053300007F0078CE005380CF80F604130521C2450
:1053400030091C1C381EF81BE019D1130C1CC00BB3
:105350001BF0018A012114011F30091ACE1C05100F
:10536000001C80720416F8DC1AF85C17800F600AC3
:105370001810F8C3F81F080D1E1405180708003888
:1053800000F00114121F61161F9C13013814091735
:1053900070796E6D2603FD2E033D7C03400C1818BA
:1053A0000420C229224A11440902EC0C221113E202
:1053B0000C024004201818980315D4200403C006DA
:1053C00002396E2218022C07F83FF83F1C70AF0517
:1053D0002119D9106C0503FC0F0C5E0310040CFCA2
:1053E000070E1A18A541021E180003FA0770BC0A1E
:1053F0001F38381C300C700660DD04E008600C704B
:105400001C30F01F903C08FE03FE0F060E06A1059F
:10541000B1022DB305E8050EFE0FFEA01DCC048DD4
:10542000A20529AEADB0053D3803C5A211DC4DBBC8
:10543000032D27038005F81FF81F0E4DD303DDCA87
:10544000043C0C0FF83F3C780E6006E007C0810476
:1054500011A11DC5031533DC090EC03CF0F83FE077
:105460000FBF03A23002319EB1120F260C3080070D
:105470000D15A005021406022531DC063807F003DD
:10548000E0B004353A10140C060606038601C60087
:1054900066007600DE008E01060312360C64DD41E4
:1054A00005021B18022530CD210320050EE01EF059
:1054B000024336D8022366CC0252C601E40586C3F5
:1054C00086C32010041C303C02126C0212CC021065
:1054D000058C310C3302123602123C02E638201CD5
:1054E00005E007F81F9904193EA303C002F8080657
:1054F000600E701C38F8401BFC0F02CA38920E195F
:105500000CC407916082E05E140907E006630E3F59
:105510001C3CE0CEF79106198258041F06389C1EE9
:1055200038C00876074C49B20E106030065DDE04C4
:105530001D9B051BF80330331E00401C050E301C5C
:105540001C1005ED000308042A7FFE7F10E95EA908
:105550007E0710181820430360BC6D14072D160732
:105560002D9409140570076003631DE005E13023E5
:10557000C3610283663302236C1B02CC092C1A3CE4
:105580001E380E380E31051C090FE00C7018303033
:10559000183F043C040EC0075E04140503E00670C7
:1055A000F71D8107D006300E6007E0602D79044CAE
:1055B00008301C383818300C65030D1C80075C055A
:1055C000FC7FFC7F6D07DD7C072D2708253EED1055
:1055D000082FE003AE06011E0221282DA60A6DA6A3
:1055E000094DA8091D64096D0E0B7E03A009F16029
:1055F0000221000261601D82071D4407256C3F6087
:1056000003D7042919013901CFFFFFF80B0D2DAE87
:105610000A9D4A081805F003F807AA2C070C000F8A
:10562000F00FF8B1081F0C1C5C080F16F0182004CE
:105630001ED8A80B1E38370881012DE0070F17D898
:1056400003DA091D9A096F300E39092DA3081E309F
:105650009009EEC00009711F2805C01BF01F36819C
:1056600060000719301CF01FC01B601E0F83066E00
:1056700018D4051952EC051CF00FC0F00644040FB5
:10568000C00FDA2D9C0855E4B1020D17D40A1E0D87
:10569000FA093DCA0961011D600924050FE00D00EA
:1056A0002A6E06AA0895204F07F86A09D1010D163F
:1056B000F00A0215C002012E3041DEEC04F8007839
:1056C000BE0C1C050C0C060C6A0D100DCC006C00F9
:1056D000FC009C018C030C03120E100C560C011CD8
:1056E000020D169009E0097C3CFF7EC7E383C102EE
:1056F0000D16EA0B062398200510E099101D0E0EDA
:105700000A17C0700916A00D16EA070917700D15C3
:105710001B081EB06E07FE70E20D0E1830140D1E31
:10572000037A0E1D1A0B1DF2093D060C0D15900C87
:105730001D020F0919A00F170780EA0D09106A1240
:1057400038C01D4C0B0D15DB0A4DFE053E18920F9F
:105750001DB7060E140300068DF80F3008C141C1B5
:1057600041C3616301323601321C010D16F00F3E58
:105770001CF70952605A1D5E061D75061E38E10BA6
:105780000117C01D36061D38062E1828102FE00CF4
:10579000940A2D3E064DF00D1DA20D1D700C0D1529
:1057A0009A0C0D1B800D8D300B8D320E2DE205BA3B
:1057B00040D63D900F0D259009CD22119E60240604
:1057C0009DC60FB3030048FEC0A80E5D74050C060D
:1057D0002810F81F080F44111F4040C2040E103F4C
:1057E000A50C1DC70E612300040024F40000000076
:04000005080001D915
:00000001FF
