:020000040800F2
:10000000D0160020F1010008CB200008C71B000813
:10001000C920000887030008852A000800000000A6
:10002000000000000000000000000000E3230008C2
:100030008903000800000000CD200008E523000827
:100040000B0200080B0200080B0200080B0200085C
:100050000B0200080B0200080B0200080B0200084C
:100060000B0200080B0200080B0200080B0200083C
:100070000B0200080B0200080B0200080B0200082C
:100080000B020008000000000B0200080B02000831
:100090000B0200080B0200080B0200080B0200080C
:1000A0000B0200080B0200080B0200080B020008FC
:1000B0000B0200080B0200087D2400080B02000858
:1000C0000B0200080B0200080B0200080B020008DC
:1000D0000B020008792A00080B0200080B02000836
:1000E0000B0200080B0200080B0200080B020008BC
:1000F0000B0200080B0200080B02000800000000C1
:10010000000000000B020008000000000B020008C5
:100110000B020008000000000B0200080B020008A0
:100120000B0200080B0200080B0200080B0200087B
:100130000B02000800000000000000000B02000895
:100140000B0200080B020008000000000000000085
:10015000000000000000000000000000000000009F
:100160000000000000000000000000000B0200087A
:100170000B0200080000000000000000000000006A
:10018000000000000B02000800000000000000005A
:10019000000000000000000000000000000000005F
:1001A00000000000000000000B0200080B02000825
:1001B0000B0200080B0200080B0200080000000000
:1001C000000000000B02000800000000000000001A
:1001D0000B0200080B020008DFF810D000F092F8C4
:1001E00000480047452E0008AFF30080D0160020DD
:1001F0000648804706480047FEE7FEE7FEE7FEE7C1
:10020000FEE7FEE7FEE7FEE7FEE7FEE76D240008F7
:10021000D90100082DE9F05F0546002092469B4673
:1002200088460646814640241BE02846414647460C
:10023000224600F057F853465A46C01A914110D34F
:1002400011461846224600F03EF82D1A67EB0108C9
:100250004F4622460120002100F035F817EB000937
:100260004E41201EA4F10104DFDC484631462A46F7
:100270004346BDE8F09FD2B201E000F8012B491ED1
:10028000FBD270470022F6E710B513460A46044633
:100290001946FFF7F0FF204610BD30B50B4601466A
:1002A00000202022012409E021FA02F59D4205D315
:1002B00003FA02F5491B04FA02F52844151EA2F1BF
:1002C0000102F1DC30BD202A04DB203A00FA02F101
:1002D000002070479140C2F1200320FA03F3194334
:1002E00090407047202A04DB203A21FA02F00021D6
:1002F000704721FA02F3D040C2F120029140084336
:1003000019467047064C074D06E0E06840F00103CF
:1003100094E8070098471034AC42F6D3FFF760FF2B
:10032000E42E0008042F000870B58D1810F8014B5A
:1003300014F0030201D110F8012B231106D110F89B
:10034000013B03E010F8016B01F8016B521EF9D17B
:10035000ABB110F8012B04F00C048A1A0C2C03D05A
:10036000A2EB84129B1C08E010F8014BA2EB0422C4
:10037000F8E712F8014B01F8014B5B1EF9D5A942D1
:10038000D4D3002070BDFEE77047002240F6B8339A
:1003900006E00021491C89B29942FBD3521C92B25B
:1003A0008242F6D3704710B590F825300021012223
:1003B000022B03D00421C163012122E003681C68E1
:1003C00024F00E041C60836C1C6824F480741C6090
:1003D00003681C6824F001041C6090F84430046C2D
:1003E00003F01F0302FA03F36360D0E913345C6087
:1003F000436D33B11C6824F480741C60D0E916345A
:100400005C6080F82520002280F82420084610BD7A
:1004100070B590F82520002401212346022A07D038
:100420000422C26380F8251080F82430012429E0DA
:100430000268156825F00E0515600268156825F03C
:1004400001051560826C156825F48075156090F8BB
:100450004420056C02F01F0201FA02F26A60D0E942
:1004600013255560426D32B1156825F4807515600D
:10047000D0E91625556080F8251080F82430816B6E
:1004800001B18847204670BD70B5044600F0F8F809
:100490000546601C02D004484068044400F0F0F8AF
:1004A000401BA042FAD370BDDC1100202DE9FC4FA7
:1004B000DFF8A0A1002301250AF1040B03244FF06B
:1004C0000F0C0BF1040EBDE005FA03F632406FD0BD
:1004D0004F68012F05D0022F03D0112F01D0122F0A
:1004E00017D1D0F808905F0004FA07F829EA080944
:1004F0000097D1F80C8008FA07F848EA0908C0F814
:1005000008804768B7430E79C6F300169E403E4305
:100510004660C6684FEA430804FA08F7BE430197ED
:100520008F6807FA08F73743C7604E68022E01D07C
:10053000122E13D1DE0800EB86060096366A5F079E
:10054000FF0E0CFA07F926EA0906D1F8109009FA0D
:1005500007F949EA0609009EC6F820900668019F3F
:10056000BE430F7907F0030707FA08F73743076020
:100570004E68F60065D5384E376E47F0010737668E
:10058000366E23F0030706F001060096334E3E4414
:10059000B146B6689F074FEA17780CFA08F7BE43D2
:1005A000B0F1904F05D02E4FB84204D1012717E08B
:1005B00047E0002714E02B4FB84201D102270FE09B
:1005C000294FB84201D103270AE0284FB84201D190
:1005D000042705E0264FB84201D1052700E0062791
:1005E00007FA08F73743C9F80870DAF80060574689
:1005F000D1F8048096435FEAC83800D516433E60C0
:10060000DBF800605F46D1F8048096435FEA8838E3
:1006100000D516433E60DEF800607746D1F80480CE
:1006200096435FEAC82800D516433E60094F0C3751
:100630003E68D1F8048096435FEA882800D51643C7
:100640003E605B1C0A6832FA03F67FF43DAFBDE8FA
:10065000FC8F000000040140001002400000014037
:100660000004004800080048000C00480010004842
:10067000001400480AB18161704781627047000030
:100680000148806870470000DC1100200248816842
:100690004268114481607047DC11002010B50024CD
:1006A000032000F073F8002000F008F808B10124DE
:1006B00001E000F025F8204610BD000070B50E4E98
:1006C00005460024706898B14FF47A71B1FBF0F0E0
:1006D0000A490968B1FBF0F000F064FD40B9102D43
:1006E00006D200222946501E00F030F8356000E0A6
:1006F0000124204670BD0000DC110020E81100201C
:100700000A4882B0016E41F001010166016E01F0FC
:1007100001010091816D41F080518165806D00F093
:100720008050009002B000F0A1B80000001002401C
:10073000002809DB00F01F020121914040098000E0
:1007400000F1E020C0F8001170470000F0B40E4B3B
:100750001B680C46C3F30223C3F10705042D00D91F
:100760000425191D072901D2002300E0DB1E012604
:1007700006FA05F1491E214099409E40761E16401A
:100780003143F0BC02F090B90CED00E0064900F0F6
:10079000070208684FF6FF03184040EA0220034AA8
:1007A00010430860704700000CED00E00000FA05FF
:1007B0002B492C4B0A6832214A432B4940B1B0F5F2
:1007C000007F086829D020F4C06040F480602CE0ED
:1007D0000868C0F34120022804D051F8800F20F4AB
:1007E000807022E0D1F8800020F48070C1F8800091
:1007F000086820F4C06040F400700860B2FBF3F0B9
:10080000401C00E0401E4A69520501D50028F9D17C
:10081000486940050AD503207047C0F341200228EB
:1008200006D051F8800F40F48070086000207047B7
:10083000D1F8800040F48070C1F88000086820F48E
:10084000C06040F400700860B2FBF3F0401C00E0B0
:10085000401E4A695205DBD50028F9D1D8E70000CF
:10086000E811002040420F000070004002488168FB
:1008700041F4804181607047007000402DE9F843E9
:100880000446006800269D4D00035ED5A86D002734
:10089000C00008D4A86D40F08050A865A86D01275D
:1008A00000F080500090DFF85892D9F8001041F421
:1008B0008071C9F80010FFF7E3FE804606E000BF34
:1008C000FFF7DEFEA0EB080002282BD8D9F80000C5
:1008D000C005F5D5D5F8900010F4407014D0216C07
:1008E000814211D0D5F89000D5F8901020F44070D6
:1008F00041F48031C5F89010D5F8901021F4803182
:10090000C5F89010C5F89000C00711D0FFF7B8FEE9
:10091000804641F2883907E0FFF7B2FEA0EB0801FC
:10092000494501D903260BE0D5F890008007F3D59F
:10093000D5F89000216C20F440700843C5F8900071
:100940001FB1A86D20F08050A8652078C00707D09F
:10095000D5F88800616820F003000843C5F88800D6
:100960002078800707D5D5F88800A16820F00C0012
:100970000843C5F888002078400707D5D5F88800D7
:10098000E16820F030000843C5F8880020780007AF
:1009900007D5D5F88800216920F0C0000843C5F8C4
:1009A00088002078800607D5D5F88800616920F492
:1009B00040600843C5F888002078400607D5D5F880
:1009C0008800A16920F440500843C5F888002078C9
:1009D000000607D5D5F88800E16920F440400843B7
:1009E000C5F888002088C00507D5D5F88800216A99
:1009F00020F440300843C5F888002088800507D5DA
:100A0000D5F88800616A20F440200843C5F88800C2
:100A1000208840050FD5D5F88800A16A20F4401041
:100A20000843C5F88800A06AB0F5801F03D1E868C4
:100A300040F48010E860208800050FD5D5F88800C4
:100A4000E16A20F440000843C5F88800E06AB0F588
:100A5000800F03D1E86840F48010E8602088C0046B
:100A60000FD5D5F88800216B20F040700843C5F8F9
:100A70008800206BB0F1807F03D1E86840F48010DB
:100A8000E86020884FF0006180040ED5D5F888001A
:100A9000626B20F040601043C5F88800606B8842AC
:100AA00003D1E86840F48010E860208840040ED547
:100AB000D5F88800A26B20F040601043C5F888008C
:100AC000A06B884203D1E86840F48010E860208879
:100AD00000040FD5D5F88800E16B20F040500843A2
:100AE000C5F88800E06BB0F1805F03D1E86840F49E
:100AF0008030E8603046BDE8F88300000010024016
:100B0000007000402DE9F0470E4605004FF0000749
:100B100025D0DFF8AC81D8F8000000F00F00B0421B
:100B20000CD2D8F8001021F00F013143C8F80010A2
:100B3000D8F8000000F00F00B04210D12968614CD5
:100B4000C80741F2883A5AD06868DFF87C910328D8
:100B500008D0022820682DD0400500282CDB012079
:100B6000BDE8F08720688001F9D5E06800F0030255
:100B7000E068C0F30310401C032A19D0534A00BF99
:100B8000B2FBF0F0E268C2F306225043E268C2F31F
:100B90004162521C5200B0FBF2F0484517D9A068E0
:100BA00010F0F00F0CD0880711D5A86840B10EE006
:100BB000474AE5E78003D0E700F0B6F8484506D994
:100BC000A06820F0F00040F08000A0608027A068BE
:100BD000696820F003000843A060FFF751FD8146DB
:100BE00006E000BFFFF74CFDA0EB090151453AD8E4
:100BF000A068696800F00C00B0EB810FF2D12868A2
:100C0000810714D5400703D5A06840F4E060A060D8
:100C10002878000705D5A06820F4605040F4E06013
:100C2000A060A068A96820F0F000084304E0802FCD
:100C300003D1A06820F0F000A060D8F80010404672
:100C400001F00F01B14216D9016821F00F013143C3
:100C50000160FFF715FD074607E000BFFFF710FD35
:100C6000C11B514501D903207AE7D8F8000000F0F4
:100C70000F00B042F2D12878400705D5A068E96896
:100C800020F4E0600843A0602878000706D5A0683B
:100C9000296920F4605040EAC100A06000F044F8E7
:100CA000A1680C4AC1F30311515C01F01F01C84057
:100CB0000949086009480068BDE8F047FFF7FEBC35
:100CC000002002400010024000B4C4040024F400DC
:100CD00000366E01CC2E0008E8110020DC11002047
:100CE0000548064900688968054AC1F30221515C3C
:100CF00001F01F01C8407047E811002000100240B9
:100D0000DC2E00080548064900688968054AC1F3D9
:100D1000C221515C01F01F01C8407047E81100205A
:100D200000100240DC2E0008184910B58868C0F396
:100D300081021748012A0BD08A68164BC2F3810240
:100D4000022A06D08A68C2F38102032A03D0002057
:100D500010BD184610BDCA6802F00304CA68C2F389
:100D60000312521C032C02D0B0FBF2F001E0B3FBE3
:100D7000F2F0CA68C968C2F306225043C1F3416168
:100D8000491C4900B0FBF1F010BD0000001002400A
:100D90000024F40000366E012DE9F84304007AD0F7
:100DA0002078FA4DC00747D0A868E96800F00C0029
:100DB00001F003010C2802D0082817D001E0032914
:100DC00014D06068B0F5803F17D0B0F5A02F286828
:100DD00017D020F480302860286820F48020286014
:100DE0006068E0B1FFF74CFC064614E02868800319
:100DF00022D560680028D2D01EE0286840F48030F8
:100E0000EDE740F480202860F7E700BFFFF738FCEB
:100E1000801B642870D828688003F7D50CE0FFF7A2
:100E20002FFC064605E000BFFFF72AFC801B642864
:100E3000F0D828688003F7D4207880074CD5A868BC
:100E4000E96800F00C0001F003010C2802D004282E
:100E50000DD001E002290AD0E068002828682BD0D4
:100E600040F480702860FFF70BFC064619E0286804
:100E7000400502D5E068002891D06868217C20F008
:100E8000FE4040EA01606860C1480068FFF716FC58
:100E9000002800D120E076E1FFF7F2FB801B02285A
:100EA000B8D828684005F7D56868217C20F0FE4056
:100EB00040EA016068600FE020F480702860FFF76E
:100EC000DFFB064605E000BFFFF7DAFB801B0228C8
:100ED000A0D828684005F7D42078000729D5606994
:100EE0000028D5F8940013D040F00100C5F8940014
:100EF000FFF7C6FB064606E090E000BFFFF7C0FB29
:100F0000801B022886D8D5F894008007F6D510E01B
:100F100020F00100C5F89400FFF7B2FB064604E09C
:100F2000FFF7AEFB801B022878D8D5F89400800725
:100F3000F6D42078400761D5A86D0026C00008D4FB
:100F4000A86D40F08050A865A86D012600F0805083
:100F5000009090480168C90511D40168804641F4A9
:100F600080710160FFF78CFB074604E0FFF788FB08
:100F7000C01B022852D8D8F80000C005F6D5A068DA
:100F8000012815D00528D5F8900016D020F00100D2
:100F9000C5F89000D5F8900020F00400C5F8900046
:100FA000A06841F28838B8B1FFF76AFB07460EE047
:100FB000D5F8900040F00100F0E740F00400C5F8DB
:100FC0009000F5E7FFF75CFBC11B414526D8D5F83B
:100FD00090008007F6D50CE0FFF752FB074604E0CF
:100FE000FFF74EFBC11B414518D8D5F8900080078C
:100FF000F6D41EB1A86D20F08050A8652078800638
:1010000029D5A0690028D5F8980013D040F0010038
:10101000C5F89800FFF734FB064606E077E000BF0E
:10102000FFF72EFB801B022877D8D5F898008007A1
:10103000F6D510E020F00100C5F89800FFF720FB7E
:10104000064604E0FFF71CFB801B022865D8D5F894
:1010500098008007F6D4E069F0B3A968C1F3810174
:10106000032961D00228286820F0807028600BD006
:10107000E86820F00300E860E86847490840E86055
:10108000FFF7FEFA04464BE0FFF7FAFA064604E0E3
:10109000FFF7F6FA801B02283FD828688001F7D4B2
:1010A000F4E908016FF00F0202EB01110843218AF5
:1010B0005204490802EB4151A26841EA0221084367
:1010C000217D4FF07E42490802EB41610843217BBC
:1010D00040EAC160E96800E062E0304A114008433C
:1010E000E860286840F080702860E86840F0807010
:1010F000E860FFF7C5FA044605E000BFFFF7C0FA55
:10110000001B022809D828688001F7D548E004E0D0
:10111000FFF7B6FA001B022802D90320BDE8F883C6
:1011200028688001F4D43BE00128F7D0E868226AFF
:1011300000F00301914226D1616A00F0F00209013A
:10114000103991421FD1A26A00F4FE41B1EB022F87
:1011500019D194F82C2000F07841B1EBC26F12D174
:10116000218E00F4C00249084905A1F50011914201
:1011700009D194F8341000F0C06049084906A1F183
:10118000007181420CD00120C8E70000001002402D
:10119000DC11002000700040FFFFEEFE0C809F017C
:1011A0000020BBE710B5401EB0F1807F01D30120C5
:1011B00010BD4FF0E02460610F21601701F074FC56
:1011C0000020A06107202061002010BD70477047FB
:1011D0007047704770477047F0B590F83C20012A7F
:1011E0003AD0012580F83C50022280F83D20036867
:1011F0005A689C68194E1A4FB34201D0BB4204D1C1
:1012000022F4700C4A6842EA0C02DFF858C002EA85
:101210000C02D1F800C04CEA020CC3F804C002680A
:10122000B2420DD0B2F1804F0AD00F4B9A4207D094
:101230000E4B9A4204D0BA4202D00D4B9A4204D1CE
:10124000896824F080031943916080F83D500021A3
:1012500080F83C100846F0BD0220F0BD002C014093
:10126000003401408FFFFFFD0004004000080040F3
:1012700000400140704710B5040003D094F83D00D1
:1012800010B107E0012010BD002084F83C0020468A
:1012900000F022F8022084F83D00211D206801F0B2
:1012A000F3F8012084F8480084F83E0084F83F00F9
:1012B00084F8400084F8410084F8420084F8430038
:1012C00084F8440084F8450084F8460084F8470018
:1012D00084F83D00002010BD08B500680B49884225
:1012E00012D10B48816D41F004018165806D0022AF
:1012F00000F00400009011461E20FFF727FABDE819
:1013000008401E20FFF714BA08BD00000008004086
:101310000010024090F83D10012901D001207047D3
:10132000022180F83D100168CA6842F00102CA60DB
:101330000068104988420ED0B0F1804F0BD00E49A2
:10134000884208D00D49884205D00D49884202D014
:101350000C49884207D181680B4A1140062906D002
:10136000B1F5803F03D0016841F001010160002028
:1013700070470000002C01400004004000080040BD
:1013800000340140004001400700010070B50446F0
:1013900090F83C00012814D0012584F83C5002202C
:1013A00084F83D0022689068344B184020F47F4058
:1013B00090600868702827D010DC10F00F0F03D061
:1013C0004AE04FF0020070BD4FEA2012072A43D2D4
:1013D000DFE802F05050505048313900284BC21A13
:1013E000984247D009DCB0F5805F35D0B0F5005F9A
:1013F00015D0B0F1101F2FD13CE0102A3AD0202A8E
:1014000038D0502A28D135E0CB68D1E901212068B5
:1014100001F092F82068816841F0770109E0CB681B
:10142000D1E90121206801F087F82068816841F442
:101430008041816010E0CA684968206801F090F836
:101440005021206806E0CA684968206801F099F8D0
:101450006021206801F07AF884F83D50002084F87B
:101460003C0070BDCA684968206801F079F84021E5
:101470002068EFE7226801461046EBE788FFCEFFC1
:1014800020001000704770B50446006801694FF0F5
:101490000005C943890715D4C168C943890711D418
:1014A000E91E0161012020772068806980072046BD
:1014B00002D0FFF7E7FF04E000F0E3F8204600F079
:1014C000E1F8257720680169C943490717D4C16845
:1014D000C943490713D46FF004010161022020774A
:1014E0002068806910F4407F204602D0FFF7CAFFD1
:1014F00004E000F0C6F8204600F0C4F82577206824
:101500000169C943090716D4C168C943090712D440
:101510006FF008010161042020772068C06980070E
:10152000204602D0FFF7AEFF04E000F0AAF8204604
:1015300000F0A8F8257720680169C943C90617D4C7
:10154000C168C943C90613D46FF0100101610820B6
:1015500020772068C06910F4407F204602D0FFF752
:1015600091FF04E000F08DF8204600F08BF825771D
:1015700020680169C943C90708D1C168C943C907BF
:1015800004D1891E0161204600F07EF820680169BF
:10159000C943090609D4C168C943090605D46FF0D7
:1015A000800101612046FFF712FE20680169C943EE
:1015B000C90509D4C168C943090605D46FF480710F
:1015C00001612046FFF702FE20680169C943490610
:1015D00009D4C168C943490605D46FF040010161CF
:1015E000204600F06DF820680169C943890609D4D6
:1015F000C168C943890605D46FF020010161204606
:10160000FFF7E6FD20680169C943C90209D4C16832
:10161000C943C90205D46FF4801101612046FFF768
:10162000D9FD20680169C943890209D4C168C94349
:10163000890205D46FF4001101612046FFF7C9FD4E
:1016400020680169C943490209D4C168C9434902F4
:1016500005D46FF4800101612046FFF7BCFD2068CE
:101660000169C94309020BD4C168C943090207D4FF
:101670006FF4000101612046BDE87040FFF7FABD3C
:1016800070BD70477047000010B504460948FFF769
:1016900041FE0949206888420AD108484188491C0E
:1016A00089B241800A2903D10121017000214180C2
:1016B00010BD0000F011002000080040D6110020ED
:1016C000704790F88010012918D0012180F880100F
:1016D0002421C0F8841050F8641B0A680B6823F0BA
:1016E00001030B6022F000510022026050F8643CBC
:1016F000196020210162027710467047022070476E
:101700007047704770B5044690F8800001281DD0DE
:10171000012084F880002420C4F884002068056833
:10172000026822F0010202602068826822F0606292
:101730000A438260204600F037FF206805602020C1
:10174000C4F88400002084F8800070BD022070BDC1
:1017500070B5044690F8800001281DD0012084F85F
:1017600080002420C4F8840020680568026822F004
:10177000010202602068826822F060420A438260AF
:10178000204600F011FF206805602020C4F8840086
:10179000002084F8800070BD022070BD7047704743
:1017A000704700002DE9F04103680446D8691968C4
:1017B0009A6840F60F0528424FF0000509D18606C9
:1017C0007ED501F0200602F080573E4378D0216F8D
:1017D000FFE0924E924F16400F40374370D0C7073C
:1017E00009D0CF0507D501271F62D4F88C3043F00C
:1017F0000103C4F88C3083070AD5D30708D02768C3
:1018000002233B62D4F88C3043F00403C4F88C30DC
:1018100043070AD5D30708D0276804233B62D4F8CE
:101820008C3043F00203C4F88C3003070CD501F070
:101830002003334308D0266808233362D4F88C3061
:1018400043F00803C4F88C3003050BD54B0109D5D0
:1018500026684FF400633362D4F88C3043F02003E1
:10186000C4F88C30D4F88C30002B34D0800609D5E5
:1018700001F0200002F08051084303D0216F09B12C
:1018800020468847D4F88C0021688968490602D42C
:1018900010F0280F21D0204600F046FF2068816814
:1018A000490615D5816821F040018160E06F78B16B
:1018B0005C498163E06FFEF7ABFD00280BD000E0D0
:1018C00011E0E06F816B00E02046BDE8F041084781
:1018D0002046FFF765FFBDE8F0812046FFF760FF77
:1018E000C4F88C50F7E7E76E2026012F5CD1C706BD
:1018F0005AD5CF0658D5102018622068816849064D
:101900002FD5E26F116849680904090CE3D0B4F8D7
:101910005C308B42DFD9A4F85E1011680968890633
:1019200018D4016821F4807101602068816821F079
:10193000010181602068816821F040018160C4F864
:101940008860E5662068016821F010010160E06FA1
:10195000FEF729FDB4F85C00B4F85E10401A81B2BD
:101960001EE0B4F85C10B4F85E20891AB4F85E206A
:1019700089B2002AAFD00029ADD0026822F490725B
:10198000026020688268254BDB431A408260C4F8FD
:101990008860E56625672068026822F01002026010
:1019A0002046FFF7ADFE96E7C70209D5570207D5D7
:1019B0004FF4801018622046BDE8F041FFF7EFBEFB
:1019C00007060AD501F0800702F40002174304D08D
:1019D000616F00297FF478AF7DE742060CD54A0697
:1019E0000AD51968204621F040011960C4F88460C6
:1019F000656700F0E7F86EE7020206D54A0004D5F5
:101A00002046BDE8F041FFF7C9BEC001CBD5002993
:101A1000C9DA2046BDE8F041FFF773BE01000010AF
:101A2000200100041527000810B5040003D0D4F8E5
:101A3000840010B107E0012010BD002084F8800070
:101A4000204600F027F82420C4F8840020680168AC
:101A500021F001010160204600F082FE0128EBD058
:101A6000A06A10B1204600F0C1FD2068416821F451
:101A7000904141602068816821F02A0181602068DE
:101A8000016841F0010101602046BDE8104000F00E
:101A900011BE000010B586B0044614216846FEF75A
:101AA000F1FB17492068884227D11648016E41F49E
:101AB00080410166016E01F480410591C16C41F0E5
:101AC0000101C164C06C694600F0010005904FF44B
:101AD000C060009002200190002002900390072037
:101AE00004904FF09040FEF7E1FC002211462520C3
:101AF000FEF72CFE2520FEF71BFE06B010BD0000F1
:101B000000380140001002402DE9F8430446D0F8A7
:101B100084001F4616460D46202851D1DDB1D6B1AE
:101B200094F8800001284BD0012084F880004FF009
:101B30000008C4F88C802120C4F884001834FEF713
:101B40009FFDA6878146E68754F8100C183CB0F537
:101B5000805F03D004E00120BDE8F883206920B154
:101B60002E46002584F8808010E00026FAE78021C8
:101B7000204600F02FFFB8B9C6B116F8010B216856
:101B80008862B4F85600401EA4F85600B4F8560017
:101B90004B464FF0000200970028E8D14FF040017B
:101BA000204600F017FF30B10320D5E735F8020BCF
:101BB000C0F30800E3E72020C4F884000020CBE74E
:101BC0000220C9E77047FEE700B585B014216846DA
:101BD000FEF758FB4FF6FF70009000200321CDE97F
:101BE0000201019069460248FEF760FC05B000BDA5
:101BF0000008004800B585B014216846FEF742FB96
:101C00004FF6FF7000900120019003200390002008
:101C1000029069460248FEF749FC05B000BD00008D
:101C20000008004870B5002406462146204600F012
:101C3000B5F800F0F7F84FF49635304600F0C2F8EA
:101C4000641CAC42F9D370BD30B587B0142168462E
:101C5000FEF718FB1E48C16C41F00401C164C16C61
:101C600001F004010591C16C41F00101C164C16C36
:101C700001F001010591C16C41F00201C164C06C29
:101C8000012500F0020005904FF44870CDE90005F1
:101C900000240394694602940E48FEF707FC2802CC
:101CA00003940090CDE901544FF0904469462046DA
:101CB000FEF7FCFBFFF79EFFA06940F48070A06177
:101CC00004481830016841F40871016007B030BD64
:101CD000001002400004004810B5FFF7B5FF0020D7
:101CE00000F014F8084CA080A088A0F5024130391B
:101CF00006D000F075FA002000F008F8A08010BDB2
:101D000000F0E5F9F7E700000000002070B51D497C
:101D10000A6842F400720A600A6842F480720A603B
:101D2000184C103C226842F020022260164A1060D3
:101D3000086840F02000086000BF00BF00BF2068B6
:101D400040F020002060206840F480702060FFF7A1
:101D50003BFF4FF09041886A40F48070886200BF7A
:101D600000BF00BF0848001F006885B2886940F4C2
:101D700080708861FFF73EFF206840F400702060AB
:101D8000284670BD280400481408004801B5BDF875
:101D900000000149488008BD0000002010B50C4635
:101DA0000146202000F070F82146BDE810402120B7
:101DB00000F06AB801B5BDF800000149088008BD0F
:101DC0000000002030B5154B1968154A8CB2116817
:101DD00041F400711160124910390D6845F48075A5
:101DE0000D600D6845F020050D601860106840F02A
:101DF0002000106000BF00BF00BF086840F0200056
:101E00000860086840F48070086000BF00BF00BF31
:101E1000086840F4007008601C6030BD1408004879
:101E200028040048164A10B51068164983B208689D
:101E300040F400700860086840F480700860114841
:101E40001038046844F020040460222414600C68F4
:101E500044F020040C6000BF00BF00BF016841F0E7
:101E600020010160016841F48071016000BF00BF82
:101E700000BF016841F400710160136010BD0000F3
:101E8000140800482804004870B51A4C22681A4B00
:101E900095B21A6842F400721A601A6842F48072AD
:101EA0001A60154A103A166846F02006166020603F
:101EB000186840F02000186000BF00BF00BF106825
:101EC00040F020001060106840F4807010602160C5
:101ED000186840F02000186000BF00BF00BF106805
:101EE00040F020001060106840F4807010602560A1
:101EF00070BD000014080048280400482DE9F04F88
:101F000087B014216846FEF7BDF93848C16C41F02E
:101F10000401C164C16C01F004010591C16C41F080
:101F20002001C164C16C01F020010591C16C41F038
:101F30000101C164C16C01F001010591C16C41F066
:101F40000801C164C16C01F008010591C16C41F048
:101F50000201C164C06CDFF8988000F002004FF607
:101F6000FF740590002221464046FEF783FB4FF4A4
:101F700080764FF09049002231464846FEF77AFBC2
:101F8000DFF870A0002204215046FEF773FBDFF853
:101F900068B04FF44877002239465846FEF76AFB8E
:101FA0000125CDE90045002402946946404603948A
:101FB000FEF77CFA0096CDE9015469464846039441
:101FC000FEF774FA04200090CDE9015469465046AA
:101FD0000394FEF76BFA0097CDE901546946584621
:101FE0000394FEF763FA07B0BDE8F08F00100240DB
:101FF00000080048000C00480004004810B588B0F4
:1020000000241748009401940294039404940594C6
:102010001249069401604F21C0E9011440F2E731F2
:10202000C0E903148461FFF726F908B172B6FEE730
:102030004FF48050009069460948FFF7A7F908B1AE
:1020400072B6FEE7049404A905480694FFF7C4F8A5
:10205000002801D072B6FEE708B010BD00080040AD
:10206000F0110020174810B5154901604FF41651C2
:102070004160002181600C22C160C0E904128161CD
:10208000C161016241628162FFF7CEFC08B172B6A4
:10209000FEE700210B48FFF75BFB08B172B6FEE7D5
:1020A00000210848FFF72EFB08B172B6FEE705488D
:1020B000FFF707FB002801D072B6FEE710BD000055
:1020C000003801403C120020FEE7FEE7704730B5C3
:1020D00001210020FFF7D8FE4FF47A70FEF755F982
:1020E00000210120FFF7D0FE41F290711020FFF790
:1020F000CBFE4FF41C516020FFF7C6FE012161208A
:10210000FFF7C2FE02214620FFF7BEFE48F2100193
:102110001320FFF7B9FE48F2FE011220FFF7B4FECC
:102120004FF4A0610220FFF7AFFE41F2300103201F
:10213000FFF7AAFE40F2033421463020FFF7A4FE49
:1021400021463120FFF7A0FE21463220FFF79CFEFA
:10215000E51E29463320FFF797FE03213420FFF7C1
:1021600093FE21463520FFF78FFE14213620FFF71E
:102170008BFE21463720FFF787FE21463820FFF7E8
:1021800083FE21463920FFF77FFE29463A20FFF7DC
:102190007BFE03213B20FFF777FE21463C20FFF723
:1021A00073FE4FF4A0513D20FFF76EFE4FF4007117
:1021B0009220FFF769FE21469320FFF765FE40F667
:1021C0000D019020FFF760FE41F218010320FFF798
:1021D0005BFEBDE8304040F273110720FFF754BEAC
:1021E00010B543F20801E320FFF74EFE1221E7206D
:1021F000FFF74AFE41F23121EF20FFF745FE0021B3
:102200000120FFF741FE4FF4E0610220FFF73CFEA2
:1022100041F230010320FFF737FE00210420FFF7D1
:1022200033FE40F207210820FFF72EFE002109208F
:10223000FFF72AFE00210A20FFF726FE00210C20CE
:10224000FFF722FE00210D20FFF71EFE00210F20C8
:10225000FFF71AFE00211020FFF716FE07211120BC
:10226000FFF712FE00211220FFF70EFE00211320BF
:10227000FFF70AFEC820FEF707F941F2906110202F
:10228000FFF702FE40F227211120FFF7FDFD32206B
:10229000FEF7FAF81D211220FFF7F6FD3220FEF7B7
:1022A000F3F84FF400611320FFF7EEFD142129200D
:1022B000FFF7EAFD0B212B20FFF7E6FD3220FEF7AA
:1022C000E3F800212020FFF7DFFD00212120FFF7A8
:1022D000DBFD07213020FFF7D7FD40F207713120E9
:1022E000FFF7D2FD06213220FFF7CEFD40F2047148
:1022F0003520FFF7C9FD41F604713620FFF7C4FD14
:1023000004213720FFF7C0FD00213820FFF7BCFD76
:1023100040F206713920FFF7B7FD40F201713C2011
:10232000FFF7B2FD0F213D20FFF7AEFD0021502049
:10233000FFF7AAFDEF215120FFF7A6FD0021522053
:10234000FFF7A2FD40F23F115320FFF79DFD4FF430
:102350001C516020FFF798FD01216120FFF794FDDB
:1023600000216A20FFF790FD00218020FFF78CFDFF
:1023700000218120FFF788FD00218220FFF784FDE6
:1023800000218320FFF780FD00218420FFF77CFDE2
:1023900000218520FFF778FD10219020FFF774FDC4
:1023A00000219220FFF770FD03219320FFF76CFDC1
:1023B0004FF488719520FFF767FD00219720FFF704
:1023C00063FD00219820FFF75FFD41F21801032013
:1023D000FFF75AFDBDE8104040F273110720FFF7E8
:1023E00053BD7047FEF752B910B5A4B03821684606
:1023F000FDF748FF14211FA8FDF744FF44210EA854
:10240000FDF740FF4FF40070FEF7D2F90220C10142
:102410000391402104910090079008901421CDE988
:1024200009010B900C900D906846FEF7B5FC08B1C1
:1024300072B6FEE70F2000241F900320CDE9200490
:10244000229402211FA82394FEF75CFB08B172B608
:10245000FEE70120CDE90E040EA8FEF70FFA0028D2
:1024600001D072B6FEE724B010BD0000024801683A
:1024700041F470010160704788ED00E00148FFF70A
:1024800002B80000F01100202DE9F0430268234B50
:10249000234D244E244C4FF08049984207D04845A4
:1024A00005D0A84203D0B04201D0A04203D122F00F
:1024B00070074A683A431D4FDFF874C0DFF8748034
:1024C00098420DD048450BD0A84209D0B04207D061
:1024D000A04205D0B84203D0604501D0404503D1A9
:1024E00022F44075CA682A434D6922F080022A43CB
:1024F00002608A68C2620A688262984207D0A0427B
:1025000005D0B84203D0604501D0404501D10969EA
:10251000016301214161BDE8F0830000002C01400E
:102520000004004000080040003401400040014029
:10253000004401400048014010B5846842EA03228B
:1025400024F47F440A432243826010BD8268034B17
:102550001A400A4342F00701816070478FFFCFFFA6
:1025600010B5036A046A24F001040462846924F04B
:10257000F00444EA021423F00A020A43846102626E
:1025800010BD10B5036A23F0100303628369046A67
:1025900023F4704343EA023224F0A00343EA01111A
:1025A0008261016210BD000030B5416EB9B10268B0
:1025B00091689268C1F342610B4B520F9C5CE5003D
:1025C00003F10804A25CB5FBF2F2A0F86A205A5CA1
:1025D000615CD200B2FBF1F1A0F8681030BD0121BE
:1025E000A0F86A10F8E70000BC2E000890F8281048
:1025F000C90706D001684A68C36A22F400321A4348
:102600004A6090F82810890706D501684A68036B6C
:1026100022F480321A434A6090F82810490706D500
:1026200001684A68436B22F480221A434A6090F89A
:102630002810090706D501684A68836B22F4004216
:102640001A434A6090F82810C90606D501688A68BE
:10265000C36B22F480521A438A6090F828108906CE
:1026600006D501688A68036C22F400521A438A6016
:1026700090F82810490611D501684A68436C22F485
:1026800080121A434A60416CB1F5801F06D101687F
:102690004A68836C22F4C0021A434A6090F82810FA
:1026A000090606D501684A68C06C22F4002202437C
:1026B0004A607047F8B500260446C0F88C60FDF704
:1026C000DFFF0546206800686FF07E47000708D5E9
:1026D0002B4600224FF400112046009700F07AF9B3
:1026E00060B92068006840070AD52B4600224FF4E5
:1026F00080012046009700F06DF908B10320F8BD75
:102700002020C4F88400C4F8880044F86C6F0020CE
:102710002675F8BD10B5806A0021A0F85E10A0F8FB
:102720005610FFF73DF810BD01680A6822F4907258
:102730000A6001688A68094B1A408A60C16E0129E3
:1027400004D101680A6822F010020A602021C0F852
:1027500088100021C166016770470000FEFFFFEF8F
:102760002DE9F0410446016880682269E36910435D
:10277000626900251A431043DFF82CC20A688B4BAC
:102780001A4002430A6020684168E26821F440511F
:10279000114341602168A069614501D0226A10435C
:1027A0008A68834B1A4002438A602068C16A626A61
:1027B00021F00F011143C1627E4923687E488B429C
:1027C0000DD1D0F8880010F0030006D0012855D0B4
:1027D000022842D003283FD152E001203DE0774952
:1027E0008B420BD1D0F8880010F00C0035D00428B3
:1027F00033D0082840D00C282ED141E070498B42BC
:102800000BD1D0F8880010F0300026D0102835D039
:10281000202831D030281FD132E06A498B420BD1B9
:10282000D0F8880010F0C00017D0402826D08028AB
:1028300022D0C02810D123E063450DD1D0F8880004
:1028400010F4406009D0B0F5806F17D0B0F5006F7C
:1028500012D0B0F5406F13D010205B4A5B4F0026BA
:102860004FF40041634539D160B102280DD00428EE
:102870000DD0082831D10EE00220EEE70420ECE76D
:102880000820EAE7FEF72CFA03E0114603E0FEF722
:102890004BFA01007DD0606A37F810206768B1FB01
:1028A000F2F007EB470383426CD8B0EB073F69D8DF
:1028B000002308461946FDF7ADFC090241EA106104
:1028C00002027808101871413A460023FDF7A2FC75
:1028D0003F4AA0F54071914259D953E0E3694FF660
:1028E000EF788B422DD109284CD2DFE800F00508A3
:1028F0000D4B274B4B4B0E00FEF7F2F901E0FEF7B4
:1029000001FA010001D144E01146606A37F8100075
:10291000B1FBF0F04100606801EB5001B1FBF0F059
:1029200080B2A0F1100141452CD84FF6F071014062
:10293000C0F3420001432068C1602AE0FEF7F4F9C9
:10294000DFE709281ED2DFE800F005080D1D1F1D76
:102950001D1D0E00FEF7C4F901E0FEF7D3F90100DA
:1029600001D116E01146606A37F81000B1FBF0F1B2
:10297000606801EB5001B1FBF0F080B2A0F11001F2
:10298000414504D9012504E0FEF7CEF9E7E72168C7
:10299000C8600120A4F86A0024F8680F2846A660E1
:1029A000E660BDE8F081000000800040F369FFCFE1
:1029B000FFF4FF11003801400010024000440040C5
:1029C00000480040004C00400024F400A42E000801
:1029D000FFFC0F002DE9F0479A4617460E460446C5
:1029E0004FF000094FF02008089D39E0681C37D0EF
:1029F000FDF746FEA0EB0A00A84222D80DB32068DE
:102A0000016849072CD5C069C043000528D4216856
:102A10004FF4006008622068016821F4D071016001
:102A20002068816821F001018160C4F88480C4F8C5
:102A30008880C4F88C8000BF84F880900320BDE8B3
:102A4000F0872068016821F4D071016020688168F6
:102A500021F001018160C4F88480C4F88880EBE72C
:102A60002068C06936EA000004D00020B842BDD01A
:102A70000020E4E70120F9E70148FEF793BE0000DB
:102A80003C120020FEE700000FB4054B10B503A96F
:102A9000044A029800F028F810BC5DF814FB00000E
:102AA0002D2E0008EC1100200907090E002804DB78
:102AB00000F1E02080F80014704700F00F0000F1F2
:102AC000E02080F8141D704702E008C8121F08C1FA
:102AD000002AFAD170477047002001E001C1121F9F
:102AE000002AFBD1704700002DE9FF4F8BB08846CC
:102AF0000546002606E025280BD0DDE90D1290479B
:102B00006D1C761C28780028F5D10FB03046BDE842
:102B1000F08F0024A146A2460122AE4900E0044302
:102B200015F8013F203B02FA03F00842F7D128785C
:102B30002A2810D06FF02F022878A0F1300109293F
:102B400015D809EB890102EB410144F0020400EBC6
:102B500001096D1CF0E758F8041B5FEA010903D571
:102B600044F40054C9F1000944F002046D1C2878B3
:102B70002E2817D115F8010F44F004042A280ED08E
:102B80006FF02F022878A0F1300109290AD80AEB4A
:102B90008A0102EB410100EB010A6D1CF2E758F8D3
:102BA00004AB6D1C28786C280FD006DC4C2817D09D
:102BB00068280DD06A2814D104E0742810D07A282F
:102BC0000FD10DE044F400140AE044F4801401E055
:102BD00044F440146978814202D104F580146D1CDC
:102BE0006D1C2878692865D006DC00288DD0632804
:102BF00027D0642806D15DE06E2808D073282AD03B
:102C0000752877D0DDE90D129047761CE0E0C4F31B
:102C10000250022809D003280DD0D8F8001004284B
:102C20000DD00E6008F10408D2E0D8F80010F217B9
:102C3000C1E90062F6E7D8F800100E80F2E70E70E6
:102C4000F0E718F8041B8DF8001000208DF8010043
:102C5000EB46012003E058F804BB4FF0FF3061075A
:102C60004FF0000701D40AE07F1C57450DDA874278
:102C7000FADB1BF807100029F6D106E07F1C87421B
:102C8000FCDB1BF807100029F8D1DDE90D23A9EBC7
:102C900007008146214600F0B1F83044C61904E02F
:102CA000DDE90D121BF8010B90477F1EF8D221467B
:102CB000484688E058F8040BC4F302514FF00A0B61
:102CC000032900D100B2042900D140B2002802DA61
:102CD00040422D2102E0210505D52B218DF824103D
:102CE000012104E006E0E10710D02021F6E708AF5B
:102CF000089113E058F8040BC4F302514FF00A0B8B
:102D0000032900D180B2042900D1C0B20021EEE72E
:102D10005946FDF7C2FA303107F8011D0028F7D1F6
:102D2000ADEB070000F1200B600702D524F48034DE
:102D300001E04FF0010ADA4502DDAAEB0B0000E0EA
:102D40000020824600EB0B0108980144A9EB01002A
:102D50000A90E00306D4DDE90D2321460A9800F02D
:102D60004DF806444FF0000908E009A911F80900E0
:102D7000DDE90D12904709F10109761C0899894592
:102D8000F3DBE0030CD5DDE90D2321460A9800F0C2
:102D900035F8064404E0DDE90D1230209047761C3A
:102DA000BAF10001AAF1010AF5DC05E0DDE90D1236
:102DB00017F8010B9047761CBBF10001ABF1010B3A
:102DC000F4DC0A982146DDE90D2300F005F80644FD
:102DD0006D1C97E6092801002DE9F0410446002505
:102DE0001E461746880404D405E039462020B04723
:102DF0006D1C641EF9D52846BDE8F0812DE9F0412F
:102E0000044600251E469046C80301D5302700E041
:102E10002027880404D505E041463846B0476D1C9C
:102E2000641EF9D52846BDE8F081000013B54FF0C7
:102E3000FF33012269460248FEF766FE00981CBD7A
:102E40003C120020FDF72AFCFFF7CEFAFFF756F8F8
:102E5000FFF7D4F8FFF706F9FEF73EFF4FF6FF74D1
:102E60002046FEF7DFFE2046FEF790FF0020FEF72B
:102E7000A1FF0848FEF74EFA074C002520780028ED
:102E8000FCD02570FDF7FCFB014604A0FFF7FCFD1C
:102E9000F4E70000F0110020D611002025640D0A8F
:102EA00000000000010002000400060008000A0003
:102EB0000C0010002000400080000001010101030F
:102EC00007010000080402040801010100000000DD
:102ED00000000000010203040607080900000000CA
:102EE00001020304042F000800000020F01100007C
:102EF000280300088C350008F0110020E0040000D1
:102F0000D82A00080006310000FFFF0001031680E8
:102F10000102611EE13292CC02012A6A23600C0296
:102F2000200F30063006FE1FFE1F3006380718033C
:102F30000A2007180318038C01023172201700E0E1
:102F400003F80F9C0E8C1C8C188C009800F801E084
:102F500007800E800E100B189C18B80CF00FE003C1
:102F60008026A15A10090E181B0C110C1106021014
:102F7000110311039B018E01C038C06C6044604492
:102F8000300260071844186C0C38BE1005E001F0E0
:102F9000037A10140618063003F001F000F8009CC4
:102FA000310E33061E061C02E0063FFC73F021B80A
:102FB000920C020121E7100B0200038001C000C047
:102FC000006002D230022114211C155E12032A1562
:102FD000163220123570120302D20602111425A2F5
:102FE000214ED6208821481008D806F807E0013085
:102FF000D2052AEAC405FC3FFC3FE8092C30120048
:1030000002021B806C080532E007E0078E41D6F50E
:103010007F750C155C351045624564D17AE00A0372
:10302000F007380E180C0C1802D409180C380EF0E2
:1030300007E003B0214C0C071901F0019801880842
:1030400003A16043F80F5E220002219C35F025ECBD
:10305000D0071800FC1FFC1F90100701F807180E7E
:103060000C0121C81805C003C00751113C41920250
:1030700010F8904C0B0C000E000F000F800DC030AC
:1030800003116B270C0CB209148513F80F903189CA
:103090003009EC03FC071C0E001C98115E000510A3
:1030A0001C0C180E602009C007F00F381C181832CD
:1030B0005409CC03EC0F3C0E1C1C2006121C2031C2
:1030C000D24582357C16C07A3AE0C85A70DE0514C3
:1030D00080215384073806F007F0078CE005380C90
:1030E000F80F604130521C2430091C1C381EF81B9C
:1030F000E019D1130C1CC00B1BF0018A0121140133
:103100001F30091ACE1C0510001C80720416F8DC52
:103110001AF85C17800F600A1810F8C3F81F080D22
:103120001E1405180708003800F00114121F61165C
:103130001F9C13013814091770796E6D2603FD2E3C
:10314000033D7C03400C18180420C229224A114474
:103150000902EC0C221113E20C024004201818980A
:103160000315D4200403C00602396E2218022C076E
:10317000F83FF83F1C70AF052119D9106C0503FC0E
:103180000F0C5E0310040CFC070E1A18A541021E5A
:10319000180003FA0770BC0A1F38381C300C700680
:1031A00060DD04E008600C701C30F01F903C08FEED
:1031B00003FE0F060E06A105B1022DB305E8050EAC
:1031C000FE0FFEA01DCC048DA20529AEADB0053DBD
:1031D0003803C5A211DC4DBB032D27038005F81F62
:1031E000F81F0E4DD303DDCA043C0C0FF83F3C78AA
:1031F0000E6006E007C0810411A11DC5031533DC74
:10320000090EC03CF0F83FE00FBF03A23002319E30
:10321000B1120F260C3080070D15A005021406020E
:103220002531DC063807F003E0B004353A10140C01
:10323000060606038601C60066007600DE008E01E3
:10324000060312360C64DD4105021B18022530CD41
:10325000210320050EE01EF0024336D8022366CC7F
:103260000252C601E40586C386C32010041C303C0C
:1032700002126C0212CC0210058C310C3302123691
:1032800002123C02E638201C05E007F81F990419D9
:103290003EA303C002F80806600E701C38F8401BFD
:1032A000FC0F02CA38920E190CC407916082E05ECE
:1032B000140907E006630E3F1C3CE0CEF7910619A7
:1032C0008258041F06389C1E38C00876074C49B245
:1032D0000E106030065DDE041D9B051BF8033033C5
:1032E0001E00401C050E301C1C1005ED00030804D8
:1032F0002A7FFE7F10E95EA97E071018182043037D
:1033000060BC6D14072D16072D9409140570076015
:1033100003631DE005E13023C361028366330223AA
:103320006C1B02CC092C1A3C1E380E380E31051CC1
:10333000090FE00C70183030183F043C040EC00731
:103340005E04140503E00670F71D8107D006300EF9
:103350006007E0602D79044C08301C383818300CB8
:1033600065030D1C80075C05FC7FFC7F6D07DD7C21
:10337000072D2708253EED10082FE003AE06011E9D
:103380000221282DA60A6DA6094DA8091D64096D04
:103390000E0B7E03A009F1600221000261601D8214
:1033A000071D4407256C3F6003D704291901390123
:1033B000CFFFFFF80B0D2DAE0A9D4A081805F0034C
:1033C000F807AA2C070C000FF00FF8B1081F0C1C0F
:1033D0005C080F16F01820041ED8A80B1E383708FA
:1033E00081012DE0070F17D803DA091D9A096F3004
:1033F0000E39092DA3081E309009EEC00009711F77
:103400002805C01BF01F368160000719301CF01F13
:10341000C01B601E0F83066E18D4051952EC051CE4
:10342000F00FC0F00644040FC00FDA2D9C0855E4DD
:10343000B1020D17D40A1E0DFA093DCA0961011D1A
:10344000600924050FE00D002A6E06AA0895204F9A
:1034500007F86A09D1010D16F00A0215C002012E03
:103460003041DEEC04F80078BE0C1C050C0C060C98
:103470006A0D100DCC006C00FC009C018C030C0349
:10348000120E100C560C011C020D169009E0097C5E
:103490003CFF7EC7E383C1020D16EA0B062398208A
:1034A0000510E099101D0E0E0A17C0700916A00D28
:1034B00016EA070917700D151B081EB06E07FE707F
:1034C000E20D0E1830140D1E037A0E1D1A0B1DF29C
:1034D000093D060C0D15900C1D020F0919A00F17C0
:1034E0000780EA0D09106A1238C01D4C0B0D15DB60
:1034F0000A4DFE053E18920F1DB7060E1403000676
:103500008DF80F3008C141C141C3616301323601FA
:10351000321C010D16F00F3E1CF70952605A1D5E59
:10352000061D75061E38E10B0117C01D36061D3835
:10353000062E1828102FE00C940A2D3E064DF00D93
:103540001DA20D1D700C0D159A0C0D1B800D8D30DC
:103550000B8D320E2DE205BA40D63D900F0D259011
:1035600009CD22119E6024069DC60FB3030048FEBC
:10357000C0A80E5D74050C061E10F81F080F3A1146
:0C3580002D710C7D07073F24F42F06007E
:04000005080001D915
:00000001FF
