:020000040800F2
:10000000B8160020F1010008431E00085718000828
:10001000411E0008E7020008FB260008000000005F
:100020000000000000000000000000005B2100084C
:10003000E902000800000000451E00085D210008DC
:100040000B0200080B0200080B0200080B0200085C
:100050000B0200080B0200080B0200080B0200084C
:100060000B0200080B0200080B0200080B0200083C
:100070000B0200080B0200080B0200080B0200082C
:100080000B020008000000000B0200080B02000831
:100090000B0200080B0200080B0200080B0200080C
:1000A0000B0200080B0200080B0200080B020008FC
:1000B000D9210008E52100080B0200080B02000806
:1000C0000B0200080B0200080B0200080B020008DC
:1000D0000B0200080B0200080B0200080B020008CC
:1000E0000B0200080B0200080B0200080B020008BC
:1000F0000B0200080B0200080B02000800000000C1
:10010000000000000B020008000000000B020008C5
:100110000B020008000000000B0200080B020008A0
:100120000B0200080B0200080B0200080B0200087B
:100130000B02000800000000000000000B02000895
:100140000B0200080B020008000000000000000085
:10015000000000000000000000000000000000009F
:100160000000000000000000000000000B0200087A
:100170000B0200080000000000000000000000006A
:10018000000000000B02000800000000000000005A
:10019000000000000000000000000000000000005F
:1001A00000000000000000000B0200080B02000825
:1001B0000B0200080B0200080B0200080000000000
:1001C000000000000B02000800000000000000001A
:1001D0000B0200080B020008DFF810D000F042F814
:1001E00000480047C5280008AFF30080B81600207B
:1001F0000648804706480047FEE7FEE7FEE7FEE7C1
:10020000FEE7FEE7FEE7FEE7FEE7FEE7C92100089E
:10021000D9010008D2B201E000F8012B491EFBD23F
:1002200070470022F6E710B513460A460446194601
:10023000FFF7F0FF204610BD30B50B460146002009
:100240002022012409E021FA02F59D4205D303FA98
:1002500002F5491B04FA02F52844151EA2F1010219
:10026000F1DC30BD064C074D06E0E06840F00103CC
:1002700094E8070098471034AC42F6D3FFF7B0FF7C
:10028000242900084429000870B58D1810F8014B86
:1002900014F0030201D110F8012B231106D110F83C
:1002A000013B03E010F8016B01F8016B521EF9D11C
:1002B000ABB110F8012B04F00C048A1A0C2C03D0FB
:1002C000A2EB84129B1C08E010F8014BA2EB042265
:1002D000F8E712F8014B01F8014B5B1EF9D5A94272
:1002E000D4D3002070BDFEE77047002240F6B8333B
:1002F00006E00021491C89B29942FBD3521C92B2FC
:100300008242F6D37047000070B5044600F0F8F85A
:100310000546601C02D004484068044400F0F0F830
:10032000401BA042FAD370BDEC1100202DE9FC4F18
:10033000DFF8A0A1002301250AF1040B03244FF0EC
:100340000F0C0BF1040EBDE005FA03F632406FD03E
:100350004F68012F05D0022F03D0112F01D0122F8B
:1003600017D1D0F808905F0004FA07F829EA0809C5
:100370000097D1F80C8008FA07F848EA0908C0F895
:1003800008804768B7430E79C6F300169E403E4387
:100390004660C6684FEA430804FA08F7BE4301976F
:1003A0008F6807FA08F73743C7604E68022E01D0FE
:1003B000122E13D1DE0800EB86060096366A5F0720
:1003C000FF0E0CFA07F926EA0906D1F8109009FA8F
:1003D00007F949EA0609009EC6F820900668019FC1
:1003E000BE430F7907F0030707FA08F737430760A2
:1003F0004E68F60065D5384E376E47F00107376610
:10040000366E23F0030706F001060096334E3E4495
:10041000B146B6689F074FEA17780CFA08F7BE4353
:10042000B0F1904F05D02E4FB84204D1012717E00C
:1004300047E0002714E02B4FB84201D102270FE01C
:10044000294FB84201D103270AE0284FB84201D111
:10045000042705E0264FB84201D1052700E0062712
:1004600007FA08F73743C9F80870DAF8006057460A
:10047000D1F8048096435FEAC83800D516433E6041
:10048000DBF800605F46D1F8048096435FEA883865
:1004900000D516433E60DEF800607746D1F8048050
:1004A00096435FEAC82800D516433E60094F0C37D3
:1004B0003E68D1F8048096435FEA882800D5164349
:1004C0003E605B1C0A6832FA03F67FF43DAFBDE87C
:1004D000FC8F0000000401400010024000000140B9
:1004E0000004004800080048000C004800100048C4
:1004F000001400480AB181617047816270470000B2
:100500000148806870470000EC11002002488168B3
:100510004268114481607047EC11002010B500243E
:10052000032000F073F8002000F008F808B101245F
:1005300001E000F025F8204610BD000070B50E4E19
:1005400005460024706898B14FF47A71B1FBF0F061
:100550000A490968B1FBF0F000F00EFC40B9102D1B
:1005600006D200222946501E00F030F8356000E027
:100570000124204670BD0000EC110020F81100207D
:100580000A4882B0016E41F001010166016E01F07E
:1005900001010091816D41F080518165806D00F015
:1005A0008050009002B000F0A1B80000001002409E
:1005B000002809DB00F01F02012191404009800062
:1005C00000F1E020C0F8001170470000F0B40E4BBD
:1005D0001B680C46C3F30223C3F10705042D00D9A1
:1005E0000425191D072901D2002300E0DB1E012686
:1005F00006FA05F1491E214099409E40761E16409C
:100600003143F0BC02F08EB80CED00E0064900F07A
:10061000070208684FF6FF03184040EA0220034A29
:1006200010430860704700000CED00E00000FA0580
:100630002B492C4B0A6832214A432B4940B1B0F573
:10064000007F086829D020F4C06040F480602CE06E
:100650000868C0F34120022804D051F8800F20F42C
:10066000807022E0D1F8800020F48070C1F8800012
:10067000086820F4C06040F400700860B2FBF3F03A
:10068000401C00E0401E4A69520501D50028F9D1FE
:10069000486940050AD503207047C0F3412002286D
:1006A00006D051F8800F40F4807008600020704739
:1006B000D1F8800040F48070C1F88000086820F410
:1006C000C06040F400700860B2FBF3F0401C00E032
:1006D000401E4A695205DBD50028F9D1D8E7000051
:1006E000F811002040420F0000700040024881686D
:1006F00041F4804181607047007000402DE9F0476F
:100700000E4605004FF0000725D0DFF8AC81D8F881
:10071000000000F00F00B0420CD2D8F8001021F019
:100720000F013143C8F80010D8F8000000F00F00A6
:10073000B04210D12968614CC80741F2883A5AD0BA
:100740006868DFF87C91032808D0022820682DD043
:10075000400500282CDB0120BDE8F08720688001DF
:10076000F9D5E06800F00302E068C0F30310401C14
:10077000032A19D0534A00BFB2FBF0F0E268C2F37B
:1007800006225043E268C2F34162521C5200B0FBA1
:10079000F2F0484517D9A06810F0F00F0CD0880788
:1007A00011D5A86840B10EE0474AE5E78003D0E7DD
:1007B00000F0A4F8484506D9A06820F0F00040F009
:1007C0008000A0608027A068696820F003000843CB
:1007D000A060FFF795FE814606E000BFFFF790FEA0
:1007E000A0EB090151453AD8A068696800F00C00F7
:1007F000B0EB810FF2D12868810714D5400703D5EB
:10080000A06840F4E060A0602878000705D5A068E3
:1008100020F4605040F4E060A060A068A96820F077
:10082000F000084304E0802F03D1A06820F0F0001E
:10083000A060D8F80010404601F00F01B14216D96F
:10084000016821F00F0131430160FFF759FE0746AF
:1008500007E000BFFFF754FEC11B514501D903203B
:100860007AE7D8F8000000F00F00B042F2D1287803
:10087000400705D5A068E96820F4E0600843A0605F
:100880002878000706D5A068296920F4605040EA5E
:10089000C100A06000F032F8A1680C4AC1F3031156
:1008A000515C01F01F01C84009490860094800680F
:1008B000BDE8F047FFF742BE0020024000100240B2
:1008C00000B4C4040024F40000366E010C290008B2
:1008D000F8110020EC1100200548064900688968DD
:1008E000054AC1F3C221515C01F01F01C8407047A5
:1008F000F8110020001002401C290008184910B50A
:100900008868C0F381021748012A0BD08A68164B09
:10091000C2F38102022A06D08A68C2F38102032A46
:1009200003D0002010BD184610BDCA6802F00304B1
:10093000CA68C2F30312521C032C02D0B0FBF2F0BF
:1009400001E0B3FBF2F0CA68C968C2F30622504363
:10095000C1F34161491C4900B0FBF1F010BD00003A
:10096000001002400024F40000366E012DE9F84327
:1009700004007AD02078FA4DC00747D0A868E9680B
:1009800000F00C0001F003010C2802D0082817D059
:1009900001E0032914D06068B0F5803F17D0B0F5AE
:1009A000A02F286817D020F480302860286820F411
:1009B000802028606068E0B1FFF7A2FD064614E0E1
:1009C0002868800322D560680028D2D01EE02868FD
:1009D00040F48030EDE740F480202860F7E700BF66
:1009E000FFF78EFD801B642870D828688003F7D538
:1009F0000CE0FFF785FD064605E000BFFFF780FD30
:100A0000801B6428F0D828688003F7D420788007FA
:100A10004CD5A868E96800F00C0001F003010C282F
:100A200002D004280DD001E002290AD0E068002895
:100A300028682BD040F480702860FFF761FD0646DF
:100A400019E02868400502D5E068002891D0686860
:100A5000217C20F0FE4040EA01606860C1480068E7
:100A6000FFF76CFD002800D120E076E1FFF748FD9C
:100A7000801B0228B8D828684005F7D56868217C13
:100A800020F0FE4040EA016068600FE020F48070D2
:100A90002860FFF735FD064605E000BFFFF730FD93
:100AA000801B0228A0D828684005F7D420780007CA
:100AB00029D560690028D5F8940013D040F00100D2
:100AC000C5F89400FFF71CFD064606E090E000BF65
:100AD000FFF716FD801B022886D8D5F89400800702
:100AE000F6D510E020F00100C5F89400FFF708FDEE
:100AF000064604E0FFF704FD801B022878D8D5F8ED
:100B000094008007F6D42078400761D5A86D0026B0
:100B1000C00008D4A86D40F08050A865A86D0126DB
:100B200000F08050009090480168C90511D4016818
:100B3000804641F480710160FFF7E2FC074604E063
:100B4000FFF7DEFCC01B022852D8D8F80000C00511
:100B5000F6D5A068012815D00528D5F8900016D044
:100B600020F00100C5F89000D5F8900020F00400B6
:100B7000C5F89000A06841F28838B8B1FFF7C0FC12
:100B800007460EE0D5F8900040F00100F0E740F095
:100B90000400C5F89000F5E7FFF7B2FCC11B414522
:100BA00026D8D5F890008007F6D50CE0FFF7A8FC12
:100BB000074604E0FFF7A4FCC11B414518D8D5F84F
:100BC00090008007F6D41EB1A86D20F08050A86573
:100BD0002078800629D5A0690028D5F8980013D080
:100BE00040F00100C5F89800FFF78AFC064606E0D1
:100BF00077E000BFFFF784FC801B022877D8D5F888
:100C000098008007F6D510E020F00100C5F89800A4
:100C1000FFF776FC064604E0FFF772FC801B022813
:100C200065D8D5F898008007F6D4E069F0B3A968D4
:100C3000C1F38101032961D00228286820F0807067
:100C400028600BD0E86820F00300E860E8684749B6
:100C50000840E860FFF754FC04464BE0FFF750FC07
:100C6000064604E0FFF74CFC801B02283FD82868AA
:100C70008001F7D4F4E908016FF00F0202EB0111D3
:100C80000843218A5204490802EB4151A26841EA13
:100C900002210843217D4FF07E42490802EB416169
:100CA0000843217B40EAC160E96800E062E0304A25
:100CB00011400843E860286840F080702860E868C8
:100CC00040F08070E860FFF71BFC044605E000BFC1
:100CD000FFF716FC001B022809D828688001F7D509
:100CE00048E004E0FFF70CFC001B022802D90320B7
:100CF000BDE8F88328688001F4D43BE00128F7D0F0
:100D0000E868226A00F00301914226D1616A00F08E
:100D1000F0020901103991421FD1A26A00F4FE418C
:100D2000B1EB022F19D194F82C2000F07841B1EBEF
:100D3000C26F12D1218E00F4C00249084905A1F505
:100D40000011914209D194F8341000F0C0604908B4
:100D50004906A1F1007181420CD00120C8E70000D2
:100D600000100240EC11002000700040FFFFEEFE7A
:100D70000C809F010020BBE710B5401EB0F1807FC2
:100D800001D3012010BD4FF0E02460610F216017F6
:100D900001F0C8FC0020A06107202061002010BDE8
:100DA000704770477047704770477047F0B590F8CC
:100DB0003C20012A3AD0012580F83C50022280F8DC
:100DC0003D2003685A689C68194E1A4FB34201D0FF
:100DD000BB4204D122F4700C4A6842EA0C02DFF8EC
:100DE00058C002EA0C02D1F800C04CEA020CC3F869
:100DF00004C00268B2420DD0B2F1804F0AD00F4B4E
:100E00009A4207D00E4B9A4204D0BA4202D00D4B00
:100E10009A4204D1896824F080031943916080F8D4
:100E20003D50002180F83C100846F0BD0220F0BD86
:100E3000002C0140003401408FFFFFFD0004004002
:100E40000008004000400140704710B5040003D086
:100E500094F83D0010B107E0012010BD002084F897
:100E60003C00204600F022F8022084F83D00211DBD
:100E7000206801F0BDF9012084F8480084F83E00A4
:100E800084F83F0084F8400084F8410084F8420070
:100E900084F8430084F8440084F8450084F8460050
:100EA00084F8470084F83D00002010BD10B586B0DE
:100EB000044614216846FFF7B4F921681E48B1F1D1
:100EC000804F15D01D4A914210D1816D41F0020131
:100ED0008165806D002200F00200059011461D2002
:100EE000FFF774FB5FF01D00FFF762FB06B010BD5B
:100EF000816D41F001018165816D01F00101059174
:100F0000C16C41F00101C164C06C694600F0010090
:100F10000590022000900190002002900390012093
:100F200004904FF09040FFF701FA002211461C2078
:100F3000FFF74CFB1C20D7E70010024000040040E4
:100F400070B5044690F83C00012814D0012584F8BF
:100F50003C50022084F83D0022689068344B1840D1
:100F600020F47F4090600868702827D010DC10F0D3
:100F70000F0F03D04AE04FF0020070BD4FEA20127D
:100F8000072A43D2DFE802F0505050504831390070
:100F9000284BC21A984247D009DCB0F5805F35D0A3
:100FA000B0F5005F15D0B0F1101F2FD13CE0102A32
:100FB0003AD0202A38D0502A28D135E0CB68D1E960
:100FC0000121206801F079F92068816841F07701FA
:100FD00009E0CB68D1E90121206801F06EF92068B1
:100FE000816841F48041816010E0CA6849682068E6
:100FF00001F00EFB5021206806E0CA6849682068AD
:1010000001F04EFB6021206801F062F984F83D5048
:10101000002084F83C0070BDCA684968206801F06F
:10102000F7FA40212068EFE7226801461046EBE717
:1010300088FFCEFF2000100010B5007F022817D1D6
:101040001B4C207860B1012812D10421194800F00E
:10105000ECFB2061E16888420BD9A0EB01000EE0B7
:101060004FF00401134800F0E0FBE0600120207025
:1010700010BD1AD26FEA0101084400F10100A0601E
:10108000FFF72AFCA168B0FBF1F06060002020703F
:101090006268084808A1983001F030FB0549BDE8B6
:1010A00010409831182000F06BBC72B6FEE70000CB
:1010B000D8110020FC110020256400002DE9F0412A
:1010C000054690F83C000C46012836D0012085F8F2
:1010D0003C008AB3042A42D02868082A51D0D4E9B7
:1010E0000023E168066A26F480560662C669076A2C
:1010F00026F4407646EA03234FF6FF7606EA0131EE
:1011000023F4704319434FF4204627F4204306EAA2
:1011100002321A43C16102622868C16921F4406148
:10112000C1612868C169A26841EA0221C161002049
:1011300085F83C00BDE8F08101E00220FAE7D4E93F
:101140000012E368286801F075FA2868816921F0C7
:101150000C01816128688169A26811430FE0D4E91C
:101160000012E368286801F0ADFA2868816921F46B
:101170004061816128688169A26841EA0221816138
:10118000D5E7D4E90027267B016A21F4807101624A
:10119000C169036A21F00301394321F0F0073107E7
:1011A0004FF4206647EA116123F4206306EA022225
:1011B0001A43C16102622868C16921F00C01C16152
:1011C0002868C169A2681143B0E710B5040003D0D4
:1011D00094F83D0010B107E0012010BD002084F814
:1011E0003C00204600F022F8022084F83D00211D3A
:1011F000206800F0FDFF012084F8480084F83E00DC
:1012000084F83F0084F8400084F8410084F84200EC
:1012100084F8430084F8440084F8450084F84600CC
:1012200084F8470084F83D00002010BD704700009E
:1012300010B5044679B1042912D0082915D00C291B
:1012400018D0102919D094F8430000BF94F8472013
:10125000012817D114E094F83E0094F84420F7E7F1
:1012600094F83F0094F84520F2E794F8400094F891
:101270004620EDE794F84100E8E794F84200E5E7FE
:10128000012A01D0012010BD022071B1042915D01E
:1012900008291CD00C2948D0102949D084F84300D3
:1012A00084F847000C291BD145E084F83E0084F8FF
:1012B00044002068C26842F0020210E084F83F0057
:1012C00084F845002068C26842F0040207E084F810
:1012D000400084F846002068C26842F00802C260FC
:1012E0000122206800F0DCFF1549206888420ED0FA
:1012F000B0F1804F0BD01349884208D01249884280
:1013000005D01249884202D01149884207D181682C
:10131000104A1140062906D0B1F5803F03D001687C
:1013200041F001010160002010BD84F84100B7E7E1
:1013300084F84200B4E72068C26842F01002CEE7A9
:10134000002C01400004004000080040003401402F
:10135000004001400700010070B5044600680169C3
:101360004FF00005C943890715D4C168C9438907EF
:1013700011D4E91E0161012020772068806980076F
:10138000204602D0FFF758FE04E000F00BF920469B
:1013900000F0CAF9257720680169C943490717D4C5
:1013A000C168C943490713D46FF0040101610220E9
:1013B00020772068806910F4407F204602D0FFF734
:1013C0003BFE04E000F0EEF8204600F0ADF9257792
:1013D00020680169C943090716D4C168C9430907D0
:1013E00012D46FF008010161042020772068C069E1
:1013F0008007204602D0FFF71FFE04E000F0D2F87D
:10140000204600F091F9257720680169C943C90693
:1014100017D4C168C943C90613D46FF01001016124
:10142000082020772068C06910F4407F204602D051
:10143000FFF702FE04E000F0B5F8204600F074F972
:10144000257720680169C943C90708D1C168C94324
:10145000C90704D1891E0161204600F0E5F9206822
:101460000169C943090609D4C168C943090605D4FD
:101470006FF0800101612046FFF793FC206801694D
:10148000C943C90509D4C168C943090605D46FF425
:10149000807101612046FFF783FC20680169C94320
:1014A000490609D4C168C943490605D46FF0400113
:1014B0000161204600F0CEF920680169C943890620
:1014C00009D4C168C943890605D46FF020010161C0
:1014D0002046FFF767FC20680169C943C90209D4A7
:1014E000C168C943C90205D46FF480110161204667
:1014F000FFF75AFC20680169C943890209D4C16811
:10150000C943890205D46FF4001101612046FFF739
:101510004AFC20680169C943490209D4C168C9432A
:10152000490205D46FF4800101612046FFF73DFCBC
:1015300020680169C94309020BD4C168C943090283
:1015400007D46FF4000101612046BDE87040FFF749
:101550007BBC70BD10B586B0044614216846FEF70A
:1015600060FE0E492068884215D10D48C16C41F0DB
:101570000101C164C06C002100F001000590402011
:1015800000900220CDE90101CDE9031069464FF03A
:101590009040FEF7CBFE06B010BD000000040040F6
:1015A00000100240704770B5044690F83C000D46AC
:1015B00001280BD0012084F83C000C2A45D007DC20
:1015C0005AB1042A1BD0082A78D12CE0022070BD21
:1015D000102A4ED0142A71D15DE0206800F082FEFE
:1015E0002068816941F0080181612068816921F0EA
:1015F00004018161206881692A69114311E0206832
:1016000000F0BEFE2068816941F4006181612068BC
:10161000816921F480618161206881692A6941EAD8
:10162000022181614AE0206800F0F2FE2068C16971
:1016300041F00801C1612068C16921F00401C16164
:101640002068C1692A69114311E0206800F028FF71
:101650002068C16941F40061C1612068C16921F459
:101660008061C1612068C1692A6941EA0221C161C2
:1016700024E0206800F05CFF2068016D41F0080163
:1016800001652068016D21F0040101652068016D8C
:101690002A69114311E0206800F082FF2068016D83
:1016A00041F4006101652068016D21F480610165EC
:1016B0002068016D2A6941EA02210165002084F851
:1016C0003C0070BD10B5040003D094F83D0010B18B
:1016D00007E0012010BD002084F83C00204600F007
:1016E00022F8022084F83D00211D206800F080FDD2
:1016F000012084F8480084F83E0084F83F0084F814
:10170000400084F8410084F8420084F8430084F8E3
:10171000440084F8450084F8460084F8470084F8C3
:101720003D00002010BD70477047000030B50446F2
:10173000022269B1042912D0082917D00C291CD023
:10174000102921D094F84300012824D0012030BD75
:1017500094F83E000128F9D184F83E201DE094F869
:101760003F000128F2D184F83F2016E094F84000B1
:101770000128EBD184F840200FE094F841000128C3
:10178000E4D184F8412008E094F842000128DDD13A
:1017900084F8422001E084F843200122206800F010
:1017A0007FFD194B20681949194A984209D088428F
:1017B00007D0904205D0174DA84202D0164DA8423E
:1017C00003D1456C45F400454564206898420CD02F
:1017D000B0F1804F09D0114B984206D0104B98427F
:1017E00003D0884201D0904207D181680D4A114050
:1017F000062906D0B1F5803F03D0016841F0010110
:101800000160002030BD0000002C01400034014088
:1018100000400140004401400048014000040040F5
:10182000000800400700010070470246002041B157
:10183000042909D008290AD00C2901D11068006CAC
:1018400070471068406B70471068806B7047106875
:10185000C06B70477047FEE700B585B0142168463D
:10186000FEF7DFFC4FF6FF70009000200321CDE96A
:101870000201019069460248FEF758FD05B000BD1F
:101880000008004800B585B014216846FEF7C9FC81
:101890004FF6FF700090012001900320039000207C
:1018A000029069460248FEF741FD05B000BD000008
:1018B0000008004870B5002406462146204600F086
:1018C00003F900F041F94FF49635304600F010F975
:1018D000641CAC42F9D370BD30B587B014216846A2
:1018E000FEF79FFC1E48C16C41F00401C164C16C4D
:1018F00001F004010591C16C41F00101C164C16CAA
:1019000001F001010591C16C41F00201C164C06C9C
:10191000012500F0020005904FF44870CDE9000564
:1019200000240394694602940E48FEF7FFFC280247
:1019300003940090CDE901544FF09044694620464D
:10194000FEF7F4FCFFF79EFFA06940F48070A061F1
:1019500004481830016841F40871016007B030BDD7
:101960000010024000040048203AD2B2034B02EBC0
:10197000420203EB021200F019B80000060000203A
:10198000F0B50E460746002540F23F1407E0214619
:101990003846FFF7E9FF103C6D1CA4B2761C327884
:1019A000002A01D0142DF2D3F0BD00002DE9F0473C
:1019B00091468A460026044600F086F8DFF840800B
:1019C000012700BF00F0C0F85FF0000539F81600ED
:1019D00007FA05F10842404601D1408800E000883E
:1019E00000F086F86D1C102DF0D3641CE4B2514653
:1019F000204600F069F8761C182EE3D3BDE8F08786
:101A00000000002010B5FFF767FF002000F014F879
:101A1000084CA080A088A0F50241303906D000F023
:101A20009BFA002000F008F8A08010BD00F00BFA2F
:101A3000F7E700000000002070B51D490A6842F475
:101A400000720A600A6842F480720A60184C103C06
:101A5000226842F020022260164A1060086840F0B6
:101A60002000086000BF00BF00BF206840F02000D9
:101A70002060206840F480702060FFF7EDFE4FF09A
:101A80009041886A40F48070886200BF00BF00BF48
:101A90000848001F006885B2886940F4807088613A
:101AA000FFF7F0FE206840F400702060284670BD0B
:101AB000280400481408004801B5BDF80000014999
:101AC000488008BD0000002010B50C4601462020CB
:101AD00000F068F82146BDE81040212000F062B80F
:101AE00001B5BDF800000149088008BD00000020D4
:101AF000134A116841F400711160114910390B68E3
:101B000043F480730B600B6843F020030B600D4BB4
:101B10001860106840F02000106000BF00BF00BFD8
:101B2000086840F020000860086840F48070086091
:101B300000BF00BF00BF086840F400700860704735
:101B400028040048140800481449086840F400704C
:101B50000860086840F48070086010481038026817
:101B600042F0200202600E4B22221A600A6842F004
:101B700020020A6000BF00BF00BF016841F02001E1
:101B80000160016841F48071016000BF00BF00BFC7
:101B9000016841F4007101607047000028040048AA
:101BA00014080048184B10B51A6842F400721A6005
:101BB0001A6842F480721A60134A103A146844F0AA
:101BC00020041460114C2060186840F02000186058
:101BD00000BF00BF00BF106840F020001060106818
:101BE00040F4807010602160186840F02000186098
:101BF00000BF00BF00BF106840F0200010601068F8
:101C000040F48070106010BD28040048140800489B
:101C10002DE9F04F87B014216846FEF702FB3848E3
:101C2000C16C41F00401C164C16C01F00401059173
:101C3000C16C41F02001C164C16C01F0200105912B
:101C4000C16C41F00101C164C16C01F00101059159
:101C5000C16C41F00801C164C16C01F0080105913B
:101C6000C16C41F00201C164C06CDFF8988000F0E3
:101C700002004FF6FF740590002221464046FEF711
:101C800039FC4FF480764FF09049002231464846A7
:101C9000FEF730FCDFF870A0002204215046FEF76A
:101CA00029FCDFF868B04FF44877002239465846DF
:101CB000FEF720FC0125CDE9004500240294694689
:101CC00040460394FEF732FB0096CDE90154694685
:101CD00048460394FEF72AFB04200090CDE9015406
:101CE000694650460394FEF721FB0097CDE9015465
:101CF000694658460394FEF719FB07B0BDE8F08F1C
:101D00000010024000080048000C00480004004891
:101D100010B58CB0002405942148049406940794CF
:101D200008940A9409940094019402944FF080411D
:101D30000394C0E900146FF07041C0E902410461EE
:101D40008461FFF782F808B172B6FEE74FF4805065
:101D5000049004A91248FFF7F3F808B172B6FEE741
:101D60000F48FFF732FA08B172B6FEE7089408A9E7
:101D70000B480A94FFF71AF808B172B6FEE7012083
:101D8000CDE9004002940422694605480394FFF718
:101D900095F9002801D072B6FEE70CB010BD000026
:101DA000FC11002010B58EB000240794089409940B
:101DB0000A940B940C941C2168460D94FEF731FA9A
:101DC0001E481D4901600721C0E901142821C0E90E
:101DD00003148461FFF739F808B172B6FEE74FF4D7
:101DE0008050079007A91548FFF7AAF808B172B606
:101DF000FEE71248FFF766FC08B172B6FEE70B94E7
:101E00000BA90E480D94FEF7D1FF08B172B6FEE79C
:101E1000602000900A20CDE90104002269460748AD
:101E20000494FFF7C0FB08B172B6FEE70348FFF762
:101E300091FB0EB010BD00000004004048120020CD
:101E4000FEE7FEE7704730B501210020FFF7AAFE4C
:101E50004FF47A70FEF749FA00210120FFF7A2FE45
:101E600041F290711020FFF79DFE4FF41C5160204D
:101E7000FFF798FE01216120FFF794FE0221462022
:101E8000FFF790FE48F210011320FFF78BFE48F297
:101E9000FE011220FFF786FE4FF4A0610220FFF73B
:101EA00081FE41F230010320FFF77CFE40F2033453
:101EB00021463020FFF776FE21463120FFF772FEE3
:101EC00021463220FFF76EFEE51E29463320FFF73C
:101ED00069FE03213420FFF765FE21463520FFF718
:101EE00061FE14213620FFF75DFE21463720FFF703
:101EF00059FE21463820FFF755FE21463920FFF7CD
:101F000051FE29463A20FFF74DFE03213B20FFF703
:101F100049FE21463C20FFF745FE4FF4A0513D20ED
:101F2000FFF740FE4FF400719220FFF73BFE214681
:101F30009320FFF737FE40F60D019020FFF732FEA9
:101F400041F218010320FFF72DFEBDE8304040F2BA
:101F500073110720FFF726BE10B543F20801E320F6
:101F6000FFF720FE1221E720FFF71CFE41F231218E
:101F7000EF20FFF717FE00210120FFF713FE4FF4BB
:101F8000E0610220FFF70EFE41F230010320FFF76F
:101F900009FE00210420FFF705FE40F2072108207A
:101FA000FFF700FE00210920FFF7FCFD00210A20B9
:101FB000FFF7F8FD00210C20FFF7F4FD00210D20B4
:101FC000FFF7F0FD00210F20FFF7ECFD00211020AE
:101FD000FFF7E8FD07211120FFF7E4FD00211220A3
:101FE000FFF7E0FD00211320FFF7DCFDC820FEF71E
:101FF0008BF941F290611020FFF7D4FD40F22721C8
:102000001120FFF7CFFD3220FEF77EF91D211220AF
:10201000FFF7C8FD3220FEF777F94FF40061132077
:10202000FFF7C0FD14212920FFF7BCFD0B212B2059
:10203000FFF7B8FD3220FEF767F900212020FFF7F7
:10204000B1FD00212120FFF7ADFD07213020FFF772
:10205000A9FD40F207713120FFF7A4FD06213220CF
:10206000FFF7A0FD40F204713520FFF79BFD41F61C
:1020700004713620FFF796FD04213720FFF792FD0B
:1020800000213820FFF78EFD40F206713920FFF75E
:1020900089FD40F201713C20FFF784FD0F213D20B6
:1020A000FFF780FD00215020FFF77CFDEF2151203C
:1020B000FFF778FD00215220FFF774FD40F23F1139
:1020C0005320FFF76FFD4FF41C516020FFF76AFDAE
:1020D00001216120FFF766FD00216A20FFF762FD04
:1020E00000218020FFF75EFD00218120FFF75AFDCF
:1020F00000218220FFF756FD00218320FFF752FDCB
:1021000000218420FFF74EFD00218520FFF74AFDC6
:1021100010219020FFF746FD00219220FFF742FD9D
:1021200003219320FFF73EFD4FF488719520FFF7C0
:1021300039FD00219720FFF735FD00219820FFF79A
:1021400031FD41F218010320FFF72CFDBDE81040DE
:1021500040F273110720FFF725BD7047FEF7D6B98F
:1021600000B593B038216846FEF75BF814210EA83D
:10217000FEF757F84FF40070FEF75AFA0220C1013B
:102180000391402104910090079008901421CDE91B
:1021900009010B900C900D906846FEF7E7FB08B123
:1021A00072B6FEE70F200E9003200F9000201090D3
:1021B0001190129002210EA8FEF7A0FA002801D07B
:1021C00072B6FEE713B000BD0248016841F4700129
:1021D0000160704788ED00E00148FFF7BDB80000DE
:1021E000FC1100200148FFF7B7B80000481200209A
:1021F0002DE9F0430268234B234D244E244C4FF02D
:102200008049984207D0484505D0A84203D0B04243
:1022100001D0A04203D122F070074A683A431D4F13
:10222000DFF874C0DFF8748098420DD048450BD0B9
:10223000A84209D0B04207D0A04205D0B84203D08E
:10224000604501D0404503D122F44075CA682A4355
:102250004D6922F080022A4302608A68C2620A68DD
:102260008262984207D0A04205D0B84203D06045B0
:1022700001D0404501D10969016301214161BDE8F7
:10228000F0830000002C01400004004000080040E2
:10229000003401400040014000440140004801403A
:1022A00010B501F01F030121046A99408C430462B8
:1022B000016A9A401143016210BD10B5846842EA78
:1022C000032224F47F440A432243826010BD0000AD
:1022D0008268034B1A400A4342F00701816070474D
:1022E0008FFFCFFF2DE9F043026A22F00102026264
:1022F000056A436882691C4C25F0020522400C687F
:1023000022F0030214438A68194E2A43174D194FCD
:10231000DFF864C0DFF86490A84207D0B04205D06F
:10232000B84203D0604501D0484506D122F00808E4
:10233000CA6842EA080222F00402A84207D0B0426A
:1023400005D0B84203D0604501D0484505D14D695C
:1023500023F440731D438B692B43436084614968B8
:1023600041630262BDE8F0838FFFFEFF002C014055
:102370000034014000400140004401400048014059
:10238000F0B5026A22F010020262056A42688369AF
:10239000194C1B4E23400C6823F4407343EA042479
:1023A00025F020038D6843EA0513144DA84201D09F
:1023B000B04206D1CF6823F0800343EA071323F02D
:1023C0004003A8420AD0B04208D00E4DA84205D022
:1023D0000D4DA84202D00D4DA84207D14D6922F4FF
:1023E000406242EA85028D6942EA85024260846168
:1023F000496881630362F0BDFF8FFFFE002C01403E
:1024000000340140004001400044014000480140C8
:10241000F0B5026A22F480720262056A4368C269FA
:10242000194C1B4E22400C6822F00302144325F481
:1024300000728D6842EA0522144DA84201D0B042D4
:1024400006D1CF6822F4006242EA072222F48062B9
:10245000A8420AD0B04208D00E4DA84205D00E4D79
:10246000A84202D00D4DA84207D14D6923F4405334
:1024700043EA05138D6943EA05134360C461496863
:10248000C1630262F0BD00008FFFFEFF002C01401F
:102490000034014000400140004401400048014038
:1024A000F0B5026A22F480520262056A4268C3698A
:1024B000194C1B4E23400C6823F4407343EA042458
:1024C00025F400538D6843EA0533144DA84201D02A
:1024D000B04206D1CF6823F4004343EA073323F424
:1024E0008043A8420AD0B04208D00E4DA84205D081
:1024F0000D4DA84202D00D4DA84207D14D6922F4DE
:10250000404242EA85128D6942EA85124260C46106
:10251000496801640362F0BDFF8FFFFE002C01409B
:1025200000340140004001400044014000480140A7
:1025300030B5026A22F480320262046A4268036D96
:10254000114D2B400D681D4324F400330C8943EAE0
:1025500004430E4CA0420BD00D4CA04208D00D4CB1
:10256000A04205D00C4CA04202D00C4CA04204D199
:102570004C6922F4803242EA0422426005654968CF
:102580008164036230BD00008FFFFEFF002C01401C
:102590000034014000400140004401400048014037
:1025A00030B5026A22F480120262046A4268036D46
:1025B000114D24F400142B400D6843EA05230D89C6
:1025C00044EA05540D4DA8420BD00D4DA84208D049
:1025D0000C4DA84205D00C4DA84202D00B4DA8428C
:1025E00004D14D6922F4802242EA852242600365CB
:1025F0004968C164046230BDFF8FFFFE002C0140BA
:1026000000340140004001400044014000480140C6
:1026100010B5036A046A24F001040462846924F09A
:10262000F00444EA021423F00A020A4384610262BD
:1026300010BD000070B5046A24F0010404628469CE
:10264000056A124EB0420ED0B0F1804F0BD0104E42
:10265000B04208D00F4EB04205D00F4EB04202D06B
:102660000E4EB04203D124F00304144301E044F0C1
:1026700001041A0724F0F00444EA126225F00A0368
:1026800001F00A0119438261016270BD002C014012
:1026900000040040000800400034014000400140B8
:1026A00010B5036A23F0100303628369046A23F4FC
:1026B000704343EA023224F0A00343EA011182612D
:1026C000016210BD30B5046A24F01004046284690C
:1026D000056A24F4407444EA022222F470444FF65E
:1026E000FF7202EA03322243A02425F0A00304EA89
:1026F000011119438261016230BDFEE70FB4084B3E
:1027000010B504A902AA039800F02CF8044602A907
:10271000002000F0D1F8204610BC5DF814FB00004A
:10272000B92800080907090E002804DB00F1E020A1
:1027300080F80014704700F00F0000F1E02080F8EE
:10274000141D704702E008C8121F08C1002AFAD100
:1027500070477047002001E001C1121F002AFBD121
:10276000704700002DE9FF4F89B09B4604460025C5
:1027700006E025280BD05A460B999047641C6D1C27
:1027800020780028F5D10DB02846BDE8F08F00274D
:10279000B8460122474900E0074314F8013F203BB7
:1027A00002FA03F00842F7D120782E2819D114F844
:1027B000010F47F004072A280ED06FF02F0220786F
:1027C000A0F1300109290CD808EB880102EB410186
:1027D00000EB0108641CF2E70A98641C50F8048BB3
:1027E0000A9020780028CED0642808D0692806D026
:1027F00075281ED05A460B9990476D1C58E00A99CF
:102800004FF00A0901C90A91002802DA40422D213D
:1028100002E0390504D52B218DF82010012103E0B9
:10282000F90704D02021F7E78A4608AE0DE0002121
:10283000FAE70A994FF00A0901C90A91F7E74946F0
:10284000FDF7FAFC303106F8011D0028F7D1ADEB99
:10285000060000F12009780701D44FF00108C845AF
:1028600002DDA8EB090000E000208046002706E01A
:1028700008A85A46C05D0B9990476D1C7F1C5745B0
:10288000F6DB04E030205A460B9990476D1CB8F1F6
:102890000001A8F10108F5DC05E016F8010B5A4625
:1028A0000B9990476D1CB9F10001A9F10109F4DC05
:1028B000641C65E7092801000A68531C0B6010704E
:1028C00070470000FDF72AFEFFF74AFCFFF7A0F96A
:1028D000FFF71EFAFFF766FAFFF794F84FF6FF745A
:1028E0002046FEF7E7FF2046FFF7E6F80020FFF757
:1028F000F7F800210448FEF719FF034804214C387B
:10290000FEF796FCFEE700004812002000000000E1
:10291000000000000102030406070809000000008F
:10292000010203044429000800000020FC110000FB
:1029300088020008D02F0008FC110020BC04000011
:10294000542700080006310000FFFF000103168035
:102950000102611EE13292CC02012A6A23600C025C
:10296000200F30063006FE1FFE1F30063807180302
:102970000A2007180318038C01023172201700E0A7
:1029800003F80F9C0E8C1C8C188C009800F801E04A
:1029900007800E800E100B189C18B80CF00FE00387
:1029A0008026A15A10090E181B0C110C11060210DA
:1029B000110311039B018E01C038C06C6044604458
:1029C000300260071844186C0C38BE1005E001F0A6
:1029D000037A10140618063003F001F000F8009C8A
:1029E000310E33061E061C02E0063FFC73F021B8D0
:1029F000920C020121E7100B0200038001C000C00D
:102A0000006002D230022114211C155E12032A1527
:102A1000163220123570120302D20602111425A2BA
:102A2000214ED6208821481008D806F807E001304A
:102A3000D2052AEAC405FC3FFC3FE8092C3012000D
:102A400002021B806C080532E007E0078E41D6F5D4
:102A50007F750C155C351045624564D17AE00A0338
:102A6000F007380E180C0C1802D409180C380EF0A8
:102A700007E003B0214C0C071901F0019801880808
:102A800003A16043F80F5E220002219C35F025EC83
:102A9000D0071800FC1FFC1F90100701F807180E44
:102AA0000C0121C81805C003C00751113C41920216
:102AB00010F8904C0B0C000E000F000F800DC03072
:102AC00003116B270C0CB209148513F80F90318990
:102AD0003009EC03FC071C0E001C98115E00051069
:102AE0001C0C180E602009C007F00F381C18183293
:102AF0005409CC03EC0F3C0E1C1C2006121C203188
:102B0000D24582357C16C07A3AE0C85A70DE051488
:102B100080215384073806F007F0078CE005380C55
:102B2000F80F604130521C2430091C1C381EF81B61
:102B3000E019D1130C1CC00B1BF0018A01211401F8
:102B40001F30091ACE1C0510001C80720416F8DC18
:102B50001AF85C17800F600A1810F8C3F81F080DE8
:102B60001E1405180708003800F00114121F611622
:102B70001F9C13013814091770796E6D2603FD2E02
:102B8000033D7C03400C18180420C229224A11443A
:102B90000902EC0C221113E20C02400420181898D0
:102BA0000315D4200403C00602396E2218022C0734
:102BB000F83FF83F1C70AF052119D9106C0503FCD4
:102BC0000F0C5E0310040CFC070E1A18A541021E20
:102BD000180003FA0770BC0A1F38381C300C700646
:102BE00060DD04E008600C701C30F01F903C08FEB3
:102BF00003FE0F060E06A105B1022DB305E8050E72
:102C0000FE0FFEA01DCC048DA20529AEADB0053D82
:102C10003803C5A211DC4DBB032D27038005F81F27
:102C2000F81F0E4DD303DDCA043C0C0FF83F3C786F
:102C30000E6006E007C0810411A11DC5031533DC39
:102C4000090EC03CF0F83FE00FBF03A23002319EF6
:102C5000B1120F260C3080070D15A00502140602D4
:102C60002531DC063807F003E0B004353A10140CC7
:102C7000060606038601C60066007600DE008E01A9
:102C8000060312360C64DD4105021B18022530CD07
:102C9000210320050EE01EF0024336D8022366CC45
:102CA0000252C601E40586C386C32010041C303CD2
:102CB00002126C0212CC0210058C310C3302123657
:102CC00002123C02E638201C05E007F81F9904199F
:102CD0003EA303C002F80806600E701C38F8401BC3
:102CE000FC0F02CA38920E190CC407916082E05E94
:102CF000140907E006630E3F1C3CE0CEF79106196D
:102D00008258041F06389C1E38C00876074C49B20A
:102D10000E106030065DDE041D9B051BF80330338A
:102D20001E00401C050E301C1C1005ED000308049D
:102D30002A7FFE7F10E95EA97E0710181820430342
:102D400060BC6D14072D16072D94091405700760DB
:102D500003631DE005E13023C36102836633022370
:102D60006C1B02CC092C1A3C1E380E380E31051C87
:102D7000090FE00C70183030183F043C040EC007F7
:102D80005E04140503E00670F71D8107D006300EBF
:102D90006007E0602D79044C08301C383818300C7E
:102DA00065030D1C80075C05FC7FFC7F6D07DD7CE7
:102DB000072D2708253EED10082FE003AE06011E63
:102DC0000221282DA60A6DA6094DA8091D64096DCA
:102DD0000E0B7E03A009F1600221000261601D82DA
:102DE000071D4407256C3F6003D7042919013901E9
:102DF000CFFFFFF80B0D2DAE0A9D4A081805F00312
:102E0000F807AA2C070C000FF00FF8B1081F0C1CD4
:102E10005C080F16F01820041ED8A80B1E383708BF
:102E200081012DE0070F17D803DA091D9A096F30C9
:102E30000E39092DA3081E309009EEC00009711F3C
:102E40002805C01BF01F368160000719301CF01FD9
:102E5000C01B601E0F83066E18D4051952EC051CAA
:102E6000F00FC0F00644040FC00FDA2D9C0855E4A3
:102E7000B1020D17D40A1E0DFA093DCA0961011DE0
:102E8000600924050FE00D002A6E06AA0895204F60
:102E900007F86A09D1010D16F00A0215C002012EC9
:102EA0003041DEEC04F80078BE0C1C050C0C060C5E
:102EB0006A0D100DCC006C00FC009C018C030C030F
:102EC000120E100C560C011C020D169009E0097C24
:102ED0003CFF7EC7E383C1020D16EA0B0623982050
:102EE0000510E099101D0E0E0A17C0700916A00DEE
:102EF00016EA070917700D151B081EB06E07FE7045
:102F0000E20D0E1830140D1E037A0E1D1A0B1DF261
:102F1000093D060C0D15900C1D020F0919A00F1785
:102F20000780EA0D09106A1238C01D4C0B0D15DB25
:102F30000A4DFE053E18920F1DB7060E140300063B
:102F40008DF80F3008C141C141C3616301323601C0
:102F5000321C010D16F00F3E1CF70952605A1D5E1F
:102F6000061D75061E38E10B0117C01D36061D38FB
:102F7000062E1828102FE00C940A2D3E064DF00D59
:102F80001DA20D1D700C0D159A0C0D1B800D8D30A2
:102F90000B8D320E2DE205BA40D63D900F0D2590D7
:102FA00009CD22119E6024069DC60FB3030048FE82
:102FB000C0A80E5D74050C062E10F81F080FB41182
:102FC0002D810C7D170700040024F4000000000090
:04000005080001D915
:00000001FF
