:020000040800F2
:1000000098170020F1010008E32B0008AF22000838
:10001000E12B000887030008FD3C000800000000F9
:100020000000000000000000000000009D2F0008FC
:100030008903000800000000E52B00089F2F00083E
:100040000B0200080B0200080B0200080B0200085C
:100050000B0200080B0200080B0200080B0200084C
:100060000B0200080B0200080B0200080B0200083C
:100070000B0200080B0200080B0200080B0200082C
:100080000B020008000000000B0200080B02000831
:100090000B0200080B0200080B0200080B0200080C
:1000A0000B0200080B0200080B0200080B020008FC
:1000B0003D3000080B020008493000080B02000820
:1000C0000B0200080B0200080B0200080B020008DC
:1000D0000B020008F13C00080B0200080B020008AC
:1000E0000B0200080B0200080B0200080B020008BC
:1000F0000B0200080B0200080B02000800000000C1
:10010000000000000B020008000000000B020008C5
:100110000B020008000000000B0200080B020008A0
:100120000B0200080B0200080B0200080B0200087B
:100130000B02000800000000000000000B02000895
:100140000B0200080B020008000000000000000085
:10015000000000000000000000000000000000009F
:100160000000000000000000000000000B0200087A
:100170000B0200080000000000000000000000006A
:10018000000000000B02000800000000000000005A
:10019000000000000000000000000000000000005F
:1001A00000000000000000000B0200080B02000825
:1001B0000B0200080B0200080B0200080000000000
:1001C000000000000B02000800000000000000001A
:1001D0000B0200080B020008DFF810D000F092F8C4
:1001E00000480047793F0008AFF3008098170020CF
:1001F0000648804706480047FEE7FEE7FEE7FEE7C1
:10020000FEE7FEE7FEE7FEE7FEE7FEE72130000837
:10021000D90100082DE9F05F0546002092469B4673
:1002200088460646814640241BE02846414647460C
:10023000224600F057F853465A46C01A914110D34F
:1002400011461846224600F03EF82D1A67EB0108C9
:100250004F4622460120002100F035F817EB000937
:100260004E41201EA4F10104DFDC484631462A46F7
:100270004346BDE8F09FD2B201E000F8012B491ED1
:10028000FBD270470022F6E710B513460A46044633
:100290001946FFF7F0FF204610BD30B50B4601466A
:1002A00000202022012409E021FA02F59D4205D315
:1002B00003FA02F5491B04FA02F52844151EA2F1BF
:1002C0000102F1DC30BD202A04DB203A00FA02F101
:1002D000002070479140C2F1200320FA03F3194334
:1002E00090407047202A04DB203A21FA02F00021D6
:1002F000704721FA02F3D040C2F120029140084336
:1003000019467047064C074D06E0E06840F00103CF
:1003100094E8070098471034AC42F6D3FFF760FF2B
:10032000B8410008D841000870B58D1810F8014B8D
:1003300014F0030201D110F8012B231106D110F89B
:10034000013B03E010F8016B01F8016B521EF9D17B
:10035000ABB110F8012B04F00C048A1A0C2C03D05A
:10036000A2EB84129B1C08E010F8014BA2EB0422C4
:10037000F8E712F8014B01F8014B5B1EF9D5A942D1
:10038000D4D3002070BDFEE77047002240F6B8339A
:1003900006E00021491C89B29942FBD3521C92B25B
:1003A0008242F6D37047000010B5184C88B018A1EF
:1003B0006846226903F0B4FC6946302002F05EF919
:1003C000E2781AA1684603F0ABFC6946602002F0AF
:1003D00055F919A16846626903F0A2FC69469020AC
:1003E00002F04CF922791BA1684603F099FC69469A
:1003F000C02002F043F9627919A1684603F090FC2D
:100400006946D82002F03AF908B010BDD811002092
:100410004368616E6E656C2831293A20252D644849
:100420007A20202020202020200000004E28312982
:100430003A202564202000004368616E6E656C28B8
:1004400032293A20252D64487A202020202020209F
:10045000200000004E2832293A2025642020000088
:10046000202020202020202020202020202020208C
:100470002025640072B6FEE770B590F825200024B0
:1004800001212346022A07D00422C26380F82510E6
:1004900080F82430012429E00268156825F00E0553
:1004A00015600268156825F001051560826C1568F5
:1004B00025F48075156090F84420056C02F01F0249
:1004C00001FA02F26A60D0E913255560426D32B13B
:1004D000156825F480751560D0E91625556080F8FB
:1004E000251080F82430816B01B18847204670BD0B
:1004F00070B5044600F0FCF80546601C02D00448C4
:100500004068044400F0F4F8401BA042FAD370BDE8
:10051000101200202DE9FC4FDFF8A0A100230125D7
:100520000AF1040B03244FF00F0C0BF1040EBDE095
:1005300005FA03F632406FD04F68012F05D0022F25
:1005400003D0112F01D0122F17D1D0F808905F00DF
:1005500004FA07F829EA08090097D1F80C8008FA8C
:1005600007F848EA0908C0F808804768B7430E79D9
:10057000C6F300169E403E434660C6684FEA4308F5
:1005800004FA08F7BE4301978F6807FA08F7374364
:10059000C7604E68022E01D0122E13D1DE0800EB88
:1005A00086060096366A5F07FF0E0CFA07F926EA00
:1005B0000906D1F8109009FA07F949EA0609009EE0
:1005C000C6F820900668019FBE430F7907F0030725
:1005D00007FA08F7374307604E68F60065D5384ECE
:1005E000376E47F001073766366E23F0030706F0D3
:1005F00001060096334E3E44B146B6689F074FEA67
:1006000017780CFA08F7BE43B0F1904F05D02E4F83
:10061000B84204D1012717E047E0002714E02B4F30
:10062000B84201D102270FE0294FB84201D1032778
:100630000AE0284FB84201D1042705E0264FB8420E
:1006400001D1052700E0062707FA08F73743C9F864
:100650000870DAF800605746D1F8048096435FEAE4
:10066000C83800D516433E60DBF800605F46D1F81D
:10067000048096435FEA883800D516433E60DEF872
:1006800000607746D1F8048096435FEAC82800D519
:1006900016433E60094F0C373E68D1F804809643FC
:1006A0005FEA882800D516433E605B1C0A6832FA70
:1006B00003F67FF43DAFBDE8FC8F0000000401406D
:1006C00000100240000001400004004800080048FB
:1006D000000C004800100048001400480069084061
:1006E00000D0012070470AB1816170478162704774
:1006F000014880687047000010120020024881689D
:1007000042681144816070471012002010B5002427
:10071000032000F073F8002000F008F808B101246D
:1007200001E000F025F8204610BD000070B50E4E27
:1007300005460024706898B14FF47A71B1FBF0F06F
:100740000A490968B1FBF0F000F064FD40B9102DD2
:1007500006D200222946501E00F030F8356000E035
:100760000124204670BD0000101200201C12002041
:100770000A4882B0016E41F001010166016E01F08C
:1007800001010091816D41F080518165806D00F023
:100790008050009002B000F0A1B8000000100240AC
:1007A000002809DB00F01F02012191404009800070
:1007B00000F1E020C0F8001170470000F0B40E4BCB
:1007C0001B680C46C3F30223C3F10705042D00D9AF
:1007D0000425191D072901D2002300E0DB1E012694
:1007E00006FA05F1491E214099409E40761E1640AA
:1007F0003143F0BC03F0A8BA0CED00E0064900F06C
:10080000070208684FF6FF03184040EA0220034A37
:1008100010430860704700000CED00E00000FA058E
:100820002B492C4B0A6832214A432B4940B1B0F581
:10083000007F086829D020F4C06040F480602CE07C
:100840000868C0F34120022804D051F8800F20F43A
:10085000807022E0D1F8800020F48070C1F8800020
:10086000086820F4C06040F400700860B2FBF3F048
:10087000401C00E0401E4A69520501D50028F9D10C
:10088000486940050AD503207047C0F3412002287B
:1008900006D051F8800F40F4807008600020704747
:1008A000D1F8800040F48070C1F88000086820F41E
:1008B000C06040F400700860B2FBF3F0401C00E040
:1008C000401E4A695205DBD50028F9D1D8E700005F
:1008D0001C12002040420F00007000400248816856
:1008E00041F4804181607047007000402DE9F84379
:1008F0000446006800269D4D00035ED5A86D0027C4
:10090000C00008D4A86D40F08050A865A86D0127EC
:1009100000F080500090DFF85892D9F8001041F4B0
:100920008071C9F80010FFF7E3FE804606E000BFC3
:10093000FFF7DEFEA0EB080002282BD8D9F8000054
:10094000C005F5D5D5F8900010F4407014D0216C96
:10095000814211D0D5F89000D5F8901020F4407065
:1009600041F48031C5F89010D5F8901021F4803111
:10097000C5F89010C5F89000C00711D0FFF7B8FE79
:10098000804641F2883907E0FFF7B2FEA0EB08018C
:10099000494501D903260BE0D5F890008007F3D52F
:1009A000D5F89000216C20F440700843C5F8900001
:1009B0001FB1A86D20F08050A8652078C00707D02F
:1009C000D5F88800616820F003000843C5F8880066
:1009D0002078800707D5D5F88800A16820F00C00A2
:1009E0000843C5F888002078400707D5D5F8880067
:1009F000E16820F030000843C5F88800207800073F
:100A000007D5D5F88800216920F0C0000843C5F853
:100A100088002078800607D5D5F88800616920F421
:100A200040600843C5F888002078400607D5D5F80F
:100A30008800A16920F440500843C5F88800207858
:100A4000000607D5D5F88800E16920F44040084346
:100A5000C5F888002088C00507D5D5F88800216A28
:100A600020F440300843C5F888002088800507D569
:100A7000D5F88800616A20F440200843C5F8880052
:100A8000208840050FD5D5F88800A16A20F44010D1
:100A90000843C5F88800A06AB0F5801F03D1E86854
:100AA00040F48010E860208800050FD5D5F8880054
:100AB000E16A20F440000843C5F88800E06AB0F518
:100AC000800F03D1E86840F48010E8602088C004FB
:100AD0000FD5D5F88800216B20F040700843C5F889
:100AE0008800206BB0F1807F03D1E86840F480106B
:100AF000E86020884FF0006180040ED5D5F88800AA
:100B0000626B20F040601043C5F88800606B88423B
:100B100003D1E86840F48010E860208840040ED5D6
:100B2000D5F88800A26B20F040601043C5F888001B
:100B3000A06B884203D1E86840F48010E860208808
:100B400000040FD5D5F88800E16B20F04050084331
:100B5000C5F88800E06BB0F1805F03D1E86840F42D
:100B60008030E8603046BDE8F883000000100240A5
:100B7000007000402DE9F0470E4605004FF00007D9
:100B800025D0DFF8AC81D8F8000000F00F00B042AB
:100B90000CD2D8F8001021F00F013143C8F8001032
:100BA000D8F8000000F00F00B04210D12968614C65
:100BB000C80741F2883A5AD06868DFF87C91032868
:100BC00008D0022820682DD0400500282CDB012009
:100BD000BDE8F08720688001F9D5E06800F00302E5
:100BE000E068C0F30310401C032A19D0534A00BF29
:100BF000B2FBF0F0E268C2F306225043E268C2F3AF
:100C00004162521C5200B0FBF2F0484517D9A0686F
:100C100010F0F00F0CD0880711D5A86840B10EE095
:100C2000474AE5E78003D0E700F0B6F8484506D923
:100C3000A06820F0F00040F08000A0608027A0684D
:100C4000696820F003000843A060FFF751FD81466A
:100C500006E000BFFFF74CFDA0EB090151453AD873
:100C6000A068696800F00C00B0EB810FF2D1286831
:100C7000810714D5400703D5A06840F4E060A06068
:100C80002878000705D5A06820F4605040F4E060A3
:100C9000A060A068A96820F0F000084304E0802F5D
:100CA00003D1A06820F0F000A060D8F80010404602
:100CB00001F00F01B14216D9016821F00F01314353
:100CC0000160FFF715FD074607E000BFFFF710FDC5
:100CD000C11B514501D903207AE7D8F8000000F084
:100CE0000F00B042F2D12878400705D5A068E96826
:100CF00020F4E0600843A0602878000706D5A068CB
:100D0000296920F4605040EAC100A06000F044F876
:100D1000A1680C4AC1F30311515C01F01F01C840E6
:100D20000949086009480068BDE8F047FFF7FEBCC4
:100D3000002002400010024000B4C4040024F4006B
:100D400000366E01A04100081C1200201012002085
:100D50000548064900688968054AC1F30221515CCB
:100D600001F01F01C84070471C1200200010024013
:100D7000B04100080548064900688968054AC1F382
:100D8000C221515C01F01F01C84070471C120020B5
:100D900000100240B0410008184910B58868C0F33F
:100DA00081021748012A0BD08A68164BC2F38102D0
:100DB000022A06D08A68C2F38102032A03D00020E7
:100DC00010BD184610BDCA6802F00304CA68C2F319
:100DD0000312521C032C02D0B0FBF2F001E0B3FB73
:100DE000F2F0CA68C968C2F306225043C1F34161F8
:100DF000491C4900B0FBF1F010BD0000001002409A
:100E00000024F40000366E012DE9F84304007AD086
:100E10002078FA4DC00747D0A868E96800F00C00B8
:100E200001F003010C2802D0082817D001E00329A3
:100E300014D06068B0F5803F17D0B0F5A02F2868B7
:100E400017D020F480302860286820F480202860A3
:100E50006068E0B1FFF74CFC064614E028688003A8
:100E600022D560680028D2D01EE0286840F4803087
:100E7000EDE740F480202860F7E700BFFFF738FC7B
:100E8000801B642870D828688003F7D50CE0FFF732
:100E90002FFC064605E000BFFFF72AFC801B6428F4
:100EA000F0D828688003F7D4207880074CD5A8684C
:100EB000E96800F00C0001F003010C2802D00428BE
:100EC0000DD001E002290AD0E068002828682BD064
:100ED00040F480702860FFF70BFC064619E0286894
:100EE000400502D5E068002891D06868217C20F098
:100EF000FE4040EA01606860C1480068FFF716FCE8
:100F0000002800D120E076E1FFF7F2FB801B0228E9
:100F1000B8D828684005F7D56868217C20F0FE40E5
:100F200040EA016068600FE020F480702860FFF7FD
:100F3000DFFB064605E000BFFFF7DAFB801B022857
:100F4000A0D828684005F7D42078000729D5606923
:100F50000028D5F8940013D040F00100C5F89400A3
:100F6000FFF7C6FB064606E090E000BFFFF7C0FBB8
:100F7000801B022886D8D5F894008007F6D510E0AB
:100F800020F00100C5F89400FFF7B2FB064604E02C
:100F9000FFF7AEFB801B022878D8D5F894008007B5
:100FA000F6D42078400761D5A86D0026C00008D48B
:100FB000A86D40F08050A865A86D012600F0805013
:100FC000009090480168C90511D40168804641F439
:100FD00080710160FFF78CFB074604E0FFF788FB98
:100FE000C01B022852D8D8F80000C005F6D5A0686A
:100FF000012815D00528D5F8900016D020F0010062
:10100000C5F89000D5F8900020F00400C5F89000D5
:10101000A06841F28838B8B1FFF76AFB07460EE0D6
:10102000D5F8900040F00100F0E740F00400C5F86A
:101030009000F5E7FFF75CFBC11B414526D8D5F8CA
:1010400090008007F6D50CE0FFF752FB074604E05E
:10105000FFF74EFBC11B414518D8D5F8900080071B
:10106000F6D41EB1A86D20F08050A86520788006C7
:1010700029D5A0690028D5F8980013D040F00100C8
:10108000C5F89800FFF734FB064606E077E000BF9E
:10109000FFF72EFB801B022877D8D5F89800800731
:1010A000F6D510E020F00100C5F89800FFF720FB0E
:1010B000064604E0FFF71CFB801B022865D8D5F824
:1010C00098008007F6D4E069F0B3A968C1F3810104
:1010D000032961D00228286820F0807028600BD096
:1010E000E86820F00300E860E86847490840E860E5
:1010F000FFF7FEFA04464BE0FFF7FAFA064604E073
:10110000FFF7F6FA801B02283FD828688001F7D441
:10111000F4E908016FF00F0202EB01110843218A84
:101120005204490802EB4151A26841EA02210843F6
:10113000217D4FF07E42490802EB41610843217B4B
:1011400040EAC160E96800E062E0304A11400843CB
:10115000E860286840F080702860E86840F080709F
:10116000E860FFF7C5FA044605E000BFFFF7C0FAE4
:10117000001B022809D828688001F7D548E004E060
:10118000FFF7B6FA001B022802D90320BDE8F88356
:1011900028688001F4D43BE00128F7D0E868226A8F
:1011A00000F00301914226D1616A00F0F0020901CA
:1011B000103991421FD1A26A00F4FE41B1EB022F17
:1011C00019D194F82C2000F07841B1EBC26F12D104
:1011D000218E00F4C00249084905A1F50011914291
:1011E00009D194F8341000F0C06049084906A1F113
:1011F000007181420CD00120C8E7000000100240BD
:101200001012002000700040FFFFEEFE0C809F01D6
:101210000020BBE710B5401EB0F1807F01D3012054
:1012200010BD4FF0E02460610F21601702F08CFDCB
:101230000020A06107202061002010BD704770478A
:101240007047704770477047F0B590F83C20012A0E
:101250003AD0012580F83C50022280F83D200368F6
:101260005A689C68194E1A4FB34201D0BB4204D150
:1012700022F4700C4A6842EA0C02DFF858C002EA15
:101280000C02D1F800C04CEA020CC3F804C002689A
:10129000B2420DD0B2F1804F0AD00F4B9A4207D024
:1012A0000E4B9A4204D0BA4202D00D4B9A4204D15E
:1012B000896824F080031943916080F83D50002133
:1012C00080F83C100846F0BD0220F0BD002C014023
:1012D000003401408FFFFFFD000400400008004083
:1012E00000400140704710B5040003D094F83D0061
:1012F00010B107E0012010BD002084F83C0020461A
:1013000000F022F8022084F83D00211D206801F041
:10131000A1FE012084F8480084F83E0084F83F00D4
:1013200084F8400084F8410084F8420084F84300C7
:1013300084F8440084F8450084F8460084F84700A7
:1013400084F83D00002010BD10B586B0044614217D
:101350006846FEF797FF21682448B1F1804F0CD012
:10136000234A91422ED1816D41F002018165806D49
:1013700000F00200059006B010BD816D41F0010142
:101380008165816D01F001010591C16C41F00101A0
:10139000C164C06C694600F0010005900620009011
:1013A00002200190002002900390012004904FF051
:1013B0009040FFF7AFF8002211461C20FFF7FEF91E
:1013C0001C2010E00B4A9142D5D1816D41F00401FF
:1013D0008165806D002200F00400059011461E20FA
:1013E000FFF7ECF91E20FFF7DBF9C4E7001002401D
:1013F000000400400008004090F83D10012901D091
:1014000001207047022180F83D100168CA6842F04F
:101410000102CA600068104988420ED0B0F1804FC6
:101420000BD00E49884208D00D49884205D00D499D
:10143000884202D00C49884207D181680B4A11408A
:10144000062906D0B1F5803F03D0016841F00101C3
:101450000160002070470000002C014000040040A3
:101460000008004000340140004001400700010036
:1014700070B5044690F83C00012814D0012584F88A
:101480003C50022084F83D0022689068344B18409C
:1014900020F47F4090600868702827D010DC10F09E
:1014A0000F0F03D04AE04FF0020070BD4FEA201248
:1014B000072A43D2DFE802F050505050483139003B
:1014C000284BC21A984247D009DCB0F5805F35D06E
:1014D000B0F5005F15D0B0F1101F2FD13CE0102AFD
:1014E0003AD0202A38D0502A28D135E0CB68D1E92B
:1014F0000121206801F013FE2068816841F0770126
:1015000009E0CB68D1E90121206801F008FE2068DC
:10151000816841F48041816010E0CA6849682068B0
:1015200001F0A8FF5021206806E0CA6849682068D9
:1015300001F0E8FF6021206801F0FCFD84F83D50D7
:10154000002084F83C0070BDCA684968206801F03A
:1015500091FF40212068EFE7226801461046EBE743
:1015600088FFCEFF2000100070B5007F0025012607
:10157000304C022802D0042829D050E02EA002F0DE
:10158000BFFB207B10B1012807D048E004212D4883
:1015900000F0B0FBA061267341E00421294800F06F
:1015A000A9FBE061A169884202D9A0EB010005E036
:1015B00005D26FEA0101084400F101002062FFF743
:1015C000D9FB216AB0FBF1F02061257327E01EA052
:1015D00002F096FB607B10B1012807D01FE00821C4
:1015E000184800F087FB6062667318E00821154810
:1015F00000F080FBA062616A884202D9A0EB010082
:1016000005E005D26FEA0101084400F10100E06243
:10161000FFF7B0FBE16AB0FBF1F060616573042194
:10162000084800F0D1F8BDE870400821054800F0F6
:10163000CBB80000D8110020CDA8B5C032B2B6BBDF
:10164000F10D0A0024120020CDA8B5C033B2B6BBFC
:10165000F10D0A002DE9F041054690F83C000C46DA
:10166000012836D0012085F83C008AB3042A42D0F4
:101670002868082A51D0D4E90023E168066A26F4D4
:1016800080560662C669076A26F4407646EA032356
:101690004FF6FF7606EA013123F4704319434FF405
:1016A000204627F4204306EA02321A43C16102624F
:1016B0002868C16921F44061C1612868C169A268D4
:1016C00041EA0221C161002085F83C00BDE8F081BB
:1016D00001E00220FAE7D4E90012E368286801F08B
:1016E000DBFE2868816921F00C018161286881692D
:1016F000A26811430FE0D4E90012E368286801F002
:1017000013FF2868816921F440618161286881693B
:10171000A26841EA02218161D5E7D4E90027267B4E
:10172000016A21F480710162C169036A21F0030139
:10173000394321F0F00731074FF4206647EA116181
:1017400023F4206306EA02221A43C1610262286878
:10175000C16921F00C01C1612868C169A268114307
:10176000B0E710B5040003D094F83D0010B107E0D5
:10177000012010BD002084F83C00204600F022F833
:10178000022084F83D00211D206801F063FC012047
:1017900084F8480084F83E0084F83F0084F8400054
:1017A00084F8410084F8420084F8430084F844003F
:1017B00084F8450084F8460084F8470084F83D002A
:1017C000002010BD7047000010B5044679B104290F
:1017D00012D0082915D00C2918D0102919D094F846
:1017E000430000BF94F84720012817D114E094F873
:1017F0003E0094F84420F7E794F83F0094F8452021
:10180000F2E794F8400094F84620EDE794F84100A0
:10181000E8E794F84200E5E7012A01D0012010BD75
:10182000022071B1042915D008291CD00C2948D0F8
:10183000102949D084F8430084F847000C291BD1B3
:1018400045E084F83E0084F844002068C26842F015
:10185000020210E084F83F0084F845002068C26866
:1018600042F0040207E084F8400084F84600206853
:10187000C26842F00802C2600122206801F042FC06
:101880001549206888420ED0B0F1804F0BD0134923
:10189000884208D01249884205D01249884202D0B5
:1018A0001149884207D18168104A1140062906D0A3
:1018B000B1F5803F03D0016841F0010101600020D3
:1018C00010BD84F84100B7E784F84200B4E720680F
:1018D000C26842F01002CEE7002C01400004004034
:1018E00000080040003401400040014007000100B2
:1018F00070B50446006801694FF00005C9438907C7
:1019000015D4C168C943890711D4E91E01610120BA
:101910002077206880698007204602D0FFF724FEE8
:1019200004E000F00BF9204600F0CAF925772068A2
:101930000169C943490717D4C168C943490713D48A
:101940006FF004010161022020772068806910F4A3
:10195000407F204602D0FFF707FE04E000F0EEF8DB
:10196000204600F0ADF9257720680169C9430907D1
:1019700016D4C168C943090712D46FF00801016188
:10198000042020772068C0698007204602D0FFF736
:10199000EBFD04E000F0D2F8204600F091F9257745
:1019A00020680169C943C90617D4C168C943C9067B
:1019B00013D46FF010010161082020772068C069FE
:1019C00010F4407F204602D0FFF7CEFD04E000F087
:1019D000B5F8204600F074F9257720680169C943FD
:1019E000C90708D1C168C943C90704D1891E01616B
:1019F000204600F067F920680169C943090609D447
:101A0000C168C943090605D46FF080010161204611
:101A1000FFF715FC20680169C943C90509D4C168ED
:101A2000C943090605D46FF4807101612046FFF7B0
:101A300005FC20680169C943490609D4C168C94346
:101A4000490605D46FF040010161204600F067F9B6
:101A500020680169C943890609D4C168C943890658
:101A600005D46FF0200101612046FFF7E9FB2068F3
:101A70000169C943C90209D4C168C943C90205D46F
:101A80006FF4801101612046FFF7DCFB20680169DB
:101A9000C943890209D4C168C943890205D46FF4D6
:101AA000001101612046FFF7CCFB20680169C943A2
:101AB000490209D4C168C943490205D46FF48001C1
:101AC00001612046FFF7BFFB20680169C943090295
:101AD0000BD4C168C943090207D46FF40001016146
:101AE0002046BDE87040FFF7FDBB70BD10B586B065
:101AF000044614216846FEF7C5FB0E49206888425B
:101B000015D10D48C16C41F00101C164C06C0021C8
:101B100000F001000590C02000900220CDE90101F5
:101B2000CDE9031069464FF09040FEF7F3FC06B094
:101B300010BD00000004004000100240704770B566
:101B4000044690F83C000D4601280BD0012084F893
:101B50003C000C2A45D007DC5AB1042A1BD0082AC5
:101B600078D12CE0022070BD102A4ED0142A71D1F9
:101B70005DE0206801F0E8FA2068816941F0080121
:101B800081612068816921F0040181612068816997
:101B90002A69114311E0206801F024FB2068816963
:101BA00041F4006181612068816921F48061816173
:101BB000206881692A6941EA022181614AE020683E
:101BC00001F058FB2068C16941F00801C16120683B
:101BD000C16921F00401C1612068C1692A6911430A
:101BE00011E0206801F08EFB2068C16941F40061BA
:101BF000C1612068C16921F48061C1612068C16947
:101C00002A6941EA0221C16124E0206801F0C2FB97
:101C10002068016D41F0080101652068016D21F027
:101C2000040101652068016D2A69114311E02068F3
:101C300001F0E8FB2068016D41F400610165206856
:101C4000016D21F4806101652068016D2A6941EA16
:101C500002210165002084F83C0070BD10B504002D
:101C600003D094F83D0010B107E0012010BD002022
:101C700084F83C00204600F022F8022084F83D0061
:101C8000211D206801F0E6F9012084F8480084F85D
:101C90003E0084F83F0084F8400084F8410084F856
:101CA000420084F8430084F8440084F8450084F836
:101CB000460084F8470084F83D00002010BD7047BE
:101CC000704700000068084988420AD10748C17A75
:101CD000491CC9B2C1720A2903D10021C172012174
:101CE00081700348FFF788BB00080040D81100202E
:101CF000BC1200200246002041B1042909D0082965
:101D00000AD00C2901D11068006C70471068406B34
:101D100070471068806B70471068C06B70477047E1
:101D200090F87C10012918D0012180F87C10242122
:101D3000C0F8801050F8601B0A680B6823F001039C
:101D40000B6022F000510022426050F8603C1960A4
:101D500020210162027710467047022070477047C9
:101D600070B5044690F87C0001281DD0012084F84D
:101D70007C002420C4F8800020680568026822F0F6
:101D8000010202602068826822F060620A43826079
:101D9000204601F03DFC206805602020C4F880004A
:101DA000002084F87C0070BD022070BD70B5044630
:101DB00090F87C0001281DD0012084F87C002420AC
:101DC000C4F8800020680568026822F00102026001
:101DD0002068826822F060420A438260204601F057
:101DE00017FC206805602020C4F88000002084F8DB
:101DF0007C0070BD022070BD7047704770470000C6
:101E00002DE9F04103680446D86919689A6840F6DC
:101E10000F0528424FF0000509D186067ED501F056
:101E2000200602F080573E4378D0E16E9EE0624E7D
:101E3000624F16400F40374370D0C70709D0CF0517
:101E400007D501271F62D4F8883043F00103C4F896
:101E5000883083070AD5D30708D0276802233B625E
:101E6000D4F8883043F00403C4F8883043070AD517
:101E7000D30708D0276804233B62D4F8883043F0A6
:101E80000203C4F8883003070CD501F02003334364
:101E900008D0266808233362D4F8883043F008035A
:101EA000C4F8883003050BD54B0109D526684FF4DB
:101EB00000633362D4F8883043F02003C4F88830DC
:101EC000D4F88830002B34D0800609D501F02000EA
:101ED00002F08051084303D0E16E09B120468847E3
:101EE000D4F8880021688968490602D410F0280FC8
:101EF00021D0204601F05CFC20688168490615D598
:101F0000816821F040018160A06F78B12C49816324
:101F1000A06FFEF7B1FA00280BD000E011E0A06F2F
:101F2000816B00E02046BDE8F04108472046FFF7FE
:101F300065FFBDE8F0812046FFF760FFC4F88850D8
:101F4000F7E7C60209D5560207D54FF4801018628C
:101F50002046BDE8F041FFF750BF060609D501F065
:101F6000800602F40002164303D0216F0029D9D164
:101F7000DFE742060DD54A060BD51968204621F049
:101F8000400119602021C4F88010256700F08EF907
:101F9000CFE7020206D54A0004D52046BDE8F0414D
:101FA000FFF72ABFC001C4D50029C2DA2046BDE828
:101FB000F041FFF7D4BE0000010000102001000432
:101FC0009B37000810B5040003D0D4F8800010B18E
:101FD00007E0012010BD002084F87C00204600F0BE
:101FE00027F82420C4F880002068016821F001014E
:101FF0000160204601F0EEFC0128EBD0A06A10B190
:10200000204601F037FB2068416821F4904141608F
:102010002068816821F02A0181602068016841F010
:10202000010101602046BDE8104001F087BB0000BF
:1020300010B586B0044614216846FEF723F9174907
:102040002068884227D11648016E41F4804101661C
:10205000016E01F480410591C16C41F00101C16440
:10206000C06C694600F0010005904FF4C06000901C
:1020700002200190002002900390072004904FF06E
:102080009040FEF747FA002211462520FEF796FB06
:102090002520FEF785FB06B010BD0000003801408A
:1020A0000010024070B5D0F88430202B6DD1B9B14A
:1020B000B2B190F87C30012B67D0012380F87C30DE
:1020C0008165A0F85C20A0F85E200021C1668368CD
:1020D0004FF48056FF24B34207D1036913B11CE0CB
:1020E000012070BD40F2FF131DE07F259BB1B3F1CD
:1020F000805F15D0A0F86010C0F888102223C0F8C7
:10210000843003689C6844F001049C60436EB3F122
:10211000005F0ED027E0036943B9A0F86040EBE709
:1021200003691BB13F23A0F86030E5E7A0F86050D9
:10213000E2E7B0F86830934215D88268B24201D124
:10214000026972B1124AC26680F87C1001680A689E
:1021500042F480720A600068816841F080518160B9
:102160000FE00C4AEFE78268B24201D1026952B136
:10217000094AC26680F87C100068016841F49071D9
:102180000160002070BD054AF3E7022070BD000029
:102190003539000835380008D5380008D53700082B
:1021A00000681049884215D10F49887990B101F132
:1021B000300001220378532B0BD14378452B08D1F3
:1021C0008378542B05D1C3783A2B02D140793A2831
:1021D00006D04A700449082230310448FFF762BF34
:1021E0000A70F7E700380140D811002008130020DA
:1021F0002DE9F8430446D0F880001F4616460D46E8
:10220000202851D1DDB1D6B194F87C0001284BD003
:10221000012084F87C004FF00008C4F88880212059
:10222000C4F880001834FEF763FAA6878146E68773
:1022300054F8100C183CB0F5805F03D004E0012086
:10224000BDE8F883206920B12E46002584F87C8003
:1022500010E00026FAE78021204601F0F7FCB8B92B
:10226000C6B116F8010B21688862B4F85600401E0A
:10227000A4F85600B4F856004B464FF00002009701
:102280000028E8D14FF04001204601F0DFFC30B1DA
:102290000320D5E735F8020BC0F30800E3E7202060
:1022A000C4F880000020CBE70220C9E77047FEE7B2
:1022B00000B585B014216846FDF7E4FFC02000900A
:1022C0000120019002900220039069460248FEF727
:1022D00021F905B000BD00000004004870B50824D5
:1022E000002500F023FE13E06806050E002000F034
:1022F00005FE142001F0F7FD142001F0F4FD01208B
:1023000000F0FCFD142001F0EEFD00F003FE05439B
:10231000641EE4B2E8D2002000F0F0FD142001F0C9
:10232000E2FD00F025FE284670BD70B50446082584
:1023300016E000F0E3FD142001F0D5FD04F080006C
:1023400000F00AFE142001F0CEFD6006040E1420F9
:1023500001F0C9FD012000F0D1FD142001F0C3FD02
:102360006D1EEDB24FF00000E3D200F0C7FDBDE8F6
:102370007040142001F0B7BD10B5012000F0ECFD55
:10238000142001F0B0FD012000F0B8FD142001F090
:10239000AAFD002000F0E0FD142001F0A4FD0020C3
:1023A00000F0ACFDBDE81040142001F09CBD10B55C
:1023B000002000F0A3FD142001F095FD002000F0A6
:1023C000CBFD142001F08FFD012000F097FD1420BB
:1023D00001F089FD012000F0BFFDBDE81040142090
:1023E00001F081BD10B5052400F0A0FD142001F01E
:1023F0007AFD012000F082FD142001F074FD05E05B
:10240000641EA4B2142001F06EFD6CB100F082FDD8
:102410000028F5D100F0ACFD002000F06FFD142085
:1024200001F061FD002010BD00F0A2FDFFF7BFFF2D
:10243000012010BD70B5454E01213046FEF74EF922
:10244000434C48B9E079401CC0B2E071012803D187
:10245000A07980F00100A07101213046FEF73EF91D
:102460000025012800D1E57102213046FEF736F93A
:1024700060B9207A401CC0B22072012806D1A07930
:1024800020B9607900F00100401C607102213046E3
:10249000FEF724F9012800D1257204213046FEF709
:1024A0001DF9F0B9607A401CC0B26072012818D1E1
:1024B000A079B0B96079012802D0022811D107E0D3
:1024C000E07801280DD9401EC1B2E170012006E07C
:1024D0002079012805D9401EC1B22171022001F0E6
:1024E00026FD04213046FEF7F9F8012800D1657277
:1024F0004FF0904601213046FEF7F0F8F0B9A07A8F
:10250000401CC0B2A072012818D1A079B0B960797E
:10251000012802D0022811D107E0E0780A280DD264
:10252000401CC1B2E170012006E020790A2805D2E2
:10253000401CC1B22171022001F0F9FC012130469A
:10254000FEF7CCF8012800D1A57270BD0004004848
:10255000D811002000B585B014216846FDF792FE21
:102560004FF6FF70009000200321CDE90201019099
:1025700069460248FDF7CEFF05B000BD00080048DF
:1025800000B585B014216846FDF77CFE4FF6FF705C
:1025900000900120019003200390002002906946E2
:1025A0000248FDF7B7FF05B000BD00000008004875
:1025B00070B5002406462146204600F003F900F0DD
:1025C00045F94FF49635304600F010F9641CAC42E2
:1025D000F9D370BD30B587B014216846FDF752FEBF
:1025E0001E48C16C41F00401C164C16C01F00401DA
:1025F0000591C16C41F00101C164C16C01F00101A0
:102600000591C16C41F00201C164C06C012500F06C
:10261000020005904FF44870CDE9000500240394B2
:10262000694602940E48FDF775FF28020394009056
:10263000CDE901544FF0904469462046FDF76AFF0A
:10264000FFF79EFFA06940F48070A0610448183035
:10265000016841F40871016007B030BD001002400C
:1026600000040048203AD2B2034B02EB420203EBD3
:10267000021200F019B8000006000020F0B50E4666
:102680000746002540F23F1407E021463846FFF791
:10269000E9FF103C6D1CA4B2761C3278002A01D0F0
:1026A000142DF2D3F0BD00002DE9F04791468A4683
:1026B0000026044600F086F8DFF84080012700BFBE
:1026C00000F0C4F85FF0000539F8160007FA05F1CC
:1026D0000842404601D1408800E0008800F086F8BA
:1026E0006D1C102DF0D3641CE4B25146204600F05E
:1026F00069F8761C182EE3D3BDE8F08700000020AF
:1027000010B5FFF767FF002000F014F8084CA08018
:10271000A088A0F50241303906D000F0EDFA002083
:1027200000F008F8A08010BD00F05DFAF7E70000A7
:102730000000002070B51D490A6842F400720A606A
:102740000A6842F480720A60184C103C226842F019
:1027500020022260164A1060086840F020000860DD
:1027600000BF00BF00BF206840F02000206020684C
:1027700040F480702060FFF7EDFE4FF09041886AD2
:1027800040F48070886200BF00BF00BF0848001F8F
:10279000006885B2886940F480708861FFF7F0FEB8
:1027A000206840F400702060284670BD280400486E
:1027B0001408004801B5BDF800000149488008BD73
:1027C0000000002010B50C460146202000F070F8F3
:1027D0002146BDE81040212000F06AB801B5BDF8DF
:1027E00000000149088008BD0000002030B5154BED
:1027F0001968154A8CB2116841F4007111601249D0
:1028000010390D6845F480750D600D6845F02005A0
:102810000D601860106840F02000106000BF00BF1D
:1028200000BF086840F020000860086840F480702D
:10283000086000BF00BF00BF086840F40070086077
:102840001C6030BD1408004828040048164A10B522
:102850001068164983B2086840F400700860086880
:1028600040F48070086011481038046844F0200477
:102870000460222414600C6844F020040C6000BF43
:1028800000BF00BF016841F020010160016841F410
:102890008071016000BF00BF00BF016841F400719A
:1028A0000160136010BD00001408004828040048AF
:1028B00070B51A4C22681A4B95B21A6842F400722D
:1028C0001A601A6842F480721A60154A103A166843
:1028D00046F0200616602060186840F0200018605E
:1028E00000BF00BF00BF106840F0200010601068FB
:1028F00040F4807010602160186840F0200018607B
:1029000000BF00BF00BF106840F0200010601068DA
:1029100040F480701060256070BD0000140800480D
:102920002804004870B586B014216846FDF7AAFC5B
:102930002148C16C41F02001C164C16C01F020014B
:102940000591C16C41F00101C164C16C01F001014C
:102950000591C16C41F00201C164C16C01F002013A
:102960000591C16C41F00801C164C06C134E00F0C8
:1029700008000590002204213046FDF7B4FE002433
:102980000125CDE9005469464FF090400294FDF7CF
:10299000C1FD0720CDE90004694609480294FDF70E
:1029A000B9FD04200090CDE90154694630460394F6
:1029B000FDF7B0FD06B070BD00100240000C0048ED
:1029C0000004004810B58CB00024059424480494F9
:1029D0000694079408940A9409940094019402942C
:1029E0004FF080410394C0E90014611EC0E9024128
:1029F00004618461FEF777FC08B1FDF73BFD4FF4FD
:102A00008050049004A91648FEF732FD08B1FDF786
:102A100031FD1348FEF7A5FE08B1FDF72BFD089424
:102A200008A90F480A94FEF70FFC08B1FDF722FD34
:102A30000120CDE90040029404226946084803942D
:102A4000FEF708FE08B1FDF715FD082269460448A7
:102A5000FEF700FE002801D0FDF70CFD0CB010BD04
:102A60002412002010B58EB0002407940894099415
:102A70000A940B940C941C2168460D94FDF702FCFB
:102A800022482149C0E900144FF6FF71C0E9024114
:102A900004618461FEF727FC08B1FDF7EBFC4FF4FD
:102AA0008050079007A91948FEF7E2FC08B1FDF72E
:102AB000E1FC1648FFF7D2F808B1FDF7DBFC0B94F8
:102AC0000BA912480D94FEF7BFFB08B1FDF7D2FC2D
:102AD0006020CDE900040294002269460B4804946A
:102AE000FFF72DF808B1FDF7C5FC04226946074839
:102AF0000194FFF724F808B1FDF7BCFC0348FEF78A
:102B0000F5FF0EB010BD0000000400407012002060
:102B100010B588B0002417480094019402940394DF
:102B2000049405941249069401604F21C0E90114F0
:102B300040F2E731C0E903148461FEF7D4FB08B129
:102B4000FDF798FC4FF48050009069460948FEF765
:102B50008FFC08B1FDF78EFC049404A90548069487
:102B6000FEF772FB002801D0FDF784FC08B010BD11
:102B700000080040BC120020184810B5164901603A
:102B80004FF416514160002181600C22C160C0E900
:102B900004128161C161016241628162FFF712FA30
:102BA00008B1FDF767FC00210C48FFF7FFF808B1FA
:102BB000FDF760FC00210948FFF7D2F808B1FDF7E6
:102BC00059FC0648FFF7ACF8002803D0BDE81040D8
:102BD000FDF750BC10BD0000003801400813002074
:102BE000FEE7FEE7704730B501210020FFF760FEE9
:102BF0004FF47A70FDF7C9FB00210120FFF758FE62
:102C000041F290711020FFF753FE4FF41C516020E9
:102C1000FFF74EFE01216120FFF74AFE0221462008
:102C2000FFF746FE48F210011320FFF741FE48F27D
:102C3000FE011220FFF73CFE4FF4A0610220FFF7D7
:102C400037FE41F230010320FFF732FE40F2033439
:102C500021463020FFF72CFE21463120FFF728FEC9
:102C600021463220FFF724FEE51E29463320FFF7D8
:102C70001FFE03213420FFF71BFE21463520FFF7FE
:102C800017FE14213620FFF713FE21463720FFF7E9
:102C90000FFE21463820FFF70BFE21463920FFF7B3
:102CA00007FE29463A20FFF703FE03213B20FFF7EA
:102CB000FFFD21463C20FFF7FBFD4FF4A0513D20D6
:102CC000FFF7F6FD4FF400719220FFF7F1FD21466A
:102CD0009320FFF7EDFD40F60D019020FFF7E8FD92
:102CE00041F218010320FFF7E3FDBDE8304040F258
:102CF00073110720FFF7DCBD10B543F20801E32094
:102D0000FFF7D6FD1221E720FFF7D2FD41F2312176
:102D1000EF20FFF7CDFD00210120FFF7C9FD4FF4A3
:102D2000E0610220FFF7C4FD41F230010320FFF70C
:102D3000BFFD00210420FFF7BBFD40F20721082062
:102D4000FFF7B6FD00210920FFF7B2FD00210A20A0
:102D5000FFF7AEFD00210C20FFF7AAFD00210D209A
:102D6000FFF7A6FD00210F20FFF7A2FD0021102094
:102D7000FFF79EFD07211120FFF79AFD0021122089
:102D8000FFF796FD00211320FFF792FDC820FDF705
:102D9000AFFB41F290611020FFF78AFD40F227213E
:102DA0001120FFF785FD3220FDF7A2FB1D21122027
:102DB000FFF77EFD3220FDF79BFB4FF400611320EF
:102DC000FFF776FD14212920FFF772FD0B212B2040
:102DD000FFF76EFD3220FDF78BFB00212020FFF76F
:102DE00067FD00212120FFF763FD07213020FFF759
:102DF0005FFD40F207713120FFF75AFD06213220B6
:102E0000FFF756FD40F204713520FFF751FD41F602
:102E100004713620FFF74CFD04213720FFF748FDF1
:102E200000213820FFF744FD40F206713920FFF7FA
:102E30003FFD40F201713C20FFF73AFD0F213D209C
:102E4000FFF736FD00215020FFF732FDEF21512022
:102E5000FFF72EFD00215220FFF72AFD40F23F111F
:102E60005320FFF725FD4FF41C516020FFF720FD94
:102E700001216120FFF71CFD00216A20FFF718FDEA
:102E800000218020FFF714FD00218120FFF710FDB5
:102E900000218220FFF70CFD00218320FFF708FDB1
:102EA00000218420FFF704FD00218520FFF700FDAD
:102EB00010219020FFF7FCFC00219220FFF7F8FC86
:102EC00003219320FFF7F4FC4FF488719520FFF75E
:102ED000EFFC00219720FFF7EBFC00219820FFF783
:102EE000E7FC41F218010320FFF7E2FCBDE81040C7
:102EF00040F273110720FFF7DBBC000008B1044863
:102F000001E003481030016841F040010160704762
:102F10001804004810B580210348FDF7DFFB0128A5
:102F200000D0002010BD00000004004800B585B0AE
:102F300014216846FDF7A6F980200090002001903A
:102F4000012002900220039069460248FDF7E2FA50
:102F500005B000BD0004004808B1044801E0034882
:102F60001030016841F0800101607047180400488A
:102F700000B585B014216846FDF784F980200090E3
:102F8000112001900020029002200390694602481F
:102F9000FDF7C0FA05B000BD000400487047FDF71A
:102FA000ADBB30B5A5B038216846FDF76BF91421EB
:102FB0001FA8FDF767F944210EA8FDF763F94FF448
:102FC0000070FDF72DFC01252804CDE900500220FA
:102FD0000324CDE907041421CDE90A100C900D90CB
:102FE00009946846FDF710FF08B172B6FEE70F209E
:102FF000CDE91F0400242194229402211FA82394C8
:10300000FDF7B8FD08B172B6FEE7CDE90E540EA883
:10301000FDF76CFC002801D072B6FEE725B030BD8C
:103020000548016841F47001016003494FF00060F8
:10303000803908607047000088ED00E00148FEF725
:1030400057BC0000241200200148FEF751BC0000CC
:10305000BC1200202DE9F0430268234B234D244E7F
:10306000244C4FF08049984207D0484505D0A842EB
:1030700003D0B04201D0A04203D122F070074A68C9
:103080003A431D4FDFF874C0DFF8748098420DD0CA
:1030900048450BD0A84209D0B04207D0A04205D085
:1030A000B84203D0604501D0404503D122F44075B9
:1030B000CA682A434D6922F080022A4302608A6866
:1030C000C2620A688262984207D0A04205D0B84224
:1030D00003D0604501D0404501D109690163012158
:1030E0004161BDE8F0830000002C01400004004075
:1030F000000800400034014000400140004401400D
:103100000048014010B501F01F030121046A9940F5
:103110008C430462016A9A401143016210BD10B5EC
:10312000846842EA032224F47F440A4322438260F3
:1031300010BD00008268034B1A400A4342F00701A9
:10314000816070478FFFCFFF2DE9F043026A22F0C4
:1031500001020262056A436882691C4C25F002057F
:1031600022400C6822F0030214438A68194E2A4355
:10317000174D194FDFF864C0DFF86490A84207D0FC
:10318000B04205D0B84203D0604501D0484506D1D1
:1031900022F00808CA6842EA080222F00402A842A3
:1031A00007D0B04205D0B84203D0604501D04845B1
:1031B00005D14D6923F440731D438B692B43436054
:1031C0008461496841630262BDE8F0838FFFFEFFBE
:1031D000002C014000340140004001400044014007
:1031E00000480140F0B5026A22F010020262056A4E
:1031F00042688369194C1B4E23400C6823F44073CA
:1032000043EA042425F020038D6843EA0513144D96
:10321000A84201D0B04206D1CF6823F0800343EA30
:10322000071323F04003A8420AD0B04208D00E4D45
:10323000A84205D00D4DA84202D00D4DA84207D19D
:103240004D6922F4406242EA85028D6942EA8502B4
:1032500042608461496881630362F0BDFF8FFFFEB5
:10326000002C014000340140004001400044014076
:1032700000480140F0B5026A22F480720262056AD9
:103280004368C269194C1B4E22400C6822F00302AD
:10329000144325F400728D6842EA0522144DA842B9
:1032A00001D0B04206D1CF6822F4006242EA072280
:1032B00022F48062A8420AD0B04208D00E4DA84243
:1032C00005D00E4DA84202D00D4DA84207D14D6940
:1032D00023F4405343EA05138D6943EA0513436021
:1032E000C4614968C1630262F0BD00008FFFFEFF48
:1032F000002C0140003401400040014000440140E6
:1033000000480140F0B5026A22F480520262056A68
:103310004268C369194C1B4E23400C6823F4407368
:1033200043EA042425F400538D6843EA0533144D21
:10333000A84201D0B04206D1CF6823F4004343EA4B
:10334000073323F48043A8420AD0B04208D00E4D80
:10335000A84205D00D4DA84202D00D4DA84207D17C
:103360004D6922F4404242EA85128D6942EA851293
:103370004260C461496801640362F0BDFF8FFFFED3
:10338000002C014000340140004001400044014055
:103390000048014030B5026A22F480320262046AB9
:1033A0004268036D114D2B400D681D4324F400331A
:1033B0000C8943EA04430E4CA0420BD00D4CA042B2
:1033C00008D00D4CA04205D00C4CA04202D00C4CB1
:1033D000A04204D14C6922F4803242EA04224260C5
:1033E000056549688164036230BD00008FFFFEFF00
:1033F000002C0140003401400040014000440140E5
:103400000048014030B5026A22F480120262046A68
:103410004268036D114D24F400142B400D6843EAFB
:1034200005230D8944EA05540D4DA8420BD00D4DDE
:10343000A84208D00C4DA84205D00C4DA84202D09D
:103440000B4DA84204D14D6922F4802242EA852224
:10345000426003654968C164046230BDFF8FFFFEAE
:10346000002C014000340140004001400044014074
:103470000048014010B5036A046A24F001040462A4
:10348000846924F0F00444EA021423F00A020A4397
:103490008461026210BD000070B5046A24F001046A
:1034A00004628469056A124EB0420ED0B0F1804FBA
:1034B0000BD0104EB04208D00F4EB04205D00F4E88
:1034C000B04202D00E4EB04203D124F003041443A4
:1034D00001E044F001041A0724F0F00444EA126207
:1034E00025F00A0301F00A0119438261016270BDEF
:1034F000002C01400004004000080040003401405E
:103500000040014010B5036A23F010030362836991
:10351000046A23F4704343EA023224F0A00343EA2E
:1035200001118261016210BD30B5046A24F01004FB
:1035300004628469056A24F4407444EA022222F495
:1035400070444FF6FF7202EA03322243A02425F0B2
:10355000A00304EA011119438261016230BD000039
:1035600070B50B4C0121C01D8140E089094D01431C
:10357000E181012204212846FDF7B5F80649E089DA
:1035800008602846BDE8704000220421FDF7ABB872
:10359000D8110020000C00481408004870B50A4CEF
:1035A0004FF47F40094DE081012204212846FDF7B8
:1035B0009AF80749E08908602846BDE87040002273
:1035C0000421FDF790B80000D8110020000C00483D
:1035D0001408004870B50B4C0121C01D8140E089E2
:1035E000094D8843E081012204212846FDF77BF83C
:1035F0000649E08908602846BDE8704000220421A1
:10360000FDF771B8D8110020000C004814080048DC
:103610003FB514A1D1E90021CDE9002113A2D2E9DF
:103620000012CDE90212416EB9B102689168926848
:10363000C1F34261520F1DF80240E50002ACA25CEA
:10364000B5FBF2F2A0F86A201DF80120615CD200FF
:10365000B2FBF1F1A0F868103FBD0121A0F86A109B
:10366000F8E700000101010307010000080402045B
:103670000801010190F82810C90706D001684A68BE
:10368000C36A22F400321A434A6090F8281089076E
:1036900006D501684A68036B22F480321A434A60F7
:1036A00090F82810490706D501684A68436B22F450
:1036B00080221A434A6090F82810090706D501684D
:1036C0004A68836B22F400421A434A6090F828103B
:1036D000C90606D501688A68C36B22F480521A4372
:1036E0008A6090F82810890606D501688A68036CFC
:1036F00022F400521A438A6090F82810490611D526
:1037000001684A68436C22F480121A434A60416C93
:10371000B1F5801F06D101684A68836C22F4C002AB
:103720001A434A6090F82810090606D501684A68CD
:10373000C06C22F4002202434A607047F8B50026AC
:103740000446C0F88860FCF7D3FF0546206800688F
:103750006FF07E47000708D52B4600224FF400117A
:103760002046009700F072FA60B9206800684007B0
:103770000AD52B4600224FF480012046009700F026
:1037800065FA08B10320F8BD2020C4F88000C4F811
:10379000840084F87C600020F8BD10B5806A0021A8
:1037A000A0F85E10A0F85610FEF728FB10BD000030
:1037B00001680A6822F490720A6001688A68044B02
:1037C0001A408A602021C0F884100021C166704729
:1037D000FEFFFFEF10B5B0F86020D0F8843001682C
:1037E000222B04D0886940F00800886110BD496A26
:1037F000836D11401980816D891C8165B0F85E1060
:10380000491EA0F85E10B0F85E100029EED10168E4
:103810000A6822F490720A6001688A6822F0010244
:103820008A602021C0F884100021C166FEF7B8FC30
:1038300010BD000070B50446B0F86060D0F8840098
:10384000222805D02068816941F00801816170BD9E
:10385000B4F8685023E02068406AA16D30400880C9
:10386000A06D801CA065B4F85E00401EA4F85E0048
:10387000B4F85E0088B92068016821F480710160A5
:1038800020688168114A114081602020C4F88400BA
:103890000020E0662046FEF783FC6D1EADB2002DD1
:1038A000D9D1B4F85E000028D1D0B4F868108142B4
:1038B000CDD92068816821F0805181600448E0669C
:1038C0002068016841F02001016070BDFEFFFFEF3C
:1038D000D537000810B5B0F86020D0F88430016802
:1038E000222B04D0886940F00800886110BD496A25
:1038F0001140826D1170816D491C8165B0F85E10B8
:10390000491EA0F85E10B0F85E100029EED10168E3
:103910000A6822F490720A6001688A6822F0010243
:103920008A602021C0F884100021C166FEF738FCAF
:1039300010BD000070B50446B0F86060D0F8840097
:10394000222805D02068816941F00801816170BD9D
:10395000B4F8685023E02068406AA16D30400870D8
:10396000A06D401CA065B4F85E00401EA4F85E0087
:10397000B4F85E0088B92068016821F480710160A4
:1039800020688168114A114081602020C4F88400B9
:103990000020E0662046FEF703FC6D1EADB2002D50
:1039A000D9D1B4F85E000028D1D0B4F868108142B3
:1039B000CDD92068816821F0805181600448E0669B
:1039C0002068016841F02001016070BDFEFFFFEF3B
:1039D000D53800082DE9F041044602688068216965
:1039E000E36908436169002519430843616EDFF804
:1039F00030C2014310688B4B1840084310602068A8
:103A00004168E26821F44051114341602168A06996
:103A1000614501D0226A10438A68834B1A400243F1
:103A20008A602068C16A626A21F00F011143C16295
:103A30007E4923687E488B420DD1D0F8880010F073
:103A4000030006D0012855D0022842D003283FD1D8
:103A500052E001203DE077498B420BD1D0F888003D
:103A600010F00C0035D0042833D0082840D00C28A2
:103A70002ED141E070498B420BD1D0F8880010F074
:103A8000300026D0102835D0202831D030281FD142
:103A900032E06A498B420BD1D0F8880010F0C000A8
:103AA00017D0402826D0802822D0C02810D123E06B
:103AB00063450DD1D0F8880010F4406009D0B0F50E
:103AC000806F17D0B0F5006F12D0B0F5406F13D0F3
:103AD00010205B495B4F00264FF40042634539D10B
:103AE00060B1022813D004280BD0082831D10DE092
:103AF0000220EEE70420ECE70820EAE7FDF728F9CA
:103B000001E0FDF749F9010001D17EE01146606A4C
:103B100037F810206768B1FBF2F007EB47038342E8
:103B20006FD8B0EB073F6CD8002308461946FCF766
:103B300071FB090241EA1061020278081018714114
:103B40003A460023FCF766FB3F4AA0F540719142DC
:103B500059D956E0E3694FF6EF7893422DD1092801
:103B60004FD2DFE800F00508114E0D4E4E4E10000A
:103B7000FDF7EEF801E0FDF7FDF8010004D144E0A7
:103B8000FDF70AF9F9E71146606A37F81000B1FB52
:103B9000F0F04100606801EB5001B1FBF0F080B241
:103BA000A0F1100141452CD84FF6F0710140C0F34F
:103BB000420001432068C16027E0092821D2DFE8E4
:103BC00000F0050811200D2020201000FDF7C0F89E
:103BD00001E0FDF7CFF8010004D116E0FDF7DCF8B5
:103BE000F9E71146606A37F81000B1FBF0F1606840
:103BF00001EB5001B1FBF0F080B2A0F110014145A2
:103C000001D9012501E02168C8600120A4F86A00FB
:103C100024F8680F28466660A660BDE8F0810000C1
:103C200000800040F369FFCFFFF4FF11003801402E
:103C3000001002400044004000480040004C00409A
:103C40000024F40088410008FFFC0F002DE9F04734
:103C50009A4617460E4604464FF000094FF02008DA
:103C6000089D39E0681C37D0FCF742FDA0EB0A0044
:103C7000A84222D80DB32068016849072CD5C06935
:103C8000C043000528D421684FF400600862206812
:103C9000016821F4D07101602068816821F0010180
:103CA0008160C4F88080C4F88480C4F8888000BF34
:103CB00084F87C900320BDE8F0872068016821F437
:103CC000D07101602068816821F001018160C4F831
:103CD0008080C4F88480EBE72068C06936EA000081
:103CE00004D00020B842BDD00020E4E70120F9E76D
:103CF0000148FEF785B8000008130020FEE7000029
:103D00000FB4054B10B503A9044A029800F03CF823
:103D100010BC5DF814FB0000613F00082012002079
:103D20000FB4084B10B504A902AA039800F02CF8B0
:103D3000044602A9002000F0D1F8204610BC5DF82E
:103D400014FB0000DD3E00080907090E002804DB13
:103D500000F1E02080F80014704700F00F0000F13F
:103D6000E02080F8141D704702E008C8121F08C147
:103D7000002AFAD170477047002001E001C1121FEC
:103D8000002AFBD1704700002DE9FF4F89B09B4608
:103D90000446002506E025280BD05A460B9990478B
:103DA000641C6D1C20780028F5D10DB02846BDE8B4
:103DB000F08F0027B8460122474900E0074314F876
:103DC000013F203B02FA03F00842F7D120782E2869
:103DD00019D114F8010F47F004072A280ED06FF00C
:103DE0002F022078A0F1300109290CD808EB8801B6
:103DF00002EB410100EB0108641CF2E70A98641C25
:103E000050F8048B0A9020780028CED0642808D07F
:103E1000692806D075281ED05A460B9990476D1C0C
:103E200058E00A994FF00A0901C90A91002802DAFC
:103E300040422D2102E0390504D52B218DF82010B8
:103E4000012103E0F90704D02021F7E78A4608AEF4
:103E50000DE00021FAE70A994FF00A0901C90A9119
:103E6000F7E74946FCF719FA303106F8011D00283A
:103E7000F7D1ADEB060000F12009780701D44FF02F
:103E80000108C84502DDA8EB090000E000208046DB
:103E9000002706E008A85A46C05D0B9990476D1CA4
:103EA0007F1C5745F6DB04E030205A460B999047BB
:103EB0006D1CB8F10001A8F10108F5DC05E016F869
:103EC000010B5A460B9990476D1CB9F10001A9F1FD
:103ED0000109F4DC641C65E7092801000A68531C29
:103EE0000B6010707047002100E0491C8142FCD338
:103EF000704710B50446FEF73FFAA020FEF715FA0A
:103F0000FEF770FA2046FEF710FAFEF76BFAFEF79E
:103F100033FAA120FEF709FAFEF764FAFEF7DEF99C
:103F20000446FEF75FFAFEF742FA204610BD70B570
:103F30000D460446FEF720FAA020FEF7F6F9FEF73C
:103F400051FA2046FEF7F1F9FEF74CFA2846FEF743
:103F5000ECF9FEF747FABDE87040FEF728BA00001A
:103F600013B54FF0FF33012269460248FEF740F9CE
:103F700000981CBD08130020FCF7C8FBFFF711F8E0
:103F8000FEF7D0FCFEF7C4FDFEF7F6FDFEF71AFDC6
:103F9000FEF768FDFEF78CF92020FFF7AAFF764CAC
:103FA000542804D12120FFF7A4FF352851D05421F3
:103FB0002020FFF7BCFF0520FCF79AFA35212120CD
:103FC000FFF7B5FF0520FCF793FA02210120FFF768
:103FD000AEFF0520FCF78CFA02210846FFF7A7FF89
:103FE0000520FCF785FA6548FDF706FA62490822C4
:103FF00030316348FEF756F8FEF782FB4FF6FF7547
:104000002846FEF7D5FA2846FEF7D4FB0020FEF737
:10401000E5FBFFF7C3FA04215A48FDF7D5FB082159
:104020005848FDF7D1FBDFF85081564D08F13008B4
:104030004CF21F37002600BFFCF7B6F9207838B3E2
:10404000267098F80410404631290BD0322909D047
:1040500022E00120FFF74DFFE0700220FFF749FF4B
:104060002071C0E7C27998F80600303800EB800371
:10407000D02000EB43001044C0B2821E082A0BD8A7
:10408000312902D0322907D103E001216171E070AA
:1040900002E0022161712071607810B166702663C0
:1040A0006663A07810B1A670FEF7C4F960790128A4
:1040B00002D0022855D12AE00120FFF78BFA022016
:1040C000FFF74EFA2868466220693238B84202D3B8
:1040D0002868866309E0FCF74DFE2169B0FBF1F02A
:1040E000E17848434108286881632868C663FCF783
:1040F00041FE2169B0FBF1F0E17848432968C862CC
:10410000FCF738FE2169B0FBF1F0E17827E00120EF
:10411000FFF726FA0220FFF75DFA286886636069D8
:104120003238B84202D32868C66309E0FCF722FEA1
:104130006169B0FBF1F02179484329684008C86300
:10414000FCF718FE6169B0FBF1F02179484329685A
:10415000C862FCF70FFE6169B0FBF1F021794843BA
:10416000E860A07900284FF0030002D0FFF732FA90
:1041700062E7FFF7F5F95FE7D8110020BC120020D5
:104180000813002024120020010002000400060091
:1041900008000A000C001000200040008000000110
:1041A00000000000000000000102030406070809E7
:1041B0000000000001020304D841000800000020B4
:1041C0002412000028030008684800082412002078
:1041D00074050000783D00080006310000FFFF0074
:1041E000010316800102611EE13292CC02012A6AAB
:1041F00023600C02200F30063006FE1FFE1F300623
:10420000380718030A2007180318038C01023172BB
:10421000201700E003F80F9C0E8C1C8C188C009863
:1042200000F801E007800E800E100B189C18B80CE7
:10423000F00FE0038026A15A10090E181B0C110C78
:1042400011060210110311039B018E01C038C06CCE
:1042500060446044300260071844186C0C38BE108B
:1042600005E001F0037A10140618063003F001F09F
:1042700000F8009C310E33061E061C02E0063FFCCF
:1042800073F021B8920C020121E7100B02000380A9
:1042900001C000C0006002D230022114211C155E52
:1042A00012032A15163220123570120302D20602AA
:1042B000111425A2214ED6208821481008D806F8CE
:1042C00007E00130D2052AEAC405FC3FFC3FE809BB
:1042D0002C30120002021B806C080532E007E00758
:1042E0008E41D6F57F750C155C351045624564D15D
:1042F0007AE00A03F007380E180C0C1802D40918DB
:104300000C380EF007E003B0214C0C071901F00146
:104310009801880803A16043F80F5E220002219CE7
:1043200035F025ECD0071800FC1FFC1F901007018A
:10433000F807180E0C0121C81805C003C007511159
:104340003C41920210F8904C0B0C000E000F000F35
:10435000800DC03003116B270C0CB209148513F8C3
:104360000F9031893009EC03FC071C0E001C9811DA
:104370005E0005101C0C180E602009C007F00F38F5
:104380001C1818325409CC03EC0F3C0E1C1C2006E0
:10439000121C2031D24582357C16C07A3AE0C85AC8
:1043A00070DE051480215384073806F007F0078C6F
:1043B000E005380CF80F604130521C2430091C1CF9
:1043C000381EF81BE019D1130C1CC00B1BF0018A1E
:1043D000012114011F30091ACE1C0510001C807227
:1043E0000416F8DC1AF85C17800F600A1810F8C37E
:1043F000F81F080D1E1405180708003800F00114F6
:10440000121F61161F9C13013814091770796E6D05
:104410002603FD2E033D7C03400C18180420C229FE
:10442000224A11440902EC0C221113E20C0240044E
:10443000201818980315D4200403C00602396E22F0
:1044400018022C07F83FF83F1C70AF052119D9104E
:104450006C0503FC0F0C5E0310040CFC070E1A180D
:10446000A541021E180003FA0770BC0A1F38381C49
:10447000300C700660DD04E008600C701C30F01F2A
:10448000903C08FE03FE0F060E06A105B1022DB3F7
:1044900005E8050EFE0FFEA01DCC048DA20529AE79
:1044A000ADB0053D3803C5A211DC4DBB032D27037C
:1044B0008005F81FF81F0E4DD303DDCA043C0C0F16
:1044C000F83F3C780E6006E007C0810411A11DC5CD
:1044D000031533DC090EC03CF0F83FE00FBF03A228
:1044E0003002319EB1120F260C3080070D15A00549
:1044F000021406022531DC063807F003E0B004356B
:104500003A10140C060606038601C6006600760003
:10451000DE008E01060312360C64DD4105021B1815
:10452000022530CD210320050EE01EF0024336D8CF
:10453000022366CC0252C601E40586C386C320105E
:10454000041C303C02126C0212CC0210058C310C9F
:104550003302123602123C02E638201C05E007F84E
:104560001F9904193EA303C002F80806600E701CD0
:1045700038F8401BFC0F02CA38920E190CC4079180
:104580006082E05E140907E006630E3F1C3CE0CE4B
:10459000F79106198258041F06389C1E38C0087609
:1045A000074C49B20E106030065DDE041D9B051BF2
:1045B000F80330331E00401C050E301C1C1005EDA6
:1045C000000308042A7FFE7F10E95EA97E07101809
:1045D0001820430360BC6D14072D16072D94091491
:1045E0000570076003631DE005E13023C3610283AA
:1045F000663302236C1B02CC092C1A3C1E380E3881
:104600000E31051C090FE00C70183030183F043CC7
:10461000040EC0075E04140503E00670F71D810751
:10462000D006300E6007E0602D79044C08301C384D
:104630003818300C65030D1C80075C05FC7FFC7F7F
:104640006D07DD7C072D2708253EED10082FE003C0
:10465000AE06011E0221282DA60A6DA6094DA80945
:104660001D64096D0E0B7E03A009F160022100029A
:1046700061601D82071D4407256C3F6003D7042934
:1046800019013901CFFFFFF80B0D2DAE0A9D4A0825
:104690001805F003F807AA2C070C000FF00FF8B16B
:1046A000081F0C1C5C080F16F01820041ED8A80B5D
:1046B0001E38370881012DE0070F17D803DA091DCE
:1046C0009A096F300E39092DA3081E309009EEC0EB
:1046D0000009711F2805C01BF01F368160000719F3
:1046E000301CF01FC01B601E0F83066E18D4051906
:1046F00052EC051CF00FC0F00644040FC00FDA2D79
:104700009C0855E4B1020D17D40A1E0DFA093DCAE2
:104710000961011D600924050FE00D002A6E06AA3B
:104720000895204F07F86A09D1010D16F00A021505
:10473000C002012E3041DEEC04F80078BE0C1C05EE
:104740000C0C060C6A0D100DCC006C00FC009C01DA
:104750008C030C03120E100C560C011C020D16904B
:1047600009E0097C3CFF7EC7E383C1020D16EA0B1A
:10477000062398200510E099101D0E0E0A17C07030
:104780000916A00D16EA070917700D151B081EB0B3
:104790006E07FE70E20D0E1830140D1E037A0E1D0A
:1047A0001A0B1DF2093D060C0D15900C1D020F0988
:1047B00019A00F170780EA0D09106A1238C01D4CA6
:1047C0000B0D15DB0A4DFE053E18920F1DB7060EA8
:1047D000140300068DF80F3008C141C141C3616365
:1047E00001323601321C010D16F00F3E1CF7095242
:1047F000605A1D5E061D75061E38E10B0117C01DAF
:1048000036061D38062E1828102FE00C940A2D3E6F
:10481000064DF00D1DA20D1D700C0D159A0C0D1BF3
:10482000800D8D300B8D320E2DE205BA40D63D90B5
:104830000F0D259009CD22119E6024069DC60FB351
:10484000030048FEC0A80E5D74050C061E10F81F7C
:10485000080F52100F300201D8112DA50C7D3B0717
:084860003F24F4630600000090
:04000005080001D915
:00000001FF
