:020000040800F2
:1000000030180020F1010008932F0008E7280008AD
:10001000912F0008F1090008733400080000000067
:10002000000000000000000000000000AB320008EB
:10003000AF0A000800000000952F0008AD3200084C
:100040000B0200080B0200080B0200080B0200085C
:100050000B0200080B0200080B0200080B0200084C
:100060000B0200080B0200080B020008F50900084B
:10007000010A00080B0200080B0200080B0200082E
:100080000B020008000000000B0200080B02000831
:100090000B0200080B0200080B0200080B0200080C
:1000A0000B0200080B0200080B0200080B020008FC
:1000B0000B0200080B020008493300080B0200087D
:1000C0000B0200080B0200080B0200080B020008DC
:1000D0000B0200080B0200080B0200080B020008CC
:1000E0000B0200080B0200080B0200080B020008BC
:1000F0000B0200080B0200080B02000800000000C1
:10010000000000000B020008000000000B020008C5
:100110000B020008000000000B0200080B020008A0
:100120000B0200080B0200080B0200080B0200087B
:100130000B02000800000000000000000B02000895
:100140000B0200080B020008000000000000000085
:10015000000000000000000000000000000000009F
:100160000000000000000000000000000B0200087A
:100170000B0200080000000000000000000000006A
:10018000000000000B02000800000000000000005A
:10019000000000000000000000000000000000005F
:1001A00000000000000000000B0200080B02000825
:1001B0000B0200080B0200080B0200080000000000
:1001C000000000000B02000800000000000000001A
:1001D0000B0200080B020008DFF810D000F03EFA16
:1001E00000480047713D0008AFF300803018002040
:1001F0000648804706480047FEE7FEE7FEE7FEE7C1
:10020000FEE7FEE7FEE7FEE7FEE7FEE7393300081C
:10021000D9010008D2B201E000F8012B491EFBD23F
:1002200070470022F6E710B513460A460446194601
:10023000FFF7F0FF204610BD00F0004230F0004014
:100240000AD0C10D01F56071C0F3160042EA0151F8
:10025000C20840071143704700200146704730B57F
:100260000B46014600202022012409E021FA02F574
:100270009D4205D303FA02F5491B04FA02F528440E
:10028000151EA2F10102F1DC30BD2DE9F05F05463B
:10029000002092469B4688460646814640241BE045
:1002A000284641464746224600F0F9F953465A4649
:1002B000C01A914110D311461846224600F0E0F9C9
:1002C0002D1A67EB01084F4622460120002100F05D
:1002D000D7F917EB00094E41201EA4F10104DFDC21
:1002E000484631462A464346BDE8F09F2DE9FE4F79
:1002F000804681EA0300C00F0C46009021F00041C7
:1003000023F00045B8EB0200A94105D24046214642
:1003100090461C460B46024623F00040104347D04F
:10032000270DC7F30A00C3F30A510290401A019047
:1003300040286BDAC3F3130040F4801B0098924608
:1003400020B10023D2EB030A63EB0B0B0198594653
:10035000C0F14002504600F093F906460D46504663
:100360005946019A00F0ABF910EB080061410024F6
:1003700087EA115284EAE7731A4340D0009A62B3C5
:10038000019A012A4FEA075215DC001B61EB0201BA
:100390004FF0004202EA0752CDE90042001C41F54D
:1003A000801132462B4600F0ABF903B0BDE8F08F68
:1003B00040462146F9E7001B61EB0201001C41F5B4
:1003C000801300185B412018A2F5001747EB0301CA
:1003D00040EAD570B6196D4111E06D084FEA360656
:1003E00045EAC0754FEA0752001B61EB0201001C91
:1003F00041F5801149084FEA300000195141324659
:100400002B4603B0BDE8F04F00F06BB90098012215
:1004100040000023D0EB020263EBE073009821461A
:100420004FEAE074B8EB000061EB0401E9E783F008
:1004300000435BE781F0004158E72DE9FE4F81EA78
:10044000030404F0004421F0004100944FF0000B3D
:1004500023F0004350EA01045ED052EA03045BD06B
:10046000C3F30A54C1F30A552C44A4F2F3340194A3
:10047000A0FB0254C1F3130141F48011C3F3130331
:1004800043F4801301FB024400FB034E840A970AE5
:1004900044EA815447EA8357A4FB076802958D0A12
:1004A00005FB07854FEA932C04FB0C542705029D9E
:1004B0004FEA065847EA1637B5EB08056EEB070C0E
:1004C000870E920E47EA811742EA8312A7FB0201C8
:1004D000B6EB0B0164EB00042B0D43EA0C335E1802
:1004E00044EB1C50DA465146E7FB0201C5F3130406
:1004F0004FEA0B3343EA14534FEA0432019C43EAB8
:100500000603A4F10C040294009CCDE900B400F0B1
:10051000F7F803B0BDE8F08F00200146F9E72DE9B8
:10052000F04D81EA030404F0004B21F0004514462D
:100530004FF0000A23F0004150EA050220D054EAAF
:1005400001021DD0C5F30A570246C5F31303C1F3D8
:100550001300C1F30A5640F4801543F48013A7EB4F
:100560000608101BD64608F2FD3873EB050002D3CF
:1005700008F1010801E092185B41B8F1000F03DABD
:1005800000200146BDE8F08D00204FF480110646A2
:1005900084460EE0171B73EB050705D3121B63EBB4
:1005A000050306434CEA010C49084FEA3000921853
:1005B0005B4150EA0107EDD152EA030012D082EA12
:1005C000040083EA0501084305D0101BAB4106D2A5
:1005D0000122002306E000224FF0004302E06FF00A
:1005E000010253101AEB06004CEB085110EB0A0005
:1005F00041EB0B01BDE8F04D00F073B8C1F30A52B6
:10060000C1F3130140F2FF3341F480119A4202DA40
:1006100000200146704740F233439A42A2F233422F
:1006200002DC524200F03BB800F02AB830B5041E9C
:1006300071F1000404DB4FF00044404264EB01011F
:10064000141E73F1000405DB1C464FF000435242B8
:1006500063EB0403994208BF904230BD064C074D3E
:1006600006E0E06840F0010394E807009847103482
:10067000AC42F6D3FFF7B4FD843E0008A43E000868
:10068000202A04DB203A00FA02F100207047914052
:10069000C2F1200320FA03F3194390407047202A47
:1006A00004DB203A21FA02F00021704721FA02F31C
:1006B000D040C2F120029140084319467047202AD9
:1006C00006DBCB17203A41FA02F043EAE07306E07A
:1006D00041FA02F3D040C2F120029140084319468A
:1006E000704710B5141E73F1000408DA401C41F184
:1006F000000192185B411A4301D120F0010010BDA6
:100700002DE9F04D92469B4611B1B1FA81F202E01B
:10071000B0FA80F220329046FFF7B2FF04460F464F
:1007200040EA0A0041EA0B0153465A46084313D0F7
:10073000114653EA010019D0C8F140025046FFF7B4
:10074000AEFF05460E46504659464246FFF798FF13
:10075000084305D0012004E020463946BDE8F08D6D
:100760000020054346EAE0762C4337430A986305A8
:10077000E40AA0EB08000022FD0A44EA47540A30CC
:1007800002D500200146E9E7010510196941DDE9BC
:10079000084500196941BDE8F04DA2E770B58D1814
:1007A00010F8014B14F0030201D110F8012B2311B2
:1007B00006D110F8013B03E010F8016B01F8016B62
:1007C000521EF9D1ABB110F8012B04F00C048A1AB7
:1007D0000C2C03D0A2EB84129B1C08E010F8014BF8
:1007E000A2EB0422F8E712F8014B01F8014B5B1E63
:1007F000F9D5A942D4D3002070BD10B5846AE16D4B
:1008000011F0500F06D0E16DC90625D5204600F045
:100810006AFC10BDE06D40F40070E065206801687E
:10082000090716D502F05AFA78B12068C06880042A
:1008300000280ADBE06D20F48070E065E06DC00404
:1008400003D4E06D40F00100E065204600F03AFC82
:1008500010BDC0688007EBE7616D496BBDE81040D3
:10086000084710B5806AC16D41F04001C165016E55
:1008700041F00401016600F036FC10BD10B5806A3D
:1008800000F030FC10BD000070B5044600688168BF
:100890008268C1F3400112F0010F28D039BB816892
:1008A00001F00D01012914D18168124A1140891CFF
:1008B000816021680320086001F018F8054612E005
:1008C00001F014F8401B02280DD920688068C00789
:1008D00009D0E06D40F01000E065206E40F00100AE
:1008E0002066012070BD20688068C007E8D1002024
:1008F00070BD0000C0FFFF7F70B5044600688168CE
:1009000011F0010F2DD18168174A11421AD1816867
:10091000D5432940491C816000F0E8FF06461BE0F2
:10092000816811F0010F03D181682940491C816061
:1009300000F0DCFF801B02280ED920680068C0434D
:10094000C00709D0E06D40F01000E065206E40F077
:1009500001002066012070BD20680168C943C907F5
:10096000DED1002070BD00003F00008070B59FED1B
:100970001D0A00220021C2F1090412E000EB8105EA
:1009800050F821306E68B34209D200EE903A40F838
:100990002160F8EE600AFCEEE00AC5ED010A491C90
:1009A000C9B28C42EADC521CD2B2092AE2D301213C
:1009B00050F82120491C00EE902AC9B20929F8EE0E
:1009C000600A30EE800AF3D3F4EE000A20EE200A2B
:1009D000DFED050A20EE200ADFED040A20EE200AF2
:1009E00070BD000000000000000080393333534028
:1009F000FEE70000014800F079BD00006C13002004
:100A0000014800F073BD0000CC1300200D490268BE
:100A10008A4201D20C4901E00B492031D2B21423A1
:100A2000083AB2FBF3F2436C02F01F0223F0030317
:100A30001944816404498031C164012191400165F8
:100A40007047000008040240000802400179074A8C
:100A500002EB81024265054A4432491E826501F07B
:100A60001F0201219140C16570470000FC0802404F
:100A700030B5D0E913456560446D14B1D0E9164531
:100A8000656090F8444004F01F050124AC40056CFB
:100A90006C60046863608368102B036803D09960FE
:100AA0000068C26030BD9A600068C16030BD7047A8
:100AB000002240F6B83306E00021491C89B2994271
:100AC000FBD3521C92B28242F6D3704710B5114C40
:100AD00088B06068FFF7B0FB41EC100B0EA153EC3F
:100AE000102B684602F0C6FC6946182001F090FF02
:100AF000A068FFF7A1FB41EC100B0AA153EC102BEF
:100B0000684602F0B7FC6946482001F081FF08B052
:100B100010BD00000000002041444331203A202550
:100B20002E32660041444332203A20252E326600A0
:100B300072B6FEE7F8B500260446009690F8580015
:100B40000D4601280BD0012084F858002046FFF7FD
:100B50009BFE0100E06D04D040F010002AE002206E
:100B6000F8BD20F4885040F00200E06520688268FB
:100B7000134B1A4005F080431A4342F00042826052
:100B8000104A20680EE0009B5B1C0093934209D33F
:100B9000E06D20F0020040F01000E06584F858603D
:100BA0000120F8BD8368DB0FEDD1E06D20F002007D
:100BB00040F00100E06584F858600846F8BD000088
:100BC000C0FFFF3F02DE04002DE9F047044690F825
:100BD00058009CB00E464FF00009012815D00120A6
:100BE00084F8580000251795189520684FF0A04804
:100BF00040450ED1284F0097384602F06BF88246E8
:100C0000206802F067F860B10EE002201CB0BDE879
:100C1000F087E06D40F02000E06584F85850012036
:100C2000F4E7BAF1000F09D0E06D40F02000E06574
:100C30004FF0010984F858504846E7E717483268F2
:100C400040F61F71002A826822F4604216D094F8A0
:100C5000383042EA433273681A438260D8F8082079
:100C6000BB6802F0010203F001031A43E2D1B3684A
:100C700032681A4383688B431A430BE08260D8F8CA
:100C80000820BB6802F0010203F001031A43D1D12E
:100C900082688A438260CDE7000100500003005063
:100CA0002DE9F84F00270446009790F85800DFF828
:100CB000E0930D46B846012811D0012684F858600B
:100CC000206802F003F860B1E06D40F02000E065BC
:100CD0005FF0010784F858803846BDE8F88F02209D
:100CE000FBE7D5E900210C23206803EA911318449F
:100CF000036B01F01F014FF01F0C0CFA01FCC2F353
:100D0000846223EA0C038A4013430363206801F0E2
:100D1000DDFF8246206801F0D5FF5AEA00003CD191
:100D2000AA6829682068B2F1004F37D001F0DEFFD1
:100D30002068416921F00041416120686969C26809
:100D4000C2F3C102520091402A69042A31D000EB5B
:100D500082002B68026EDFF83CC303F0F84302EA1E
:100D60000C020B431A4342F00041016620682A69D5
:100D7000A96900EB8200026E22F080720A430266CB
:100D8000297F22682869012910D0002102EB800008
:100D9000026E22F000720A4302667DE0002201F03A
:100DA000A5FF2068416941F00041C5E74FF000719F
:100DB000ECE7002101F080FF400320684FF00001C4
:100DC00072D001F079FF90FAA0F0B0FA80F12868B3
:100DD00042036ED090FAA0F0B0FA80F0814204D1C4
:100DE00000221146206801F090FF0121206801F0E7
:100DF00063FF400320684FF001015DD001F05CFF0C
:100E000090FAA0F0B0FA80F12868420359D090FA25
:100E1000A0F0B0FA80F0814204D1002201212068C4
:100E200001F073FF0221206801F046FF40032068B3
:100E30004FF0020148D001F03FFF90FAA0F0B0FA65
:100E400080F12868420344D090FAA0F0B0FA80F014
:100E5000814204D100220221206801F056FF0321C3
:100E6000206801F029FF400320684FF0030133D0D0
:100E700001F022FF90FAA0F0B0FA80F12868420356
:100E80002FD090FAA0F0B0FA80F0814204D1002275
:100E90000321206801F039FF2068816811F0010FFB
:100EA00022D0ACE000E004E001F006FFC0F3846172
:100EB0008DE7C0F3846091E701F0FEFEC0F384612A
:100EC000A2E7C0F38460A6E701F0F6FEC0F38461F8
:100ED000B7E7C0F38460BBE701F0EEFEC0F38461C6
:100EE000CCE7C0F38460D0E72A7B296850F8B03F94
:100EF000C1F3120C23EA0C0302F0180C664A22FA22
:100F00000CF20A4013430360E968494577D1286829
:100F100041031CD090FAA0F1B1FA81F1491C01F013
:100F20001F0109294FEA403132D8002912D000BFF1
:100F300090FAA0F1B1FA81F101F1010101F01F0174
:100F400006FA01F609D100BFC0F3846109E0C0F3DD
:100F50008461E3E7C0F38461EEE790FAA0F1B1FAAF
:100F600081F101F1010101F01F0146EA816102D125
:100F7000C0F3846003E090FAA0F0B0FA80F000F1D2
:100F8000010000F01F0000EB400041EA005132E098
:100F900000290ED090FAA0F1B1FA81F101F101011E
:100FA00001F01F0106FA01F606D100BFC0F384610B
:100FB00006E0C0F38461F1E790FAA0F1B1FA81F1A3
:100FC00001F1010101F01F0146EA816102D1C0F384
:100FD000846003E090FAA0F0B0FA80F000F1010024
:100FE00000F01F002D4A00EB400002EB005041EAE8
:100FF000000141F00071AA68206801F077FE2848DE
:101000002A6802423FF466AE26488168264B01F00A
:10101000E0719A4202D0254B9A421CD10B021AD49D
:101020002268B2F1A04F7FF455AE826841F400010E
:1010300022F0E0720A4382601D481E490068B0FB3E
:10104000F1F0401C00EB4000800000E0401E0090EA
:101050000028FBD13EE6184D184BAA4207D1CD011E
:1010600005D422689A42F5D041F0807109E0144D10
:10107000AA42EFD14A02EDD422689A42EAD041F462
:101080008001826822F0E0720A43826022E600005A
:1010900000007F4000F0FF03FFFF0700000020FE7C
:1010A0000000088000030050000021C31000C09021
:1010B000F4110020400D0300000052C70001005051
:1010C000000084CB054B01220549984200D14A70AB
:1010D000024B6C33984200D18A707047F81100209F
:1010E0000000002070477047F8B54FF0000504007D
:1010F0002E46009502D0E06D10B107E00120F8BD4A
:10110000204600F0EFF8266684F858602068816871
:10111000C1F3407119B181686A4A11408160206849
:101120008168C1F3007189B98168674A114041F053
:1011300080518160654866490068B0FBF1F040006D
:10114000801C00E0401E00900028FBD120688168D0
:10115000C1F3007141B9E16D41F01001E165216E0B
:1011600041F001012166012501F0B0FDE16DC906E4
:1011700000D430B1E06D40F01000E0650125284654
:10118000F8BDE06D20F4807040F00200E06520685A
:10119000806810F0010F11D14FF0A04080684D49D8
:1011A00000F00100896801F00101084306D14A48B6
:1011B0006168826822F47C120A438260E168E06B15
:1011C000627F0843A16841EA4231084394F8241041
:1011D00040EA0140012904D1218D404A02EB4141FE
:1011E0000843E16A29B101F47871226B014342EAB4
:1011F00001002168CA683A4B1A400243CA6020685D
:101200000169626B21F0406111430161206801F0C6
:101210005DFD0646206801F055FD30432ED1207F4C
:1012200094F83810800340EA41022068C16844F213
:10123000020399431143C1602069002820680169B5
:101240000AD041F480310161206850F8C01F226942
:101250006FF30D01114307E021F480310161206833
:1012600050F8C01F6FF30D01016094F84000012891
:101270000CD02068016921F0010101616069012839
:101280002068016B21F00F0111D013E0D4E91101A6
:101290000843D4E913121143084321680A6940F254
:1012A000FC739A43104340F001000861E6E7226AAC
:1012B000521E11430163E06D20F0020040F0010076
:1012C000E0655CE7C0FFFF5FC0FFFF7FF411002017
:1012D000400D030000010050000300500000FEFF1D
:1012E0000740F0FF2DE9F04F87B00546142168460E
:1012F000FEF797FF3A4AD5F800C00024106803278C
:10130000384B80263849401C4FF400794FF4006A6E
:101310004FF0200BBCF1A04F07D0DFF8D080C445C0
:101320002ED1106001282ED035E01060012807D1A1
:10133000C86C40F40050C864C86C00F400500590BC
:10134000C86C40F00200C864C86C694600F0020036
:1013500005904FF48050CDE900070294184600F044
:10136000DBF9244F224838600520C7E9010407F162
:101370000C0080E8500E38463C622AE06F65BD6282
:1013800007B0BDE8F08FC86C40F40050C864C86C6A
:1013900000F400500590C86C40F00200C864C86CAE
:1013A000694600F0020005904FF40040CDE90007C7
:1013B0000294184600F0B0F90D480F4F1430386011
:1013C0002420C7E9010407F10C0080E8500E3846DC
:1013D0003C6200F0E9F80028D0D0FFF7A9FBCDE788
:1013E0000C000020000400480010024000010050E2
:1013F000080002406C130020CC1300202DE9F041BE
:101400000446344817468846806800F01F05206867
:1014100001F05CFC00285AD194F85800012856D0FD
:10142000012084F85800002625B1052D02D0092D91
:1014300000D003E02046FFF75FFA18B184F8586047
:10144000BDE8F081E06D40F60161884340F48070B2
:10145000E06521492068884202D14FF0A04100E0B8
:101460000146814200D01DB9E06D20F48010E06596
:10147000E06DC00404D5206E20F00600206600E078
:101480002666616D1548C862616D15480863616D17
:101490001448486321681C20086084F8586020685C
:1014A000416841F0100141602068C16841F00101CC
:1014B000C16021683B4642464031606D00F0D4F87F
:1014C00021688A68084B1A40121D8A60B8E702201A
:1014D000B6E700000003005000010050FB070008C1
:1014E0007D08000863080008C0FFFF7FF0B4016CAE
:1014F0000C6801680D6890F8442002F01F06042271
:1015000002FA06F3234211D06B070FD50B689B0636
:1015100003D40B6823F004030B6090F8441001F02F
:101520001F018A40016C4A60016B1DE0022303FA2F
:1015300006F727424FF0000C4FF0010218D0AF071A
:1015400016D50C68A40605D40C6824F00A040C60B7
:1015500080F8252090F8441001F01F018B40016CA9
:101560004B6080F824C0C16A00291AD0F0BC08473B
:101570000823B340234214D02B0712D50B6823F065
:101580000E030B6090F84410036C01F01F0102FA87
:1015900001F15960C26380F8252080F824C0416BB6
:1015A000E2E7F0BC7047000070B504000CD02B4A95
:1015B00021681420914209D2294A0A44B2FBF0F072
:1015C0008000606427480AE0012070BD234A52422F
:1015D0000A44B2FBF0F080006064204808382064C0
:1015E000022084F825000A6847F6F0708243D4E9A7
:1015F00002031843D4E904352B431843A369184365
:10160000E3691843236A1843104308602046FFF734
:10161000FDF9A0680025B0F5804F00D16560A16C90
:1016200020790860D4E9130141606068401E0328F6
:1016300008D82046FFF70AFA606D0560D4E9160164
:10164000416002E06565A565E565E563012084F814
:10165000250084F82450002070BD000008040240DA
:10166000F8FFFDBF0000024070B5044690F824006A
:10167000002501280CD0012084F8240094F825606E
:101680000020012E06D084F824000225284670BDD3
:10169000022070BD022684F82560E0632068066899
:1016A00026F0010606602046FFF7E2F9206B0028CD
:1016B0002068016802D041F00E0106E021F004012B
:1016C00001602068016841F00A010160A06C0168B6
:1016D000C90303D5016841F480710160606D18B1E0
:1016E000016841F4807101602068016841F00101E6
:1016F0000160CBE770B5044600F0F8F80546601CC1
:1017000002D004484068044400F0F0F8401BA042B6
:10171000FAD370BDE81100202DE9FC4FDFF8A0A13D
:10172000002301250AF1040B03244FF00F0C0BF1E9
:10173000040EBDE005FA03F632406FD04F68012F6A
:1017400005D0022F03D0112F01D0122F17D1D0F8BE
:1017500008905F0004FA07F829EA08090097D1F811
:101760000C8008FA07F848EA0908C0F808804768BA
:10177000B7430E79C6F300169E403E434660C668E6
:101780004FEA430804FA08F7BE4301978F6807FA47
:1017900008F73743C7604E68022E01D0122E13D1CE
:1017A000DE0800EB86060096366A5F07FF0E0CFA2D
:1017B00007F926EA0906D1F8109009FA07F949EA6B
:1017C0000609009EC6F820900668019FBE430F7967
:1017D00007F0030707FA08F7374307604E68F6007B
:1017E00065D5384E376E47F001073766366E23F001
:1017F000030706F001060096334E3E44B146B66834
:101800009F074FEA17780CFA08F7BE43B0F1904FE4
:1018100005D02E4FB84204D1012717E047E000273A
:1018200014E02B4FB84201D102270FE0294FB842F4
:1018300001D103270AE0284FB84201D1042705E06F
:10184000264FB84201D1052700E0062707FA08F71E
:101850003743C9F80870DAF800605746D1F80480B9
:1018600096435FEAC83800D516433E60DBF8006057
:101870005F46D1F8048096435FEA883800D5164366
:101880003E60DEF800607746D1F8048096435FEA58
:10189000C82800D516433E60094F0C373E68D1F882
:1018A000048096435FEA882800D516433E605B1C9F
:1018B0000A6832FA03F67FF43DAFBDE8FC8F000002
:1018C00000040140001002400000014000040048F4
:1018D00000080048000C00480010004800140048B0
:1018E0000AB18161704781627047000001488068D9
:1018F00070470000E81100200248816842681144E6
:1019000081607047E811002010B50024032000F02A
:1019100073F8002000F008F808B1012401E000F09D
:1019200025F8204610BD000070B50E4E0546002477
:10193000706898B14FF47A71B1FBF0F00A49096808
:10194000B1FBF0F000F040FD40B9102D06D20022AE
:101950002946501E00F030F8356000E00124204692
:1019600070BD0000E8110020F41100200A4882B088
:10197000016E41F001010166016E01F0010100916B
:10198000816D41F080518165806D00F08050009044
:1019900002B000F0A1B8000000100240002809DBEE
:1019A00000F01F02012191404009800000F1E02079
:1019B000C0F8001170470000F0B40E4B1B680C46D5
:1019C000C3F30223C3F10705042D00D90425191D13
:1019D000072901D2002300E0DB1E012606FA05F1EB
:1019E000491E214099409E40761E16403143F0BC6E
:1019F00001F054BD0CED00E0064900F00702086854
:101A00004FF6FF03184040EA0220034A10430860E3
:101A1000704700000CED00E00000FA052B492C4B4C
:101A20000A6832214A432B4940B1B0F5007F08686B
:101A300029D020F4C06040F480602CE00868C0F336
:101A40004120022804D051F8800F20F4807022E059
:101A5000D1F8800020F48070C1F88000086820F47C
:101A6000C06040F400700860B2FBF3F0401C00E07E
:101A7000401E4A69520501D50028F9D14869400540
:101A80000AD503207047C0F34120022806D051F840
:101A9000800F40F48070086000207047D1F880000B
:101AA00040F48070C1F88000086820F4C06040F401
:101AB00000700860B2FBF3F0401C00E0401E4A6971
:101AC0005205DBD50028F9D1D8E70000F411002039
:101AD00040420F00007000400248816841F480419C
:101AE00081607047007000402DE9F84304460068AB
:101AF00000269D4D00035ED5A86D0027C00008D4C8
:101B0000A86D40F08050A865A86D012700F08050B6
:101B10000090DFF85892D9F8001041F48071C9F8AC
:101B20000010FFF7E3FE804606E000BFFFF7DEFE91
:101B3000A0EB080002282BD8D9F80000C005F5D585
:101B4000D5F8900010F4407014D0216C814211D06F
:101B5000D5F89000D5F8901020F4407041F4803111
:101B6000C5F89010D5F8901021F48031C5F8901088
:101B7000C5F89000C00711D0FFF7B8FE804641F2CB
:101B8000883907E0FFF7B2FEA0EB0801494501D90B
:101B900003260BE0D5F890008007F3D5D5F8900028
:101BA000216C20F440700843C5F890001FB1A86D67
:101BB00020F08050A8652078C00707D0D5F88800AD
:101BC000616820F003000843C5F88800207880078A
:101BD00007D5D5F88800A16820F00C000843C5F8A7
:101BE00088002078400707D5D5F88800E16820F004
:101BF00030000843C5F888002078000707D5D5F8DD
:101C00008800216920F0C0000843C5F888002078CA
:101C1000800607D5D5F88800616920F44060084344
:101C2000C5F888002078400607D5D5F88800A16956
:101C300020F440500843C5F888002078000607D5F6
:101C4000D5F88800E16920F440400843C5F88800D1
:101C50002088C00507D5D5F88800216A20F44030D7
:101C60000843C5F888002088800507D5D5F8880086
:101C7000616A20F440200843C5F8880020884005A8
:101C80000FD5D5F88800A16A20F440100843C5F8A4
:101C90008800A06AB0F5801F03D1E86840F4801086
:101CA000E860208800050FD5D5F88800E16A20F4A7
:101CB00040000843C5F88800E06AB0F5800F03D102
:101CC000E86840F48010E8602088C0040FD5D5F89B
:101CD0008800216B20F040700843C5F88800206B15
:101CE000B0F1807F03D1E86840F48010E86020887C
:101CF0004FF0006180040ED5D5F88800626B20F0AB
:101D000040601043C5F88800606B884203D1E868E2
:101D100040F48010E860208840040ED5D5F8880093
:101D2000A26B20F040601043C5F88800A06B884289
:101D300003D1E86840F48010E860208800040FD5E3
:101D4000D5F88800E16B20F040500843C5F88800C2
:101D5000E06BB0F1805F03D1E86840F48030E86068
:101D60003046BDE8F88300000010024000700040DB
:101D70002DE9F0470E4605004FF0000725D0DFF8AB
:101D8000AC81D8F8000000F00F00B0420CD2D8F8B7
:101D9000001021F00F013143C8F80010D8F80000FE
:101DA00000F00F00B04210D12968614CC80741F221
:101DB000883A5AD06868DFF87C91032808D0022856
:101DC00020682DD0400500282CDB0120BDE8F087DD
:101DD00020688001F9D5E06800F00302E068C0F3F4
:101DE0000310401C032A19D0534A00BFB2FBF0F085
:101DF000E268C2F306225043E268C2F34162521C19
:101E00005200B0FBF2F0484517D9A06810F0F00F6F
:101E10000CD0880711D5A86840B10EE0474AE5E725
:101E20008003D0E700F092F8484506D9A06820F07A
:101E3000F00040F08000A0608027A068696820F072
:101E400003000843A060FFF751FD814606E000BF94
:101E5000FFF74CFDA0EB090151453AD8A06869682D
:101E600000F00C00B0EB810FF2D12868810714D587
:101E7000400703D5A06840F4E060A0602878000720
:101E800005D5A06820F4605040F4E060A060A06830
:101E9000A96820F0F000084304E0802F03D1A06877
:101EA00020F0F000A060D8F80010404601F00F01CB
:101EB000B14216D9016821F00F0131430160FFF7EB
:101EC00015FD074607E000BFFFF710FDC11B514598
:101ED00001D903207AE7D8F8000000F00F00B042E3
:101EE000F2D12878400705D5A068E96820F4E060C1
:101EF0000843A0602878000706D5A068296920F467
:101F0000605040EAC100A06000F020F8A1680C4ACF
:101F1000C1F30311515C01F01F01C8400949086079
:101F200009480068BDE8F047FFF7FEBC002002400A
:101F30000010024000B4C4040024F40000366E0116
:101F4000743E0008F4110020E8110020184910B573
:101F50008868C0F381021748012A0BD08A68164BA3
:101F6000C2F38102022A06D08A68C2F38102032AE0
:101F700003D0002010BD184610BDCA6802F003044B
:101F8000CA68C2F30312521C032C02D0B0FBF2F059
:101F900001E0B3FBF2F0CA68C968C2F306225043FD
:101FA000C1F34161491C4900B0FBF1F010BD0000D4
:101FB000001002400024F40000366E012DE9F843C1
:101FC00004007AD02078FA4DC00747D0A868E968A5
:101FD00000F00C0001F003010C2802D0082817D0F3
:101FE00001E0032914D06068B0F5803F17D0B0F548
:101FF000A02F286817D020F480302860286820F4AB
:10200000802028606068E0B1FFF770FC064614E0AD
:102010002868800322D560680028D2D01EE0286896
:1020200040F48030EDE740F480202860F7E700BFFF
:10203000FFF75CFC801B642870D828688003F7D504
:102040000CE0FFF753FC064605E000BFFFF74EFC2F
:10205000801B6428F0D828688003F7D42078800794
:102060004CD5A868E96800F00C0001F003010C28C9
:1020700002D004280DD001E002290AD0E06800282F
:1020800028682BD040F480702860FFF72FFC0646AC
:1020900019E02868400502D5E068002891D06868FA
:1020A000217C20F0FE4040EA01606860C148006881
:1020B000FFF73AFC002800D120E076E1FFF716FC9C
:1020C000801B0228B8D828684005F7D56868217CAD
:1020D00020F0FE4040EA016068600FE020F480706C
:1020E0002860FFF703FC064605E000BFFFF7FEFB94
:1020F000801B0228A0D828684005F7D42078000764
:1021000029D560690028D5F8940013D040F001006B
:10211000C5F89400FFF7EAFB064606E090E000BF32
:10212000FFF7E4FB801B022886D8D5F894008007CF
:10213000F6D510E020F00100C5F89400FFF7D6FBBB
:10214000064604E0FFF7D2FB801B022878D8D5F8BA
:1021500094008007F6D42078400761D5A86D00264A
:10216000C00008D4A86D40F08050A865A86D012675
:1021700000F08050009090480168C90511D40168B2
:10218000804641F480710160FFF7B0FB074604E030
:10219000FFF7ACFBC01B022852D8D8F80000C005DE
:1021A000F6D5A068012815D00528D5F8900016D0DE
:1021B00020F00100C5F89000D5F8900020F0040050
:1021C000C5F89000A06841F28838B8B1FFF78EFBDF
:1021D00007460EE0D5F8900040F00100F0E740F02F
:1021E0000400C5F89000F5E7FFF780FBC11B4145EF
:1021F00026D8D5F890008007F6D50CE0FFF776FBDF
:10220000074604E0FFF772FBC11B414518D8D5F81B
:1022100090008007F6D41EB1A86D20F08050A8650C
:102220002078800629D5A0690028D5F8980013D019
:1022300040F00100C5F89800FFF758FB064606E09D
:1022400077E000BFFFF752FB801B022877D8D5F854
:1022500098008007F6D510E020F00100C5F898003E
:10226000FFF744FB064604E0FFF740FB801B022813
:1022700065D8D5F898008007F6D4E069F0B3A9686E
:10228000C1F38101032961D00228286820F0807001
:1022900028600BD0E86820F00300E860E868474950
:1022A0000840E860FFF722FB04464BE0FFF71EFB07
:1022B000064604E0FFF71AFB801B02283FD8286877
:1022C0008001F7D4F4E908016FF00F0202EB01116D
:1022D0000843218A5204490802EB4151A26841EAAD
:1022E00002210843217D4FF07E42490802EB416103
:1022F0000843217B40EAC160E96800E062E0304ABF
:1023000011400843E860286840F080702860E86861
:1023100040F08070E860FFF7E9FA044605E000BF8E
:10232000FFF7E4FA001B022809D828688001F7D5D6
:1023300048E004E0FFF7DAFA001B022802D9032084
:10234000BDE8F88328688001F4D43BE00128F7D089
:10235000E868226A00F00301914226D1616A00F028
:10236000F0020901103991421FD1A26A00F4FE4126
:10237000B1EB022F19D194F82C2000F07841B1EB89
:10238000C26F12D1218E00F4C00249084905A1F59F
:102390000011914209D194F8341000F0C06049084E
:1023A0004906A1F1007181420CD00120C8E700006C
:1023B00000100240E811002000700040FFFFEEFE18
:1023C0000C809F010020BBE710B5401EB0F1807F5C
:1023D00001D3012010BD4FF0E02460610F21601790
:1023E00001F05CF80020A06107202061002010BDF2
:1023F000704770477047704770477047F0B590F866
:102400003C20012A3AD0012580F83C50022280F875
:102410003D2003685A689C68194E1A4FB34201D098
:10242000BB4204D122F4700C4A6842EA0C02DFF885
:1024300058C002EA0C02D1F800C04CEA020CC3F802
:1024400004C00268B2420DD0B2F1804F0AD00F4BE7
:102450009A4207D00E4B9A4204D0BA4202D00D4B9A
:102460009A4204D1896824F080031943916080F86E
:102470003D50002180F83C100846F0BD0220F0BD20
:10248000002C0140003401408FFFFFFD000400409C
:102490000008004000400140704710B5040003D020
:1024A00094F83D0010B107E0012010BD002084F831
:1024B0003C00204600F022F8022084F83D00211D57
:1024C000206800F047FF012084F8480084F83E00AF
:1024D00084F83F0084F8400084F8410084F842000A
:1024E00084F8430084F8440084F8450084F84600EA
:1024F00084F8470084F83D00002010BD08B500684E
:102500000B49884212D10B48816D41F0040181656D
:10251000806D002200F00400009011461E20FFF79D
:102520004BFABDE808401E20FFF738BA08BD00008E
:10253000000800400010024090F83D10012901D031
:1025400001207047022180F83D100168CA6842F0FE
:102550000102CA600068104988420ED0B0F1804F75
:102560000BD00E49884208D00D49884205D00D494C
:10257000884202D00C49884207D181680B4A114039
:10258000062906D0B1F5803F03D0016841F0010172
:102590000160002070470000002C01400004004052
:1025A00000080040003401400040014007000100E5
:1025B00070B5044690F83C00012814D0012584F839
:1025C0003C50022084F83D0022689068344B18404B
:1025D00020F47F4090600868702827D010DC10F04D
:1025E0000F0F03D04AE04FF0020070BD4FEA2012F7
:1025F000072A43D2DFE802F05050505048313900EA
:10260000284BC21A984247D009DCB0F5805F35D01C
:10261000B0F5005F15D0B0F1101F2FD13CE0102AAB
:102620003AD0202A38D0502A28D135E0CB68D1E9D9
:102630000121206800F0E6FE2068816841F0770102
:1026400009E0CB68D1E90121206800F0DBFE2068B9
:10265000816841F48041816010E0CA68496820685F
:1026600000F0E4FE5021206806E0CA68496820684E
:1026700000F0EDFE6021206800F0CEFE84F83D50B1
:10268000002084F83C0070BDCA684968206800F0EA
:10269000CDFE40212068EFE7226801461046EBE7B7
:1026A00088FFCEFF20001000704770B50446006818
:1026B00001694FF00005C943890715D4C168C943B2
:1026C000890711D4E91E0161012020772068806903
:1026D0008007204602D0FFF7E7FF04E000F0E3F8B0
:1026E000204600F0E1F8257720680169C9434907D1
:1026F00017D4C168C943490713D46FF004010161BD
:10270000022020772068806910F4407F204602D0A4
:10271000FFF7CAFF04E000F0C6F8204600F0C4F856
:10272000257720680169C943090716D4C168C943E0
:10273000090712D46FF00801016104202077206896
:10274000C0698007204602D0FFF7AEFF04E000F02A
:10275000AAF8204600F0A8F8257720680169C94347
:10276000C90617D4C168C943C90613D46FF0100154
:102770000161082020772068C06910F4407F20465E
:1027800002D0FFF791FF04E000F08DF8204600F042
:102790008BF8257720680169C943C90708D1C1684A
:1027A000C943C90704D1891E0161204600F07EF8A3
:1027B00020680169C943090609D4C168C9430906EB
:1027C00005D46FF0800101612046FFF712FE2068FA
:1027D0000169C943C90509D4C168C943090605D4BB
:1027E0006FF4807101612046FFF702FE20680169E5
:1027F000C943490609D4C168C943490605D46FF0E5
:1028000040010161204600F06DF820680169C9436C
:10281000890609D4C168C943890605D46FF020012F
:1028200001612046FFF7E6FD20680169C943C9023E
:1028300009D4C168C943C90205D46FF4801101618C
:102840002046FFF7D9FD20680169C943890209D4F0
:10285000C168C943890205D46FF4001101612046A3
:10286000FFF7C9FD20680169C943490209D4C1685D
:10287000C943490205D46FF4800101612046FFF786
:10288000BCFD20680169C94309020BD4C168C94372
:10289000090207D46FF4000101612046BDE87040D1
:1028A000FFF7FABD70BD70477047000010B50446D1
:1028B0000948FFF741FE0949206888420AD10848C3
:1028C000C178491CC9B2C170642903D10021C1700B
:1028D0000121017010BD0000D0120020000800404E
:1028E000000000207047FEE700B585B0142168465F
:1028F000FDF797FC4FF6FF70009000200321CDE913
:102900000201019069460248FEF706FF05B000BDCE
:102910000008004800B585B014216846FDF781FC29
:102920004FF6FF70009001200190032003900020DB
:10293000029069460248FEF7EFFE05B000BD0000B8
:102940000008004870B5002406462146204600F0E5
:1029500003F900F045F94FF49635304600F010F9D0
:10296000641CAC42F9D370BD30B587B01421684601
:10297000FDF757FC1E48C16C41F00401C164C16CF5
:1029800001F004010591C16C41F00101C164C16C09
:1029900001F001010591C16C41F00201C164C06CFC
:1029A000012500F0020005904FF44870CDE90005C4
:1029B00000240394694602940E48FEF7ADFE2802F7
:1029C00003940090CDE901544FF0904469462046AD
:1029D000FEF7A2FEFFF79EFFA06940F48070A061A1
:1029E00004481830016841F40871016007B030BD37
:1029F0000010024000040048203AD2B2034B02EB20
:102A0000420203EB021200F019B800001600002089
:102A1000F0B50E460746002540F23F1407E0214678
:102A20003846FFF7E9FF103C6D1CA4B2761C3278E3
:102A3000002A01D0142DF2D3F0BD00002DE9F0479B
:102A400091468A460026044600F086F8DFF840806A
:102A5000012700BF00F0C4F85FF0000539F8160048
:102A600007FA05F10842404601D1408800E000889D
:102A700000F086F86D1C102DF0D3641CE4B25146B2
:102A8000204600F069F8761C182EE3D3BDE8F087E5
:102A90001000002010B5FFF767FF002000F014F8C9
:102AA000084CA080A088A0F50241303906D000F083
:102AB000FBFA002000F008F8A08010BD00F06BFACF
:102AC000F7E700001000002070B51D490A6842F4C5
:102AD00000720A600A6842F480720A60184C103C66
:102AE000226842F020022260164A1060086840F016
:102AF0002000086000BF00BF00BF206840F0200039
:102B00002060206840F480702060FFF7EDFE4FF0F9
:102B10009041886A40F48070886200BF00BF00BFA7
:102B20000848001F006885B2886940F48070886199
:102B3000FFF7F0FE206840F400702060284670BD6A
:102B4000280400481408004801B5BDF800000149F8
:102B5000488008BD1000002010B50C46014620201A
:102B600000F070F82146BDE81040212000F06AB85E
:102B700001B5BDF800000149088008BD1000002023
:102B800030B5154B1968154A8CB2116841F40071C3
:102B90001160124910390D6845F480750D600D689B
:102BA00045F020050D601860106840F020001060AE
:102BB00000BF00BF00BF086840F020000860086840
:102BC00040F48070086000BF00BF00BF086840F498
:102BD000007008601C6030BD1408004828040048DC
:102BE000164A10B51068164983B2086840F40070A0
:102BF0000860086840F48070086011481038046864
:102C000044F020040460222414600C6844F0200482
:102C10000C6000BF00BF00BF016841F020010160EF
:102C2000016841F48071016000BF00BF00BF01680E
:102C300041F400710160136010BD000014080048E9
:102C40002804004870B51A4C22681A4B95B21A68CD
:102C500042F400721A601A6842F480721A60154ACF
:102C6000103A166846F0200616602060186840F09A
:102C70002000186000BF00BF00BF106840F02000B7
:102C80001060106840F4807010602160186840F097
:102C90002000186000BF00BF00BF106840F0200097
:102CA0001060106840F480701060256070BD0000F6
:102CB000140800482804004800EB8100006E00F072
:102CC000F84070478068C0F3C00070478068C0F368
:102CD000800070478068C0F380007047C06810F4BF
:102CE000406F01D00020704701207047042303EAA1
:102CF000D15310B518444369C1F3045107248C40E3
:102D0000A3438A401343436110BD00EB8100016E71
:102D100021F00041114301667047000030B58BB0CF
:102D2000002408940994202168460A94FDF779FA52
:102D30001C484FF0A041042501604FF40031C0E968
:102D40000114C4600461C0E905450477447701219A
:102D5000016280F82440C462046380F83840C46390
:102D600080F84040FEF7C0F908B172B6FEE708A946
:102D70000C480894FDF728FF08B172B6FEE70A4830
:102D800000900620CDE901047F200594CDE90305DC
:102D900069460448FDF784FF002801D072B6FEE7BB
:102DA0000BB030BDF81100200008302E30B589B0CE
:102DB00020216846FDF735FA1948184900240160BA
:102DC0004902C0E90114C46004250461C0E9054555
:102DD000047744770121016280F82440C4620463CF
:102DE00080F83840C46380F84040FEF77DF908B1B0
:102DF00072B6FEE70B4800900620CDE901047F2063
:102E00000594CDE9030569460548FDF749FF00280B
:102E100001D072B6FEE709B030BD000000010050DD
:102E2000641200200080F03E2DE9F04F87B014219D
:102E30006846FDF7F6F93848C16C41F00401C164F9
:102E4000C16C01F004010591C16C41F02001C16425
:102E5000C16C01F020010591C16C41F00201C16417
:102E6000C16C01F002010591C16C41F00101C16426
:102E7000C16C01F001010591C16C41F00801C16410
:102E8000C06CDFF8988000F008004FF6FF740590E2
:102E9000002221464046FEF723FD4FF480764FF096
:102EA0009049002231464846FEF71AFDDFF870A02F
:102EB000002204215046FEF713FDDFF868B04FF4FE
:102EC0004877002239465846FEF70AFD0125CDE92C
:102ED000004500240294694640460394FEF71CFC1A
:102EE0000096CDE90154694648460394FEF714FC68
:102EF00004200090CDE90154694650460394FEF742
:102F00000BFC0097CDE90154694658460394FEF73F
:102F100003FC07B0BDE8F08F001002400008004835
:102F2000000C00480004004810B588B00024174881
:102F30000094019402940394049405941249069415
:102F400001604F21C0E9011440F2E731C0E90314E8
:102F50008461FFF7A2FA08B172B6FEE74FF4805021
:102F6000009069460948FFF723FB08B172B6FEE7F7
:102F7000049404A905480694FFF740FA002801D0FC
:102F800072B6FEE708B010BD00080040D012002065
:102F9000FEE7FEE7704730B501210020FFF752FE43
:102FA0004FF47A70FDF784FD00210120FFF74AFEFF
:102FB00041F290711020FFF745FE4FF41C51602044
:102FC000FFF740FE01216120FFF73CFE0221462071
:102FD000FFF738FE48F210011320FFF733FE48F2E6
:102FE000FE011220FFF72EFE4FF4A0610220FFF732
:102FF00029FE41F230010320FFF724FE40F20334A2
:1030000021463020FFF71EFE21463120FFF71AFE31
:1030100021463220FFF716FEE51E29463320FFF732
:1030200011FE03213420FFF70DFE21463520FFF766
:1030300009FE14213620FFF705FE21463720FFF751
:1030400001FE21463820FFF7FDFD21463920FFF71C
:10305000F9FD29463A20FFF7F5FD03213B20FFF754
:10306000F1FD21463C20FFF7EDFD4FF4A0513D203E
:10307000FFF7E8FD4FF400719220FFF7E3FD2146D2
:103080009320FFF7DFFD40F60D019020FFF7DAFDFA
:1030900041F218010320FFF7D5FDBDE8304040F2B2
:1030A00073110720FFF7CEBD10B543F20801E320EE
:1030B000FFF7C8FD1221E720FFF7C4FD41F23121DF
:1030C000EF20FFF7BFFD00210120FFF7BBFD4FF40C
:1030D000E0610220FFF7B6FD41F230010320FFF767
:1030E000B1FD00210420FFF7ADFD40F207210820CB
:1030F000FFF7A8FD00210920FFF7A4FD00210A2009
:10310000FFF7A0FD00210C20FFF79CFD00210D2002
:10311000FFF798FD00210F20FFF794FD00211020FC
:10312000FFF790FD07211120FFF78CFD00211220F1
:10313000FFF788FD00211320FFF784FDC820FEF76C
:10314000D9FA41F290611020FFF77CFD40F227216F
:103150001120FFF777FD3220FEF7CCFA1D21122057
:10316000FFF770FD3220FEF7C5FA4FF4006113201F
:10317000FFF768FD14212920FFF764FD0B212B20A8
:10318000FFF760FD3220FEF7B5FA00212020FFF79F
:1031900059FD00212120FFF755FD07213020FFF7C1
:1031A00051FD40F207713120FFF74CFD062132201E
:1031B000FFF748FD40F204713520FFF743FD41F66B
:1031C00004713620FFF73EFD04213720FFF73AFD5A
:1031D00000213820FFF736FD40F206713920FFF755
:1031E00031FD40F201713C20FFF72CFD0F213D2005
:1031F000FFF728FD00215020FFF724FDEF2151208B
:10320000FFF720FD00215220FFF71CFD40F23F1187
:103210005320FFF717FD4FF41C516020FFF712FDFC
:1032200001216120FFF70EFD00216A20FFF70AFD52
:1032300000218020FFF706FD00218120FFF702FD1D
:1032400000218220FFF7FEFC00218320FFF7FAFC1B
:1032500000218420FFF7F6FC00218520FFF7F2FC17
:1032600010219020FFF7EEFC00219220FFF7EAFCEE
:1032700003219320FFF7E6FC4FF488719520FFF7B8
:10328000E1FC00219720FFF7DDFC00219820FFF7EB
:10329000D9FC41F218010320FFF7D4FCBDE810402F
:1032A00040F273110720FFF7CDBC7047FEF724BB37
:1032B00000B5A5B038216846FCF7B3FF14211FA85C
:1032C000FCF7AFFF44210EA8FCF7ABFF4FF40070F2
:1032D000FEF7A4FB0220C10103914021049100905C
:1032E000079008901421CDE909010B900C900D90E6
:1032F0006846FEF763FE08B172B6FEE70F201F9026
:1033000003202090002021902290239002211FA8CA
:10331000FEF72EFD08B172B6FEE74FF400400E90A6
:1033200080031D900EA8FEF7DFFB002801D072B6C7
:10333000FEE725B000BD00000248016841F47001BD
:103340000160704788ED00E00148FFF7AEB900006A
:10335000D01200202DE9F0430268234B234D244E68
:10336000244C4FF08049984207D0484505D0A842E8
:1033700003D0B04201D0A04203D122F070074A68C6
:103380003A431D4FDFF874C0DFF8748098420DD0C7
:1033900048450BD0A84209D0B04207D0A04205D082
:1033A000B84203D0604501D0404503D122F44075B6
:1033B000CA682A434D6922F080022A4302608A6863
:1033C000C2620A688262984207D0A04205D0B84221
:1033D00003D0604501D0404501D109690163012155
:1033E0004161BDE8F0830000002C01400004004072
:1033F000000800400034014000400140004401400A
:103400000048014010B5846842EA032224F47F4456
:103410000A432243826010BD8268034B1A400A436C
:1034200042F00701816070478FFFCFFF10B5036A3C
:10343000046A24F001040462846924F0F00444EA7C
:10344000021423F00A020A438461026210BD10B51F
:10345000036A23F0100303628369046A23F4704350
:1034600043EA023224F0A00343EA011182610162BF
:1034700010BDFEE70FB4084B10B504A902AA0398CB
:1034800000F0EEF8044602A9002000F06CFC204693
:1034900010BC5DF814FB0000673D00080907090E29
:1034A000002804DB00F1E02080F80014704700F0F1
:1034B0000F0000F1E02080F8141D704702E008C8FA
:1034C000121F08C1002AFAD170477047002001E09E
:1034D00001C1121F002AFBD1704700002DE9FF5FD8
:1034E00082B00021DDE90430020DDDF840B0034375
:1034F00018D044F61050A2F2FF324243151411982E
:1035000001281FD0A5EB0B00401C5FEA000A4FF01A
:1035100000064E4FDFF83891B046504615D5CAF137
:10352000000413E0119801244AA3012801D16FEA95
:103530000B010298119AC0E90031C0E9024206B0BD
:10354000BDE8F09FCBF10000DFE704460021404AD0
:10355000491842EB0450CDE9001012E0E00707D013
:1035600032463B4640464946FCF767FF804689465F
:1035700032463B4610461946FCF75FFF06460F46AB
:103580006410002CEAD1DDE90401DDE90023BAF181
:10359000000F06DAFCF751FF42464B46FCF74DFFA1
:1035A00005E0FCF7BCFF42464B46FCF7B8FF04467B
:1035B0000E460022284BFDF739F803D84FF0FF30B4
:1035C000014607E00022254B20463146FCF78EFEDF
:1035D000FDF714F8102409E0002C0ADB0A2200236E
:1035E000FCF753FE039B30321A55641E50EA010269
:1035F000F2D1641C039AC4F111031444119A012AF4
:1036000003D0012208430DD10AE0084304D0002072
:103610004FF0110B119072E7A3EB0B056D1E0DE03F
:103620005B4504DD4FF0000205F1010504E003DA1B
:103630004FF00002A5F10105002AECD00298119983
:10364000C0E90231C0E9004579E7000000001440FC
:103650000000F03F300000000000F0430000E03FB9
:103660002DE9FF4F95B09A46884606460025EEE1C3
:10367000252877D100242746F94A0121039400E048
:10368000044316F8013F203B01FA03F01042F7D142
:1036900030782A2811D06FF02F033078A0F1300253
:1036A000092A16D8039A44F0020402EB820203EBC3
:1036B00042021044761C0390EFE758F8042B039263
:1036C000002A03DA504244F40054039044F0020408
:1036D000761C30782E2816D116F8010F44F0040419
:1036E0002A280DD06FF02F023078A0F13003092B7B
:1036F00009D807EB870302EB4303C718761CF3E7EF
:1037000058F8047B761C30786C280FD006DC4C28E7
:1037100017D068280DD06A2814D104E0742810D07E
:103720007A280FD10DE044F400140AE044F4801428
:1037300001E044F440147278824202D104F580140E
:10374000761C761C307866280BD013DC582877D08E
:1037500009DC002875D04528F6D04628F4D0472843
:103760001AD193E118E0632835D0642879D0652810
:1037700012D18BE1702873D008DC6728F1D069285A
:103780006FD06E280DD06F2806D1ACE073282CD0F6
:10379000752874D0782853D05246179990476D1CDD
:1037A00054E1C4F30250022809D003280DD0D8F800
:1037B000001004280DD00D6008F1040846E1D8F887
:1037C0000010EA17C1E90052F6E7D8F800100D80A2
:1037D000F2E70D70F0E718F8041B8DF800100020D8
:1037E0008DF80100EB46012003E058F804BB4FF0D0
:1037F000FF3061074FF0000102D40DE009F1010133
:103800008946B9420FDA8145F8DB1BF80910002917
:10381000F4D108E009F1010189468142FADB1BF885
:1038200009100029F6D103985346A0EB0907214659
:103830003846179A00F080FA284400EB090507E0A3
:1038400044E008E10DE01BF8010B52461799904740
:10385000B9F10109F7D2534621463846179AF2E0EA
:1038600039E00A21C4F302524FF0000B0091022A02
:1038700006D058F8040BC117032A09D00AE023E048
:1038800008F1070020F00702F2E80201904605E087
:1038900000B2C117042A01D140B2C117002906DACB
:1038A0000A460021404261EB02012D2202E022057E
:1038B00004D52B228DF80420012203E0E20701D079
:1038C0002022F7E7914657E00A2100E010214FF04F
:1038D000000B00910BE010214FF0000B44F00404AA
:1038E0000827009103E008204FF0000B0090C4F37C
:1038F0000252022A05D058F8040B0021032A08D0EE
:1039000008E008F1070020F00702F2E80201904603
:1039100003E080B2042A00D1C0B24FF000092207B0
:103920002AD53278702A07D0DDF800C08CF0100C50
:103930005CEA0B0C05D00EE040228DF80420012239
:1039400008E050EA010306D030238DF804308DF8EA
:10395000052002229146009B83F0080353EA0B03E3
:103960000AD150EA010201D1620705D530228DF853
:1039700004204FF001097F1E3278582A04D039A262
:103980000C920CAA02920BE03BA2F9E75B46009A6C
:10399000FCF77BFC0C9B9B5C029A521E02921370FC
:1039A00050EA0102F2D1029804A9081A00F1200B92
:1039B000600702D524F4803400E001275F4502DD72
:1039C000A7EB0B0000E0002000EB0B010090039838
:1039D0004944401A0390E00306D453462146179AFF
:1039E000039800F0A9F90544002706E001A8524613
:1039F000C05D179990476D1C7F1C4F45F6DBE003B7
:103A00000CD553462146179A039800F095F90544C2
:103A100004E030205246179990476D1C0099481ECB
:103A200000900029F5DC08E00298029952460078DF
:103A3000491C0291179990476D1CBBF10001ABF135
:103A4000010BF1DC5BE100F065F90544761C307890
:103A500000287FF40DAE19B02846BDE8F08F0000B5
:103A60000928010030313233343536373839616254
:103A70006364656600000000303132333435363718
:103A8000383941424344454600000000600700D4F5
:103A9000062708F1070020F00700F0E8022380461F
:103AA00003F0004C5FEA0C0001D097A009E020056C
:103AB00001D596A005E0E00701D095A001E0AFF2A6
:103AC0004C001390307823F0004365280CD006DCBE
:103AD000452809D046281DD047287FD13BE06628DD
:103AE00018D067287AD136E00021112F01DB112090
:103AF00000E0781CCDE9000104A90CA8FFF7EEFC5A
:103B0000DDE90D010C9A4FF0000B07F1010910924D
:103B100000914EE04FF000400097CDE9011004A95C
:103B20000CA8FFF7DBFCDDE90D020C9B0F994FF0B1
:103B3000000B91461093009211B9791C00EB01091A
:103B4000B7EB090003D4C0F1FF3B07F10109A9EB72
:103B50000700019042E0012F00DA01270021112F18
:103B600001DD112000E03846CDE9000104A90CA8D0
:103B7000FFF7B4FCDDE90D010C9A00914FF0000B4A
:103B8000B946109221070FD4009A4A4503DA9146AC
:103B900001E0A9F10109B9F1010F05DD109AA9F1C0
:103BA0000101515C3029F4D0B84202DA10F1040F5F
:103BB00003DA0121CDE9011010E0002803DC834481
:103BC000A9EB000102E0411C494500DD8946A0EB5C
:103BD0000B00401C01904FF000400290200705D4DC
:103BE0000198484502DB4FF0FF30019000208DF82E
:103BF0004B0002980DF14B07B0F1004F25D0022089
:103C00000C902B200D90029800280CDA4042029074
:103C10002D200D9007E00A210298FCF720FB30319F
:103C2000029007F8011D0C99481E0C900029F2DC47
:103C300002980028EFD1791E0D980870307800F0B6
:103C4000200040F0450007F8020D11A8C01BC01D60
:103C500002901398007800B1012000EB090101984F
:103C600001EBE071029801440398401A401E039052
:103C7000E00306D453462146179A039800F05CF8F7
:103C800005441398007818B15246179990476D1C57
:103C9000E00323D553462146179A039800F04CF8C9
:103CA00005441BE0BBF1000F07DB0098584504DD1D
:103CB0001098179910F80B0001E017993020524620
:103CC000904701980BF1010B401E05F10105019091
:103CD00004D12E205246179990476D1CB9F100016E
:103CE000A9F10109DEDC05E017F8010B524617992E
:103CF00090476D1C0299481E02900029F4DC53463F
:103D00002146179A03989EE62D0000002B00000024
:103D1000200000002DE9F041044600251E4617460C
:103D2000880404D405E039462020B0476D1C641E89
:103D3000F9D52846BDE8F0812DE9F041044600257B
:103D40001E469046C80301D5302700E0202788048E
:103D500004D505E041463846B0476D1C641EF9D5D0
:103D60002846BDE8F0810A68531C0B60107070474C
:103D700008B5FDF7C9FDFFF79BFAFFF755F839487D
:103D8000816C41F004018164816C01F004010091B7
:103D9000816C41F001018164806C002200F001001F
:103DA000009011460B20FDF707FE0B20FDF7F6FDF6
:103DB000002211460C20FDF7FFFD0C20FDF7EEFD63
:103DC000FEF7ACFFFEF7F2FFFFF7AEF8FEF762FE7C
:103DD0004FF6FF742046FEF7B5FD2046FEF7B4FE11
:103DE0000020FEF7C5FE7F211F48FCF7A3FE1E48FA
:103DF0007F216C30FCF79EFE0A221C491A48FDF711
:103E0000FDFA1A490A222831A1F1E000FDF7F6FA7D
:103E100016484C38FEF790FB0025154CFCF756FE73
:103E2000207860B125700A2210490F48FDF7E6FAA4
:103E30000E490A222831A1F1E000FDF7DFFA60788F
:103E400028B165700948FCF791FD84ED010AA0785E
:103E50000028E3D00548A5702830FCF787FD84EDE5
:103E6000020ADBE700100240F81100201C130020BA
:103E70000000002000000000000000000102030418
:103E800006070809A43E000800000020F811000001
:103E90009C07000830450008F81100203806000093
:103EA000CC340008F20001000431FFFF00010316CA
:103EB000800102611EE16892CC02012A6A23600C33
:103EC00002200F30063006FE1FFE1F30063807188E
:103ED000030A2007180318038C010231722017000F
:103EE000E003F80F9C0E8C1C8C188C009800F801D5
:103EF000E007800E800E100B189C18B80CF00FE035
:103F0000038026A15A10090E181B0C110C11060271
:103F100010110311039B018E01C038C06C60446016
:103F200044300264071844186C0C38261005E00170
:103F3000F0037A10140618063003F001F000F800C0
:103F40009C310E33061E061C02E0063FFC73F02176
:103F5000B8920C020121E7100B0200038001C0009F
:103F6000C0006002D230022114211C155E12032A07
:103F700015163220123570120302D20602111425D2
:103F8000A2214ED6208821481008D806F807E00163
:103F900030D2052AEAC405FC3FFC3FE8092C301268
:103FA0000002021B806C080532E007E0078E41D654
:103FB000F57F750C155C351045624564D17AE00AD1
:103FC00003F007380E180C0C1802D409180C380E20
:103FD000F007E003B0214C0C071901F001980188AB
:103FE0000803A16043F80F5E220002219C35F025F2
:103FF000ECD0071800FC1FFC1F90100701F80718F1
:104000000E0C0121C81805C003C00751113C419294
:104010000210F8904C0B0C000E000F000F800DC02A
:104020003003116B270C0CB209148513F80F903173
:10403000893009EC03FC071C0E001C98115E00057A
:10404000101C0C180E602009C007F00F381C18183F
:10405000325409CC03EC0F3C0E1C1C2006121C2011
:1040600031D24582357C16C07A3AE0C85A70DE05F6
:104070001480215384073806F007F0078CE00538D8
:104080000CF80F604130521C2430091C1C381EF8FB
:104090001BE019D1130C1CC00B1BF0018A01211469
:1040A000011F30091ACE1C0510001C80720416F87E
:1040B000DC1AF85C17800F600A1810F8C3F81F08A4
:1040C0000D1E1405180708003800F00114121F61B6
:1040D000161F9C13013814091770796E6D2603FDA5
:1040E0002E033D7C03400C18180420C229224A11DB
:1040F000440902EC0C221113E20C024004201818AF
:10410000980315D4200403C00602396E2218022C2D
:1041100007F83FF83F1C70AF052119D9106C050353
:10412000FC0F0C5E0310040CFC070E1A18A54102CC
:104130001E180003FA0770BC0A1F38381C300C70B8
:104140000660DD04E008600C701C30F01F903C0835
:10415000FE03FE0F060E06A105B1022DB305E8050C
:104160000EFE0FFEA01DCC048DA20529AEADB0053C
:104170003D3803C5A211DC4DBB032D27038005F894
:104180001FF81F0E4DD303DDCA043C0C0FF83F3C53
:10419000780E6006E007C0810411A11DC503153328
:1041A000DC090EC03CF0F83FE00FBF03A230023143
:1041B0009EB1120F260C3080070D15A005021406C3
:1041C000022531DC063807F003E0B004353A10145C
:1041D0000C060606038601C60066007600DE008E29
:1041E00001060312360C64DD4105021B180225305E
:1041F000CD210320050EE01EF0024336D8022366CF
:10420000CC0252C601E40586C386C32010041C30CC
:104210003C02126C0212CC0210058C310C330212DB
:104220003602123C02E638201C05E007F81F99040C
:10423000193EA303C002F80806600E701C38F8404F
:104240001BFC0F02CA38920E190CC407916082E061
:104250005E140907E006630E3F1C3CE0CEF79106B2
:10426000198258041F06389C1E38C00876074C492E
:10427000B20E106030065DDE041D9B051BF8033096
:10428000331E00401C050E301C1C1005ED000308F9
:10429000042A7FFE7F10E95EA97E071018182043CC
:1042A0000360BC6D14072D16072D940914057007C3
:1042B0006003631DE005E13023C3610283663302BE
:1042C000236C1B02CC092C1A3C1E380E380E31050B
:1042D0001C090FE00C70183030183F043C040EC06D
:1042E000075E04140503E00670F71D8107D0063051
:1042F0000E6007E0602D79044C08301C3838183007
:104300000C65030D1C80075C05FC7FFC7F6D07DDE1
:104310007C072D2708253EED10082FE003AE06018F
:104320001E0221282DA60A6DA6094DA8091D6409A3
:104330006D0E0B7E03A009F1600221000261601D79
:1043400082071D4407256C3F6003D70429190139F2
:1043500001CFFFFFF80B0D2DAE0A9D4A081805F09E
:1043600003F807AA2C070C000FF00FF8B1081F0C78
:104370001C5C080F16F01820041ED8A80B1E383736
:104380000881012DE0070F17D803DA091D9A096F7C
:10439000300E39092DA3081E309009EEC0000971B6
:1043A0001F2805C01BF01F368160000719301CF064
:1043B0001FC01B601E0F83066E18D4051952EC0532
:1043C0001CF00FC0F00644040FC00FDA2D9C0855F6
:1043D000E4B1020D17D40A1E0DFA093DCA096101A4
:1043E0001D600924050FE00D002A6E06AA0895201D
:1043F0004F07F86A09D1010D16F00A0215C0020133
:104400002E3041DEEC04F80078BE0C1C050C0C06C6
:104410000C6A0D100DCC006C00FC009C018C030C90
:1044200003120E100C560C011C020D169009E00927
:104430007C3CFF7EC7E383C1020D16EA0B0623987E
:10444000200510E099101D0E0E0A17C0700916A065
:104450000D16EA070917700D151B081EB06E07FE32
:1044600070E20D0E1830140D1E037A0E1D1A0B1D6E
:10447000F2093D060C0D15900C1D020F0919A00F35
:10448000170780EA0D09106A1238C01D4C0B0D1574
:10449000DB0A4DFE053E18920F1DB7060E140300F1
:1044A000068DF80F3008C141C141C3616301323646
:1044B00001321C010D16F00F3E1CF70952605A1D07
:1044C0005E061D75061E38E10B0117C01D36061D60
:1044D00038062E1828102FE00C940A2D3E064DF0B9
:1044E0000D1DA20D1D700C0D159A0C0D1B800D8D50
:1044F000300B8D320E2DE205BA40D63D900F0D25C2
:104500009009CD22119E6024069DC60FB30300487A
:10451000FEC0A80E5D74050C061A10F81F080F36B1
:10452000112D6D0C7D030700040024F40000000031
:04000005080001D915
:00000001FF
