:020000040800F2
:10000000C8160020F1010008432500087D1F0008E4
:1000100041250008BD080008FB2D00080000000075
:100020000000000000000000000000005B28000845
:10003000BF08000800000000452500085D280008F2
:100040000B0200080B0200080B0200080B0200085C
:100050000B0200080B0200080B0200080B0200084C
:100060000B0200080B0200080B0200080B0200083C
:100070000B0200080B0200080B0200080B0200082C
:100080000B020008000000000B0200080B02000831
:100090000B0200080B0200080B0200080B0200080C
:1000A0000B0200080B0200080B0200080B020008FC
:1000B000D9280008E52800080B0200080B020008F8
:1000C0000B0200080B0200080B0200080B020008DC
:1000D0000B0200080B0200080B0200080B020008CC
:1000E0000B0200080B0200080B0200080B020008BC
:1000F0000B0200080B0200080B02000800000000C1
:10010000000000000B020008000000000B020008C5
:100110000B020008000000000B0200080B020008A0
:100120000B0200080B0200080B0200080B0200087B
:100130000B02000800000000000000000B02000895
:100140000B0200080B020008000000000000000085
:10015000000000000000000000000000000000009F
:100160000000000000000000000000000B0200087A
:100170000B0200080000000000000000000000006A
:10018000000000000B02000800000000000000005A
:10019000000000000000000000000000000000005F
:1001A00000000000000000000B0200080B02000825
:1001B0000B0200080B0200080B0200080000000000
:1001C000000000000B02000800000000000000001A
:1001D0000B0200080B020008DFF810D000F0FCFA58
:1001E00000480047F9360008AFF30080C816002029
:1001F0000648804706480047FEE7FEE7FEE7FEE7C1
:10020000FEE7FEE7FEE7FEE7FEE7FEE7C928000897
:10021000D9010008D2B201E000F8012B491EFBD23F
:1002200070470022F6E710B513460A460446194601
:10023000FFF7F0FF204610BD2DE9FE4F81EA0304D1
:1002400004F0004421F0004100944FF0000B23F033
:10025000004350EA01045ED052EA03045BD0C3F3CA
:100260000A54C1F30A552C44A4F2F3340194A0FBC0
:100270000254C1F3130141F48011C3F3130343F497
:10028000801301FB024400FB034E840A970A44EAF0
:10029000815447EA8357A4FB076802958D0A05FB42
:1002A00007854FEA932C04FB0C542705029D4FEA67
:1002B000065847EA1637B5EB08056EEB070C870EB4
:1002C000920E47EA811742EA8312A7FB0201B6EBBE
:1002D0000B0164EB00042B0D43EA0C335E1844EB76
:1002E0001C50DA465146E7FB0201C5F313044FEAFE
:1002F0000B3343EA14534FEA0432019C43EA0603EA
:10030000A4F10C040294009CCDE900B400F0CFF8F5
:1003100003B0BDE8F08F00200146F9E70EB540F2CA
:10032000334102910021CDE900110A460B4600F04D
:10033000BEF803B000BD00F0004230F000400AD02B
:10034000C10D01F56071C0F3160042EA0151C20807
:1003500040071143704700200146704701F00043F9
:1003600030B421F0004150EA010206D00A0DA2F596
:100370006072C1F31301002A02DC30BC0020704718
:10038000440F44EAC104C100E01830BC00EBC25085
:1003900000F047B830B50B4601460020202201246A
:1003A00009E021FA02F59D4205D303FA02F5491B43
:1003B00004FA02F52844151EA2F10102F1DC30BD59
:1003C0002DE9F05F0546002092469B46884606468A
:1003D000814640241BE0284641464746224600F01D
:1003E0001CFA53465A46C01A914110D3114618467A
:1003F000224600F003FA2D1A67EB01084F46224609
:100400000120002100F0FAF917EB00094E41201EEF
:10041000A4F10104DFDC484631462A464346BDE8E4
:10042000F09F0029A8BF7047401C490008BF20F07A
:100430000100704710B4B0FA80FC00FA0CF050EAEA
:10044000010404BF10BC704749B1CCF1200421FA6B
:1004500004F411FA0CF118BF012121430843A3EB66
:100460000C01CB1D4FEA00614FEA102042BF002073
:1004700010BC704700EBC35010440029A4BF10BC4F
:100480007047401C490008BF20F0010010BC7047B5
:1004900010B5141E73F1000408DA401C41F100018C
:1004A00092185B411A4301D120F0010010BD2DE9E3
:1004B000F04D92469B4611B1B1FA81F202E0B0FADA
:1004C00080F22032904600F099F904460F4640EA47
:1004D0000A0041EA0B0153465A46084313D011461D
:1004E00053EA010019D0C8F14002504600F095F9D6
:1004F00005460E4650465946424600F07FF90843ED
:1005000005D0012004E020463946BDE8F08D0020EA
:10051000054346EAE0762C4337430A986305E40A2C
:10052000A0EB08000022FD0A44EA47540A3002D535
:1005300000200146E9E7010510196941DDE9084598
:1005400000196941BDE8F04DA2E72DE9FE4F804654
:1005500081EA0300C00F0C46009021F0004123F017
:100560000045B8EB0200A94105D24046214690461D
:100570001C460B46024623F00040104347D0270D8F
:10058000C7F30A00C3F30A510290401A01904028B1
:100590006BDAC3F3130040F4801B0098924620B13D
:1005A0000023D2EB030A63EB0B0B01985946C0F111
:1005B0004002504600F022F906460D465046594684
:1005C000019A00F03AF910EB08006141002487EA33
:1005D000115284EAE7731A4340D0009A62B3019A39
:1005E000012A4FEA075215DC001B61EB02014FF0B4
:1005F000004202EA0752CDE90042001C41F5801199
:1006000032462B46FFF753FF03B0BDE8F08F40465C
:100610002146F9E7001B61EB0201001C41F5801344
:1006200000185B412018A2F5001747EB030140EAD0
:10063000D570B6196D4111E06D084FEA360645EAEE
:10064000C0754FEA0752001B61EB0201001C41F527
:10065000801149084FEA30000019514132462B46BB
:1006600003B0BDE8F04FFFF713BF00980122400030
:100670000023D0EB020263EBE073009821464FEABF
:10068000E074B8EB000061EB0401E9E783F000439C
:100690005BE781F0004158E72DE9F04D81EA030462
:1006A00004F0004B21F0004514464FF0000A23F0FF
:1006B000004150EA050220D054EA01021DD0C5F3E2
:1006C0000A570246C5F31303C1F31300C1F30A56D8
:1006D00040F4801543F48013A7EB0608101BD646A0
:1006E00008F2FD3873EB050002D308F1010801E0C0
:1006F00092185B41B8F1000F03DA00200146BDE813
:10070000F08D00204FF48011064684460EE0171B42
:1007100073EB050705D3121B63EB050306434CEA95
:10072000010C49084FEA300092185B4150EA01077A
:10073000EDD152EA030012D082EA040083EA0501F7
:10074000084305D0101BAB4106D20122002306E06E
:1007500000224FF0004302E06FF0010253101AEB49
:1007600006004CEB085110EB0A0041EB0B01BDE811
:10077000F04DFFF78DBEC1F30A52C1F3130140F2F1
:10078000FF3341F480119A4202DA0020014670479B
:1007900040F233439A42A2F2334202DC524200F06A
:1007A0003CB800F02BB8000030B5041E71F1000415
:1007B00004DB4FF00044404264EB0101141E73F16E
:1007C000000405DB1C464FF00043524263EB040378
:1007D000994208BF904230BD064C074D06E0E068E4
:1007E00040F0010394E8070098471034AC42F6D378
:1007F000FFF7F6FCE437000804380008202A04DB81
:10080000203A00FA02F1002070479140C2F1200323
:1008100020FA03F3194390407047202A04DB203A62
:1008200021FA02F00021704721FA02F3D040C2F110
:1008300020029140084319467047202A06DBCB1757
:10084000203A41FA02F043EAE07306E041FA02F38B
:10085000D040C2F12002914008431946704770B55C
:100860008D1810F8014B14F0030201D110F8012B80
:10087000231106D110F8013B03E010F8016B01F8D9
:10088000016B521EF9D1ABB110F8012B04F00C042E
:100890008A1A0C2C03D0A2EB84129B1C08E010F8DF
:1008A000014BA2EB0422F8E712F8014B01F8014BCF
:1008B0005B1EF9D5A942D4D3002070BDFEE7704776
:1008C000002240F6B83306E00021491C89B2994263
:1008D000FBD3521C92B28242F6D3704770B50446E5
:1008E00000F0F8F80546601C02D004484068044453
:1008F00000F0F0F8401BA042FAD370BDF4110020C4
:100900002DE9FC4FDFF8A0A1002301250AF1040B1B
:1009100003244FF00F0C0BF1040EBDE005FA03F6B3
:1009200032406FD04F68012F05D0022F03D0112F16
:1009300001D0122F17D1D0F808905F0004FA07F801
:1009400029EA08090097D1F80C8008FA07F848EA64
:100950000908C0F808804768B7430E79C6F3001647
:100960009E403E434660C6684FEA430804FA08F7D3
:10097000BE4301978F6807FA08F73743C7604E6890
:10098000022E01D0122E13D1DE0800EB860600964F
:10099000366A5F07FF0E0CFA07F926EA0906D1F856
:1009A000109009FA07F949EA0609009EC6F8209056
:1009B0000668019FBE430F7907F0030707FA08F79F
:1009C000374307604E68F60065D5384E376E47F0FE
:1009D00001073766366E23F0030706F0010600961E
:1009E000334E3E44B146B6689F074FEA17780CFA7B
:1009F00008F7BE43B0F1904F05D02E4FB84204D156
:100A0000012717E047E0002714E02B4FB84201D13F
:100A100002270FE0294FB84201D103270AE0284FEF
:100A2000B84201D1042705E0264FB84201D105277D
:100A300000E0062707FA08F73743C9F80870DAF824
:100A400000605746D1F8048096435FEAC83800D565
:100A500016433E60DBF800605F46D1F804809643A1
:100A60005FEA883800D516433E60DEF800607746BE
:100A7000D1F8048096435FEAC82800D516433E604B
:100A8000094F0C373E68D1F8048096435FEA882806
:100A900000D516433E605B1C0A6832FA03F67FF409
:100AA0003DAFBDE8FC8F0000000401400010024093
:100AB000000001400004004800080048000C004805
:100AC00000100048001400480AB18161704781623B
:100AD000704700000148806870470000F411002052
:100AE000024881684268114481607047F411002017
:100AF00010B50024032000F073F8002000F008F87F
:100B000008B1012401E000F025F8204610BD0000E6
:100B100070B50E4E05460024706898B14FF47A7196
:100B2000B1FBF0F00A490968B1FBF0F000F0FCFB02
:100B300040B9102D06D200222946501E00F030F890
:100B4000356000E00124204670BD0000F411002053
:100B5000001200200A4882B0016E41F001010166D6
:100B6000016E01F001010091816D41F080518165BC
:100B7000806D00F08050009002B000F0A1B800003D
:100B800000100240002809DB00F01F020121914003
:100B90004009800000F1E020C0F80011704700001B
:100BA000F0B40E4B1B680C46C3F30223C3F10705D8
:100BB000042D00D90425191D072901D2002300E0C6
:100BC000DB1E012606FA05F1491E214099409E4090
:100BD000761E16403143F0BC02F024B90CED00E063
:100BE000064900F0070208684FF6FF03184040EA84
:100BF0000220034A10430860704700000CED00E03B
:100C00000000FA052B492C4B0A6832214A432B4934
:100C100040B1B0F5007F086829D020F4C06040F4EE
:100C200080602CE00868C0F34120022804D051F80D
:100C3000800F20F4807022E0D1F8800020F48070D2
:100C4000C1F88000086820F4C06040F400700860BB
:100C5000B2FBF3F0401C00E0401E4A69520501D58A
:100C60000028F9D1486940050AD503207047C0F330
:100C70004120022806D051F8800F40F480700860AF
:100C800000207047D1F8800040F48070C1F88000E7
:100C9000086820F4C06040F400700860B2FBF3F014
:100CA000401C00E0401E4A695205DBD50028F9D1FE
:100CB000D8E700000012002040420F000070004002
:100CC0000248816841F480418160704700700040B3
:100CD0002DE9F0470E4605004FF0000725D0DFF85C
:100CE000AC81D8F8000000F00F00B0420CD2D8F868
:100CF000001021F00F013143C8F80010D8F80000AF
:100D000000F00F00B04210D12968614CC80741F2D1
:100D1000883A5AD06868DFF87C91032808D0022806
:100D200020682DD0400500282CDB0120BDE8F0878D
:100D300020688001F9D5E06800F00302E068C0F3A4
:100D40000310401C032A19D0534A00BFB2FBF0F035
:100D5000E268C2F306225043E268C2F34162521CC9
:100D60005200B0FBF2F0484517D9A06810F0F00F20
:100D70000CD0880711D5A86840B10EE0474AE5E7D6
:100D80008003D0E700F092F8484506D9A06820F02B
:100D9000F00040F08000A0608027A068696820F023
:100DA00003000843A060FFF795FE814606E000BF00
:100DB000FFF790FEA0EB090151453AD8A068696899
:100DC00000F00C00B0EB810FF2D12868810714D538
:100DD000400703D5A06840F4E060A06028780007D1
:100DE00005D5A06820F4605040F4E060A060A068E1
:100DF000A96820F0F000084304E0802F03D1A06828
:100E000020F0F000A060D8F80010404601F00F017B
:100E1000B14216D9016821F00F0131430160FFF79B
:100E200059FE074607E000BFFFF754FEC11B5145BE
:100E300001D903207AE7D8F8000000F00F00B04293
:100E4000F2D12878400705D5A068E96820F4E06071
:100E50000843A0602878000706D5A068296920F417
:100E6000605040EAC100A06000F020F8A1680C4A80
:100E7000C1F30311515C01F01F01C840094908602A
:100E800009480068BDE8F047FFF742BE0020024075
:100E90000010024000B4C4040024F40000366E01C7
:100EA000D437000800120020F4110020184910B5B2
:100EB0008868C0F381021748012A0BD08A68164B54
:100EC000C2F38102022A06D08A68C2F38102032A91
:100ED00003D0002010BD184610BDCA6802F00304FC
:100EE000CA68C2F30312521C032C02D0B0FBF2F00A
:100EF00001E0B3FBF2F0CA68C968C2F306225043AE
:100F0000C1F34161491C4900B0FBF1F010BD000084
:100F1000001002400024F40000366E012DE9F84371
:100F200004007AD02078FA4DC00747D0A868E96855
:100F300000F00C0001F003010C2802D0082817D0A3
:100F400001E0032914D06068B0F5803F17D0B0F5F8
:100F5000A02F286817D020F480302860286820F45B
:100F6000802028606068E0B1FFF7B4FD064614E019
:100F70002868800322D560680028D2D01EE0286847
:100F800040F48030EDE740F480202860F7E700BFB0
:100F9000FFF7A0FD801B642870D828688003F7D570
:100FA0000CE0FFF797FD064605E000BFFFF792FD56
:100FB000801B6428F0D828688003F7D42078800745
:100FC0004CD5A868E96800F00C0001F003010C287A
:100FD00002D004280DD001E002290AD0E0680028E0
:100FE00028682BD040F480702860FFF773FD064618
:100FF00019E02868400502D5E068002891D06868AB
:10100000217C20F0FE4040EA01606860C148006831
:10101000FFF77EFD002800D120E076E1FFF75AFDC2
:10102000801B0228B8D828684005F7D56868217C5D
:1010300020F0FE4040EA016068600FE020F480701C
:101040002860FFF747FD064605E000BFFFF742FDB9
:10105000801B0228A0D828684005F7D42078000714
:1010600029D560690028D5F8940013D040F001001C
:10107000C5F89400FFF72EFD064606E090E000BF9D
:10108000FFF728FD801B022886D8D5F8940080073A
:10109000F6D510E020F00100C5F89400FFF71AFD26
:1010A000064604E0FFF716FD801B022878D8D5F825
:1010B00094008007F6D42078400761D5A86D0026FB
:1010C000C00008D4A86D40F08050A865A86D012626
:1010D00000F08050009090480168C90511D4016863
:1010E000804641F480710160FFF7F4FC074604E09C
:1010F000FFF7F0FCC01B022852D8D8F80000C0054A
:10110000F6D5A068012815D00528D5F8900016D08E
:1011100020F00100C5F89000D5F8900020F0040000
:10112000C5F89000A06841F28838B8B1FFF7D2FC4A
:1011300007460EE0D5F8900040F00100F0E740F0DF
:101140000400C5F89000F5E7FFF7C4FCC11B41455A
:1011500026D8D5F890008007F6D50CE0FFF7BAFC4A
:10116000074604E0FFF7B6FCC11B414518D8D5F887
:1011700090008007F6D41EB1A86D20F08050A865BD
:101180002078800629D5A0690028D5F8980013D0CA
:1011900040F00100C5F89800FFF79CFC064606E009
:1011A00077E000BFFFF796FC801B022877D8D5F8C0
:1011B00098008007F6D510E020F00100C5F89800EF
:1011C000FFF788FC064604E0FFF784FC801B02283A
:1011D00065D8D5F898008007F6D4E069F0B3A9681F
:1011E000C1F38101032961D00228286820F08070B2
:1011F00028600BD0E86820F00300E860E868474901
:101200000840E860FFF766FC04464BE0FFF762FC2D
:10121000064604E0FFF75EFC801B02283FD82868E2
:101220008001F7D4F4E908016FF00F0202EB01111D
:101230000843218A5204490802EB4151A26841EA5D
:1012400002210843217D4FF07E42490802EB4161B3
:101250000843217B40EAC160E96800E062E0304A6F
:1012600011400843E860286840F080702860E86812
:1012700040F08070E860FFF72DFC044605E000BFF9
:10128000FFF728FC001B022809D828688001F7D541
:1012900048E004E0FFF71EFC001B022802D90320EF
:1012A000BDE8F88328688001F4D43BE00128F7D03A
:1012B000E868226A00F00301914226D1616A00F0D9
:1012C000F0020901103991421FD1A26A00F4FE41D7
:1012D000B1EB022F19D194F82C2000F07841B1EB3A
:1012E000C26F12D1218E00F4C00249084905A1F550
:1012F0000011914209D194F8341000F0C0604908FF
:101300004906A1F1007181420CD00120C8E700001C
:1013100000100240F411002000700040FFFFEEFEBC
:101320000C809F010020BBE710B5401EB0F1807F0C
:1013300001D3012010BD4FF0E02460610F21601740
:1013400001F070FD0020A06107202061002010BD89
:10135000704770477047704770477047F0B590F816
:101360003C20012A3AD0012580F83C50022280F826
:101370003D2003685A689C68194E1A4FB34201D049
:10138000BB4204D122F4700C4A6842EA0C02DFF836
:1013900058C002EA0C02D1F800C04CEA020CC3F8B3
:1013A00004C00268B2420DD0B2F1804F0AD00F4B98
:1013B0009A4207D00E4B9A4204D0BA4202D00D4B4B
:1013C0009A4204D1896824F080031943916080F81F
:1013D0003D50002180F83C100846F0BD0220F0BDD1
:1013E000002C0140003401408FFFFFFD000400404D
:1013F0000008004000400140704710B5040003D0D1
:1014000094F83D0010B107E0012010BD002084F8E1
:101410003C00204600F022F8022084F83D00211D07
:10142000206801F065FA012084F8480084F83E0045
:1014300084F83F0084F8400084F8410084F84200BA
:1014400084F8430084F8440084F8450084F846009A
:1014500084F8470084F83D00002010BD08B50068FE
:101460000B49884212D10B48816D41F00201816520
:10147000806D002200F00200009011461D20FFF751
:101480008FFBBDE808401D20FFF77CBB08BD0000B6
:10149000000400400010024070B5044690F83C0083
:1014A000012814D0012584F83C50022084F83D0026
:1014B00022689068344B184020F47F4090600868A0
:1014C000702827D010DC10F00F0F03D04AE04FF047
:1014D000020070BD4FEA2012072A43D2DFE802F073
:1014E0005050505048313900284BC21A984247D0CA
:1014F00009DCB0F5805F35D0B0F5005F15D0B0F1F4
:10150000101F2FD13CE0102A3AD0202A38D0502A80
:1015100028D135E0CB68D1E90121206801F04DFAEE
:101520002068816841F0770109E0CB68D1E90121A9
:10153000206801F042FA2068816841F480418160AE
:1015400010E0CA684968206801F0E2FB5021206879
:1015500006E0CA684968206801F022FC6021206822
:1015600001F036FA84F83D50002084F83C0070BD4C
:10157000CA684968206801F0CBFB40212068EFE78A
:10158000226801461046EBE788FFCEFF20001000DE
:101590002DE9F0412DED048B007F022870D1424CE3
:1015A000424D0127607805F19806002858D001289F
:1015B0006AD0022864D10421284600F0C9FCB0603A
:1015C0000421284600F0FEF9D6E900012278081A25
:1015D000801AE060B368591A8E1A2661FEF79EFEE3
:1015E0009FED339B53EC192BFEF726FEFEF7B6FE5C
:1015F00008EE100A304684ED058AFEF78FFE53ECA4
:10160000192BFEF719FEFEF7A9FE00EE100AB7EE41
:10161000001A84ED060A38EE000A0020C1EE000A26
:101620009FED251A60EE810AC4ED020AC8EE000A99
:101630009FED220A20EE800A84ED010A6070277077
:101640002868016A21F0A00101622868016A01622C
:101650002846BDEC048B0421BDE8F04100F01EB922
:101660000421124800F074FC30602868016A21F0FF
:10167000A00101622868016A41F0200101626770DF
:10168000BDEC048BBDE8F0810421084800F060FC4B
:1016900070602868016A21F0A00101622868016A6F
:1016A000016202206070EBE7D811002004120020D4
:1016B000FCA9F1D24D62503F00007A440000C842BC
:1016C0002DE9F041054690F83C000C46012836D043
:1016D000012085F83C008AB3042A42D02868082AF1
:1016E00051D0D4E90023E168066A26F480560662E8
:1016F000C669076A26F4407646EA03234FF6FF766A
:1017000006EA013123F4704319434FF4204627F4CD
:10171000204306EA02321A43C16102622868C169A5
:1017200021F44061C1612868C169A26841EA0221CF
:10173000C161002085F83C00BDE8F08101E0022095
:10174000FAE7D4E90012E368286801F0F3FA2868A0
:10175000816921F00C01816128688169A2681143C7
:101760000FE0D4E90012E368286801F02BFB286839
:10177000816921F44061816128688169A26841EA38
:1017800002218161D5E7D4E90027267B016A21F493
:1017900080710162C169036A21F00301394321F0BC
:1017A000F00731074FF4206647EA116123F4206304
:1017B00006EA02221A43C16102622868C16921F067
:1017C0000C01C1612868C169A2681143B0E710B576
:1017D000040003D094F83D0010B107E0012010BDD3
:1017E000002084F83C00204600F022F8022084F813
:1017F0003D00211D206801F07BF8012084F848009D
:1018000084F83E0084F83F0084F8400084F84100EA
:1018100084F8420084F8430084F8440084F84500CA
:1018200084F8460084F8470084F83D00002010BD8D
:1018300010B586B0044614216846FEF7F2FC206815
:10184000B0F1804F25D11448816D41F001018165CF
:10185000816D01F001010591C16C41F00101C1648C
:10186000C06C694600F001000590022000900190D4
:10187000002002900390012004904FF09040FFF769
:101880003FF8002211461C20FFF78AF91C20FFF7C1
:1018900079F906B010BD00000010024010B50446F2
:1018A00079B1042912D0082915D00C2918D0102993
:1018B00019D094F8430000BF94F84720012817D1AD
:1018C00014E094F83E0094F84420F7E794F83F00C1
:1018D00094F84520F2E794F8400094F84620EDE7AC
:1018E00094F84100E8E794F84200E5E7012A01D0C6
:1018F000012010BD022071B1042915D008291CD087
:101900000C2948D0102949D084F8430084F84700B6
:101910000C291BD145E084F83E0084F8440020687F
:10192000C26842F0020210E084F83F0084F84500EB
:101930002068C26842F0040207E084F8400084F89E
:1019400046002068C26842F00802C2600122206896
:1019500001F026F81549206888420ED0B0F1804F7A
:101960000BD01349884208D01249884205D0124949
:10197000884202D01149884207D18168104A11403B
:10198000062906D0B1F5803F03D0016841F001017E
:101990000160002010BD84F84100B7E784F84200E0
:1019A000B4E72068C26842F01002CEE7002C014084
:1019B00000040040000800400034014000400140A5
:1019C0000700010030B5044600680D0006D0042D64
:1019D00008D0082D2ED00C2D08D12FE0C16821F0A1
:1019E000020102E0C16821F00401C1600022294621
:1019F000206800F0D5FF2068016A41F211121142FF
:101A000007D1016A9200114203D1016821F001015E
:101A100001600120B5B1042D17D0082D18D00C2D70
:101A20001AD0102D1BD084F8430000BF84F8470063
:101A3000002030BDC16821F00801D6E7C16821F05F
:101A40001001D2E704F83E0F04E004F83F0F01E074
:101A500004F8400FA071EBE784F84100E6E784F852
:101A60004200E3E770B50446006801694FF00005E5
:101A7000C943890715D4C168C943890711D4E91E30
:101A8000016101202077206880698007204602D00C
:101A9000FFF77EFD04E000F00BF9204600F0CAF9E4
:101AA000257720680169C943490717D4C168C9432C
:101AB000490713D46FF004010161022020772068E8
:101AC000806910F4407F204602D0FFF761FD04E0FA
:101AD00000F0EEF8204600F0ADF9257720680169A6
:101AE000C943090716D4C168C943090712D46FF066
:101AF00008010161042020772068C0698007204622
:101B000002D0FFF745FD04E000F0D2F8204600F0D7
:101B100091F9257720680169C943C90617D4C168BE
:101B2000C943C90613D46FF0100101610820207762
:101B30002068C06910F4407F204602D0FFF728FDDE
:101B400004E000F0B5F8204600F074F9257720682D
:101B50000169C943C90708D1C168C943C90704D18C
:101B6000891E0161204600F0E5F920680169C9433A
:101B7000090609D4C168C943090605D46FF080017C
:101B800001612046FFF7E5FB20680169C943C905EB
:101B900009D4C168C943090605D46FF48071016195
:101BA0002046FFF7D5FB20680169C943490609D4DF
:101BB000C168C943490605D46FF040010161204660
:101BC00000F0DBF920680169C943890609D4C168BE
:101BD000C943890605D46FF0200101612046FFF753
:101BE000B9FB20680169C943C90209D4C168C94366
:101BF000C90205D46FF4801101612046FFF7ACFBE8
:101C000020680169C943890209D4C168C9438902AE
:101C100005D46FF4001101612046FFF79CFB20689A
:101C20000169C943490209D4C168C943490205D4BD
:101C30006FF4800101612046FFF78FFB2068016986
:101C4000C94309020BD4C168C943090207D46FF420
:101C5000000101612046BDE87040FFF7CDBB70BDBB
:101C600010B586B0044614216846FEF7DAFA0E492C
:101C70002068884215D10D48C16C41F00101C16452
:101C8000C06C002100F0010005904020009002206F
:101C9000CDE90101CDE9031069464FF09040FEF710
:101CA0002FFE06B010BD00000004004000100240EE
:101CB000704770B5044690F83C000D4601280BD0E3
:101CC000012084F83C000C2A45D007DC5AB1042AD4
:101CD0001BD0082A78D12CE0022070BD102A4ED0EB
:101CE000142A71D15DE0206800F07CFE20688169D3
:101CF00041F0080181612068816921F0040181615E
:101D0000206881692A69114311E0206800F0B8FE5B
:101D10002068816941F4006181612068816921F452
:101D200080618161206881692A6941EA02218161BB
:101D30004AE0206800F0ECFE2068C16941F008012B
:101D4000C1612068C16921F00401C1612068C169D5
:101D50002A69114311E0206800F022FF2068C16960
:101D600041F40061C1612068C16921F48061C161F1
:101D70002068C1692A6941EA0221C16124E0206822
:101D800000F056FF2068016D41F0080101652068F0
:101D9000016D21F0040101652068016D2A6911437C
:101DA00011E0206800F07CFF2068016D41F40061C3
:101DB00001652068016D21F4806101652068016D75
:101DC0002A6941EA02210165002084F83C0070BDC7
:101DD00010B5040003D094F83D0010B107E00120D5
:101DE00010BD002084F83C00204600F022F80220BC
:101DF00084F83D00211D206800F07AFD012084F860
:101E0000480084F83E0084F83F0084F8400084F8DD
:101E1000410084F8420084F8430084F8440084F8C8
:101E2000450084F8460084F8470084F83D0000200F
:101E300010BD70477047000030B50446022269B1FA
:101E4000042912D0082917D00C291CD0102921D020
:101E500094F84300012824D0012030BD94F83E00BE
:101E60000128F9D184F83E201DE094F83F000128B4
:101E7000F2D184F83F2016E094F840000128EBD11D
:101E800084F840200FE094F841000128E4D184F860
:101E9000412008E094F842000128DDD184F8422076
:101EA00001E084F843200122206800F079FD194BFD
:101EB00020681949194A984209D0884207D09042AF
:101EC00005D0174DA84202D0164DA84203D1456C4B
:101ED00045F400454564206898420CD0B0F1804F2D
:101EE00009D0114B984206D0104B984203D088423B
:101EF00001D0904207D181680D4A1140062906D0D1
:101F0000B1F5803F03D0016841F00101016000207C
:101F100030BD0000002C0140003401400040014071
:101F20000044014000480140000400400008004017
:101F300007000100044900680968884203D1034989
:101F40000878401C0870704704120020D811002047
:101F50000246002041B1042909D008290AD00C29E1
:101F600001D11068006C70471068406B70471068B2
:101F7000806B70471068C06B70477047FEE70000C9
:101F800000B585B014216846FEF74BF94FF6FF7097
:101F9000009000200321CDE902010190694602482A
:101FA000FEF7AEFC05B000BD0008004800B585B0E6
:101FB00014216846FEF735F94FF6FF7000900120B6
:101FC0000190032003900020029069460248FEF72A
:101FD00097FC05B000BD00000008004870B5002463
:101FE00006462146204600F003F900F041F94FF47F
:101FF0009635304600F010F9641CAC42F9D370BD40
:1020000030B587B014216846FEF70BF91E48C16C45
:1020100041F00401C164C16C01F004010591C16C7F
:1020200041F00101C164C16C01F001010591C16C75
:1020300041F00201C164C06C012500F0020005906E
:102040004FF44870CDE900050024039469460294DA
:102050000E48FEF755FC280203940090CDE9015488
:102060004FF0904469462046FEF74AFCFFF79EFF7A
:10207000A06940F48070A06104481830016841F400
:102080000871016007B030BD001002400004004834
:10209000203AD2B2034B02EB420203EB021200F0F1
:1020A00019B8000006000020F0B50E4607460025CE
:1020B00040F23F1407E021463846FFF7E9FF103CA5
:1020C0006D1CA4B2761C3278002A01D0142DF2D3F4
:1020D000F0BD00002DE9F04791468A4600260446EF
:1020E00000F086F8DFF84080012700BF00F0C0F85C
:1020F0005FF0000539F8160007FA05F1084240467E
:1021000001D1408800E0008800F086F86D1C102D99
:10211000F0D3641CE4B25146204600F069F8761C06
:10212000182EE3D3BDE8F0870000002010B5FFF7BC
:1021300067FF002000F014F8084CA080A088A0F5EC
:102140000241303906D000F087FA002000F008F88C
:10215000A08010BD00F0F7F9F7E7000000000020B4
:1021600070B51D490A6842F400720A600A6842F4B8
:1021700080720A60184C103C226842F020022260F3
:10218000164A1060086840F02000086000BF00BFD9
:1021900000BF206840F020002060206840F480707C
:1021A0002060FFF7EDFE4FF09041886A40F48070A8
:1021B000886200BF00BF00BF0848001F006885B2EA
:1021C000886940F480708861FFF7F0FE206840F471
:1021D00000702060284670BD28040048140800489C
:1021E00001B5BDF800000149488008BD000000208D
:1021F00010B50C460146202000F068F82146BDE8E5
:102200001040212000F062B801B5BDF8000001497E
:10221000088008BD00000020134A116841F40071D5
:102220001160114910390B6843F480730B600B681F
:1022300043F020030B600D4B1860106840F0200045
:10224000106000BF00BF00BF086840F020000860B9
:10225000086840F48070086000BF00BF00BF0868D5
:1022600040F40070086070472804004814080048D3
:102270001449086840F400700860086840F48070F1
:10228000086010481038026842F0200202600E4BCD
:1022900022221A600A6842F020020A6000BF00BFD2
:1022A00000BF016841F020010160016841F48071C4
:1022B000016000BF00BF00BF016841F40071016010
:1022C000704700002804004814080048184B10B557
:1022D0001A6842F400721A601A6842F480721A6036
:1022E000134A103A146844F020041460114C206022
:1022F000186840F02000186000BF00BF00BF1068E1
:1023000040F020001060106840F480701060216080
:10231000186840F02000186000BF00BF00BF1068C0
:1023200040F020001060106840F48070106010BD14
:1023300028040048140800482DE9F04F87B0142104
:102340006846FDF76EFF3848C16C41F00401C16476
:10235000C16C01F004010591C16C41F02001C16420
:10236000C16C01F020010591C16C41F00101C16413
:10237000C16C01F001010591C16C41F00801C1641B
:10238000C16C01F008010591C16C41F00201C1640A
:10239000C06CDFF8988000F002004FF6FF740590E3
:1023A000002221464046FEF78FFB4FF480764FF027
:1023B0009049002231464846FEF786FBDFF870A0C0
:1023C000002204215046FEF77FFBDFF868B04FF48F
:1023D0004877002239465846FEF776FB0125CDE9BD
:1023E000004500240294694640460394FEF788FAAB
:1023F0000096CDE90154694648460394FEF780FAF9
:1024000004200090CDE90154694650460394FEF73C
:1024100077FA0097CDE90154694658460394FEF7D0
:102420006FFA07B0BDE8F08F0010024000080048C6
:10243000000C00480004004810B588B0002418487B
:102440000594069404940094019402944FF0804102
:10245000039401604F21C0E90114611EC0E9031417
:102460008461FFF7B4F908B172B6FEE7049404A9D9
:102470000B480694FEF772FF08B172B6FEE7012022
:10248000CDE9004002940422694605480394FFF711
:1024900017F9002801D072B6FEE708B010BD0000A1
:1024A0000412002010B58EB00024079408940994FB
:1024B0000A940B940C941C2168460D94FDF7B1FE10
:1024C0001E481D4901604F21C0E901140921C0E9DE
:1024D00003148461FEF791FF08B172B6FEE74FF472
:1024E0008050079007A91548FEF7D6FF08B172B6CD
:1024F000FEE71248FFF76CFC08B172B6FEE70B94DA
:102500000BA90E480D94FEF729FF08B172B6FEE73D
:10251000602000900220CDE90104002269460748AE
:102520000494FFF7C6FB08B172B6FEE70348FFF755
:1025300097FB0EB010BD00000004004050120020B8
:10254000FEE7FEE7704730B501210020FFF7BEFE31
:102550004FF47A70FEF7B4F900210120FFF7B6FEC0
:1025600041F290711020FFF7B1FE4FF41C51602032
:10257000FFF7ACFE01216120FFF7A8FE02214620F3
:10258000FFF7A4FE48F210011320FFF79FFE48F268
:10259000FE011220FFF79AFE4FF4A0610220FFF720
:1025A00095FE41F230010320FFF790FE40F2033424
:1025B00021463020FFF78AFE21463120FFF786FEB4
:1025C00021463220FFF782FEE51E29463320FFF721
:1025D0007DFE03213420FFF779FE21463520FFF7E9
:1025E00075FE14213620FFF771FE21463720FFF7D4
:1025F0006DFE21463820FFF769FE21463920FFF79E
:1026000065FE29463A20FFF761FE03213B20FFF7D4
:102610005DFE21463C20FFF759FE4FF4A0513D20BE
:10262000FFF754FE4FF400719220FFF74FFE214652
:102630009320FFF74BFE40F60D019020FFF746FE7A
:1026400041F218010320FFF741FEBDE8304040F29F
:1026500073110720FFF73ABE10B543F20801E320DB
:10266000FFF734FE1221E720FFF730FE41F231215F
:10267000EF20FFF72BFE00210120FFF727FE4FF48C
:10268000E0610220FFF722FE41F230010320FFF754
:102690001DFE00210420FFF719FE40F2072108204B
:1026A000FFF714FE00210920FFF710FE00210A2089
:1026B000FFF70CFE00210C20FFF708FE00210D2083
:1026C000FFF704FE00210F20FFF700FE002110207D
:1026D000FFF7FCFD07211120FFF7F8FD0021122074
:1026E000FFF7F4FD00211320FFF7F0FDC820FEF7EF
:1026F000F5F841F290611020FFF7E8FD40F2272144
:102700001120FFF7E3FD3220FEF7E8F81D2112202B
:10271000FFF7DCFD3220FEF7E1F84FF400611320F3
:10272000FFF7D4FD14212920FFF7D0FD0B212B202A
:10273000FFF7CCFD3220FEF7D1F800212020FFF773
:10274000C5FD00212120FFF7C1FD07213020FFF743
:10275000BDFD40F207713120FFF7B8FD06213220A0
:10276000FFF7B4FD40F204713520FFF7AFFD41F6ED
:1027700004713620FFF7AAFD04213720FFF7A6FDDC
:1027800000213820FFF7A2FD40F206713920FFF743
:102790009DFD40F201713C20FFF798FD0F213D2087
:1027A000FFF794FD00215020FFF790FDEF2151200D
:1027B000FFF78CFD00215220FFF788FD40F23F110A
:1027C0005320FFF783FD4FF41C516020FFF77EFD7F
:1027D00001216120FFF77AFD00216A20FFF776FDD5
:1027E00000218020FFF772FD00218120FFF76EFDA0
:1027F00000218220FFF76AFD00218320FFF766FD9C
:1028000000218420FFF762FD00218520FFF75EFD97
:1028100010219020FFF75AFD00219220FFF756FD6E
:1028200003219320FFF752FD4FF488719520FFF7A5
:102830004DFD00219720FFF749FD00219820FFF76B
:1028400045FD41F218010320FFF740FDBDE81040AF
:1028500040F273110720FFF739BD7047FEF740B90A
:1028600000B593B038216846FDF7DBFC14210EA8B3
:10287000FDF7D7FC4FF40070FEF7C4F90220C10148
:102880000391402104910090079008901421CDE914
:1028900009010B900C900D906846FEF73FFB08B1C4
:1028A00072B6FEE70F200E9003200F9000201090CC
:1028B0001190129002210EA8FEF70AFA002801D00A
:1028C00072B6FEE713B000BD0248016841F4700122
:1028D0000160704788ED00E00148FFF7C3B80000D1
:1028E000041200200148FFF7BDB80000501200207C
:1028F0002DE9F0430268234B234D244E244C4FF026
:102900008049984207D0484505D0A84203D0B0423C
:1029100001D0A04203D122F070074A683A431D4F0C
:10292000DFF874C0DFF8748098420DD048450BD0B2
:10293000A84209D0B04207D0A04205D0B84203D087
:10294000604501D0404503D122F44075CA682A434E
:102950004D6922F080022A4302608A68C2620A68D6
:102960008262984207D0A04205D0B84203D06045A9
:1029700001D0404501D10969016301214161BDE8F0
:10298000F0830000002C01400004004000080040DB
:102990000034014000400140004401400048014033
:1029A00010B501F01F030121046A99408C430462B1
:1029B000016A9A401143016210BD10B5846842EA71
:1029C000032224F47F440A432243826010BD0000A6
:1029D0008268034B1A400A4342F007018160704746
:1029E0008FFFCFFF2DE9F043026A22F0010202625D
:1029F000056A436882691C4C25F0020522400C6878
:102A000022F0030214438A68194E2A43174D194FC6
:102A1000DFF864C0DFF86490A84207D0B04205D068
:102A2000B84203D0604501D0484506D122F00808DD
:102A3000CA6842EA080222F00402A84207D0B04263
:102A400005D0B84203D0604501D0484505D14D6955
:102A500023F440731D438B692B43436084614968B1
:102A600041630262BDE8F0838FFFFEFF002C01404E
:102A70000034014000400140004401400048014052
:102A8000F0B5026A22F010020262056A42688369A8
:102A9000194C1B4E23400C6823F4407343EA042472
:102AA00025F020038D6843EA0513144DA84201D098
:102AB000B04206D1CF6823F0800343EA071323F026
:102AC0004003A8420AD0B04208D00E4DA84205D01B
:102AD0000D4DA84202D00D4DA84207D14D6922F4F8
:102AE000406242EA85028D6942EA85024260846161
:102AF000496881630362F0BDFF8FFFFE002C014037
:102B000000340140004001400044014000480140C1
:102B1000F0B5026A22F480720262056A4368C269F3
:102B2000194C1B4E22400C6822F00302144325F47A
:102B300000728D6842EA0522144DA84201D0B042CD
:102B400006D1CF6822F4006242EA072222F48062B2
:102B5000A8420AD0B04208D00E4DA84205D00E4D72
:102B6000A84202D00D4DA84207D14D6923F440532D
:102B700043EA05138D6943EA05134360C46149685C
:102B8000C1630262F0BD00008FFFFEFF002C014018
:102B90000034014000400140004401400048014031
:102BA000F0B5026A22F480520262056A4268C36983
:102BB000194C1B4E23400C6823F4407343EA042451
:102BC00025F400538D6843EA0533144DA84201D023
:102BD000B04206D1CF6823F4004343EA073323F41D
:102BE0008043A8420AD0B04208D00E4DA84205D07A
:102BF0000D4DA84202D00D4DA84207D14D6922F4D7
:102C0000404242EA85128D6942EA85124260C461FF
:102C1000496801640362F0BDFF8FFFFE002C014094
:102C200000340140004001400044014000480140A0
:102C300030B5026A22F480320262046A4268036D8F
:102C4000114D2B400D681D4324F400330C8943EAD9
:102C500004430E4CA0420BD00D4CA04208D00D4CAA
:102C6000A04205D00C4CA04202D00C4CA04204D192
:102C70004C6922F4803242EA0422426005654968C8
:102C80008164036230BD00008FFFFEFF002C014015
:102C90000034014000400140004401400048014030
:102CA00030B5026A22F480120262046A4268036D3F
:102CB000114D24F400142B400D6843EA05230D89BF
:102CC00044EA05540D4DA8420BD00D4DA84208D042
:102CD0000C4DA84205D00C4DA84202D00B4DA84285
:102CE00004D14D6922F4802242EA852242600365C4
:102CF0004968C164046230BDFF8FFFFE002C0140B3
:102D000000340140004001400044014000480140BF
:102D100010B5036A046A24F001040462846924F093
:102D2000F00444EA021423F00A020A4384610262B6
:102D300010BD000070B5046A24F0010404628469C7
:102D4000056A124EB0420ED0B0F1804F0BD0104E3B
:102D5000B04208D00F4EB04205D00F4EB04202D064
:102D60000E4EB04203D124F00304144301E044F0BA
:102D700001041A0724F0F00444EA126225F00A0361
:102D800001F00A0119438261016270BD002C01400B
:102D900000040040000800400034014000400140B1
:102DA00010B5036A23F0100303628369046A23F4F5
:102DB000704343EA023224F0A00343EA0111826126
:102DC000016210BD30B5046A24F010040462846905
:102DD000056A24F4407444EA022222F470444FF657
:102DE000FF7202EA03322243A02425F0A00304EA82
:102DF000011119438261016230BDFEE70FB4084B37
:102E000010B504A902AA039800F0EEF8044602A93E
:102E1000002000F06CFC204610BC5DF814FB0000A4
:102E2000EF3600080907090E002804DB00F1E02056
:102E300080F80014704700F00F0000F1E02080F8E7
:102E4000141D704702E008C8121F08C1002AFAD1F9
:102E500070477047002001E001C1121F002AFBD11A
:102E6000704700002DE9FF5F82B00021DDE90430EA
:102E7000020DDDF840B0034318D044F61050A2F222
:102E8000FF3242431514119801281FD0A5EB0B0007
:102E9000401C5FEA000A4FF000064E4FDFF8389101
:102EA000B046504615D5CAF1000413E0119801242C
:102EB0004AA3012801D16FEA0B010298119AC0E9D7
:102EC0000031C0E9024206B0BDE8F09FCBF100003E
:102ED000DFE704460021404A491842EB0450CDE99F
:102EE000001012E0E00707D032463B464046494614
:102EF000FDF7A2F98046894632463B461046194600
:102F0000FDF79AF906460F466410002CEAD1DDE978
:102F10000401DDE90023BAF1000F06DAFDF78CF9B0
:102F200042464B46FDF788F905E0FDF7B5FB424602
:102F30004B46FDF7B1FB04460E460022284BFDF739
:102F400033FC03D84FF0FF30014607E00022254B49
:102F500020463146FDF7F9FAFDF70DFC102409E093
:102F6000002C0ADB0A220023FDF72AFA039B3032E9
:102F70001A55641E50EA0102F2D1641C039AC4F18E
:102F800011031444119A012A03D0012208430DD1E0
:102F90000AE0084304D000204FF0110B119072E7B3
:102FA000A3EB0B056D1E0DE05B4504DD4FF0000249
:102FB00005F1010504E003DA4FF00002A5F1010577
:102FC000002AECD002981199C0E90231C0E900450D
:102FD00079E70000000014400000F03F30000000DE
:102FE0000000F0430000E03F2DE9FF4F95B09A4606
:102FF000884606460025EEE1252877D1002427469D
:10300000F94A0121039400E0044316F8013F203BF4
:1030100001FA03F01042F7D130782A2811D06FF06E
:103020002F033078A0F13002092A16D8039A44F011
:10303000020402EB820203EB42021044761C03906E
:10304000EFE758F8042B0392002A03DA504244F4C5
:103050000054039044F00204761C30782E2816D1D8
:1030600016F8010F44F004042A280DD06FF02F0247
:103070003078A0F13003092B09D807EB870302EB66
:103080004303C718761CF3E758F8047B761C3078A6
:103090006C280FD006DC4C2817D068280DD06A2881
:1030A00014D104E0742810D07A280FD10DE044F434
:1030B00000140AE044F4801401E044F440147278EF
:1030C000824202D104F58014761C761C3078662882
:1030D0000BD013DC582877D009DC002875D04528A0
:1030E000F6D04628F4D047281AD193E118E0632897
:1030F00035D0642879D0652812D18BE1702873D03F
:1031000008DC6728F1D069286FD06E280DD06F28B1
:1031100006D1ACE073282CD0752874D0782853D011
:103120005246179990476D1C54E1C4F3025002288F
:1031300009D003280DD0D8F8001004280DD00D6058
:1031400008F1040846E1D8F80010EA17C1E9005276
:10315000F6E7D8F800100D80F2E70D70F0E718F8E8
:10316000041B8DF8001000208DF80100EB460120B3
:1031700003E058F804BB4FF0FF3061074FF0000147
:1031800002D40DE009F101018946B9420FDA814507
:10319000F8DB1BF809100029F4D108E009F101015E
:1031A00089468142FADB1BF809100029F6D1039801
:1031B0005346A0EB090721463846179A00F080FADB
:1031C000284400EB090507E044E008E10DE01BF8A6
:1031D000010B524617999047B9F10109F7D25346AE
:1031E00021463846179AF2E039E00A21C4F3025228
:1031F0004FF0000B0091022A06D058F8040BC117BB
:10320000032A09D00AE023E008F1070020F00702B2
:10321000F2E80201904605E000B2C117042A01D18C
:1032200040B2C117002906DA0A460021404261EB8C
:1032300002012D2202E0220504D52B228DF8042064
:10324000012203E0E20701D02022F7E7914657E090
:103250000A2100E010214FF0000B00910BE010213B
:103260004FF0000B44F004040827009103E008200D
:103270004FF0000B0090C4F30252022A05D058F818
:10328000040B0021032A08D008E008F1070020F011
:103290000702F2E80201904603E080B2042A00D15E
:1032A000C0B24FF0000922072AD53278702A07D021
:1032B000DDF800C08CF0100C5CEA0B0C05D00EE0C1
:1032C00040228DF80420012208E050EA010306D0D4
:1032D00030238DF804308DF8052002229146009BA2
:1032E00083F0080353EA0B030AD150EA010201D12B
:1032F000620705D530228DF804204FF001097F1EAA
:103300003278582A04D039A20C920CAA02920BE00F
:103310003BA2F9E75B46009AFDF752F80C9B9B5CD9
:10332000029A521E0292137050EA0102F2D10298E0
:1033300004A9081A00F1200B600702D524F4803498
:1033400000E001275F4502DDA7EB0B0000E0002055
:1033500000EB0B01009003984944401A0390E003EE
:1033600006D453462146179A039800F0A9F905445C
:10337000002706E001A85246C05D179990476D1CD2
:103380007F1C4F45F6DBE0030CD553462146179AC8
:10339000039800F095F9054404E03020524617994F
:1033A00090476D1C0099481E00900029F5DC08E04C
:1033B0000298029952460078491C02911799904749
:1033C0006D1CBBF10001ABF1010BF1DC5BE100F026
:1033D00065F90544761C307800287FF40DAE19B0ED
:1033E0002846BDE8F08F0000092801003031323353
:1033F0003435363738396162636465660000000031
:10340000303132333435363738394142434445461A
:1034100000000000600700D4062708F1070020F034
:103420000700F0E80223804603F0004C5FEA0C003E
:1034300001D097A009E0200501D596A005E0E0079E
:1034400001D095A001E0AFF24C001390307823F04A
:10345000004365280CD006DC452809D046281DD03D
:1034600047287FD13BE0662818D067287AD136E01C
:103470000021112F01DB112000E0781CCDE90001B3
:1034800004A90CA8FFF7EEFCDDE90D010C9A4FF042
:10349000000B07F10109109200914EE04FF000403F
:1034A0000097CDE9011004A90CA8FFF7DBFCDDE9CA
:1034B0000D020C9B0F994FF0000B91461093009258
:1034C00011B9791C00EB0109B7EB090003D4C0F175
:1034D000FF3B07F10109A9EB0700019042E0012F32
:1034E00000DA01270021112F01DD112000E038460C
:1034F000CDE9000104A90CA8FFF7B4FCDDE90D013A
:103500000C9A00914FF0000BB946109221070FD48E
:10351000009A4A4503DA914601E0A9F10109B9F19F
:10352000010F05DD109AA9F10101515C3029F4D099
:10353000B84202DA10F1040F03DA0121CDE90110DB
:1035400010E0002803DC8344A9EB000102E0411CE9
:10355000494500DD8946A0EB0B00401C01904FF06F
:1035600000400290200705D40198484502DB4FF047
:10357000FF30019000208DF84B0002980DF14B07B1
:10358000B0F1004F25D002200C902B200D90029816
:1035900000280CDA404202902D200D9007E00A210D
:1035A0000298FCF7F7FE3031029007F8011D0C99E4
:1035B000481E0C900029F2DC02980028EFD1791EF9
:1035C0000D980870307800F0200040F0450007F8B2
:1035D000020D11A8C01BC01D02901398007800B105
:1035E000012000EB0901019801EBE0710298014410
:1035F0000398401A401E0390E00306D45346214628
:10360000179A039800F05CF805441398007818B1F5
:103610005246179990476D1CE00323D55346214627
:10362000179A039800F04CF805441BE0BBF1000F1B
:1036300007DB0098584504DD1098179910F80B0027
:1036400001E0179930205246904701980BF1010B89
:10365000401E05F10105019004D12E205246179914
:1036600090476D1CB9F10001A9F10109DEDC05E00C
:1036700017F8010B5246179990476D1C0299481E86
:1036800002900029F4DC53462146179A03989EE6DF
:103690002D0000002B000000200000002DE9F0416B
:1036A000044600251E461746880404D405E0394622
:1036B0002020B0476D1C641EF9D52846BDE8F08176
:1036C0002DE9F041044600251E469046C80301D569
:1036D000302700E02027880404D505E0414638461D
:1036E000B0476D1C641EF9D52846BDE8F0810A6814
:1036F000531C0B6010707047FDF7FAF9FFF7B0F834
:10370000FEF71AFEFEF798FEFEF7CCFEFEF70EFD62
:103710004FF6FF742046FEF761FC2046FEF760FD81
:103720000020FEF771FD00211E48FEF785FB1D49B4
:103730004C390868026A22F0A00202620868016A35
:103740000162184804214C38FEF7A8F8164C00BF57
:1037500094ED020A10EE100AFCF7EDFD41EC100B9F
:10376000104853EC102B11A15830FFF747FB0D49BF
:1037700018205831FEF798FC94ED010A10EE100A5B
:10378000FCF7D9FD41EC100B064853EC102B0CA1B3
:103790005830FFF733FB034930205831FEF784FCE3
:1037A000D6E7000050120020D811002020204672D9
:1037B000653A20252E3066202020202020000000A1
:1037C0002020447574793A20252E30662020202050
:1037D000202000000000000000000000010203049F
:1037E0000607080904380008000000200412000041
:1037F0005E080008903E000804120020C404000087
:10380000542E00080006310000FFFF00010316805F
:103810000102611EE13292CC02012A6A23600C028D
:10382000200F30063006FE1FFE1F30063807180333
:103830000A2007180318038C01023172201700E0D8
:1038400003F80F9C0E8C1C8C188C009800F801E07B
:1038500007800E800E100B189C18B80CF00FE003B8
:103860008026A15A10090E181B0C110C110602100B
:10387000110311039B018E01C038C06C6044604489
:10388000300260071844186C0C38BE1005E001F0D7
:10389000037A10140618063003F001F000F8009CBB
:1038A000310E33061E061C02E0063FFC73F021B801
:1038B000920C020121E7100B0200038001C000C03E
:1038C000006002D230022114211C155E12032A1559
:1038D000163220123570120302D20602111425A2EC
:1038E000214ED6208821481008D806F807E001307C
:1038F000D2052AEAC405FC3FFC3FE8092C3012003F
:1039000002021B806C080532E007E0078E41D6F505
:103910007F750C155C351045624564D17AE00A0369
:10392000F007380E180C0C1802D409180C380EF0D9
:1039300007E003B0214C0C071901F0019801880839
:1039400003A16043F80F5E220002219C35F025ECB4
:10395000D0071800FC1FFC1F90100701F807180E75
:103960000C0121C81805C003C00751113C41920247
:1039700010F8904C0B0C000E000F000F800DC030A3
:1039800003116B270C0CB209148513F80F903189C1
:103990003009EC03FC071C0E001C98115E0005109A
:1039A0001C0C180E602009C007F00F381C181832C4
:1039B0005409CC03EC0F3C0E1C1C2006121C2031B9
:1039C000D24582357C16C07A3AE0C85A70DE0514BA
:1039D00080215384073806F007F0078CE005380C87
:1039E000F80F604130521C2430091C1C381EF81B93
:1039F000E019D1130C1CC00B1BF0018A012114012A
:103A00001F30091ACE1C0510001C80720416F8DC49
:103A10001AF85C17800F600A1810F8C3F81F080D19
:103A20001E1405180708003800F00114121F611653
:103A30001F9C13013814091770796E6D2603FD2E33
:103A4000033D7C03400C18180420C229224A11446B
:103A50000902EC0C221113E20C0240042018189801
:103A60000315D4200403C00602396E2218022C0765
:103A7000F83FF83F1C70AF052119D9106C0503FC05
:103A80000F0C5E0310040CFC070E1A18A541021E51
:103A9000180003FA0770BC0A1F38381C300C700677
:103AA00060DD04E008600C701C30F01F903C08FEE4
:103AB00003FE0F060E06A105B1022DB305E8050EA3
:103AC000FE0FFEA01DCC048DA20529AEADB0053DB4
:103AD0003803C5A211DC4DBB032D27038005F81F59
:103AE000F81F0E4DD303DDCA043C0C0FF83F3C78A1
:103AF0000E6006E007C0810411A11DC5031533DC6B
:103B0000090EC03CF0F83FE00FBF03A23002319E27
:103B1000B1120F260C3080070D15A0050214060205
:103B20002531DC063807F003E0B004353A10140CF8
:103B3000060606038601C60066007600DE008E01DA
:103B4000060312360C64DD4105021B18022530CD38
:103B5000210320050EE01EF0024336D8022366CC76
:103B60000252C601E40586C386C32010041C303C03
:103B700002126C0212CC0210058C310C3302123688
:103B800002123C02E638201C05E007F81F990419D0
:103B90003EA303C002F80806600E701C38F8401BF4
:103BA000FC0F02CA38920E190CC407916082E05EC5
:103BB000140907E006630E3F1C3CE0CEF79106199E
:103BC0008258041F06389C1E38C00876074C49B23C
:103BD0000E106030065DDE041D9B051BF8033033BC
:103BE0001E00401C050E301C1C1005ED00030804CF
:103BF0002A7FFE7F10E95EA97E0710181820430374
:103C000060BC6D14072D16072D940914057007600C
:103C100003631DE005E13023C361028366330223A1
:103C20006C1B02CC092C1A3C1E380E380E31051CB8
:103C3000090FE00C70183030183F043C040EC00728
:103C40005E04140503E00670F71D8107D006300EF0
:103C50006007E0602D79044C08301C383818300CAF
:103C600065030D1C80075C05FC7FFC7F6D07DD7C18
:103C7000072D2708253EED10082FE003AE06011E94
:103C80000221282DA60A6DA6094DA8091D64096DFB
:103C90000E0B7E03A009F1600221000261601D820B
:103CA000071D4407256C3F6003D70429190139011A
:103CB000CFFFFFF80B0D2DAE0A9D4A081805F00343
:103CC000F807AA2C070C000FF00FF8B1081F0C1C06
:103CD0005C080F16F01820041ED8A80B1E383708F1
:103CE00081012DE0070F17D803DA091D9A096F30FB
:103CF0000E39092DA3081E309009EEC00009711F6E
:103D00002805C01BF01F368160000719301CF01F0A
:103D1000C01B601E0F83066E18D4051952EC051CDB
:103D2000F00FC0F00644040FC00FDA2D9C0855E4D4
:103D3000B1020D17D40A1E0DFA093DCA0961011D11
:103D4000600924050FE00D002A6E06AA0895204F91
:103D500007F86A09D1010D16F00A0215C002012EFA
:103D60003041DEEC04F80078BE0C1C050C0C060C8F
:103D70006A0D100DCC006C00FC009C018C030C0340
:103D8000120E100C560C011C020D169009E0097C55
:103D90003CFF7EC7E383C1020D16EA0B0623982081
:103DA0000510E099101D0E0E0A17C0700916A00D1F
:103DB00016EA070917700D151B081EB06E07FE7076
:103DC000E20D0E1830140D1E037A0E1D1A0B1DF293
:103DD000093D060C0D15900C1D020F0919A00F17B7
:103DE0000780EA0D09106A1238C01D4C0B0D15DB57
:103DF0000A4DFE053E18920F1DB7060E140300066D
:103E00008DF80F3008C141C141C3616301323601F1
:103E1000321C010D16F00F3E1CF70952605A1D5E50
:103E2000061D75061E38E10B0117C01D36061D382C
:103E3000062E1828102FE00C940A2D3E064DF00D8A
:103E40001DA20D1D700C0D159A0C0D1B800D8D30D3
:103E50000B8D320E2DE205BA40D63D900F0D259008
:103E600009CD22119E6024069DC60FB3030048FEB3
:103E7000C0A80E5D74050C063610F81F080FFC056F
:103E80002D890C7D1F0700040024F40000000000B1
:04000005080001D915
:00000001FF
