:020000040800F2
:10000000A8050020F10100080D340008BB280008F5
:1000100009340008D10300088D45000800000000E5
:100020000000000000000000000000005938000837
:10003000D5030008000000000F3400085B380008FA
:100040000B0200080B0200080B0200080B0200085C
:100050000B0200080B0200080B0200080B0200084C
:100060000B0200080B0200080B0200080B0200083C
:100070000B0200080B0200080B0200080B0200082C
:100080000B020008000000000B0200080B02000831
:100090000B0200080B0200080B0200080B0200080C
:1000A0000B0200080B0200080B0200080B020008FC
:1000B0000B0200080B020008093900080B020008B7
:1000C0000B0200080B0200080B0200080B020008DC
:1000D0000B0200087D4500080B0200080B02000817
:1000E0000B0200080B0200080B0200080B020008BC
:1000F0000B0200080B0200080B02000800000000C1
:10010000000000000B020008000000000B020008C5
:100110000B020008000000000B0200080B020008A0
:100120000B0200080B0200080B0200080B0200087B
:100130000B02000800000000000000000B02000895
:100140000B0200080B020008000000000000000085
:10015000000000000000000000000000000000009F
:100160000000000000000000000000000B0200087A
:100170000B0200080000000000000000000000006A
:10018000000000000B02000800000000000000005A
:10019000000000000000000000000000000000005F
:1001A00000000000000000000B0200080B02000825
:1001B0000B0200080B0200080B0200080000000000
:1001C000000000000B02000800000000000000001A
:1001D0000B0200080B020008DFF810D000F092F8C4
:1001E00000480047D5490008AFF30080A80500206B
:1001F0000648804706480047FEE7FEE7FEE7FEE7C1
:10020000FEE7FEE7FEE7FEE7FEE7FEE7ED38000863
:10021000D90100082DE9F05F0546002092469B4673
:1002200088460646814640241BE02846414647460C
:10023000224600F057F853465A46C01A914110D34F
:1002400011461846224600F03EF82D1A67EB0108C9
:100250004F4622460120002100F035F817EB000937
:100260004E41201EA4F10104DFDC484631462A46F7
:100270004346BDE8F09FD2B201E000F8012B491ED1
:10028000FBD270470022F6E710B513460A46044633
:100290001946FFF7F0FF204610BD30B50B4601466A
:1002A00000202022012409E021FA02F59D4205D315
:1002B00003FA02F5491B04FA02F52844151EA2F1BF
:1002C0000102F1DC30BD202A04DB203A00FA02F101
:1002D000002070479140C2F1200320FA03F3194334
:1002E00090407047202A04DB203A21FA02F00021D6
:1002F000704721FA02F3D040C2F120029140084336
:1003000019467047064C074D06E0E06840F00103CF
:1003100094E8070098471034AC42F6D3FFF760FF2B
:10032000B85C0008D85C000823480078022842D155
:1003300022480078012804D0022815D0032839D19A
:1003400025E01F481F49097850F82100401C1C492E
:100350001C4A127841F82200182804DB0020194AB0
:10036000127841F8220025E017481649097850F81C
:100370002100401C1449134A127841F822003C28FD
:1003800004DB00200F4A127841F8220012E00F48E7
:100390000C49097850F82100401C0C49094A127890
:1003A00041F822003C2804DB0020064A127841F87C
:1003B000220000BF00BF70470C0000201400002086
:1003C0005C0100200D000020740100208C01002041
:1003D00000BFFEE77047002109E0002201E0531C46
:1003E0009AB240F6B8339A42F9DB4B1C99B281427B
:1003F000F3DB704700B589B04748027847A101A8F0
:1004000004F0C6F801A9182002F006FD464800785D
:10041000012817D145484049097850F8210000903B
:1004200043483D49097850F8213042483A49097813
:1004300050F8212040A101A804F0AAF801A9482001
:1004400002F0EAFC38480078022841D140480078A0
:1004500001280CD14FF4784002F0B0FD354A082154
:10046000072000F0A1F8002002F0A8FD04E0314AC6
:100470000821072000F098F83548007802280CD1B0
:100480004FF4784002F09AFD294A0C210B2000F02D
:100490008BF8002002F092FD04E0254A0C210B208D
:1004A00000F082F82A48007803280CD14FF47840F5
:1004B00002F084FD1D4A10210F2000F075F8002085
:1004C00002F07CFD04E0194A10210F2000F06CF8C6
:1004D000204811490978405C30B1012809D0022830
:1004E0000CD0032814D10EE01BA1782002F094FC5C
:1004F0000EE01EA1782002F08FFC09E020A17820F8
:1005000002F08AFC04E023A1782002F085FC00BF01
:1005100000BF09B000BD00000D00002020202020F9
:100520004E6F2025640000000C0000208C0100208C
:10053000740100205C0100202020202020202025A4
:100540003032643A20253032643A2025303264005B
:10055000140000200E000020202020202020202039
:100560005374616E646279202000000020202020F6
:100570002020202053657474696E672020000000DD
:10058000202020202020202052756E6E696E67206A
:1005900020000000202020202020202050617573A2
:1005A00065202020200000002DE9F04105460E4680
:1005B00014461548007814F820000A2190FBF1F049
:1005C0003030C7B240F23F10102202FB150081B25A
:1005D0003A46482002F00CFC0B48007814F8200042
:1005E0000A2190FBF1F201FB12003030C7B240F259
:1005F0003F10102202FB160081B23A46482002F05A
:10060000F7FBBDE8F08100000D00002070470146B7
:10061000002091F82520022A03D00422CA63012079
:1006200027E00A68126822F00E020B681A608A6CD2
:10063000126822F480728B6C1A600A68126822F0C9
:1006400001020B681A6091F8442002F01F03012296
:100650009A400B6C5A60D1E913325A604A6D42B12C
:100660004A6D126822F480724B6D1A60D1E916321D
:100670005A60012281F8252000BF002281F8242041
:1006800000BF704770B50446002594F82500022885
:100690000BD00420E063012084F8250000BF002077
:1006A00084F8240000BF012534E02068006820F0B1
:1006B0000E00216808602068006820F001002168B1
:1006C0000860A06C006820F48070A16C086094F849
:1006D000440000F01F0101208840216C4860D4E9EB
:1006E00013104860606D40B1606D006820F4807048
:1006F000616D0860D4E916104860012084F8250077
:1007000000BF002084F8240000BFA06B10B1204679
:10071000A16B8847284670BD70B5044600F00AF901
:1007200006462546681C10B104480068054400BF11
:1007300000F000F9801BA842FAD370BD2C00002005
:1007400078B503460022D0E0012696400D6805EA00
:100750000604002C72D04D68012D08D04D68022D82
:1007600005D04D68112D02D04D68122D13D1986817
:1007700056000325B540A8435600CD68B540284330
:100780009860586801259540A8430D79C5F3001578
:10079000954028435860D86856000325B540A843C3
:1007A00056008D68B5402843D8604D68022D02D0B0
:1007B0004D68122D13D1D60803F1200555F82600F7
:1007C0005507EE0E0F25B540A8435607F60E0D69E6
:1007D000B5402843D60803F1200545F826001868DF
:1007E00056000325B540A8430D7905F003055600D2
:1007F000B540284318604D6805F08055B5F1805F1D
:1008000072D100BF3C4D2D6E45F001053A4E356664
:1008100035462D6E05F00105009500BF00BF4FEA7B
:10082000B635960855F8260095072E0F0F25B540CA
:10083000A843B3F1904F02D100251AE054E02F4DA8
:10084000AB4201D1012514E02D4DAB4201D102256F
:100850000FE02C4DAB4201D103250AE02A4DAB42FB
:1008600001D1042505E0294DAB4201D1052500E069
:1008700006259607360FB5402843254D960845F8BE
:100880002600244D2868A0434D6805F48035B5F551
:10089000803F00D120431F4D28602D1D2868A043B4
:1008A0004D6805F40035B5F5003F00D12043194DE2
:1008B0002D1D28602D1D2868A0434D6805F4801566
:1008C000B5F5801F00D12043124D083528602D1D3D
:1008D0002868A0434D6805F40015B5F5001F00D148
:1008E00020430C4D0C352860521C0D68D540002D5E
:1008F0007FF42AAF78BD00000010024000040048D9
:1009000000080048000C004800100048001400488F
:100910000800014000040140024613690B400BB17E
:10092000012000E0002070470AB1816100E081628F
:100930007047000001480068704700002400002054
:100940000348006803490968084401490860704782
:10095000240000202C00002010B50024032000F00B
:10096000ABF8002000F008F808B1012401E000F025
:100970002FF8204610BD000070B504460025114830
:100980000068D8B10F4800684FF47A71B1FBF0F0FD
:100990000D490968B1FBF0F6304600F02BFF58B95D
:1009A000102C07D200222146501E00F047F80748BD
:1009B000046004E0012502E0012500E0012528464D
:1009C00070BD00002C000020300000202800002016
:1009D00008B500BF0E48006E40F001000C490866E3
:1009E0000846006E00F00100009000BF00BF00BF8D
:1009F0000846806D40F0805088650846806D00F0A4
:100A00008050009000BF00BF00F0F6F808BD000065
:100A1000001002400146084600280DDB00BF00BF61
:100A200000F01F0301229A4043099B0003F1E023D9
:100A3000C3F8002100BF00BF00BF70472DE9F05F81
:100A400080460D46164603F0B7FD074639462A464E
:100A5000334601F00700C0F1070ABAF1040F02D9CA
:100A60004FF0040A01E0C0F1070AD14600F1040A80
:100A7000BAF1070F02D24FF0000A01E0A0F1030A19
:100A8000D4464FF0010A0AFA09FAAAF1010A0AEA61
:100A9000020A0AFA0CFA4FF0010B0BFA0CFBABF14D
:100AA000010B0BEA030B4AEA0B042146404603F014
:100AB0008BFDBDE8F09F000000BF00F00702064B71
:100AC00019684FF6FF031940044B0B4343EA022118
:100AD000014B196000BF70470CED00E00000FA0503
:100AE00002468ABB4148006800F4C060B0F5806FE0
:100AF0002BD13E488030006820F480703B4BC3F817
:100B000080001846006820F4C06040F4007018604F
:100B10003748006832235843364BB0FBF3F0411C92
:100B200000E0491E3148406900F48060B0F5806FF4
:100B300001D10029F5D12D48406900F48060B0F55D
:100B4000806F51D10320704708E02848803000684A
:100B500020F48070254BC3F8800045E0B2F5007F9B
:100B60003AD12248006800F4C060B0F5806F2AD105
:100B70001E488030006840F480701C4BC3F8800031
:100B80001846006820F4C06040F4007018601848EF
:100B9000006832235843174BB0FBF3F0411C00E0D0
:100BA000491E1248406900F48060B0F5806F01D1A1
:100BB0000029F5D10D48406900F48060B0F5806FE0
:100BC00012D10320BFE709488030006840F48070EC
:100BD000064BC3F8800007E00448006820F4C060BA
:100BE00040F48060014B18600020ACE700700040CA
:100BF0003000002040420F000348806840F48040ED
:100C00000149886070470000007000402DE9F843FA
:100C100004460027B846206800F40020B0F5002FF5
:100C200073D1B946D348806D00F0805078B900BFC9
:100C3000D048806D40F08050CE4988650846806D70
:100C400000F08050009000BF00BF4FF00109CA487B
:100C5000006840F48070C8490860FFF76BFE0646E4
:100C600006E0FFF767FE801B022801D9032705E095
:100C7000C148006800F480700028F2D000BF002F47
:100C800046D1BC489030006800F44075CDB1206C6E
:100C9000A84216D0B7489030006820F44075B54897
:100CA000D0F8900040F48030B249C1F89000084676
:100CB000D0F8900020F48030C1F890000846C0F8C9
:100CC000905005F00100A0B1FFF734FE064608E0A1
:100CD000FFF730FE801B41F28831884201D903279B
:100CE00006E0A4489030006800F002000028EFD031
:100CF00000BF5FB99F489030006820F44070216CBD
:100D000008439C49C1F8900003E00CE0B84600E0BD
:100D1000B846B9F1010F05D19648806D20F080509A
:100D20009449886500BF207800F0010048B19148DF
:100D30008830006820F00300616808438D49C1F8DD
:100D40008800207800F00200022809D18948883004
:100D5000006820F00C00A16808438649C1F88800AB
:100D6000207800F00400042809D182488830006807
:100D700020F03000E16808437E49C1F888002078FF
:100D800000F00800082809D17A488830006820F06F
:100D9000C000216908437749C1F88800207800F035
:100DA0002000202809D173488830006820F4406072
:100DB000616908436F49C1F88800207800F040005D
:100DC000402809D16B488830006820F44050A16960
:100DD00008436849C1F88800207800F08000802826
:100DE00009D164488830006820F44040E169084334
:100DF0006049C1F88800208800F48070B0F5807FD9
:100E000009D15C488830006820F44030216A0843EA
:100E10005849C1F88800208800F40070B0F5007FC0
:100E200009D154488830006820F44020616A0843A2
:100E30005049C1F88800208800F48060B0F5806FC8
:100E400013D14C488830006820F44010A16A084350
:100E5000484988310860A06AB0F5801F05D145482F
:100E6000C06840F480104349C860208800F40060E6
:100E7000B0F5006F13D13F488830006820F440007F
:100E8000E16A08433B4988310860E06AB0F5800FA9
:100E900005D13848C06840F480103649C8602088C1
:100EA00000F48050B0F5805F13D13248883000687C
:100EB00020F04070216B08432E4988310860206B78
:100EC000B0F1807F05D12B48C06840F480102949DB
:100ED000C860208800F40050B0F5005F13D12548A9
:100EE0008830006820F04060616B084321498831F8
:100EF0000860606BB0F1006F05D11E48C06840F417
:100F000080101C49C860208800F48040B0F5804FF4
:100F100013D118488830006820F04060A16B084366
:100F2000144988310860A06BB0F1006F05D11148F9
:100F3000C06840F480100F49C860208800F4004069
:100F4000B0F5004F13D10B488830006820F04050B6
:100F5000E16B0843074988310860E06BB0F1805FBE
:100F600005D10448C06840F480300249C86040465A
:100F7000BDE8F88300100240007000402DE9F04108
:100F800004460D464FF0000814B90120BDE8F08179
:100F90007D48006800F00F00A8420ED27A48006831
:100FA00020F00F002843784908600846006800F0E8
:100FB0000F00A84201D00120E8E7207800F00100EE
:100FC000002864D06068032823D17048006800F0CE
:100FD000007008B90120D9E702F01AFA06466C48F9
:100FE000864237D96948806800F0F00030B1207837
:100FF00000F0020002282DD1A06858BB6348806829
:1010000020F0F00040F08000604988604FF08008D8
:1010100020E06068022806D15C48006800F40030D7
:1010200040B90120B2E75948006800F4806008B96F
:101030000120ABE700F0DEF806465548864209D9A4
:101040005248806820F0F00040F080004F498860EE
:101050004FF080084D48806820F003006168084325
:101060004A498860FFF766FC074608E0FFF762FC24
:10107000C01B41F28831884201D9032086E74348EA
:10108000806800F00C006168B0EB810FEED1207831
:1010900000F00200022820D1207800F0040004288B
:1010A00005D13A48806840F4E0603849886020788B
:1010B00000F00800082807D13448806820F4605008
:1010C00040F4E060314988603048806820F0F000EA
:1010D000A16808432D49886008E0B8F1800F05D168
:1010E0002A48806820F0F000284988602648006877
:1010F00000F00F00A84219D92348006820F00F0023
:10110000284321490860FFF715FC074608E0FFF770
:1011100011FCC01B41F28831884201D9032035E718
:101120001948006800F00F00A842F0D1207800F0C4
:101130000400042807D11548806820F4E060E168C5
:10114000084312498860207800F00800082808D178
:101150000E48806820F46050216940EAC1000B49C4
:10116000886000F047F809498968C1F30311094A0A
:10117000515C01F01F01C84007490860074800683A
:10118000FFF7FAFB02E700000020024000100240D7
:1011900000B4C404A05C0008300000202800002037
:1011A00001480068704700003000002000B5FFF7DC
:1011B000F7FF05498968C1F30221044A515C01F037
:1011C0001F01C84000BD000000100240B05C0008D4
:1011D00000B5FFF7E5FF05498968C1F3C221044A5C
:1011E000515C01F01F01C84000BD0000001002402A
:1011F000B05C000870B5224DAD6805F00C05042DFB
:1012000001D120483AE01E4DAD6805F00C05082DCF
:1012100001D11D4832E01A4DAD6805F00C050C2DCA
:101220002BD1174DED6805F00304154DED68C5F39E
:1012300003156A1C022C0CD0032C09D1124DB5FBEE
:10124000F2F50F4EF668C6F3062605FB06F10AE036
:1012500000BF0C4DB5FBF2F5094EF668C6F3062645
:1012600005FB06F100BF00BF054DED68C5F3416504
:101270006D1C6B00B1FBF3F000E0002070BD0000BE
:10128000001002400024F40000366E012DE9F843FE
:10129000044614B90120BDE8F883207800F001006D
:1012A000002865D0FC48806800F00C07FA48C06848
:1012B00000F003060C2F01D1032E01D0082F0AD114
:1012C000F548006800F40030002851D0606800281C
:1012D0004ED10120DFE700BF6068B0F5803F06D146
:1012E000ED48006840F48030EB4908601AE060681F
:1012F000B0F5A02F0BD1E848006840F48020E64903
:1013000008600846006840F4803008600AE0E2485F
:10131000006820F48030E04908600846006820F446
:101320008020086000BF606888B1FFF703FB0546B6
:1013300006E0FFF7FFFA401B642801D90320AAE763
:10134000D548006800F400300028F2D010E0FFF724
:10135000F1FA054606E0FFF7EDFA401B642801D9D3
:10136000032098E7CC48006800F400300028F2D150
:10137000207800F00200022860D1C748806800F0A1
:101380000C07C548C06800F003060C2F01D1022EDF
:1013900001D0042F18D1C048006800F4806018B153
:1013A000E06808B9012076E7BB48406820F0FE40BD
:1013B000217C40EA0160B8494860B8480068FFF7FE
:1013C000DBFA18B3012066E7E06800B3B2480068B2
:1013D00040F48070B0490860FFF7ACFA054606E0BB
:1013E000FFF7A8FA401B022801D9032053E7AA48B7
:1013F000006800F480600028F2D0A748406820F020
:10140000FE40217C40EA0160A349486016E0A24802
:10141000006820F48070A0490860FFF78BFA054649
:1014200006E0FFF787FA401B022801D9032032E7C4
:101430009948006800F480600028F2D1207800F01C
:101440000800082836D16069D0B19348943000680C
:1014500040F001009049C1F89400FFF76BFA05468F
:1014600006E0FFF767FA401B022801D9032012E7C4
:1014700089489430006800F002000028F1D019E09B
:1014800085489430006820F001008349C1F8940039
:10149000FFF750FA054606E0FFF74CFA401B02281A
:1014A00001D90320F7E67C489430006800F0020080
:1014B0000028F1D1207800F00400042872D14FF008
:1014C00000087548806D012121EA107078B100BFD5
:1014D0007148806D40F080506F4988650846806D86
:1014E00000F08050009000BF00BF4FF001086C4832
:1014F000006800F48070B0B96948006840F48070FA
:1015000067490860FFF716FA054606E0FFF712FA8A
:10151000401B022801D90320BDE66148006800F4A1
:1015200080700028F2D000BFA068012808D15A4876
:101530009030006840F001005749C1F8900021E068
:10154000A06805280FD154489030006840F004008E
:101550005149C1F890000846D0F8900040F00100D1
:10156000C1F890000EE04C489030006820F0010077
:101570004949C1F890000846D0F8900020F00400D6
:10158000C1F8900000BFA068A8B1FFF7D3F90546E5
:1015900009E0FFF7CFF9401B41F28831884202D9B8
:1015A000032078E625E03C489030006800F0020017
:1015B0000028EED013E0FFF7BDF9054608E0FFF77D
:1015C000B9F9401B41F28831884201D9032062E613
:1015D00031489030006800F002000028EFD1B8F1E7
:1015E000010F05D12C48806D20F080502A49886574
:1015F00000BF207800F02000202836D1A069D0B1AB
:1016000025489830006840F001002349C1F898004F
:10161000FFF790F9054606E0FFF78CF9401B02281A
:1016200001D9032037E61C489830006800F002001A
:101630000028F1D019E018489830006820F0010027
:101640001549C1F89800FFF775F9054606E0FFF760
:1016500071F9401B022801D903201CE60E4898307E
:10166000006800F002000028F1D1E069002860D095
:101670000948806800F00C000C287FD0E06902283F
:1016800058D10548006820F0807003490860FFF7D2
:1016900051F905460DE0000000100240280000202E
:1016A00000700040FFF746F9401B022801D90320D3
:1016B000F1E54D48006800F000700028F2D1D4E94F
:1016C0000810401E41EA0011A06A41EA0021208E64
:1016D0000122C2EB500041EA40513420005DC2EBD0
:1016E000500041EA40612C20005D41EAC0603E4963
:1016F000C9683E4A114008433B49C8600846006833
:1017000040F0807008600846C06840F08070C86093
:10171000FFF710F9054606E0FFF70CF9401B022819
:1017200001D90320B7E53048006800F000700028B8
:10173000F2D056E02C48006820F080702A490860FA
:101740000846C06820F00300C8600846C068284901
:1017500008402549C860FFF7EDF8054607E00DE0B1
:10176000FFF7E8F8401B022801D9032093E51E4843
:10177000006800F000700028F2D132E0E069012832
:1017800000D188E51848C66806F00301206A814246
:1017900025D106F0F001606A401EB1EB001F1ED19A
:1017A00006F4FE41A06AB1EB002F18D106F0784193
:1017B0002C20005DB1EBC06F11D106F4C001208E6A
:1017C0000122C2EB5000B1EB405F08D106F0C061CE
:1017D0003420005DC2EB5000B1EB406F01D001201E
:1017E00059E5002057E50000001002400C809F01E1
:1017F000FFFFEEFE70B504462546681EB0F1807FFF
:1018000001D301200FE0681E4FF0E02148610F2155
:101810004FF0FF3002F0D8FE00204FF0E021886149
:1018200007200861002070BD7047704770477047FF
:101830007047704730B502460B4600BF92F83C0037
:10184000012801D1022030BD012082F83C0000BFF8
:10185000022082F83D0010684168106884681D4DC0
:101860001068A84203D01C4D1068A84203D121F48F
:101870007001586801431948014018680143106815
:101880004160144D1068A84213D01068B0F1804F29
:101890000FD0134D1068A8420BD0124D1068A8420B
:1018A00007D00D4D1068A84203D00F4D1068A84214
:1018B00005D124F0800498680443106884600120F6
:1018C00082F83D0000BF002082F83C0000BF00BF4E
:1018D000B9E70000002C0140003401408FFFFFFDFC
:1018E000000400400008004000400140704710B56F
:1018F00004460CB9012010BD94F83D0028B9002021
:1019000084F83C00204600F029F8022084F83D00CD
:10191000211D206802F010F8012084F8480000BF63
:1019200084F83E0001213F2001554020015541200F
:101930000155422001554320015500BF00BF012041
:1019400084F84400452001554620015547200155A3
:1019500000BF012084F83D000020CCE738B50446E4
:101960001649206888420DD100BF1548806D40F0AF
:101970000200134988650846806D00F0020000905F
:1019800000BF19E00F492068884215D100BF0C48FC
:10199000806D40F004000A4988650846806D00F0BB
:1019A0000400009000BF00BF002211461E20FFF778
:1019B00045F81E20FFF72EF838BD00000004004057
:1019C0000010024000080040014691F83D00012847
:1019D00001D001207047022081F83D000868C068EE
:1019E00040F001000B68D860184B0868984213D08B
:1019F0000868B0F1804F0FD0154B086898420BD0A3
:101A0000144B0868984207D0134B0868984203D0DB
:101A1000124B0868984210D108688068104B00EAA1
:101A20000302062A0FD0B2F5803F0CD00868006888
:101A300040F001000B68186005E00868006840F09D
:101A400001000B6818600020C4E70000002C014072
:101A50000004004000080040003401400040014004
:101A6000070001002DE9F04104460D4600BF94F83F
:101A70003C00012802D10220BDE8F081012084F859
:101A80003C0000BF022084F83D00206886683F4883
:101A9000064026F47F46206886602868702824D097
:101AA0000CDC00F00F01002964D10011072861D27D
:101AB000DFE800F05354555649353F00344A811A47
:101AC00090424FD009DCB0F5805F0DD0B0F5005FDB
:101AD00018D0B0F1101F4DD143E0102943D0202978
:101AE00042D0502946D140E045E0D5E902136A686A
:101AF000206801F090FF2068866846F0770620682D
:101B0000866038E0D5E902136A68206801F083FF37
:101B10002068806840F48040216888602BE0EA6893
:101B20006968206802F062F95021206801F07EFFA8
:101B300021E0EA686968206802F06BF9602120689A
:101B400001F074FF17E0EA686968206802F04EF956
:101B50004021206801F06AFF0DE000BF00BF00BF18
:101B600000BF00BF00BF00BF00BF2968206801F0B0
:101B70005DFF00E000BF00BF012084F83D0000BF12
:101B8000002084F83C0000BF00BF75E788FFCEFF4F
:101B900020001000704710B5044620680069C0F3AB
:101BA0004000D8B12068C068C0F34000B0B16FF009
:101BB000020021680861012020772068806900F018
:101BC000030018B12046FFF7E5FF05E0204600F0CE
:101BD00031F9204600F01BFA0020207720680069C8
:101BE000C0F38000D8B12068C068C0F38000B0B1F5
:101BF0006FF0040021680861022020772068806966
:101C000000F4407018B12046FFF7C4FF05E02046FD
:101C100000F010F9204600F0FAF900202077206843
:101C20000069C0F3C000D8B12068C068C0F3C0002C
:101C3000B0B16FF0080021680861042020772068A7
:101C4000C06900F0030018B12046FFF7A3FF05E0CC
:101C5000204600F0EFF8204600F0D9F90020207768
:101C600020680069C0F30010D8B12068C068C0F3D4
:101C70000010B0B16FF010002168086108202077D3
:101C80002068C06900F4407018B12046FFF782FF59
:101C900005E0204600F0CEF8204600F0B8F900201C
:101CA00020772068006900F0010058B12068C06802
:101CB00000F0010030B16FF001002168086120469A
:101CC00000F0BEFA20680069C0F3C01058B1206867
:101CD000C068C0F3C01030B16FF0800021680861A7
:101CE0002046FFF7A2FD20680069C0F3002058B12C
:101CF0002068C068C0F3C01030B16FF480702168F4
:101D000008612046FFF790FD20680069C0F380104D
:101D100058B12068C068C0F3801030B16FF0400047
:101D200021680861204600F037FB20680069C0F395
:101D3000401058B12068C068C0F3401030B16FF057
:101D40002000216808612046FFF770FD20680069C7
:101D5000C0F3005058B12068C068C0F3005030B1E3
:101D60006FF48010216808612046FFF761FD20684C
:101D70000069C0F3405058B12068C068C0F34050BB
:101D800030B16FF40010216808612046FFF74FFD65
:101D900020680069C0F3805058B12068C068C0F363
:101DA000805030B16FF48000216808612046FFF751
:101DB00040FD20680069C0F3C05058B12068C06879
:101DC000C0F3C05030B16FF40000216808612046B4
:101DD000FFF78CFD10BD000010B586B0044614213D
:101DE00001A8FEF74FFA1149206888421BD100BFB5
:101DF0000F48C06C40F001000D49C8640846C06C33
:101E000000F00100009000BF00BF402001900220C0
:101E100002900020039004900220059001A94FF049
:101E20009040FEF78DFC06B010BD0000000400409D
:101E300000100240704770B504460D46164600BFBC
:101E400094F83C00012801D1022070BD012084F8E3
:101E50003C0000BF0C2E51D005DC4EB1042E1ED02C
:101E6000082E7AD133E0102E60D0142EF9D175E00F
:101E70002946206801F0E6FD2068806940F00800EE
:101E8000216888612068806920F0040021688861E9
:101E900020688069296908432168886177E02946BC
:101EA000206801F025FE2068806940F40060216808
:101EB00088612068806920F48060216888612068DA
:101EC0008069296940EA0120216888615FE029462C
:101ED000206801F067FE2068C06940F008002168B2
:101EE000C8612068C06920F004002168C8612068CA
:101EF000C069296908432168C86148E0294620680B
:101F000001F0AAFE2068C06940F400602168C86141
:101F10002068C06920F480602168C8612068C069B9
:101F2000296940EA01202168C86130E0294620681B
:101F300001F0ECFE2068006D40F0080021680865A3
:101F40002068006D20F00400216808652068006D9D
:101F5000296908432168086519E017E029462068C7
:101F600001F00CFF2068006D40F4006021680865F6
:101F70002068006D20F48060216808652068006D8D
:101F8000296940EA01202168086500E000BF00BF20
:101F900000BF002084F83C0000BF00BF55E710B52B
:101FA00004460CB9012010BD94F83D0028B900206A
:101FB00084F83C00204600F029F8022084F83D0017
:101FC000211D206801F0B8FC012084F8480000BF02
:101FD00084F83E0001213F20015540200155412059
:101FE0000155422001554320015500BF00BF01208B
:101FF00084F84400452001554620015547200155ED
:1020000000BF012084F83D000020CCE770477047F6
:1020100070B504460D4615B994F83E0015E0042D40
:1020200002D13F20005D10E0082D02D14020005D6C
:102030000BE00C2D02D14120005D06E0102D02D1F5
:102040004220005D01E04320005D012801D0012015
:1020500070BD1DB9022084F83E001AE0042D03D1A2
:1020600002213F20015514E0082D03D10221402018
:1020700001550EE00C2D03D102214120015508E04D
:10208000102D03D102214220015502E002214320FC
:10209000015501222946206801F0ACFC274920683F
:1020A00088420FD02649206888420BD025492068F5
:1020B000884207D024492068884203D023492068F9
:1020C000884201D1012000E0002028B12068406C46
:1020D00040F400402168486418492068884213D0C1
:1020E0002068B0F1804F0FD01949206888420BD08A
:1020F00018492068884207D011492068884203D0D7
:1021000010492068884210D120688068124900EA8E
:102110000106062E0FD0B6F5803F0CD0206800686F
:1021200040F001002168086005E02068006840F088
:1021300001002168086000208AE70000002C0140AF
:10214000003401400040014000440140004801408B
:1021500000040040000800400700010030B50446BC
:102160000D4600222946206801F044FC2F492068D2
:1021700088420FD02E49206888420BD02D49206814
:10218000884207D02C492068884203D02B49206818
:10219000884201D1012000E0002090B100BF2068FA
:1021A000006A41F21111084050B92068006A8900A4
:1021B000084028B92068406C20F400402168486439
:1021C00000BF00BF2068006A41F21111084050B9F9
:1021D0002068006A8900084028B92068006820F05B
:1021E00001002168086000BF1DB9012084F83E008D
:1021F0001AE0042D03D101213F20015514E0082DE0
:1022000003D10121402001550EE00C2D03D1012105
:102210004120015508E0102D03D101214220015534
:1022200002E0012143200155002030BD002C014077
:10223000003401400040014000440140004801409A
:1022400010B504464848FFF7BFFB4849206888425C
:102250007ED147480078401CC0B2454908700A2822
:1022600004D10020087001204249087042480088CB
:10227000401C80B240490880B0F5FA7F07D10020A9
:1022800008803E48007880F001003C4908703C48D6
:102290000088401C80B23A490880B0F57A7F62D14C
:1022A00000200880374838490978405C02285AD114
:1022B00036483549097850F82100002846D13C209D
:1022C0003249314A127841F8220031482E490978C2
:1022D00050F8210078BB3C202D492B4A127841F858
:1022E00022002C482849097850F82100C0B9012063
:1022F0002849254A127841F822002549224A1278B5
:1023000041F82200012121481F4A127840F822108A
:1023100000211C481C4A12788154012001F08EFDD6
:102320001C481949097850F82100401E1949164ADD
:10233000127841F8220016481349097850F8210014
:10234000401E1349104A127841F822000F4800E05D
:1023500009E00D49097850F82100401E0B490A4A4E
:10236000127841F8220010BD8000002000080040D3
:102370001C000020060000201E0000200700002096
:10238000200000200E0000200D0000208C01002005
:10239000740100205C0100207047014600BF91F8E5
:1023A0008000012801D102207047012081F88000BF
:1023B00000BF2420C1F8840008680268086800682B
:1023C00020F001000B68186022F0005200204866DF
:1023D000086802602020C1F8840000BF002081F856
:1023E000800000BF00BFDFE77047704770B504464C
:1023F0000D4600BF94F88000012801D1022070BD75
:10240000012084F8800000BF2420C4F884002068E4
:1024100006682068006820F00100216808602068D4
:10242000806820F06060284321688860204601F0C1
:102430005FFD206806602020C4F8840000BF0020F3
:1024400084F8800000BF00BFD9E770B504460D4690
:1024500000BF94F88000012801D1022070BD012046
:1024600084F8800000BF2420C4F884002068066837
:102470002068006820F001002168086020688068FA
:1024800020F06040284321688860204601F030FD3C
:10249000206806602020C4F8840000BF002084F873
:1024A000800000BF00BFD9E7704770477047000049
:1024B0002DE9F04704462068C56920680668206851
:1024C000876840F60F0005EA0009B9F1000F0FD147
:1024D00005F0200060B106F0200010B907F0805030
:1024E00030B1206F10B12046216F8847BDE8F087DA
:1024F000B9F1000F7ED0AD48384018B9AC48304033
:102500000028F7D005F0010058B106F4807040B102
:10251000012021680862D4F88C0040F00100C4F862
:102520008C0005F0020058B107F0010040B1022014
:1025300021680862D4F88C0040F00400C4F88C00D4
:1025400005F0040058B107F0010040B104202168F3
:102550000862D4F88C0040F00200C4F88C0005F04A
:10256000080070B106F0200010B99048384040B122
:10257000082021680862D4F88C0040F00800C4F8F4
:102580008C0005F4006060B106F0806048B14FF443
:10259000006021680862D4F88C0040F02000C4F884
:1025A0008C00D4F88C00002844D005F0200050B1F5
:1025B00006F0200010B907F0805020B1206F10B154
:1025C0002046216F8847D4F88CA02068806800F0EE
:1025D0004000402802D00AF0280028B3204601F02D
:1025E00077FD2068806800F04000402818D12068FE
:1025F000806800E01FE020F0400021688860E06F04
:1026000050B16C48E16F8863E06FFEF73BF888B12A
:10261000E06F816B88470DE02046FFF747FF09E038
:102620002046FFF743FF05E02046FFF73FFF00206D
:10263000C4F88C005AE7E06E012879D105F010004B
:10264000002875D006F01000002871D010202168F5
:1026500008622068806800F0400040283DD1E06FAB
:10266000006840681FFA80F8B8F1000F34D0B4F861
:102670005C00404530DDA4F85E80E06F00680068D3
:1026800000F02000F8B92068006820F4807021680C
:1026900008602068806820F0010021688860206858
:1026A000806820F04000216888602020C4F88800FD
:1026B0000020E0662068006820F0100021680860B3
:1026C000E06FFDF7A4FFB4F85C00B4F85E20801A58
:1026D00081B22046FFF788FE08E734F85C0F618876
:1026E000401A1FFA80F860885C3CF8B1B8F1000F1E
:1026F0001CD02068006820F4907021680860206871
:1027000080682A49C9430840216888602020C4F8AD
:1027100088000020E06620672068006820F0100034
:102720002168086041462046FFF75EFEDEE6FFE7CF
:1027300005F4801050B107F4800038B14FF48010D8
:10274000216808622046FFF7B0FECFE605F0800062
:1027500058B106F0800010B907F4000028B1606F8E
:1027600010B12046616F8847C0E605F0400030B1E7
:1027700006F0400018B1204601F0C8FCB6E605F4AA
:10278000000030B106F0804018B12046FFF78CFE03
:10279000ACE605F0807030B106F0004018B120467C
:1027A000FFF723FEA2E600BFA0E600000100001034
:1027B00020010004B740000810B504460CB9012000
:1027C00010BDA06900B100E000BFD4F8840028B9B2
:1027D000002084F88000204600F02AF82420C4F865
:1027E00084002068006820F001002168086020460D
:1027F00001F09EFC012800D1E2E7A06A10B120465A
:1028000001F0A2FB2068406820F4904021684860F5
:102810002068806820F02A002168886020680068AD
:1028200040F0010021680860204601F009FCC7E77C
:1028300010B586B00446142101A8FDF723FD1C49FC
:102840002068884231D100BF1A48006E40F48040B1
:10285000184908660846006E00F48040009000BFEA
:1028600000BF00BF0846C06C40F00100C8640846C5
:10287000C06C00F00100009000BF00BF4FF4C060CA
:102880000190022002900020039004900720059000
:1028900001A94FF09040FDF753FF0022114625207B
:1028A000FEF7CCF82520FEF7B5F806B010BD000005
:1028B0000038014000100240704700BFFEE70000F2
:1028C00000B585B014216846FDF7DCFCC0200090FF
:1028D0000120019002900220039069460248FDF712
:1028E0002FFF05B000BD00000004004870B50825AA
:1028F000002400F071FF13E06006040E002000F0D9
:102900004BFF142002F02AF8142002F027F80120CF
:1029100000F042FF142002F021F800F051FF0443C0
:10292000281EA5F10101CDB2E6D100F035FF14203B
:1029300002F014F800F07AFF204670BD70B504462E
:10294000082517E0002000F027FF142002F006F809
:1029500004F0800000F056FF142001F0FFFF600635
:10296000040E142001F0FAFF012000F015FF1420DE
:1029700001F0F4FF281EA5F10101CDB2E2D100F073
:102980000BFF142001F0EAFF70BD10B5012000F02C
:1029900039FF142001F0E2FF012000F0FDFE1420B9
:1029A00001F0DCFF002000F02DFF142001F0D6FF25
:1029B000002000F0F1FE142001F0D0FF10BD10B592
:1029C000002000F0E9FE142001F0C8FF002000F014
:1029D00019FF142001F0C2FF012000F0DDFE1420D9
:1029E00001F0BCFF012000F00DFF142001F0B6FF44
:1029F00010BD10B5052400F0EFFE142001F0AEFF6D
:102A0000012000F0C9FE142001F0A8FF0BE0601EB9
:102A100084B2142001F0A2FF2CB900F007FFFFF7E9
:102A2000CEFF012010BD00F0CBFE0028EFD100F05A
:102A3000B3FE142001F092FF00F0F8FE0020F1E751
:102A400010B501218B48FDF767FF90B98A480078DF
:102A5000401C8949087008460078012809D1874838
:102A60000078052190FBF1F201FB1200401C834924
:102A7000087001217F48FDF74FFF012802D1002097
:102A80007D49087002217B48FDF746FF20B97C484C
:102A90000078401C7A49087002217648FDF73CFF17
:102AA000012855D176480078012827DB7448007842
:102AB000502823DC73480078012810D172486F49F0
:102AC0000978405C58B902206E490870012003E083
:102AD00001216D4A1154401C0528F9DD35E0694893
:102AE0000078022831D169480078032190FBF1F287
:102AF00001FB1200401C6549087026E06048007820
:102B0000502822DD01205F490870614801790120C9
:102B100001F048FF0520FDF7FFFD5E480179022026
:102B200001F040FF0520FDF7F7FD5B480179032028
:102B300001F038FF0520FDF7EFFD012003E0002143
:102B4000514A1154401C0528F9DD00204C490870F9
:102B500004214848FDF7E0FE98B950480078401C31
:102B60004E49087008460078012801D1FDF7DCFBCA
:102B70004A480078502804DBFDF7D6FB4B20474934
:102B8000087004213B48FDF7C7FE012802D1002050
:102B90004249087001214FF09040FDF7BDFE20B979
:102BA0003F480078401C3E49087001214FF090409A
:102BB000FDF7B2FE01285BD139480078012845DBDA
:102BC00037480078502841DC2F482C490978405C70
:102BD00028B12D4829490978405C012814D10120E9
:102BE00003E00021284A1154401C0528F9DD01208A
:102BF0002449087002212448204A12788154002177
:102C00002848FFF705FA21E01F481C490978405C75
:102C100002280CD103211C48184A12788154002143
:102C20002048FFF79BFA012001F008F90EE0164852
:102C300012490978405C032808D1022012490F4A42
:102C40001278885400211748FFF7E2F914480078F9
:102C500050280ADD0C4809490978405C022804D153
:102C600000210948054A1278815400200C49087057
:102C700010BD000000040048150000200D000020D9
:102C8000160000200C0000200E0000201400002080
:102C90005C010020740100208C0100201A0000203B
:102CA0001B0000203400002000B585B014216846C8
:102CB000FDF7E8FA4FF6FF70009000200190032026
:102CC00003900020029069460248FDF739FD05B0E7
:102CD00000BD00000008004800B585B0142168461A
:102CE000FDF7D0FA4FF6FF7000900120019003200D
:102CF00003900020029069460248FDF721FD05B0CF
:102D000000BD00000008004830B505460024002141
:102D1000084600F047F900F095F900BF03E02846A7
:102D200000F054F9641CB4F5963FF8D330BD0000B0
:102D300000B587B0142102A8FDF7A4FA00BF2A4805
:102D4000C06C40F004002849C8640846C06C00F01C
:102D50000400019000BF00BF00BF0846C06C40F0F7
:102D60000100C8640846C06C00F00100019000BF7B
:102D700000BF00BF0846C06C40F00200C8640846AF
:102D8000C06C00F00200019000BF00BF4FF448701B
:102D900002900120039000200590049002A913489E
:102DA000FDF7CEFC4FF480700290012003900020CC
:102DB0000590049002A94FF09040FDF7C1FCFFF789
:102DC0008BFF4FF09040806940F480704FF090414D
:102DD000886106481830006840F4087003491831CB
:102DE000086007B000BD0000001002400004004869
:102DF00070B505460E461446A4F12000C4B204EB9B
:102E00004400044901EB00123146284600F01AF84C
:102E100070BD0000A84A0008F0B507460C46002522
:102E200040F23F1609E0227831463846FFF7E0FFCE
:102E3000A6F1100086B2641C6D1C207808B1142D18
:102E4000F1D3F0BD2DE9F04306468946174600242C
:102E50000025A046B0464946404600F0A3F800BF12
:102E60001EE000F0EFF800250FE037F81400012114
:102E7000A940084020B90C48008800F0A7F803E0FA
:102E80000A48008800F0A2F86D1C102DEDD308F15F
:102E9000010000F0FF084946404600F083F8641C3A
:102EA000182CDED3BDE8F0830200002000000020D3
:102EB00010B5FFF73DFF002000F016F80949088023
:102EC0000846008848F23021884202D100F0D4FA46
:102ED00001E000F061FB002000F006F801490880E5
:102EE00010BD00000400002070B5044627480068AB
:102EF00040F40070254908600846006840F480707E
:102F0000086022481038006840F020001F4910393E
:102F100008601F4804601D48006840F020001B49FD
:102F2000086000BF00BF00BF18481038006840F0BC
:102F300020001649103908600846006840F4807087
:102F40000860FFF7B1FE4FF09040806A40F4807057
:102F50004FF09041886200BF00BF00BF0C48001FC7
:102F6000006885B24FF09040806940F480704FF067
:102F700090418861FFF7B0FE04481038006840F4C3
:102F80000070024910390860284670BD28040048C6
:102F90001408004801B5BDF800000149088008BDCB
:102FA0000200002030B504460D462146202000F0E6
:102FB00085F82946212000F081F830BD01B5BDF823
:102FC00000000149088008BD000000201B49096875
:102FD00041F40071194A116018491039096841F427
:102FE0008071164A103A11601146096841F02001BB
:102FF0001160134908601149096841F020010F4A26
:10300000116000BF00BF00BF0C491039096841F0D2
:1030100020010A4A103A11601146096841F4807192
:10302000116000BF00BF00BF04491039096841F4B6
:103030000071024A103A11607047000028040048ED
:10304000140800481B48006840F4007019490860E3
:103050000846006840F48070086016481038006820
:1030600040F02000134910390860222012490860FE
:103070001048006840F020000E49086000BF00BF03
:1030800000BF0C481038006840F020000949103992
:1030900008600846006840F48070086000BF00BF08
:1030A00000BF04481038006840F40070014910392E
:1030B000086070472804004814080048214A126834
:1030C00042F400721F4B1A601A46126842F4807272
:1030D0001A601C4A103A126842F02002194B103B49
:1030E0001A60194A1060174A126842F02002154B04
:1030F0001A6000BF00BF00BF124A103A126842F0C7
:103100002002104B103B1A601A46126842F480727B
:103110001A600D4A11600B4A126842F02002094BF6
:103120001A6000BF00BF00BF064A103A126842F0A2
:103130002002044B103B1A601A46126842F4807257
:103140001A607047280400481408004800B587B08A
:10315000142102A8FDF796F800BF4648C06C40F065
:1031600004004449C8640846C06C00F004000190A3
:1031700000BF00BF00BF0846C06C40F02000C8641C
:103180000846C06C00F02000019000BF00BF00BFE7
:103190000846C06C40F00100C8640846C06C00F0EE
:1031A0000100019000BF00BF00BF0846C06C40F0A6
:1031B0000200C8640846C06C00F00200019000BF25
:1031C00000BF00BF0846C06C40F00800C864084655
:1031D000C06C00F00800019000BF00BF00224FF655
:1031E000FF712548FDF7A0FB002204212348FDF7CD
:1031F0009BFB00224FF448712148FDF795FB4FF6E9
:10320000FF7002900120039000200490059002A915
:103210001948FDF795FA0120029000200390012043
:10322000049002A94FF09040FDF78AFA072002901F
:10323000002003900120049002A91148FDF780FAB4
:10324000042002900120039000200490059002A920
:103250000A48FDF775FA4FF4487002900120039078
:1032600000200490059002A90548FDF769FA07B00F
:1032700000BD00000010024000080048000C00489B
:103280000004004800B58FB000200B900C900D900A
:103290000E90089009900A901C2101A8FCF7F2FFFB
:1032A0002048214908604F20486000211E48816065
:1032B00040F2E731C160002101618161FEF717FB37
:1032C00008B1FDF7A3F94FF480500B900BA91648F5
:1032D000FEF7C8FB08B1FDF799F91348FEF75FFE4A
:1032E00008B1FDF793F9002008900A9008A90E484C
:1032F000FEF7A0FA08B1FDF789F9602001904FF4BC
:1033000048700290002003900590002201A9064811
:10331000FEF791FD08B1FDF779F90348FEF75CFD72
:103320000FB000BD000400403400002000B587B09D
:103330000020039004900590069000900190029068
:103340001448154908604F204860002112488160E8
:1033500040F2E731C160002101618161FEF7C7FAE7
:1033600008B1FDF753F94FF48050039003A90A48C0
:10337000FEF778FB08B1FDF749F9002000900290B4
:1033800069460548FEF756FA08B1FDF73FF907B060
:1033900000BD0000000800408000002010B5184863
:1033A000184908604FF416504860002115488160A4
:1033B000C16001610C21416100218161C161016233
:1033C000416200200F4988620846FFF7F5F908B10D
:1033D000FDF71CF900210B48FFF737F808B1FDF79E
:1033E00015F900210748FFF701F808B1FDF70EF9BC
:1033F0000448FEF7D2FF08B1FDF708F910BD000040
:1034000000380140CC00002000BFFEE77047704745
:1034100070B5164DED6805F00304144DED68C5F365
:1034200003156B1C022C0CD0032C09D1104DB5FBDD
:10343000F3F50E4EF668C6F3062605FB06F10AE024
:1034400000BF0C4DB5FBF3F5084EF668C6F3062633
:1034500005FB06F100BF00BF044DED68C5F34165F3
:103460006D1C6A00B1FBF2F070BD0000001002405C
:1034700000366E010024F40000B501210020FFF7A2
:103480001DFE4FF47A70FCF7A6FF00210120FFF724
:1034900015FE41F290711020FFF710FE4FF41C5101
:1034A0006020FFF70BFE01216120FFF707FE0221DC
:1034B0004620FFF703FE48F210011320FFF7FEFD40
:1034C00048F2FE011220FFF7F9FD4FF4A06102203F
:1034D000FFF7F4FD41F230010320FFF7EFFD40F26A
:1034E00003313020FFF7EAFD40F203313120FFF7CE
:1034F000E5FD40F203313220FFF7E0FD4FF440716B
:103500003320FFF7DBFD03213420FFF7D7FD40F226
:1035100003313520FFF7D2FD14213620FFF7CEFD11
:1035200040F203313720FFF7C9FD40F20331382064
:10353000FFF7C4FD40F203313920FFF7BFFD4FF420
:1035400040713A20FFF7BAFD03213B20FFF7B6FD9B
:1035500040F203313C20FFF7B1FD4FF4A0513D2074
:10356000FFF7ACFD4FF400719220FFF7A7FD40F28A
:1035700003319320FFF7A2FD40F60D019020FFF7E5
:103580009DFD41F218010320FFF798FD40F27311F1
:103590000720FFF793FD00BD10B543F20801E320BB
:1035A000FFF78CFD1221E720FFF788FD41F2312162
:1035B000EF20FFF783FD00210120FFF77FFD4FF48F
:1035C000E0610220FFF77AFD41F230010320FFF7AE
:1035D00075FD00210420FFF771FD40F2072108204E
:1035E000FFF76CFD00210920FFF768FD00210A208C
:1035F000FFF764FD00210C20FFF760FD00210D2086
:10360000FFF75CFD00210F20FFF758FD002110207F
:10361000FFF754FD07211120FFF750FD0021122074
:10362000FFF74CFD00211320FFF748FDC820FDF7F0
:1036300073F841F290611020FFF740FD40F227211E
:103640001120FFF73BFD3220FDF766F81D21122007
:10365000FFF734FD3220FDF75FF84FF400611320CF
:10366000FFF72CFD14212920FFF728FD0B212B202B
:10367000FFF724FD3220FDF74FF800212020FFF74F
:103680001DFD00212120FFF719FD07213020FFF744
:1036900015FD40F207713120FFF710FD06213220A1
:1036A000FFF70CFD40F204713520FFF707FD41F6EE
:1036B00004713620FFF702FD04213720FFF7FEFCDE
:1036C00000213820FFF7FAFC40F206713920FFF79D
:1036D000F5FC40F201713C20FFF7F0FC0F213D208A
:1036E000FFF7ECFC00215020FFF7E8FCEF21512010
:1036F000FFF7E4FC00215220FFF7E0FC40F23F110D
:103700005320FFF7DBFC4FF41C516020FFF7D6FC81
:1037100001216120FFF7D2FC00216A20FFF7CEFCD7
:1037200000218020FFF7CAFC00218120FFF7C6FCA2
:1037300000218220FFF7C2FC00218320FFF7BEFC9E
:1037400000218420FFF7BAFC00218520FFF7B6FC9A
:1037500010219020FFF7B2FC00219220FFF7AEFC71
:1037600003219320FFF7AAFC4FF488719520FFF7FF
:10377000A5FC00219720FFF7A1FC00219820FFF76E
:103780009DFC41F218010320FFF798FC40F27311F1
:103790000720FFF793FC10BD30B10849096841F0DC
:1037A0004001064A116007E004491031096841F000
:1037B0004001024A103211607047000018040048AE
:1037C00010B580210348FDF7A7F8012800D110BDEE
:1037D0000020FCE70004004800B585B014216846CD
:1037E000FCF750FD80200090002001900120029005
:1037F0000220039069460248FCF7A2FF05B000BD15
:103800000004004830B10849096841F08001064AC7
:10381000116007E004491031096841F08001024A53
:1038200010321160704700001804004800B585B0E0
:1038300014216846FCF726FD80200090112001909D
:10384000002002900220039069460248FCF778FFAE
:1038500005B000BD00040048704710B5FDF770F8D2
:1038600010BD00B5A5B0382117A8FCF70BFD142139
:1038700012A8FCF707FD442101A8FCF703FD4FF453
:103880000070FDF72DF902201790C0011A9040201A
:103890001B9002201E9002211F9117A84162142143
:1038A00081620221C16201634163FDF7EFFC08B14F
:1038B000FCF7ACFE0F201290032013900020149010
:1038C00015901690022112A8FDF758FB08B1FCF7DD
:1038D0009DFE012001900020029001A8FDF796F9BD
:1038E00008B1FCF793FE25B000BD00000548006854
:1038F00040F47000034908604FF0006001498039CE
:103900000860704788ED00E010B50848FEF743F9FD
:1039100007480088401C80B205490880C82804D1A7
:103920000020088001200349087010BD800000209D
:10393000220000200800002010B50268264B9842A3
:103940000BD0B0F1804F08D0244B984205D0244BC7
:10395000984202D0234B984203D122F070024B6868
:103960001A431D4B984214D0B0F1804F11D01B4B1D
:1039700098420ED01A4B98420BD01A4B984208D05E
:10398000194B984205D0194B984202D0184B9842D7
:1039900003D122F44072CB681A4322F080034C69B1
:1039A00043EA040202608B68C3620B6883620A4BBD
:1039B00098420BD00B4B984208D00B4B984205D045
:1039C0000A4B984202D00A4B984201D10B6903631B
:1039D0000123436110BD0000002C014000040040A1
:1039E0000008004000340140004001400044014014
:1039F0000048014030B501F01F05012404FA05F329
:103A0000046A9C430462046A01F01F0502FA05F58A
:103A10002C43046230BD30B50C46816821F47F41EF
:103A200042EA032525432943816030BD0A46816867
:103A3000034B194042F007031943816070470000AF
:103A40008FFFCFFF30B5056A25F001050562026AD8
:103A500043688469204D2C4024F003040D682C43F6
:103A600022F002028D682A431C4DA84200D10FE0CB
:103A70001B4DA84200D10BE01A4DA84200D107E02F
:103A8000194DA84200D103E0184DA84206D100BF4D
:103A900022F00802CD682A4322F004020F4DA8420A
:103AA0000BD00F4DA84208D00E4DA84205D00E4DA8
:103AB000A84202D00D4DA84207D123F4807323F40D
:103AC00000734D692B438D692B43436084614D68BE
:103AD0004563026230BD00008FFFFEFF002C0140F5
:103AE00000340140004001400044014000480140D2
:103AF00030B5056A25F010050562026A43688469DD
:103B0000224D2C4024F440740D6844EA052422F030
:103B100020028D6842EA05121D4DA84200D10FE037
:103B20001C4DA84200D10BE01B4DA84200D100BFA4
:103B30001A4DA84200D100BF194DA84207D106E096
:103B400022F08002CD6842EA051222F04002104DB8
:103B5000A8420BD00F4DA84208D00F4DA84205D067
:103B60000E4DA84202D00E4DA84209D123F4806325
:103B700023F400634D6943EA85038D6943EA8503B5
:103B8000436084614D688563026230BDFF8FFFFE34
:103B9000002C01400034014000400140004401403D
:103BA0000048014030B5056A25F480750562026A57
:103BB0004368C469224D2C4024F003040D682C4353
:103BC00022F400728D6842EA05221E4DA84200D1FF
:103BD0000FE01D4DA84200D10BE01C4DA84200D1C2
:103BE00000BF1B4DA84200D100BF1A4DA84207D10B
:103BF00006E022F40062CD6842EA052222F48062E7
:103C0000104DA8420BD0104DA84208D00F4DA8422D
:103C100005D00F4DA84202D00E4DA84209D123F481
:103C2000805323F400534D6943EA05138D6943EA39
:103C300005134360C4614D68C563026230BD000076
:103C40008FFFFEFF002C0140003401400040014086
:103C5000004401400048014030B5056A25F4805514
:103C60000562026A4368C469224D2C4024F4407402
:103C70000D6844EA052422F400528D6842EA0532B8
:103C80001D4DA84200D10FE01C4DA84200D10BE011
:103C90001B4DA84200D100BF1A4DA84200D100BF61
:103CA000194DA84207D106E022F40042CD6842EA4D
:103CB000053222F48042104DA8420BD00F4DA8428D
:103CC00008D00F4DA84205D00E4DA84202D00E4D8F
:103CD000A84209D123F4804323F400434D6943EA09
:103CE00085138D6943EA85134360C4614D6805649B
:103CF000026230BDFF8FFFFE002C01400034014006
:103D000000400140004401400048014030B5056AD0
:103D100025F480350562026A4368046D114D2C401C
:103D20000D682C4322F400320D8942EA05420E4D03
:103D3000A8420BD00D4DA84208D00D4DA84205D089
:103D40000C4DA84202D00C4DA84204D123F480337C
:103D50004D6943EA0523436004654D68856402624A
:103D600030BD00008FFFFEFF002C014000340140F9
:103D700000400140004401400048014030B5056A60
:103D800025F480150562026A4368046D114D2C40CC
:103D90000D6844EA052422F400120D8942EA055216
:103DA0000D4DA8420BD00D4DA84208D00C4DA84295
:103DB00005D00C4DA84202D00B4DA84204D123F4EB
:103DC00080234D6943EA8523436004654D68C564DB
:103DD000026230BDFF8FFFFE002C01400034014025
:103DE00000400140004401400048014030B50B460E
:103DF0001446026A056A25F001050562816921F011
:103E0000F00141EA041122F00A021A4381610262C0
:103E100030BD30B50B461446056A25F01005056225
:103E20008169026A21F4704141EA043122F0A00262
:103E300042EA03128161026230BD000010B50446FF
:103E4000E01D012101FA00F00949098808430849E9
:103E50000880012204210748FCF766FD0448008819
:103E600005490860002204210248FCF75DFD10BDF1
:103E70000A000020000C00481408004810B54FF458
:103E80007F4008490880012204210748FCF74CFDC7
:103E90000448008805490860002204210248FCF714
:103EA00043FD10BD0A000020000C00481408004823
:103EB00010B50446E01D012101FA00F00949098806
:103EC000814308480180012204210748FCF72CFDAA
:103ED0000448008805490860002204210248FCF7D4
:103EE00023FD10BD0A000020000C00481408004803
:103EF00070B5456E2DB90125A0F86A50A0F868503C
:103F00001CE0082308240568AD68C5F34261056814
:103F1000AD686A0F0A4DAD5C15FB04F5094EB65C41
:103F200095FBF6F5A0F86A50054D6D5C15FB03F5A1
:103F3000044E765C95FBF6F5A0F8685070BD000065
:103F4000905C0008985C000890F8281001F00101CE
:103F500039B10168496821F40031C26A114302682D
:103F6000516090F8281001F00201022907D1016880
:103F7000496821F48031026B11430268516090F866
:103F8000281001F00401042907D10168496821F4CF
:103F90008021426B11430268516090F8281001F0B3
:103FA0000801082907D10168496821F40041826BA2
:103FB00011430268516090F8281001F01001102997
:103FC00007D10168896821F48051C26B11430268EE
:103FD000916090F8281001F02001202907D1016894
:103FE000896821F40051026C11430268916090F8D5
:103FF000281001F04001402913D10168496821F4DB
:104000008011426C114302685160416CB1F5801F10
:1040100007D10168496821F4C001826C114302682C
:10402000516090F8281001F08001802907D10168C3
:10403000496821F40021C26C114302685160704745
:1040400038B504460020C4F88C00FCF773FC054624
:104050002068006800F0080008280CD16FF07E404E
:104060002B4600224FF400110090204600F026FA63
:1040700008B1032038BD2068006800F0040004285F
:104080000CD16FF07E402B4600224FF4800100904F
:10409000204600F013FA08B10320EBE72020C4F813
:1040A0008400C4F888000020E06600BF84F8800027
:1040B00000BF00BFDEE770B50546AC6A0020A4F87B
:1040C0005E00A4F856002046FEF7F0F970BD00002F
:1040D0000168096821F490710268116001688968BB
:1040E000094A114002689160C16E012905D1016839
:1040F000096821F01001026811602021C0F88810C1
:104100000021C16601677047FEFFFFEF10B504464E
:104110002068006820F04000216808602020C4F872
:104120008400002060672046FEF7C6FB10BD00003B
:104130002DE9FE4F044600200290D64920688842AF
:1041400000D100E000BF2169A0680843616908430D
:10415000E16940EA010820680068CF49084040EA68
:104160000800216808602068406820F44050E16839
:10417000084321684860D4F81880C64920688842FE
:1041800002D0206A40EA080820688068C3490840D5
:1041900040EA0800216888602068C06A20F00F00AB
:1041A000616A08432168C86200BFBD49206888422F
:1041B00016D1BC48006800F0030030B1012808D0D7
:1041C000022804D0032808D105E0012507E00225D4
:1041D00005E0042503E0082501E0102500BF6FE09D
:1041E000B1492068884216D1AE48006800F00C0042
:1041F00030B1042808D0082804D00C2808D105E0E4
:10420000002507E0022505E0042503E0082501E07C
:10421000102500BF54E0A5492068884216D1A14866
:10422000006800F0300030B1102808D0202804D0F9
:10423000302808D105E0002507E0022505E0042527
:1042400003E0082501E0102500BF39E09849206807
:10425000884216D19348006800F0C00030B1402871
:1042600008D0802804D0C02808D105E0002507E048
:10427000022505E0042503E0082501E0102500BF24
:104280001EE084492068884219D18648006800F4FD
:10429000406048B1B0F5806F0AD0B0F5006F05D02E
:1042A000B0F5406F08D105E0002507E0022505E0E4
:1042B000042503E0082501E0102500BF00E01025DB
:1042C00000BF7449206888425DD135B1022D08D005
:1042D000042D08D0082D0DD109E0FCF767FF064634
:1042E0000CE0744E0AE0FCF785FF064606E04FF44A
:1042F000004603E000260120029000BF00BF002E10
:1043000010D06D49606A31F81000B6FBF0F96068B2
:1043100000EB4000484503D860680003484502D2DE
:1043200001200290AAE06449606A31F810C0624638
:10433000002330461946FBF76DFF4FF4807C0022C6
:104340000B46A0FB0C1B03FB0CB300FB02336068A5
:1043500040088C461CEB000043EB0201CDE9000154
:10436000D4F804C062460023FBF754FF0746B7F5B4
:10437000407F05D3B7F5801F02D22068C7607DE07B
:10438000012002907AE0E069B0F5004F40D1092D9C
:1043900017D2DFE805F005090D160F1616161300E3
:1043A000FCF704FF064610E0FCF712FF06460CE09F
:1043B000404E0AE0FCF71EFF064606E04FF40046BA
:1043C00003E000260120029000BF00BFFEB13A4981
:1043D000606A31F81000B6FBF0F04000616800EB55
:1043E0005100B0FBF1F087B2102F0ED3B7F5803F2C
:1043F0000BD24FF6F07007EA000AC7F342004AEA10
:10440000000A2068C0F80CA038E00120029035E0D6
:10441000092D17D2DFE805F005090D160F1616163F
:104420001300FCF7C3FE064610E0FCF7D1FE06467B
:104430000CE0204E0AE0FCF7DDFE064606E04FF4F5
:10444000004603E000260120029000BF00BFAEB18D
:104450001949606A31F81000B6FBF0F0616800EBB2
:104460005100B0FBF1F087B2102F05D3B7F5803FB4
:1044700002D22068C76001E0012002900120A4F868
:104480006A00A4F868000020206760670298BDE811
:10449000FE8F000000800040F369FFCFFFF4FF11A2
:1044A00000380140881002400044004000480040AD
:1044B000004C00400024F400785C00082DE9F04135
:1044C00004460D4617469846069E4AE0701C002892
:1044D00047D0FCF72FFAA0EB0800B04200D8C6B9CD
:1044E0002068006820F4D070216808602068806827
:1044F00020F00100216888602020C4F88400C4F8FE
:10450000880000BF002084F8800000BF0320BDE8C1
:10451000F0812068006800F0040010B32068C069D2
:10452000C0F3C020E8B14FF4006021680862206841
:10453000006820F4D070216808602068806820F04E
:104540000100216888602020C4F88400C4F8880035
:10455000C4F88C0000BF002084F8800000BF032056
:10456000D5E72068C0692840A84201D1012000E0B9
:104570000020B842AAD00020C9E7000010B50248C8
:10458000FDF796FF10BD0000CC00002000BFFEE745
:104590000FB4084B10B504A902AA039800F038F82C
:1045A000044602A9002000F0D4F9204610BC5DF8B2
:1045B00014FB00005349000802480068C0F30220C1
:1045C000704700000CED00E010B5002804DB0A077E
:1045D000130E054A135406E00A07140E034A00F0AE
:1045E0000F031B1FD45410BD00E400E018ED00E0E1
:1045F00002E008C8121F08C1002AFAD170477047AC
:10460000002001E001C1121F002AFBD17047000009
:104610002DE9FF4F8BB088460546002606E0252889
:104620000BD0DDE90D1290476D1C761C2878002810
:10463000F5D10FB03046BDE8F08F0024A146A24668
:104640000122AE4900E0044315F8013F203B02FA85
:1046500003F00842F7D128782A2810D06FF02F02F3
:104660002878A0F13001092915D809EB890102EB5E
:10467000410144F0020400EB01096D1CF0E758F819
:10468000041B5FEA010903D544F40054C9F1000991
:1046900044F002046D1C28782E2817D115F8010F5C
:1046A00044F004042A280ED06FF02F022878A0F1DD
:1046B000300109290AD80AEB8A0102EB410100EB1B
:1046C000010A6D1CF2E758F804AB6D1C28786C28C1
:1046D0000FD006DC4C2817D068280DD06A2814D1DA
:1046E00004E0742810D07A280FD10DE044F40014AF
:1046F0000AE044F4801401E044F4401469788142F3
:1047000002D104F580146D1C6D1C2878692865D0D1
:1047100006DC00288DD0632827D0642806D15DE010
:104720006E2808D073282AD0752877D0DDE90D12BD
:104730009047761CE0E0C4F30250022809D0032819
:104740000DD0D8F8001004280DD00E6008F1040830
:10475000D2E0D8F80010F217C1E90062F6E7D8F805
:1047600000100E80F2E70E70F0E718F8041B8DF8C9
:10477000001000208DF80100EB46012003E058F8FE
:1047800004BB4FF0FF3061074FF0000701D40AE08F
:104790007F1C57450DDA8742FADB1BF8071000290A
:1047A000F6D106E07F1C8742FCDB1BF807100029CE
:1047B000F8D1DDE90D23A9EB07008146214600F081
:1047C000B1F83044C61904E0DDE90D121BF8010B05
:1047D00090477F1EF8D22146484688E058F8040BDF
:1047E000C4F302514FF00A0B032900D100B204298F
:1047F00000D140B2002802DA40422D2102E021051A
:1048000005D52B218DF82410012104E006E0E107F5
:1048100010D02021F6E708AF089113E058F8040BF8
:10482000C4F302514FF00A0B032900D180B20429CE
:1048300000D1C0B20021EEE75946FBF72EFD303122
:1048400007F8011D0028F7D1ADEB070000F1200BA0
:10485000600702D524F4803401E04FF0010ADA4504
:1048600002DDAAEB0B0000E00020824600EB0B010A
:1048700008980144A9EB01000A90E00306D4DDE9A1
:104880000D2321460A9800F04DF806444FF0000928
:1048900008E009A911F80900DDE90D12904709F1B6
:1048A0000109761C08998945F3DBE0030CD5DDE9A5
:1048B0000D2321460A9800F035F8064404E0DDE9AE
:1048C0000D1230209047761CBAF10001AAF1010ABE
:1048D000F5DC05E0DDE90D1217F8010B9047761CB9
:1048E000BBF10001ABF1010BF4DC0A982146DDE9D4
:1048F0000D2300F005F806446D1C97E60928010019
:104900002DE9F041044600251E461746880404D4CC
:1049100005E039462020B0476D1C641EF9D52846B5
:10492000BDE8F0812DE9F041044600251E46904681
:10493000C80301D5302700E02027880404D505E00E
:1049400041463846B0476D1C641EF9D52846BDE87F
:10495000F0810A68531C0B6010707047002100E062
:10496000491C8142FCD3704770B50446FEF70DF830
:10497000A020FDF7E3FFFEF73CF82046FDF7DEFF41
:10498000FEF737F8FEF701F8A120FDF7D7FFFEF795
:1049900030F8FDF7ABFF0546FEF72BF8FEF70FF8F2
:1049A000284670BD70B505460C46FDF7EEFFA02009
:1049B000FDF7C4FFFEF71DF82846FDF7BFFFFEF721
:1049C00018F82046FDF7BAFFFEF713F8FDF7F7FFDA
:1049D00070BD0000FBF7C0FFFEF743FFFEF7B6FB1C
:1049E000FEF7A4FCFEF74EFCFEF7D8FCFDF768FFCF
:1049F0000120FFF7B9FF234948600520FBF78CFE33
:104A00000220FFF7B1FF204948600520FBF784FE34
:104A10000320FFF7A9FF1D4948601D48FCF7D4FF9C
:104A2000FEF746FA4FF6FF70FEF76EF94FF6FF708D
:104A3000FEF7B0FA0020FEF7C1FAFFF71FFA1FE0F9
:104A40001448007820B1002012490870FBF7D2FC0E
:104A50001148007820B100200F490870FDF7F0FFE1
:104A60000E480F490978405C022809D10D480078AA
:104A700018B10120FFF71CFA02E00120FFF7DEF970
:104A8000DEE700005C010020740100208C010020A2
:104A90008000002008000020060000200E000020FA
:104AA0000D000020070000200000000000000000B2
:104AB00000000000000000000000000000000000F6
:104AC00000000000000000000000000000000000E6
:104AD0000000000000000000000080018001800153
:104AE00080018001800180018001800180018001BE
:104AF00080018001000000008001800100000000B2
:104B0000000000000000000000000000CC00CC000D
:104B1000CC00CC00CC00CC00000000000000000065
:104B20000000000000000000000000000000000085
:104B30000000000000000000000000000000000075
:104B400000000000600C600C600C30063006FE1F98
:104B5000FE1F300638071803FE1FFE1F1803180338
:104B60008C018C018C01000000008000E003F80F34
:104B70009C0E8C1C8C188C009800F801E007800EAD
:104B8000801C8C188C189C18B80CF00FE003800067
:104B900080000000000000000000000000000E186F
:104BA0001B0C110C11061106110311039B018E0140
:104BB000C038C06C60446044304430441844186CC1
:104BC0000C380000000000000000E001F00338078E
:104BD000180618063003F001F000F8009C310E337F
:104BE000061E061C061C063FFC73F0210000000098
:104BF0000000000000000000000000000C000C009D
:104C00000C000C000C000C00000000000000000074
:104C10000000000000000000000000000000000094
:104C200000000000000000000000000200038001FE
:104C3000C000C00060006000300030003000300074
:104C4000300030003000300060006000C000C00064
:104C50008001000300020000000020006000C0008E
:104C60008001800100030003000600060006000624
:104C70000006000600060006000300038001800114
:104C8000C0006000200000000000000000000000E4
:104C900000000000C000C000D806F807E0013003A3
:104CA00038070000000000000000000000000000C5
:104CB00000000000000000000000000000000000F4
:104CC0000000000080018001800180018001FC3F24
:104CD000FC3F800180018001800180010000000014
:104CE00000000000000000000000000000000000C4
:104CF00000000000000000000000000000000000B4
:104D000000000000000000000000800180010001A0
:104D10000001800000000000000000000000000012
:104D20000000000000000000000000000000000083
:104D3000E007E007000000000000000000000000A5
:104D40000000000000000000000000000000000063
:104D50000000000000000000000000000000000053
:104D600000000000000000000000C000C0000000C3
:104D700000000000000000000000000C000C000615
:104D80000006000600030003000380038001800189
:104D90008001C000C000C000600060000000000092
:104DA00000000000000000000000E003F007380EE3
:104DB000180C0C180C180C180C180C180C180C18D3
:104DC0000C180C18180C380EF007E0030000000057
:104DD0000000000000000000000000018001C00190
:104DE000F00198018801800180018001800180012B
:104DF00080018001800180018001800100000000AD
:104E000000000000000000000000E003F80F180C94
:104E10000C180C1800180018000C00060003800184
:104E2000C000600030001800FC1FFC1F00000000E4
:104E300000000000000000000000E001F807180E6C
:104E40000C0C0C0C000C0006C003C007000C001872
:104E500000180C180C18180CF807E00300000000EC
:104E600000000000000000000000000C000E000F19
:104E7000000F800DC00C600C600C300C180C0C0C7A
:104E8000FC3FFC3F000C000C000C000C000000007C
:104E900000000000000000000000F80FF80F1800EC
:104EA00018000C00EC03FC071C0E001C0018001876
:104EB00000180C181C0C180EF807E0030000000086
:104EC00000000000000000000000C007F00F381CC8
:104ED000181818000C00CC03EC0F3C0E1C1C0C180E
:104EE0000C180C18181C380EF007E0030000000026
:104EF00000000000000000000000FC1FFC1F000C70
:104F000000060006000380038001C001C000E0002D
:104F100060006000700030003000300000000000D1
:104F200000000000000000000000E003F007380E61
:104F3000180C180C180C3806F007F007180C0C1891
:104F40000C180C180C18380CF80FE00300000000C7
:104F500000000000000000000000E003F007380E31
:104F60001C0C0C180C180C181C1C381EF81BE01913
:104F70000018000C000C1C0EF807F00100000000E7
:104F80000000000000000000000000000000000021
:104F9000000000008001800100000000000000000F
:104FA00000000000000000008001800100000000FF
:104FB00000000000000000000000000000000000F1
:104FC00000000000800180010000000000000000DF
:104FD00000000000000000008001800100010001CD
:104FE0008000000000000000000000000000000041
:104FF00000000000000000000010001C800FE00313
:10500000F8001800F800E003800F001C00100000FA
:105010000000000000000000000000000000000090
:105020000000000000000000F81F00000000000069
:10503000F81F000000000000000000000000000059
:105040000000000000000000000000000000000060
:10505000000000000000000008003800F001C00758
:10506000001F0018001FC007F001380008000000F2
:1050700000000000000000000000E003F80F180C22
:105080000C180C180018000C000600038001C0006A
:10509000C000C00000000000C000C0000000000010
:1050A000000000000000000000000000E0071818E9
:1050B0000420C229224A114409440944094409220E
:1050C0001113E20C024004201818E0070000000051
:1050D0000000000000000000000080038003C00604
:1050E000C006C006600C600C301830183018F83F4D
:1050F000F83F1C700C600C6006C006C00000000089
:1051000000000000000000000000FC03FC0F0C0C7D
:105110000C180C180C180C0CFC07FC0F0C180C309D
:105120000C300C300C300C18FC1FFC070000000089
:1051300000000000000000000000C007F01F383829
:105140001C300C7006600600060006000600060013
:10515000060006600C701C30F01FE0070000000025
:1051600000000000000000000000FE03FE0F060E1D
:1051700006180618063006300630063006300630AF
:10518000063006180618060EFE0FFE03000000008B
:1051900000000000000000000000FC3FFC3F0C008D
:1051A0000C000C000C000C00FC1FFC1F0C000C0081
:1051B0000C000C000C000C00FC3FFC3F0000000049
:1051C00000000000000000000000F83FF83F180059
:1051D0001800180018001800F81FF81F1800180011
:1051E000180018001800180018001800000000002F
:1051F00000000000000000000000E00FF83F3C78D5
:105200000E6006E007C00300030003FE03FE03C0B8
:1052100007C006C00EC03CF0F83FE00F00000000E1
:10522000000000000000000000000C300C300C30CA
:105230000C300C300C300C30FC3FFC3F0C300C3090
:105240000C300C300C300C300C300C3000000000F6
:1052500000000000000000000000800180018001CB
:105260008001800180018001800180018001800136
:105270008001800180018001800180010000000028
:10528000000000000000000000000006000600060C
:1052900000060006000600060006000600060006DE
:1052A0000006180618063807F003E00100000000A9
:1052B0000000000000000000000006300618060C88
:1052C000060606038601C60066007600DE008E0133
:1052D00006030606060C06180630066000000000ED
:1052E0000000000000000000000018001800180076
:1052F00018001800180018001800180018001800EE
:105300001800180018001800F81FF81F000000000F
:10531000000000000000000000000EE01EF01EF083
:105320001EF036D836D836D836D866CC66CC66CCA1
:10533000C6C6C6C6C6C6C6C686C386C300000000AB
:10534000000000000000000000000C301C303C3069
:105350003C306C306C30CC30CC308C310C330C3376
:105360000C360C360C3C0C3C0C380C3000000000A9
:1053700000000000000000000000E007F81F1C38DB
:105380000E70066003C003C003C003C003C003C0A7
:1053900003C006600E701C38F81FE0070000000014
:1053A00000000000000000000000FC0FFC1F0C3893
:1053B0000C300C300C300C300C18FC1FFC070C00AF
:1053C0000C000C000C000C000C000C000000000095
:1053D00000000000000000000000E007F81F1C387B
:1053E0000E70066003E003C003C003C003C003C027
:1053F00007E006630E3F1C3CF83FE0F700C00000EA
:1054000000000000000000000000FE0FFE1F063834
:105410000630063006300638FE1FFE070603060675
:10542000060C06180618063006300660000000005C
:1054300000000000000000000000E003F80F1C0C5A
:105440000C180C180C001C00F803E00F001E0038AC
:10545000063006300E301C1CF80FE007000000007C
:1054600000000000000000000000FE7FFE7F8001C1
:105470008001800180018001800180018001800124
:105480008001800180018001800180010000000016
:10549000000000000000000000000C300C300C3058
:1054A0000C300C300C300C300C300C300C300C301C
:1054B0000C300C300C301818F81FE007000000000A
:1054C000000000000000000000000360063006300D
:1054D00006300C180C180C18180C180C380E300666
:1054E0003006700760036003C001C00100000000C7
:1054F000000000000000000000000360C361C36101
:10550000C3616633663366336633663366336C1B5A
:105510006C1B6C1B2C1A3C1E380E380E0000000051
:10552000000000000000000000000FE00C701830C8
:105530003018700C600EC00780038003C003E006C3
:10554000700C301C18180C300E6007E000000000D2
:105550000000000000000000000003C006600C30E6
:105560001C383818300C6006E007C0038001800149
:105570008001800180018001800180010000000025
:1055800000000000000000000000FC7FFC7F0060C5
:1055900000300018000C000600038001C00060000D
:1055A000300018000C000600FE7FFE7F00000000A7
:1055B00000000000000000000000E003E0036000C5
:1055C00060006000600060006000600060006000DB
:1055D00060006000600060006000600060006000CB
:1055E0006000E003E00300000000300030006000D5
:1055F00060006000C000C000C000C00180018001E8
:105600008001000300030003000600060000000004
:1056100000000000000000000000E003E0030003C1
:105620000003000300030003000300030003000362
:105630000003000300030003000300030003000352
:105640000003E003E003000000000000C001C0010F
:1056500060036003600330063006180C180C00006D
:10566000000000000000000000000000000000003A
:10567000000000000000000000000000000000002A
:10568000000000000000000000000000000000001A
:1056900000000000000000000000FFFFFFFF00000E
:1056A000000000000000000000000C000C000C00D6
:1056B0000C000C000C0000000000000000000000C6
:1056C00000000000000000000000000000000000DA
:1056D00000000000000000000000000000000000CA
:1056E00000000000F003F8071C0C0C0C000FF00F7A
:1056F000F80C0C0C0C0C1C0FF80FF018000000003C
:105700000000000000000000000018001800180051
:1057100018001800D803F80F380C181818181818A3
:10572000181818181818380CF80FD80300000000C3
:105730000000000000000000000000000000000069
:1057400000000000C003F007300E180C180018000D
:1057500018001800180C300EF007C00300000000FD
:1057600000000000000000000000001800180018F1
:1057700000180018C01BF01F301C18181818181833
:10578000181818181818301CF01FC01B0000000053
:105790000000000000000000000000000000000009
:1057A00000000000C003F00F300C1818F81FF81F9D
:1057B000180018003818301CF00FC0070000000057
:1057C00000000000000000000000800FC00FC000BB
:1057D000C000C000F007F007C000C000C000C0005B
:1057E000C000C000C000C000C000C0000000000039
:1057F00000000000000000000000000000000000A9
:1058000000000000E00DF80F180E0C0C0C0C0C0C36
:105810000C0C0C0C0C0C180EF80FE00D000C0C0C02
:105820001C06F807F001000000001800180018001E
:1058300018001800D807F80F381C1818181818186E
:105840001818181818181818181818180000000038
:1058500000000000000000000000C000C0000000C8
:1058600000000000C000C000C000C000C000C000B8
:10587000C000C000C000C000C000C00000000000A8
:1058800000000000000000000000C000C000000098
:1058900000000000C000C000C000C000C000C00088
:1058A000C000C000C000C000C000C000C000C000F8
:1058B000C000F8007800000000000C000C000C0094
:1058C0000C000C000C0C0C060C038C01CC006C00C2
:1058D000FC009C018C030C030C060C0C0000000067
:1058E00000000000000000000000C000C000C00078
:1058F000C000C000C000C000C000C000C000C000A8
:10590000C000C000C000C000C000C0000000000017
:105910000000000000000000000000000000000087
:10592000000000007C3CFF7EC7E383C183C183C1CC
:1059300083C183C183C183C183C183C100000000CF
:105940000000000000000000000000000000000057
:10595000000000009807F80F381C181818181818BD
:105960001818181818181818181818180000000017
:105970000000000000000000000000000000000027
:1059800000000000C003F00F300C18181818181889
:10599000181818181818300CF00FC0030000000079
:1059A00000000000000000000000000000000000F7
:1059B00000000000D803F80F380C18181818181831
:1059C000181818181818380CF80FD80318001800F1
:1059D000180018001800000000000000000000007F
:1059E00000000000C01BF01F301C181818181818F1
:1059F000181818181818301CF01FC01B00180018B1
:105A0000001800180018000000000000000000004E
:105A100000000000B007F0037000300030003000DC
:105A20003000300030003000300030000000000056
:105A30000000000000000000000000000000000066
:105A400000000000E003F003380E180C3800F003EB
:105A5000C007000C180C380EF007E003000000002F
:105A60000000000000000000000000008000C000F6
:105A7000C000C000F007F007C000C000C000C000B8
:105A8000C000C000C000C000C007800700000000C8
:105A90000000000000000000000000000000000006
:105AA00000000000181818181818181818181818D6
:105AB000181818181818381CF01FE01900000000FA
:105AC00000000000000000000000000000000000D6
:105AD000000000000C18180C180C180C30063006CA
