:020000040800F2
:1000000028180020F10100080F380008D730000838
:100010000D380008E1080008CD4A00080000000083
:10002000000000000000000000000000753D000816
:10003000E30800080000000011380008153F000820
:100040000B0200080B0200080B0200080B0200085C
:100050000B0200080B0200080B0200080B0200084C
:100060000B0200080B0200080B0200080B0200083C
:100070000B0200080B0200080B0200080B0200082C
:100080000B020008000000000B0200080B02000831
:100090000B0200080B0200080B0200080B0200080C
:1000A0000B0200080B0200080B0200080B020008FC
:1000B0000B0200080B020008C53F00080B020008F5
:1000C0000B0200080B0200080B0200080B020008DC
:1000D0000B020008C14A00080B0200080B020008CE
:1000E0000B020008293B00080B0200080B02000865
:1000F0000B0200080B0200080B02000800000000C1
:10010000000000000B020008000000000B020008C5
:100110000B020008000000000B0200080B020008A0
:100120000B0200080B0200080B0200080B0200087B
:100130000B02000800000000000000000B02000895
:100140000B0200080B020008000000000000000085
:10015000000000000000000000000000000000009F
:100160000000000000000000000000000B0200087A
:100170000B0200080000000000000000000000006A
:10018000000000000B02000800000000000000005A
:10019000000000000000000000000000000000005F
:1001A00000000000000000000B0200080B02000825
:1001B0000B0200080B0200080B0200080000000000
:1001C000000000000B02000800000000000000001A
:1001D0000B0200080B020008DFF810D000F05EFAF6
:1001E000004800471D540008AFF300802818002085
:1001F0000648804706480047FEE7FEE7FEE7FEE7C1
:10020000FEE7FEE7FEE7FEE7FEE7FEE7A93F0008A0
:10021000D90100082DE9F05F0546002092469B4673
:1002200088460646814640241BE02846414647460C
:10023000224600F06AF853465A46C01A914110D33C
:1002400011461846224600F051F82D1A67EB0108B6
:100250004F4622460120002100F048F817EB000924
:100260004E41201EA4F10104DFDC484631462A46F7
:100270004346BDE8F09FD2B201E000F8012B491ED1
:10028000FBD270470022F6E710B513460A46044633
:100290001946FFF7F0FF204610BD00F0004230F095
:1002A00000400AD0C10D01F56071C0F3160042EAAA
:1002B0000151C208400711437047002001467047B2
:1002C00030B50B46014600202022012409E021FA26
:1002D00002F59D4205D303FA02F5491B04FA02F523
:1002E0002844151EA2F10102F1DC30BD202A04DBF6
:1002F000203A00FA02F1002070479140C2F1200339
:1003000020FA03F3194390407047202A04DB203A77
:1003100021FA02F00021704721FA02F3D040C2F125
:10032000200291400843194670472DE9FE4F804650
:1003300081EA0300C00F0C46009021F0004123F039
:100340000045B8EB0200A94105D24046214690463F
:100350001C460B46024623F00040104347D0270DB1
:10036000C7F30A00C3F30A510290401A01904028D3
:100370006BDAC3F3130040F4801B0098924620B15F
:100380000023D2EB030A63EB0B0B01985946C0F133
:1003900040025046FFF7AAFF06460D465046594612
:1003A000019A00F08DF910EB08006141002487EA02
:1003B000115284EAE7731A4340D0009A62B3019A5B
:1003C000012A4FEA075215DC001B61EB02014FF0D6
:1003D000004202EA0752CDE90042001C41F58011BB
:1003E00032462B4600F08DF903B0BDE8F08F404651
:1003F0002146F9E7001B61EB0201001C41F5801367
:1004000000185B412018A2F5001747EB030140EAF2
:10041000D570B6196D4111E06D084FEA360645EA10
:10042000C0754FEA0752001B61EB0201001C41F549
:10043000801149084FEA30000019514132462B46DD
:1004400003B0BDE8F04F00F04DB900980122400024
:100450000023D0EB020263EBE073009821464FEAE1
:10046000E074B8EB000061EB0401E9E783F00043BE
:100470005BE781F0004158E72DE9FE4F81EA030474
:1004800004F0004421F0004100944FF0000B23F0F1
:10049000004350EA01045ED052EA03045BD0C3F388
:1004A0000A54C1F30A552C44A4F2F3340194A0FB7E
:1004B0000254C1F3130141F48011C3F3130343F455
:1004C000801301FB024400FB034E840A970A44EAAE
:1004D000815447EA8357A4FB076802958D0A05FB00
:1004E00007854FEA932C04FB0C542705029D4FEA25
:1004F000065847EA1637B5EB08056EEB070C870E72
:10050000920E47EA811742EA8312A7FB0201B6EB7B
:100510000B0164EB00042B0D43EA0C335E1844EB33
:100520001C50DA465146E7FB0201C5F313044FEABB
:100530000B3343EA14534FEA0432019C43EA0603A7
:10054000A4F10C040294009CCDE900B400F0D9F8A9
:1005500003B0BDE8F08F00200146F9E72DE9F04D2A
:1005600081EA030404F0004B21F0004514464FF0EB
:10057000000A23F0004150EA050220D054EA0102AB
:100580001DD0C5F30A570246C5F31303C1F3130088
:10059000C1F30A5640F4801543F48013A7EB060814
:1005A000101BD64608F2FD3873EB050002D308F1A4
:1005B000010801E092185B41B8F1000F03DA002056
:1005C0000146BDE8F08D00204FF4801106468446B8
:1005D0000EE0171B73EB050705D3121B63EB050336
:1005E00006434CEA010C49084FEA300092185B417F
:1005F00050EA0107EDD152EA030012D082EA04006A
:1006000083EA0501084305D0101BAB4106D2012245
:10061000002306E000224FF0004302E06FF00102E9
:1006200053101AEB06004CEB085110EB0A0041EB9B
:100630000B01BDE8F04D00F055B8C1F30A52C1F30B
:10064000130140F2FF3341F480119A4202DA002094
:100650000146704740F233439A42A2F2334202DC31
:100660005242FFF752BEFFF741BE000030B5041EF4
:1006700071F1000404DB4FF00044404264EB0101DF
:10068000141E73F1000405DB1C464FF00043524278
:1006900063EB0403994208BF904230BD064C074DFE
:1006A00006E0E06840F0010394E807009847103442
:1006B000AC42F6D3FFF794FDF85500081856000831
:1006C000202A06DBCB17203A41FA02F043EAE07316
:1006D00006E041FA02F3D040C2F120029140084303
:1006E0001946704710B5141E73F1000408DA401C57
:1006F00041F1000192185B411A4301D120F0010041
:1007000010BD2DE9F04D92469B4611B1B1FA81F230
:1007100002E0B0FA80F220329046FFF7E7FD04468F
:100720000F4640EA0A0041EA0B0153465A46084385
:1007300013D0114653EA010019D0C8F140025046C7
:10074000FFF7E3FD05460E46504659464246FFF781
:10075000CDFD084305D0012004E020463946BDE820
:10076000F08D0020054346EAE0762C4337430A9893
:100770006305E40AA0EB08000022FD0A44EA47549E
:100780000A3002D500200146E9E701051019694148
:10079000DDE9084500196941BDE8F04DA2E770B5F3
:1007A0008D1810F8014B14F0030201D110F8012B41
:1007B000231106D110F8013B03E010F8016B01F89A
:1007C000016B521EF9D1ABB110F8012B04F00C04EF
:1007D0008A1A0C2C03D0A2EB84129B1C08E010F8A0
:1007E000014BA2EB0422F8E712F8014B01F8014B90
:1007F0005B1EF9D5A942D4D3002070BD70B5044664
:10080000006881688268C1F3400112F0010F28D0AE
:1008100039BB816801F00D01012914D18168124AA8
:100820001140891C816021680320086000F084FE6B
:10083000054612E000F080FE401B02280DD920681A
:100840008068C00709D0E06D40F01000E065206EC0
:1008500040F001002066012070BD20688068C0075C
:10086000E8D1002070BD0000C0FFFF7F70B50446D6
:100870000068816811F0010F2DD18168174A11427B
:100880001AD18168D5432940491C816000F054FE8B
:1008900006461BE0816811F0010F03D181682940F1
:1008A000491C816000F048FE801B02280ED9206898
:1008B0000068C043C00709D0E06D40F01000E0655B
:1008C000206E40F001002066012070BD20680168A4
:1008D000C943C907DED1002070BD00003F00008081
:1008E000FEE77047002240F6B83306E00021491CBD
:1008F00089B29942FBD3521C92B28242F6D370471E
:1009000010B52E4C8AB0E07888B10020E07004F079
:1009100079FD00EE100ADFED2A0AB8EE400A20EE5B
:10092000200ADFED280A20EE200A84ED0A0AA06AD8
:10093000FFF7B3FC41EC100B23A153EC102B01A8E3
:1009400004F0D6F801A9302002F05AFC206AFFF723
:10095000A4FC41EC100B1FA153EC102B01A804F0D8
:10096000C7F801A9482002F04BFC207808B11CA16F
:1009700000E01EA1602002F043FC00221E491F4837
:1009800001F00CFC0D49002224311C4801F0E2FB6F
:1009900019481BA10278E27343782374807860744D
:1009A000009001A804F0A4F801A9782002F028FC26
:1009B00018A1C02002F024FC0AB010BDD8110020FC
:1009C000000080393333534020202056313A20250F
:1009D0002E3266002020206B3A20252E3166000042
:1009E0002020204C45443A204F4E20002020204C0F
:1009F00045443A204F464600181200202413002098
:100A0000202020543A253032642D253032642D25A3
:100A10003032640020202020202020202020202090
:100A200020202020203100000448807918B10128BE
:100A300003D103F0A1B9FFF763BF7047D8110020BD
:100A400072B6FEE7F8B500260446009690F8580006
:100A50000D4601280BD0012084F858002046FFF7EE
:100A6000CDFE0100E06D04D040F010002AE002202D
:100A7000F8BD20F4885040F00200E06520688268EC
:100A8000134B1A4005F080431A4342F00042826043
:100A9000104A20680EE0009B5B1C0093934209D330
:100AA000E06D20F0020040F01000E06584F858602E
:100AB0000120F8BD8368DB0FEDD1E06D20F002006E
:100AC00040F00100E06584F858600846F8BD000079
:100AD000C0FFFF3F02DE04002DE9F84F0027044667
:100AE000009790F85800DFF8E0930D46B8460128CB
:100AF00011D0012684F85860206802F0F3FC60B140
:100B0000E06D40F02000E0655FF0010784F8588058
:100B10003846BDE8F88F0220FBE7D5E900210C2319
:100B2000206803EA91131844036B01F01F014FF092
:100B30001F0C0CFA01FCC2F3846223EA0C038A4006
:100B400013430363206802F0CDFC8246206802F064
:100B5000C5FC5AEA00003CD1AA6829682068B2F1B5
:100B6000004F37D002F0C2FC2068416921F00041FB
:100B7000416120686969C268C2F3C10252009140B4
:100B80002A69042A31D000EB82002B68026EDFF85C
:100B90003CC303F0F84302EA0C020B431A4342F051
:100BA0000041016620682A69A96900EB8200026E93
:100BB00022F080720A430266297F2268286901298F
:100BC00010D0002102EB8000026E22F000720A4376
:100BD00002667DE0002202F089FC2068416941F054
:100BE0000041C5E74FF00071ECE7002102F070FC16
:100BF000400320684FF0000172D002F069FC90FAC7
:100C0000A0F0B0FA80F1286842036ED090FAA0F00C
:100C1000B0FA80F0814204D100221146206802F02F
:100C200074FC0121206802F053FC400320684FF05F
:100C300001015DD002F04CFC90FAA0F0B0FA80F116
:100C40002868420359D090FAA0F0B0FA80F08142AF
:100C500004D100220121206802F057FC0221206803
:100C600002F036FC400320684FF0020148D002F049
:100C70002FFC90FAA0F0B0FA80F12868420344D02B
:100C800090FAA0F0B0FA80F0814204D10022022153
:100C9000206802F03AFC0321206802F019FC4003AE
:100CA00020684FF0030133D002F012FC90FAA0F05C
:100CB000B0FA80F1286842032FD090FAA0F0B0FA81
:100CC00080F0814204D100220321206802F01DFC43
:100CD0002068816811F0010F22D0ACE000E004E050
:100CE00002F0F6FBC0F384618DE7C0F3846091E706
:100CF00002F0EEFBC0F38461A2E7C0F38460A6E7D4
:100D000002F0E6FBC0F38461B7E7C0F38460BBE7A1
:100D100002F0DEFBC0F38461CCE7C0F38460D0E76F
:100D20002A7B296850F8B03FC1F3120C23EA0C0368
:100D300002F0180C664A22FA0CF20A4013430360D0
:100D4000E968494577D1286841031CD090FAA0F1A1
:100D5000B1FA81F1491C01F01F0109294FEA403124
:100D600032D8002912D000BF90FAA0F1B1FA81F177
:100D700001F1010101F01F0106FA01F609D100BFDE
:100D8000C0F3846109E0C0F38461E3E7C0F38461E8
:100D9000EEE790FAA0F1B1FA81F101F1010101F061
:100DA0001F0146EA816102D1C0F3846003E090FA3A
:100DB000A0F0B0FA80F000F1010000F01F0000EB9D
:100DC000400041EA005132E000290ED090FAA0F133
:100DD000B1FA81F101F1010101F01F0106FA01F6FA
:100DE00006D100BFC0F3846106E0C0F38461F1E77F
:100DF00090FAA0F1B1FA81F101F1010101F01F01B6
:100E000046EA816102D1C0F3846003E090FAA0F069
:100E1000B0FA80F000F1010000F01F002D4A00EB55
:100E2000400002EB005041EA000141F00071AA6865
:100E3000206802F05BFB28482A6802423FF466AE55
:100E400026488168264B01F0E0719A4202D0254B7A
:100E50009A421CD10B021AD42268B2F1A04F7FF43F
:100E600055AE826841F4000122F0E0720A438260CC
:100E70001D481E490068B0FBF1F0401C00EB40002B
:100E8000800000E0401E00900028FBD13EE6184D97
:100E9000184BAA4207D1CD0105D422689A42F5D059
:100EA00041F0807109E0144DAA42EFD14A02EDD41D
:100EB00022689A42EAD041F48001826822F0E0720E
:100EC0000A43826022E6000000007F4000F0FF033A
:100ED000FFFF0700000020FE000008800003005014
:100EE000000021C31000C09010120020400D03002C
:100EF000000052C700010050000084CB0068006C65
:100F000070470000F8B54FF0000504002E4600952C
:100F100002D0E06D10B107E00120F8BD204600F0DE
:100F2000EFF8266684F8586020688168C1F3407144
:100F300019B181686A4A1140816020688168C1F3F3
:100F4000007189B98168674A114041F08051816020
:100F5000654866490068B0FBF1F04000801C00E085
:100F6000401E00900028FBD120688168C1F3007109
:100F700041B9E16D41F01001E165216E41F00101DF
:100F80002166012502F0AEFAE16DC90600D430B148
:100F9000E06D40F01000E06501252846F8BDE06DE9
:100FA00020F4807040F00200E0652068806810F056
:100FB000010F11D14FF0A04080684D4900F00100B1
:100FC000896801F00101084306D14A4861688268D6
:100FD00022F47C120A438260E168E06B627F08437E
:100FE000A16841EA4231084394F8241040EA0140E4
:100FF000012904D1218D404A02EB41410843E16AB5
:1010000029B101F47871226B014342EA01002168A1
:10101000CA683A4B1A400243CA6020680169626B91
:1010200021F0406111430161206802F05BFA06463D
:10103000206802F053FA30432ED1207F94F8381004
:10104000800340EA41022068C16844F202039943E8
:101050001143C16020690028206801690AD041F469
:1010600080310161206850F8C01F22696FF30D01C3
:10107000114307E021F480310161206850F8C01F5E
:101080006FF30D01016094F8400001280CD0206836
:10109000016921F001010161606901282068016B8B
:1010A00021F00F0111D013E0D4E911010843D4E974
:1010B00013121143084321680A6940F2FC739A43F2
:1010C000104340F001000861E6E7226A521E114316
:1010D0000163E06D20F0020040F00100E0655CE794
:1010E000C0FFFF5FC0FFFF7F10120020400D030014
:1010F00000010050000300500000FEFF0740F0FF19
:1011000010B586B0044614216846FFF7BBF81149B4
:10111000206888421BD11048C16C41F40051C16461
:10112000C16C01F400510591C16C41F00201C16430
:10113000C06C694600F0020005904FF4004000903A
:101140000320019000200290044800F007F906B047
:1011500010BD0000000100500010024000040048D3
:101160002DE9F04104463848806800F01F052068EA
:1011700002F0B8F918B102210846BDE8F08194F8F0
:10118000580001280CD0012084F858002046FFF7B1
:101190006DFB01004FF0000304D084F85830EBE7FA
:1011A0000220EAE7E06D40F60162904340F480706F
:1011B000E065264A20684FF0A046904201D13746AC
:1011C00000E00746874200D01DB9E76D27F480177D
:1011D000E765E76DFF0404D5276E27F0060727664D
:1011E00000E023661C27076084F85830206890428E
:1011F00001D1334600E00346834215D0A5B1052D49
:1012000012D0092D10D0E36D43F48013E3659042B2
:1012100000D13046C0688001AED5E06D20F40050AA
:1012200040F48050E065A7E7C268920105D5E26D01
:1012300022F4005242F48052E2658268044B1A4064
:10124000121D826098E7000000030050000100506A
:10125000C0FFFF7F10B590F8253000210122022B3E
:1012600003D00421C163012122E003681C6824F03B
:101270000E041C60836C1C6824F480741C6003687A
:101280001C6824F001041C6090F84430046C03F0E6
:101290001F0302FA03F36360D0E913345C60436D0B
:1012A00033B11C6824F480741C60D0E916345C608F
:1012B00080F82520002280F82420084610BD70B553
:1012C00090F82520002401212346022A07D0042279
:1012D000C26380F8251080F82430012429E00268D8
:1012E000156825F00E0515600268156825F00105E2
:1012F0001560826C156825F48075156090F844209F
:10130000056C02F01F0201FA02F26A60D0E91325AF
:101310005560426D32B1156825F480751560D0E9CD
:101320001625556080F8251080F82430816B01B1B6
:101330008847204670BD000070B5044600F0FCF8F8
:101340000546601C02D004484068044400F0F4F8EC
:10135000401BA042FAD370BD041200202DE9FC4FBF
:10136000DFF8A0A1002301250AF1040B03244FF0AC
:101370000F0C0BF1040EBDE005FA03F632406FD0FE
:101380004F68012F05D0022F03D0112F01D0122F4B
:1013900017D1D0F808905F0004FA07F829EA080985
:1013A0000097D1F80C8008FA07F848EA0908C0F855
:1013B00008804768B7430E79C6F300169E403E4347
:1013C0004660C6684FEA430804FA08F7BE4301972F
:1013D0008F6807FA08F73743C7604E68022E01D0BE
:1013E000122E13D1DE0800EB86060096366A5F07E0
:1013F000FF0E0CFA07F926EA0906D1F8109009FA4F
:1014000007F949EA0609009EC6F820900668019F80
:10141000BE430F7907F0030707FA08F73743076061
:101420004E68F60065D5384E376E47F001073766CF
:10143000366E23F0030706F001060096334E3E4455
:10144000B146B6689F074FEA17780CFA08F7BE4313
:10145000B0F1904F05D02E4FB84204D1012717E0CC
:1014600047E0002714E02B4FB84201D102270FE0DC
:10147000294FB84201D103270AE0284FB84201D1D1
:10148000042705E0264FB84201D1052700E00627D2
:1014900007FA08F73743C9F80870DAF800605746CA
:1014A000D1F8048096435FEAC83800D516433E6001
:1014B000DBF800605F46D1F8048096435FEA883825
:1014C00000D516433E60DEF800607746D1F8048010
:1014D00096435FEAC82800D516433E60094F0C3793
:1014E0003E68D1F8048096435FEA882800D5164309
:1014F0003E605B1C0A6832FA03F67FF43DAFBDE83C
:10150000FC8F000000040140001002400000014078
:101510000004004800080048000C00480010004883
:10152000001400480069084000D0012070470AB14B
:101530008161704781627047014880687047000090
:10154000041200200248816842681144816070479B
:101550000412002010B50024032000F073F80020CE
:1015600000F008F808B1012401E000F025F8204659
:1015700010BD000070B50E4E05460024706898B18D
:101580004FF47A71B1FBF0F00A490968B1FBF0F051
:1015900001F032F840B9102D06D200222946501E23
:1015A00000F030F8356000E00124204670BD0000F6
:1015B00004120020101200200A4882B0016E41F08F
:1015C00001010166016E01F001010091816D41F0A0
:1015D00080518165806D00F08050009002B000F075
:1015E000A1B8000000100240002809DB00F01F0233
:1015F000012191404009800000F1E020C0F8001175
:1016000070470000F0B40E4B1B680C46C3F3022376
:10161000C3F10705042D00D90425191D072901D29E
:10162000002300E0DB1E012606FA05F1491E2140D9
:1016300099409E40761E16403143F0BC03F06CBAD0
:101640000CED00E0064900F0070208684FF6FF03C2
:10165000184040EA0220034A104308607047000027
:101660000CED00E00000FA052B492C4B0A683221F2
:101670004A432B4940B1B0F5007F086829D020F4D7
:10168000C06040F480602CE00868C0F3412002286C
:1016900004D051F8800F20F4807022E0D1F880004F
:1016A00020F48070C1F88000086820F4C06040F425
:1016B00000700860B2FBF3F0401C00E0401E4A6975
:1016C000520501D50028F9D1486940050AD5032003
:1016D0007047C0F34120022806D051F8800F40F433
:1016E0008070086000207047D1F8800040F480705E
:1016F000C1F88000086820F4C06040F40070086001
:10170000B2FBF3F0401C00E0401E4A695205DBD5F5
:101710000028F9D1D8E700001012002040420F0045
:10172000007000400248816841F480418160704748
:10173000007000402DE9F8430446006800269D4DE6
:1017400000035ED5A86D0027C00008D4A86D40F046
:101750008050A865A86D012700F080500090DFF848
:101760005892D9F8001041F48071C9F80010FFF7C1
:10177000E3FE804606E000BFFFF7DEFEA0EB0800B8
:1017800002282BD8D9F80000C005F5D5D5F890006F
:1017900010F4407014D0216C814211D0D5F8900023
:1017A000D5F8901020F4407041F48031C5F89010C5
:1017B000D5F8901021F48031C5F89010C5F890004C
:1017C000C00711D0FFF7B8FE804641F2883907E024
:1017D000FFF7B2FEA0EB0801494501D903260BE053
:1017E000D5F890008007F3D5D5F89000216C20F44F
:1017F00040700843C5F890001FB1A86D20F08050DC
:10180000A8652078C00707D0D5F88800616820F067
:1018100003000843C5F888002078800707D5D5F86D
:101820008800A16820F00C000843C5F888002078E3
:10183000400707D5D5F88800E16820F0300008435C
:10184000C5F888002078000707D5D5F888002169F9
:1018500020F0C0000843C5F888002078800607D52E
:10186000D5F88800616920F440600843C5F8880015
:101870002078400607D5D5F88800A16920F44050AB
:101880000843C5F888002078000607D5D5F88800F9
:10189000E16920F440400843C5F888002088C0056D
:1018A00007D5D5F88800216A20F440300843C5F8F0
:1018B00088002088800507D5D5F88800616A20F463
:1018C00040200843C5F88800208840050FD5D5F88A
:1018D0008800A16A20F440100843C5F88800A06A77
:1018E000B0F5801F03D1E86840F48010E8602088DC
:1018F00000050FD5D5F88800E16A20F440000843C0
:10190000C5F88800E06AB0F5800F03D1E86840F4BC
:101910008010E8602088C0040FD5D5F88800216BBE
:1019200020F040700843C5F88800206BB0F1807F3C
:1019300003D1E86840F48010E86020884FF000612F
:1019400080040ED5D5F88800626B20F0406010430B
:10195000C5F88800606B884203D1E86840F48010C5
:10196000E860208840040ED5D5F88800A26B20F0EE
:1019700040601043C5F88800A06B884203D1E86836
:1019800040F48010E860208800040FD5D5F8880066
:10199000E16B20F040500843C5F88800E06BB0F1DF
:1019A000805F03D1E86840F48030E8603046BDE8ED
:1019B000F883000000100240007000402DE9F0475D
:1019C0000E4605004FF0000725D0DFF8AC81D8F8AF
:1019D000000000F00F00B0420CD2D8F8001021F047
:1019E0000F013143C8F80010D8F8000000F00F00D4
:1019F000B04210D12968614CC80741F2883A5AD0E8
:101A00006868DFF87C91032808D0022820682DD070
:101A1000400500282CDB0120BDE8F087206880010C
:101A2000F9D5E06800F00302E068C0F30310401C41
:101A3000032A19D0534A00BFB2FBF0F0E268C2F3A8
:101A400006225043E268C2F34162521C5200B0FBCE
:101A5000F2F0484517D9A06810F0F00F0CD08807B5
:101A600011D5A86840B10EE0474AE5E78003D0E70A
:101A700000F0B6F8484506D9A06820F0F00040F024
:101A80008000A0608027A068696820F003000843F8
:101A9000A060FFF751FD814606E000BFFFF74CFD57
:101AA000A0EB090151453AD8A068696800F00C0024
:101AB000B0EB810FF2D12868810714D5400703D518
:101AC000A06840F4E060A0602878000705D5A06811
:101AD00020F4605040F4E060A060A068A96820F0A5
:101AE000F000084304E0802F03D1A06820F0F0004C
:101AF000A060D8F80010404601F00F01B14216D99D
:101B0000016821F00F0131430160FFF715FD074621
:101B100007E000BFFFF710FDC11B514501D90320AD
:101B20007AE7D8F8000000F00F00B042F2D1287830
:101B3000400705D5A068E96820F4E0600843A0608C
:101B40002878000706D5A068296920F4605040EA8B
:101B5000C100A06000F044F8A1680C4AC1F3031171
:101B6000515C01F01F01C84009490860094800683C
:101B7000BDE8F047FFF7FEBC002002400010024025
:101B800000B4C4040024F40000366E01E0550008DF
:101B900010120020041200200548064900688968D8
:101BA000054AC1F30221515C01F01F01C840704792
:101BB0001012002000100240F055000805480649A8
:101BC00000688968054AC1F3C221515C01F01F0118
:101BD000C84070471012002000100240F055000865
:101BE000184910B58868C0F381021748012A0BD044
:101BF0008A68164BC2F38102022A06D08A68C2F3B1
:101C00008102032A03D0002010BD184610BDCA6807
:101C100002F00304CA68C2F30312521C032C02D060
:101C2000B0FBF2F001E0B3FBF2F0CA68C968C2F39E
:101C300006225043C1F34161491C4900B0FBF1F059
:101C400010BD0000001002400024F40000366E01B8
:101C50002DE9F84304007AD02078FA4DC00747D028
:101C6000A868E96800F00C0001F003010C2802D01C
:101C7000082817D001E0032914D06068B0F5803F30
:101C800017D0B0F5A02F286817D020F48030286036
:101C9000286820F4802028606068E0B1FFF74CFCE1
:101CA000064614E02868800322D560680028D2D058
:101CB0001EE0286840F48030EDE740F48020286082
:101CC000F7E700BFFFF738FC801B642870D828684E
:101CD0008003F7D50CE0FFF72FFC064605E000BFB8
:101CE000FFF72AFC801B6428F0D828688003F7D40B
:101CF000207880074CD5A868E96800F00C0001F056
:101D000003010C2802D004280DD001E002290AD0DA
:101D1000E068002828682BD040F480702860FFF726
:101D20000BFC064619E02868400502D5E06800284B
:101D300091D06868217C20F0FE4040EA0160686034
:101D4000C1480068FFF716FC002800D120E076E1CA
:101D5000FFF7F2FB801B0228B8D828684005F7D5AA
:101D60006868217C20F0FE4040EA016068600FE076
:101D700020F480702860FFF7DFFB064605E000BF17
:101D8000FFF7DAFB801B0228A0D828684005F7D4AB
:101D90002078000729D560690028D5F8940013D071
:101DA00040F00100C5F89400FFF7C6FB064606E0C8
:101DB00090E000BFFFF7C0FB801B022886D8D5F853
:101DC00094008007F6D510E020F00100C5F89400DB
:101DD000FFF7B2FB064604E0FFF7AEFB801B0228CC
:101DE00078D8D5F894008007F6D42078400761D5DC
:101DF000A86D0026C00008D4A86D40F08050A865EA
:101E0000A86D012600F08050009090480168C90537
:101E100011D40168804641F480710160FFF78CFBAA
:101E2000074604E0FFF788FBC01B022852D8D8F809
:101E30000000C005F6D5A068012815D00528D5F802
:101E4000900016D020F00100C5F89000D5F8900061
:101E500020F00400C5F89000A06841F28838B8B1BD
:101E6000FFF76AFB07460EE0D5F8900040F001004E
:101E7000F0E740F00400C5F89000F5E7FFF75CFBE1
:101E8000C11B414526D8D5F890008007F6D50CE057
:101E9000FFF752FB074604E0FFF74EFBC11B41452D
:101EA00018D8D5F890008007F6D41EB1A86D20F0A0
:101EB0008050A8652078800629D5A0690028D5F82B
:101EC000980013D040F00100C5F89800FFF734FBEC
:101ED000064606E077E000BFFFF72EFB801B0228D6
:101EE00077D8D5F898008007F6D510E020F00100EB
:101EF000C5F89800FFF720FB064604E0FFF71CFB3F
:101F0000801B022865D8D5F898008007F6D4E069D0
:101F1000F0B3A968C1F38101032961D002282868C0
:101F200020F0807028600BD0E86820F00300E860A3
:101F3000E86847490840E860FFF7FEFA04464BE0CE
:101F4000FFF7FAFA064604E0FFF7F6FA801B0228CC
:101F50003FD828688001F7D4F4E908016FF00F0238
:101F600002EB01110843218A5204490802EB415156
:101F7000A26841EA02210843217D4FF07E424908D0
:101F800002EB41610843217B40EAC160E96800E05F
:101F900062E0304A11400843E860286840F08070F1
:101FA0002860E86840F08070E860FFF7C5FA0446F2
:101FB00005E000BFFFF7C0FA001B022809D8286817
:101FC0008001F7D548E004E0FFF7B6FA001B0228CD
:101FD00002D90320BDE8F88328688001F4D43BE0EF
:101FE0000128F7D0E868226A00F00301914226D167
:101FF000616A00F0F0020901103991421FD1A26A12
:1020000000F4FE41B1EB022F19D194F82C2000F01E
:102010007841B1EBC26F12D1218E00F4C0024908A1
:102020004905A1F50011914209D194F8341000F04E
:10203000C06049084906A1F1007181420CD001201D
:10204000C8E70000001002400412002000700040A9
:10205000FFFFEEFE0C809F010020BBE770470000F1
:10206000034A012111710022024900F029B9000040
:10207000D81100202C1200202DE9F04781460F488E
:1020800004680F4EDFF83C80E0074FF001054FF485
:10209000003705D03560C8F800704846FFF7E0FF0C
:1020A000A00706D502203060C8F800704846FFF748
:1020B000D5FF89F82550BDE8F0870000542800407E
:1020C0005C2800401404014010B54FF480700C46A9
:1020D000824205D160621E4800681D49091D07E063
:1020E0004FF4007060621A480830006818490C31DB
:1020F0000968C0F305422270C0F30622627000F046
:102100007F02A270C0F38052C1F30E01E2706160E1
:10211000C0F3056184F8201000F0804100F08030A9
:10212000E16160618BB9207801F004FD2070607876
:1021300001F000FD6070A07801F0FCFCA07094F844
:10214000200001F0F7FC84F82000002010BD000002
:10215000402800400F4810B50B4601680E4801406A
:10216000080CD870C1F304245C7001F03F049C702B
:10217000C1F34231197052B901F0DCFCD8705878C3
:1021800001F0D8FC5870987801F0D4FC98700020C9
:1021900010BD0000042800403FFFFF00144810B5A8
:1021A00000680B464860124808300068C0F30E0013
:1021B00088600F48083801680E480140C1F30540A7
:1021C0001870C1F306245C7001F07F049C70890DC7
:1021D000D97052B901F0AEFC1870587801F0AAFC21
:1021E0005870987801F0A6FC9870002010BD00008F
:1021F000082800407F7F7F0070B504004FF0010089
:102200003ED094F8250028B9002084F82400204608
:1022100000F03CF8022084F825001A4ECA203060F5
:1022200053203060204601F09BFC10BB154D0C3D47
:10223000286815490840286028686168A269084331
:1022400021691143084328602189E06840EA014080
:102250000C4914390860204601F0A8FC48B9D4E9BB
:102260000721114362692B6823F060431A4311432D
:102270002960FF213160002802D1012184F8251056
:1022800070BD000024280040BFFF8FFB10B5006820
:10229000094988420FD1094850F8901F41F4004184
:1022A0000160002211462920FFF7ACF9BDE810407B
:1022B0002920FFF799B910BD002800400010024006
:1022C0002DE9F05F044690F824000B46012848D021
:1022D0004FF0010B84F824B0022084F825005948FF
:1022E000002600684FEA4060D2B3002800DBDE70B1
:1022F00098781978DA7840EA01405978090241EA79
:102300008251084393F8201040EA0165D8695F685C
:1023100005435869DFF82C910543986909F10C09C8
:102320000743CA21C9F800105321C9F800104549D4
:10233000586A4431B0F5807F4248434B4FF4003235
:10234000D0F800C04FF0FF0A28D02CF4085CC0F889
:1023500000C0022008601A60FFF7EEF880464EE0E9
:1023600002E00220BDE8F09F002800DBDE70187854
:1023700001F0E9FB0504587801F0E5FB45EA00258A
:10238000987801F0E0FB0543D87845EA805593F84A
:10239000200001F0D8FB45EA0065B7E72CF4885C23
:1023A000C0F800C0C1F800B01A60FFF7C5F8804659
:1023B00007E000BFFFF7C0F8A0EB0800B0F57A7F98
:1023C00015D820480C380068C007F3D01D482830C5
:1023D0000560001D07601B48016841F488511CE03E
:1023E000FFF7AAF8A0EB0800B0F57A7F07D9C9F883
:1023F00000A0032084F8250084F82460B2E7114887
:102400000C3800688007EBD50E4830300560001DA1
:1024100007600C48016841F4085101600A4814380B
:10242000016841F40031016007480C38016841F44B
:1024300000310160C9F800A084F825B084F8246058
:1024400000208FE718280040140401402DE9F041D6
:10245000044690F824000B4601281AD0012684F87F
:102460002460022084F82500B2B19878D97840EA37
:10247000014558781978000240EA413005431B4F66
:10248000CA20386053203860204601F069FBD8B17B
:1024900022E00220BDE8F0815878C10603D500F0A3
:1024A000EF000A305870D87801F04DFB05045878D9
:1024B00001F049FB45EA0025987801F044FB05430B
:1024C000187845EA4035DAE70948054007482038DA
:1024D0000560204601F06AFBFF21396008B984F8E5
:1024E0002560002184F82410D4E70000242800404F
:1024F0003FFFFF002DE9F047054690F824001746FE
:102500000C46012814D04FF0010985F824900220D0
:1025100085F82500DFF8A480CA21C8F800105321EF
:10252000C8F80010284601F01BFB002618B127E070
:102530000220BDE8F087214B0C3B18684FEA406051
:102540001FB3002800DBE670A0782178E27840EA2B
:1025500001406178090241EA825108431849084064
:10256000164924390860186820F480201860D4E9DE
:1025700003010843196808431860284601F016FB58
:10258000FF22C8F80020A0B115E0002800DBE670AB
:10259000207801F0D8FA0704607801F0D4FA47EA0D
:1025A0000027A07801F0CFFA0743E07847EA80508F
:1025B000D4E785F8259085F82460BAE72428004000
:1025C0007F7F7F0070B50B4D286820F020002860C9
:1025D000FEF7B2FF04464FF47A7606E0FEF7ACFF52
:1025E000001BB04201D9032070BD28688006F5D5D4
:1025F000002070BD0C28004010B5401EB0F1807F57
:1026000001D3012010BD4FF0E02460610F2160175D
:1026100002F082FA0020A06107202061002010BD96
:10262000704770477047704770477047F0B590F833
:102630003C20012A3AD0012580F83C50022280F843
:102640003D2003685A689C68194E1A4FB34201D066
:10265000BB4204D122F4700C4A6842EA0C02DFF853
:1026600058C002EA0C02D1F800C04CEA020CC3F8D0
:1026700004C00268B2420DD0B2F1804F0AD00F4BB5
:102680009A4207D00E4B9A4204D0BA4202D00D4B68
:102690009A4204D1896824F080031943916080F83C
:1026A0003D50002180F83C100846F0BD0220F0BDEE
:1026B000002C0140003401408FFFFFFD000400406A
:1026C0000008004000400140704710B5040003D0EE
:1026D00094F83D0010B107E0012010BD002084F8FF
:1026E0003C00204600F022F8022084F83D00211D25
:1026F000206801F06DFC012084F8480084F83E0059
:1027000084F83F0084F8400084F8410084F84200D7
:1027100084F8430084F8440084F8450084F84600B7
:1027200084F8470084F83D00002010BD08B500681B
:102730000B49884212D10B48816D41F0040181653B
:10274000806D002200F00400009011461E20FEF76C
:1027500059FFBDE808401E20FEF746BF08BD000037
:10276000000800400010024090F83D10012901D0FF
:1027700001207047022180F83D100168CA6842F0CC
:102780000102CA600068104988420ED0B0F1804F43
:102790000BD00E49884208D00D49884205D00D491A
:1027A000884202D00C49884207D181680B4A114007
:1027B000062906D0B1F5803F03D0016841F0010140
:1027C0000160002070470000002C01400004004020
:1027D00000080040003401400040014007000100B3
:1027E00070B5044690F83C00012814D0012584F807
:1027F0003C50022084F83D0022689068344B184019
:1028000020F47F4090600868702827D010DC10F01A
:102810000F0F03D04AE04FF0020070BD4FEA2012C4
:10282000072A43D2DFE802F05050505048313900B7
:10283000284BC21A984247D009DCB0F5805F35D0EA
:10284000B0F5005F15D0B0F1101F2FD13CE0102A79
:102850003AD0202A38D0502A28D135E0CB68D1E9A7
:102860000121206801F00CFC2068816841F07701AB
:1028700009E0CB68D1E90121206801F001FC206862
:10288000816841F48041816010E0CA68496820682D
:1028900001F00AFC5021206806E0CA6849682068F7
:1028A00001F013FC6021206801F0F4FB84F83D5036
:1028B000002084F83C0070BDCA684968206801F0B7
:1028C000F3FB40212068EFE7226801461046EBE762
:1028D00088FFCEFF20001000704770B504460068E6
:1028E00001694FF00005C943890715D4C168C94380
:1028F000890711D4E91E01610120207720688069D1
:102900008007204602D0FFF7E7FF04E000F0E3F87D
:10291000204600F0E1F8257720680169C94349079E
:1029200017D4C168C943490713D46FF0040101618A
:10293000022020772068806910F4407F204602D072
:10294000FFF7CAFF04E000F0C6F8204600F0C4F824
:10295000257720680169C943090716D4C168C943AE
:10296000090712D46FF00801016104202077206864
:10297000C0698007204602D0FFF7AEFF04E000F0F8
:10298000AAF8204600F0A8F8257720680169C94315
:10299000C90617D4C168C943C90613D46FF0100122
:1029A0000161082020772068C06910F4407F20462C
:1029B00002D0FFF791FF04E000F08DF8204600F010
:1029C0008BF8257720680169C943C90708D1C16818
:1029D000C943C90704D1891E0161204600F07EF871
:1029E00020680169C943090609D4C168C9430906B9
:1029F00005D46FF0800101612046FFF712FE2068C8
:102A00000169C943C90509D4C168C943090605D488
:102A10006FF4807101612046FFF702FE20680169B2
:102A2000C943490609D4C168C943490605D46FF0B2
:102A300040010161204600F07DF820680169C9432A
:102A4000890609D4C168C943890605D46FF02001FD
:102A500001612046FFF7E6FD20680169C943C9020C
:102A600009D4C168C943C90205D46FF4801101615A
:102A70002046FFF7D9FD20680169C943890209D4BE
:102A8000C168C943890205D46FF400110161204671
:102A9000FFF7C9FD20680169C943490209D4C1682B
:102AA000C943490205D46FF4800101612046FFF754
:102AB000BCFD20680169C94309020BD4C168C94340
:102AC000090207D46FF4000101612046BDE870409F
:102AD000FFF7FABD70BD70477047000010B504469F
:102AE0001148FFF741FE1149206888421BD1104868
:102AF0000122417B491CCBB200214373C82B01D179
:102B000041734270837B5B1CDBB283730A2B01D160
:102B100081738270C38A5B1C9BB2C382B3F5FA7F58
:102B200001D1C182C27010BD4C13002000080040CA
:102B3000D8110020704790F88010012918D0012189
:102B400080F880102421C0F8841050F8641B0A68B3
:102B50000B6823F001030B6022F000510022026099
:102B600050F8643C196020210162027710467047DA
:102B7000022070477047704770B5044690F8800097
:102B800001281DD0012084F880002420C4F884008E
:102B900020680568026822F00102026020688268ED
:102BA00022F060620A438260204601F0F9FA206850
:102BB00005602020C4F88400002084F8800070BDE7
:102BC000022070BD70B5044690F8800001281DD029
:102BD000012084F880002420C4F88400206805685F
:102BE000026822F0010202602068826822F06042DE
:102BF0000A438260204601F0D3FA20680560202055
:102C0000C4F88400002084F8800070BD022070BDEC
:102C100070477047704700002DE9F0410368044693
:102C2000D86919689A6840F60F0528424FF00005E8
:102C300009D186067ED501F0200602F080573E437A
:102C400078D0216FFFE0924E924F16400F403743ED
:102C500070D0C70709D0CF0507D501271F62D4F868
:102C60008C3043F00103C4F88C3083070AD5D307B6
:102C700008D0276802233B62D4F88C3043F0040369
:102C8000C4F88C3043070AD5D30708D0276804233B
:102C90003B62D4F88C3043F00203C4F88C30030755
:102CA0000CD501F02003334308D026680823336293
:102CB000D4F88C3043F00803C4F88C3003050BD5EE
:102CC0004B0109D526684FF400633362D4F88C3089
:102CD00043F02003C4F88C30D4F88C30002B34D06F
:102CE000800609D501F0200002F08051084303D08E
:102CF000216F09B120468847D4F88C002168896883
:102D0000490602D410F0280F21D0204601F008FB1C
:102D100020688168490615D5816821F040018160ED
:102D2000E06F78B15C498163E06FFEF7C8FA002874
:102D30000BD000E011E0E06F816B00E02046BDE8C1
:102D4000F04108472046FFF765FFBDE8F0812046C7
:102D5000FFF760FFC4F88C50F7E7E76E2026012FDD
:102D60005CD1C7065AD5CF0658D510201862206806
:102D7000816849062FD5E26F116849680904090C7A
:102D8000E3D0B4F85C308B42DFD9A4F85E10116850
:102D90000968890618D4016821F4807101602068EF
:102DA000816821F0010181602068816821F0400183
:102DB0008160C4F88860E5662068016821F0100130
:102DC0000160E06FFEF746FAB4F85C00B4F85E10FC
:102DD000401A81B21EE0B4F85C10B4F85E20891A83
:102DE000B4F85E2089B2002AAFD00029ADD00268C5
:102DF00022F49072026020688268254BDB431A40FF
:102E00008260C4F88860E56625672068026822F061
:102E1000100202602046FFF7ADFE96E7C70209D513
:102E2000570207D54FF4801018622046BDE8F041E4
:102E3000FFF7EFBE07060AD501F0800702F4000293
:102E4000174304D0616F00297FF478AF7DE7420615
:102E50000CD54A060AD51968204621F040011960B0
:102E6000C4F88460656700F035F96EE7020206D5A4
:102E70004A0004D52046BDE8F041FFF7C9BEC001B5
:102E8000CBD50029C9DA2046BDE8F041FFF773BE73
:102E900001000010200100040D43000810B50400DB
:102EA00003D0D4F8840010B107E0012010BD002049
:102EB00084F88000204600F027F82420C4F884001D
:102EC0002068016821F001010160204601F000FC4A
:102ED0000128EBD0A06A10B1204601F083F92068E8
:102EE000416821F4904141602068816821F02A0105
:102EF00081602068016841F0010101602046BDE861
:102F0000104001F0D3B9000010B586B0044614217A
:102F10006846FDF7B7F917492068884227D1164857
:102F2000016E41F480410166016E01F4804105911A
:102F3000C16C41F00101C164C06C694600F0010040
:102F400005904FF4C0600090022001900020029094
:102F50000390072004904FF09040FEF7FFF9002205
:102F600011462520FEF74EFB2520FEF73DFB06B05F
:102F700010BD0000003801400010024010B4D0F82D
:102F80008830202B1BD1B9B1B2B190F88030012B21
:102F900015D0012380F880300023C366094C0368F4
:102FA000A34206D05C68240203D51C6844F0806408
:102FB0001C6010BC01F0C6BC012010BC7047022090
:102FC000FBE700000080004010B500680D49884212
:102FD00017D10D480D4AA0F115040178608B0A291C
:102FE000115408D0401C6083BDE8104001220649FE
:102FF0000748FFF7C3BF07A001F06AFD0120607119
:10300000F2E710BD00380140ED11002054120020FD
:1030100098130020256300002DE9F8430446D0F8FA
:1030200084001F4616460D46202851D1DDB1D6B189
:1030300094F8800001284BD0012084F880004FF0E4
:103040000008C4F88C802120C4F884001834FEF7EE
:1030500073FAA6878146E68754F8100C183CB0F541
:10306000805F03D004E00120BDE8F883206920B12F
:103070002E46002584F8808010E00026FAE78021A3
:10308000204601F0CBFCB8B9C6B116F8010B216897
:103090008862B4F85600401EA4F85600B4F85600F2
:1030A0004B464FF0000200970028E8D14FF0400156
:1030B000204601F0B3FC30B10320D5E735F8020B10
:1030C000C0F30800E3E72020C4F884000020CBE729
:1030D0000220C9E77047FEE700B585B014216846B5
:1030E000FDF7D0F84FF6FF70009000200321CDE9E6
:1030F0000201019069460248FEF730F905B000BDB3
:103100000008004800B585B014216846FDF7BAF8FC
:103110004FF6FF70009001200190032003900020E3
:10312000029069460248FEF719F905B000BD00009B
:103130000008004870B5002406462146204600F0ED
:1031400003F900F045F94FF49635304600F010F9D8
:10315000641CAC42F9D370BD30B587B01421684609
:10316000FDF790F81E48C16C41F00401C164C16CC8
:1031700001F004010591C16C41F00101C164C16C11
:1031800001F001010591C16C41F00201C164C06C04
:10319000012500F0020005904FF44870CDE90005CC
:1031A00000240394694602940E48FEF7D7F82802DB
:1031B00003940090CDE901544FF0904469462046B5
:1031C000FEF7CCF8FFF79EFFA06940F48070A06185
:1031D00004481830016841F40871016007B030BD3F
:1031E0000010024000040048203AD2B2034B02EB28
:1031F000420203EB021200F019B8000006000020A2
:10320000F0B50E460746002540F23F1407E0214680
:103210003846FFF7E9FF103C6D1CA4B2761C3278EB
:10322000002A01D0142DF2D3F0BD00002DE9F047A3
:1032300091468A460026044600F086F8DFF8408072
:10324000012700BF00F0C4F85FF0000539F8160050
:1032500007FA05F10842404601D1408800E00088A5
:1032600000F086F86D1C102DF0D3641CE4B25146BA
:10327000204600F069F8761C182EE3D3BDE8F087ED
:103280000000002010B5FFF767FF002000F014F8E1
:10329000084CA080A088A0F50241303906D000F08B
:1032A00041FB002000F008F8A08010BD00F0B1FA4A
:1032B000F7E700000000002070B51D490A6842F4DD
:1032C00000720A600A6842F480720A60184C103C6E
:1032D000226842F020022260164A1060086840F01E
:1032E0002000086000BF00BF00BF206840F0200041
:1032F0002060206840F480702060FFF7EDFE4FF002
:103300009041886A40F48070886200BF00BF00BFAF
:103310000848001F006885B2886940F480708861A1
:10332000FFF7F0FE206840F400702060284670BD72
:10333000280400481408004801B5BDF80000014900
:10334000488008BD0000002010B50C460146202032
:1033500000F070F82146BDE81040212000F06AB866
:1033600001B5BDF800000149088008BD000000203B
:1033700030B5154B1968154A8CB2116841F40071CB
:103380001160124910390D6845F480750D600D68A3
:1033900045F020050D601860106840F020001060B6
:1033A00000BF00BF00BF086840F020000860086848
:1033B00040F48070086000BF00BF00BF086840F4A0
:1033C000007008601C6030BD1408004828040048E4
:1033D000164A10B51068164983B2086840F40070A8
:1033E0000860086840F4807008601148103804686C
:1033F00044F020040460222414600C6844F020048B
:103400000C6000BF00BF00BF016841F020010160F7
:10341000016841F48071016000BF00BF00BF016816
:1034200041F400710160136010BD000014080048F1
:103430002804004870B51A4C22681A4B95B21A68D5
:1034400042F400721A601A6842F480721A60154AD7
:10345000103A166846F0200616602060186840F0A2
:103460002000186000BF00BF00BF106840F02000BF
:103470001060106840F4807010602160186840F09F
:103480002000186000BF00BF00BF106840F020009F
:103490001060106840F480701060256070BD0000FE
:1034A000140800482804004810B5084C207A002869
:1034B0004FF0010002D000F055FE01E000F018FED0
:1034C000207A80F00100207210BD0000D811002089
:1034D00000EB8100006E00F0F84070478068C0F398
:1034E000C00070478068C0F380007047042303EA7F
:1034F000D15310B518444369C1F3045107248C40DB
:10350000A3438A401343436110BD00EB8100016E69
:1035100021F00041114301667047000030B589B0C9
:1035200020216846FCF7AEFE1948184900240160C6
:103530004902C0E90114C46004250461C0E90545DD
:10354000047744770121016280F82440C462046357
:1035500080F83840C46380F84040FDF7D3FC08B1E0
:10356000FDF76EFA0B4800900620CDE901047F209C
:103570000594CDE9030569460548FDF7ADFA002835
:1035800001D0FDF75DFA09B030BD00000001005028
:10359000B81200200080F03E2DE9F04186B01421E1
:1035A0006846FCF76FFE2F48C16C41F00401C1640E
:1035B000C16C01F004010591C16C41F02001C164AE
:1035C000C16C01F020010591C16C41F00101C164A1
:1035D000C16C01F001010591C16C41F00201C164AF
:1035E000C16C01F002010591C16C41F00801C16498
:1035F000C06C1D4F00F008004FF48076059000224B
:1036000031463846FDF793FFDFF860800022042141
:103610004046FDF78CFF00240125CDE900546946A2
:103620004FF090400294FDF799FE0720CDE9000489
:1036300069460F480294FDF791FE0096CDE90154CA
:10364000694638460394FDF789FE04200090CDE9D1
:103650000154694640460394FDF780FE06B0BDE87C
:10366000F08100000010024000080048000C0048F3
:103670000004004810B590B014210AA8FCF702FE1F
:103680000024282168460F94FCF7FCFD2A482949AC
:10369000C0E900147F218160FF21C0E903144FF0CD
:1036A00080414461C0E906410462FEF7A5FD08B10E
:1036B000FDF7C6F923208DF8280059208DF8290040
:1036C00055208DF82A000B940D9401220AA91A485E
:1036D0000E94FEF70FFF08B1FDF7B2F901208DF847
:1036E0003C008DF83D008DF83E0002468DF83F40CD
:1036F0000FA91148FEF7AAFE08B1FDF7A1F90220B3
:103700008DF800408DF820008DF80140C0018DF843
:103710000240019409900594069407940122694699
:103720000548FEF7CDFD002801D0FDF789F910B05E
:1037300010BD0000002800402413002010B588B000
:10374000002417480094019402940394049405946F
:103750001249069401604F21C0E9011440F2E7319B
:10376000C0E903148461FEF7B0FF08B1FDF768F902
:103770004FF48050009069460948FFF731F808B1CE
:10378000FDF75EF9049404A905480694FEF74EFF80
:10379000002801D0FDF754F908B010BD0008004022
:1037A0004C130020184810B5164901604FF416510B
:1037B0004160002181600C22C160C0E90412816176
:1037C000C161016241628162FFF768FB08B1FDF7E8
:1037D00037F900210C48FFF7F5F908B1FDF730F98A
:1037E00000210948FFF7C8F908B1FDF729F9064893
:1037F000FFF7A1F9002803D0BDE81040FDF720B97C
:1038000010BD00000038014098130020FEE7FEE7DD
:10381000704730B501210020FFF70CFE4FF47A709D
:10382000FDF760F800210120FFF704FE41F29071DE
:103830001020FFF7FFFD4FF41C516020FFF7FAFD49
:1038400001216120FFF7F6FD02214620FFF7F2FD7E
:1038500048F210011320FFF7EDFD48F2FE0112209F
:10386000FFF7E8FD4FF4A0610220FFF7E3FD41F20E
:1038700030010320FFF7DEFD40F203342146302003
:10388000FFF7D8FD21463120FFF7D4FD2146322035
:10389000FFF7D0FDE51E29463320FFF7CBFD0321BE
:1038A0003420FFF7C7FD21463520FFF7C3FD142163
:1038B0003620FFF7BFFD21463720FFF7BBFD21462D
:1038C0003820FFF7B7FD21463920FFF7B3FD294621
:1038D0003A20FFF7AFFD03213B20FFF7ABFD214668
:1038E0003C20FFF7A7FD4FF4A0513D20FFF7A2FDBC
:1038F0004FF400719220FFF79DFD21469320FFF7C2
:1039000099FD40F60D019020FFF794FD41F218015A
:103910000320FFF78FFDBDE8304040F27311072010
:10392000FFF788BD10B543F20801E320FFF782FDE1
:103930001221E720FFF77EFD41F23121EF20FFF752
:1039400079FD00210120FFF775FD4FF4E0610220B1
:10395000FFF770FD41F230010320FFF76BFD0021FE
:103960000420FFF767FD40F207210820FFF762FD02
:1039700000210920FFF75EFD00210A20FFF75AFD14
:1039800000210C20FFF756FD00210D20FFF752FD0E
:1039900000210F20FFF74EFD00211020FFF74AFD08
:1039A00007211120FFF746FD00211220FFF742FDFD
:1039B00000211320FFF73EFDC820FDF7BDFC41F2BA
:1039C00090611020FFF736FD40F227211120FFF70C
:1039D00031FD3220FDF7B0FC1D211220FFF72AFD3A
:1039E0003220FDF7A9FC4FF400611320FFF722FD00
:1039F00014212920FFF71EFD0B212B20FFF71AFDB4
:103A00003220FDF799FC00212020FFF713FD002153
:103A10002120FFF70FFD07213020FFF70BFD40F2BB
:103A200007713120FFF706FD06213220FFF702FD66
:103A300040F204713520FFF7FDFC41F60471362099
:103A4000FFF7F8FC04213720FFF7F4FC00213820B1
:103A5000FFF7F0FC40F206713920FFF7EBFC40F273
:103A600001713C20FFF7E6FC0F213D20FFF7E2FC4F
:103A700000215020FFF7DEFCEF215120FFF7DAFC98
:103A800000215220FFF7D6FC40F23F115320FFF7F0
:103A9000D1FC4FF41C516020FFF7CCFC01216120C8
:103AA000FFF7C8FC00216A20FFF7C4FC002180203A
:103AB000FFF7C0FC00218120FFF7BCFC0021822021
:103AC000FFF7B8FC00218320FFF7B4FC002184201D
:103AD000FFF7B0FC00218520FFF7ACFC10219020FF
:103AE000FFF7A8FC00219220FFF7A4FC03219320FC
:103AF000FFF7A0FC4FF488719520FFF79BFC002195
:103B00009720FFF797FC00219820FFF793FC41F2E4
:103B100018010320FFF78EFCBDE8104040F273113E
:103B20000720FFF787BC00000148FEF7A5BA000098
:103B300024130020010901EB810100F00F0000EBCC
:103B40004100C0B270470022014602E00A39C9B202
:103B5000521C0A29FAD2100741EA1060704700008F
:103B60002DE9F047104C814600252068400618D406
:103B7000206840F080002060FDF7DEFC06464FF430
:103B80007A78032708E000BFFDF7D6FC801B40458C
:103B900002D9032589F825702068400601D4032D39
:103BA000F2D12846BDE8F0870C2800402DE9F0410D
:103BB000064613480025016821F080010160104C81
:103BC0000C3420684FF00307800607D43046FEF718
:103BD000F9FC90B186F8257003250EE0206820F0EE
:103BE000200020603046FEF7EDFC10B186F825700D
:103BF0000325206840F0200020602846BDE8F081C1
:103C00000C2800402DE9F041564F01213846FDF7C0
:103C100089FC554C002530B101213846FDF782FC66
:103C200001280BD00BE0607A401CC0B26072012802
:103C300005D1207880F00100207000E0657202213B
:103C40003846FDF76FFC30B102213846FDF76AFCBB
:103C5000012831D031E0A07A401CC0B2A072012806
:103C60002BD1A079414E4FF6FF7810B1012824D115
:103C700012E000234FF480723C493D48FEF724FADD
:103C80003078A0747078E074B07820754046FFF703
:103C900051FA0120A07110E04046FFF74BFAA07CDA
:103CA0003070E07C7070207DB07000222F49304869
:103CB000FEF706FBA57100E0A57204213846FDF76A
:103CC00031FC30B104213846FDF72CFC012812D01C
:103CD00012E0E07A401CC0B2E07201280CD1A07959
:103CE000012809D1E0790321B0FBF1F201FB1200B8
:103CF000401CE07100E0E5724FF090460121304633
:103D0000FDF710FC40B101213046FDF70BFC012806
:103D100000D12573BDE8F081207B401CC0B2207328
:103D20000128F7D1E07901280BD0022811D003280F
:103D3000F0D1207D401CC0B220753C28EAD1257509
:103D4000E8E7A07C401CC0B2A0741828E2D1A5749A
:103D5000E0E7E07C401CC0B2E0743C28DAD1E574B6
:103D6000D8E7000000040048D81100202C120020E1
:103D7000241300207047000070B50020FFF7F0FA10
:103D800059A13020FFF73CFA5C4D0A244FF47846E5
:103D9000E87901285AD00020FFF7E2FAA87CDF2159
:103DA000B0FBF4F03030C2B26020FFF71DFAA87CFF
:103DB000B0FBF4F104FB1102CF2160203032FFF799
:103DC00013FAE87902285BD00020FFF7C9FAE87CF3
:103DD000AF21B0FBF4F03030C2B26020FFF704FA3C
:103DE000E87CB0FBF4F104FB11029F21602030322B
:103DF000FFF7FAF9E87903285CD00020FFF7B0FA62
:103E0000287D7F21B0FBF4F03030C2B26020FFF794
:103E1000EBF9287DB0FBF4F104FB11026F21602067
:103E20003032FFF7E1F90020FFF79AFA2D22BF2187
:103E30006020FFF7D9F92D228F216020FFF7D4F9F8
:103E4000BDE870402EA1C020FFF7DAB93046FFF779
:103E500087FAA87CDF21B0FBF4F03030C2B26020DA
:103E6000FFF7C2F9A87CB0FBF4F104FB1102CF21EB
:103E700060203032FFF7B8F90020FFF771FAA0E7B1
:103E80003046FFF76DFAE87CAF21B0FBF4F030303C
:103E9000C2B26020FFF7A8F9E87CB0FBF4F104FBA4
:103EA00011029F2160203032FFF79EF90020FFF7BA
:103EB00057FA9FE73046FFF753FA287D7F21B0FB82
:103EC000F4F03030C2B26020FFF78EF9287DB0FBED
:103ED000F4F104FB11026F2160203032FFF784F906
:103EE0000020FFF73DFA9EE72020202020202053CD
:103EF000455454494E47202020000000D81100208E
:103F000020202020202020202020202020202020B1
:103F100020320000FDF716BB30B5A5B03821684649
:103F2000FCF7B0F914211FA8FCF7ACF944210EA846
:103F3000FCF7A8F94FF400752846FDF795FB09201A
:103F40000090E80101900120059002210324CDE9B1
:103F500007141420CDE90A0109940C9168460D91CB
:103F6000FDF776FE08B172B6FEE70F20CDE91F041B
:103F700000242194229402211FA82394FDF71EFD02
:103F800008B172B6FEE70748CDE90E044007CDE957
:103F90001D050EA8FDF7CEFB002801D072B6FEE786
:103FA00025B030BD018008000548016841F470016A
:103FB000016003494FF000608039086070470000DD
:103FC00088ED00E00148FEF788BC00004C1300209B
:103FD0002DE9F0430268234B234D244E244C4FF02F
:103FE0008049984207D0484505D0A84203D0B04246
:103FF00001D0A04203D122F070074A683A431D4F16
:10400000DFF874C0DFF8748098420DD048450BD0BB
:10401000A84209D0B04207D0A04205D0B84203D090
:10402000604501D0404503D122F44075CA682A4357
:104030004D6922F080022A4302608A68C2620A68DF
:104040008262984207D0A04205D0B84203D06045B2
:1040500001D0404501D10969016301214161BDE8F9
:10406000F0830000002C01400004004000080040E4
:10407000003401400040014000440140004801403C
:1040800010B5846842EA032224F47F440A432243A1
:10409000826010BD8268034B1A400A4342F0070158
:1040A000816070478FFFCFFF10B5036A046A24F068
:1040B00001040462846924F0F00444EA021423F049
:1040C0000A020A438461026210BD10B5036A23F03C
:1040D000100303628369046A23F4704343EA0232E3
:1040E00024F0A00343EA01118261016210BD0000C7
:1040F00070B50B4C0121C01D8140208B094D01433F
:104100002183012204212846FDF711FA0649208B5C
:1041100008602846BDE8704000220421FDF707BA78
:10412000D8110020000C00481408004870B50A4C53
:104130004FF47F40094D2083012204212846FDF7DA
:10414000F6F90749208B08602846BDE87040002238
:104150000421FDF7ECB90000D8110020000C004844
:104160001408004870B50B4C0121C01D8140208B04
:10417000094D88432083012204212846FDF7D7F901
:104180000649208B08602846BDE8704000220421C3
:10419000FDF7CDB9D8110020000C004814080048E4
:1041A00030B5416EB9B1026891689268C1F342615D
:1041B0000B4B520F9C5CE50003F10804A25CB5FBBD
:1041C000F2F2A0F86A205A5C615CD200B2FBF1F115
:1041D000A0F8681030BD0121A0F86A10F8E70000CF
:1041E000D055000890F82810C90706D001684A6821
:1041F000C36A22F400321A434A6090F828108907F3
:1042000006D501684A68036B22F480321A434A607B
:1042100090F82810490706D501684A68436B22F4D4
:1042200080221A434A6090F82810090706D50168D1
:104230004A68836B22F400421A434A6090F82810BF
:10424000C90606D501688A68C36B22F480521A43F6
:104250008A6090F82810890606D501688A68036C80
:1042600022F400521A438A6090F82810490611D5AA
:1042700001684A68436C22F480121A434A60416C18
:10428000B1F5801F06D101684A68836C22F4C00230
:104290001A434A6090F82810090606D501684A6852
:1042A000C06C22F4002202434A607047F8B5002631
:1042B0000446C0F88C60FDF73FF9054620680068A9
:1042C0006FF07E47000708D52B4600224FF40011FF
:1042D0002046009700F0A2FB60B920680068400704
:1042E0000AD52B4600224FF480012046009700F0AB
:1042F00095FB08B10320F8BD2020C4F88400C4F861
:10430000880044F86C6F00202675F8BD10B5806AEF
:104310000021A0F85E10A0F85610FEF77BFC10BD3F
:1043200001680A6822F490720A6001688A68094B81
:104330001A408A60C16E012904D101680A6822F01E
:1043400010020A602021C0F888100021C1660167B0
:1043500070470000FEFFFFEF70B5B0F86010D0F8B6
:10436000882004460068222A04D0816941F00801AF
:10437000816170BD406AA26D08401080A06D801CF4
:10438000A065B4F85E00401EA4F85E00B4F85E00BC
:104390000028EED12068016821F490710160206846
:1043A000816821F0010181602020C4F88800002587
:1043B0002567E06E012804D02046FEF705FEE5667D
:1043C00070BD2068016821F010010160B4F85C1034
:1043D0002046FEF7CFFBF2E72DE9F0470446B0F8A0
:1043E00060600068C569D0F800A0D0F80880D4F8F3
:1043F0008810222905D0816941F008018161BDE85A
:10440000F087B4F868704FF000095BE02068406AFC
:10441000A16D30400880A06D801CA065B4F85E00DE
:10442000401EA4F85E002068C569690730D0E9071E
:104430000AD05FEACA5107D501210162D4F88C0085
:1044400040F00100C4F88C00A8070BD55FEAC870E3
:1044500008D0216802200862D4F88C0040F00400E3
:10446000C4F88C0068070BD55FEAC87008D02168D3
:1044700004200862D4F88C0040F00200C4F88C00DC
:10448000D4F88C0020B12046FEF7C4FBC4F88C9011
:10449000B4F85E00B0B92068016821F48071016051
:1044A00020688168194A114081602020C4F8880082
:1044B000C4F87090E06E01281CD02046FEF784FD01
:1044C000C4F86C900FB1A806A0D4B4F85E00002820
:1044D00095D0B4F86810814291D92068816821F0A4
:1044E000805181600A4820672068016841F02001FE
:1044F000016084E72068016821F010010160B4F8D0
:104500005C102046FEF736FBDAE70000FEFFFFEF07
:104510005943000870B5B0F86010D0F88820044600
:104520000068222A04D0816941F00801816170BDD0
:10453000406A0840A16D0870A06D401CA065B4F8E9
:104540005E00401EA4F85E00B4F85E000028EED1C4
:104550002068016821F4907101602068816821F071
:10456000010181602020C4F8880000252567E06EE5
:10457000012804D02046FEF727FDE56670BD2068BF
:10458000016821F010010160B4F85C102046FEF7CC
:10459000F1FAF2E72DE9F0470446B0F860600068F0
:1045A000C569D0F800A0D0F80880D4F88810222976
:1045B00005D0816941F008018161BDE8F087B4F858
:1045C00068704FF000095BE02068406AA16D3040E0
:1045D0000870A06D401CA065B4F85E00401EA4F8F1
:1045E0005E002068C569690730D0E9070AD05FEA34
:1045F000CA5107D501210162D4F88C0040F00100B6
:10460000C4F88C00A8070BD55FEAC87008D02168F1
:1046100002200862D4F88C0040F00400C4F88C003A
:1046200068070BD55FEAC87008D0216804200862CB
:10463000D4F88C0040F00200C4F88C00D4F88C0050
:1046400020B12046FEF7E6FAC4F88C90B4F85E007C
:10465000B0B92068016821F4807101602068816828
:10466000194A114081602020C4F88800C4F8709075
:10467000E06E01281CD02046FEF7A6FCC4F86C9022
:104680000FB1A806A0D4B4F85E00002895D0B4F805
:104690006810814291D92068816821F08051816041
:1046A0000A4820672068016841F02001016084E722
:1046B0002068016821F010010160B4F85C10204608
:1046C000FEF758FADAE70000FEFFFFEF1545000895
:1046D0002DE9F0410446016880682269E3691043CE
:1046E000626900251A431043DFF82CC20A688B4B1D
:1046F0001A4002430A6020684168E26821F4405190
:10470000114341602168A069614501D0226A1043CC
:104710008A68834B1A4002438A602068C16A626AD1
:1047200021F00F011143C1627E4923687E488B420C
:104730000DD1D0F8880010F0030006D0012855D024
:10474000022842D003283FD152E001203DE07749C2
:104750008B420BD1D0F8880010F00C0035D0042823
:1047600033D0082840D00C282ED141E070498B422C
:104770000BD1D0F8880010F0300026D0102835D0AA
:10478000202831D030281FD132E06A498B420BD12A
:10479000D0F8880010F0C00017D0402826D080281C
:1047A00022D0C02810D123E063450DD1D0F8880075
:1047B00010F4406009D0B0F5806F17D0B0F5006FED
:1047C00012D0B0F5406F13D010205B4A5B4F00262B
:1047D0004FF40041634539D160B102280DD004285F
:1047E0000DD0082831D10EE00220EEE70420ECE7DE
:1047F0000820EAE7FDF7D0F903E0114603E0FDF7F2
:10480000EFF901007DD0606A37F810206768B1FBCE
:10481000F2F007EB470383426CD8B0EB073F69D84F
:10482000002308461946FBF7F5FC090241EA10612E
:1048300002027808101871413A460023FBF7EAFC9F
:104840003F4AA0F54071914259D953E0E3694FF6D0
:10485000EF788B422DD109284CD2DFE800F0050813
:104860000D4B274B4B4B0E00FDF796F901E0FDF782
:10487000A5F9010001D144E01146606A37F8100043
:10488000B1FBF0F04100606801EB5001B1FBF0F0CA
:1048900080B2A0F1100141452CD84FF6F0710140D3
:1048A000C0F3420001432068C1602AE0FDF798F997
:1048B000DFE709281ED2DFE800F005080D1D1F1DE7
:1048C0001D1D0E00FDF768F901E0FDF777F9010005
:1048D00001D116E01146606A37F81000B1FBF0F123
:1048E000606801EB5001B1FBF0F080B2A0F1100163
:1048F000414504D9012504E0FDF772F9E7E7216895
:10490000C8600120A4F86A0024F8680F2846A66051
:10491000E660BDE8F081000000800040F369FFCF51
:10492000FFF4FF1100380140001002400044004035
:1049300000480040004C00400024F400B855000836
:10494000FFFC0F0070B58165A0F85C20A0F85E2028
:104950000021016783684FF48056FF24B34204D1DD
:104960000369D3B940F2FF131DE07F259BB1B3F17A
:10497000805F15D0A0F86010C0F88C102223C0F81A
:10498000883003689C6844F001049C60436EB3F176
:10499000005F0ED027E0036943B9A0F86040EBE761
:1049A00003691BB13F23A0F86030E5E7A0F8605031
:1049B000E2E7B0F86830934215D88268B24201D17C
:1049C000026972B1114A026780F8801001680A68B2
:1049D00042F480720A600068816841F08051816011
:1049E0000FE00B4AEFE78268B24201D1026952B18F
:1049F000084A026780F880100068016841F49071ED
:104A00000160002070BD044AF3E7000095450008EE
:104A1000D943000815450008594300082DE9F0471F
:104A20009A4617460E4604464FF000094FF02008FC
:104A3000089D39E0681C37D0FCF77EFDA0EB0A002A
:104A4000A84222D80DB32068016849072CD5C06957
:104A5000C043000528D421684FF400600862206834
:104A6000016821F4D07101602068816821F00101A2
:104A70008160C4F88480C4F88880C4F88C8000BF4A
:104A800084F880900320BDE8F0872068016821F455
:104A9000D07101602068816821F001018160C4F853
:104AA0008480C4F88880EBE72068C06936EA00009B
:104AB00004D00020B842BDD00020E4E70120F9E78F
:104AC0000148FEF7A9B8000098130020FEE7000097
:104AD0000FB4054B10B503A9044A029800F0FEF884
:104AE00010BC5DF814FB0000ED5300081412002008
:104AF0000FB4084B10B504A902AA039800F0EEF811
:104B0000044602A9002000F06CFC204610BC5DF8B1
:104B100014FB0000E35300080907090E002804DB1A
:104B200000F1E02080F80014704700F00F0000F161
:104B3000E02080F8141D704702E008C8121F08C169
:104B4000002AFAD170477047002001E001C1121F0E
:104B5000002AFBD1704700002DE9FF5F82B00021E1
:104B6000DDE90430020DDDF840B0034318D044F60F
:104B70001050A2F2FF3242431514119801281FD0A1
:104B8000A5EB0B00401C5FEA000A4FF000064E4FF9
:104B9000DFF83891B046504615D5CAF1000413E04D
:104BA000119801244AA3012801D16FEA0B01029850
:104BB000119AC0E90031C0E9024206B0BDE8F09F99
:104BC000CBF10000DFE704460021404A491842EBE0
:104BD0000450CDE9001012E0E00707D032463B4612
:104BE00040464946FBF748FC8046894632463B46EC
:104BF00010461946FBF740FC06460F466410002C91
:104C0000EAD1DDE90401DDE90023BAF1000F06DA9B
:104C1000FBF732FC42464B46FBF72EFC05E0FBF768
:104C20009DFC42464B46FBF799FC04460E4600228B
:104C3000284BFBF71BFD03D84FF0FF30014607E080
:104C40000022254B20463146FBF76FFBFBF7F5FCB6
:104C5000102409E0002C0ADB0A220023FBF7DAFA11
:104C6000039B30321A55641E50EA0102F2D1641CD3
:104C7000039AC4F111031444119A012A03D00122AA
:104C800008430DD10AE0084304D000204FF0110B77
:104C9000119072E7A3EB0B056D1E0DE05B4504DD83
:104CA0004FF0000205F1010504E003DA4FF00002C5
:104CB000A5F10105002AECD002981199C0E9023152
:104CC000C0E9004579E70000000014400000F03F13
:104CD000300000000000F0430000E03F2DE9FF4FEE
:104CE00095B09A46884606460025EEE1252877D1FC
:104CF00000242746F94A0121039400E0044316F8F2
:104D0000013F203B01FA03F01042F7D130782A2806
:104D100011D06FF02F033078A0F13002092A16D895
:104D2000039A44F0020402EB820203EB42021044B5
:104D3000761C0390EFE758F8042B0392002A03DA5D
:104D4000504244F40054039044F00204761C30783E
:104D50002E2816D116F8010F44F004042A280DD08D
:104D60006FF02F023078A0F13003092B09D807EB40
:104D7000870302EB4303C718761CF3E758F8047B5C
:104D8000761C30786C280FD006DC4C2817D06828A9
:104D90000DD06A2814D104E0742810D07A280FD1DD
:104DA0000DE044F400140AE044F4801401E044F4FB
:104DB00040147278824202D104F58014761C761C6D
:104DC000307866280BD013DC582877D009DC00280F
:104DD00075D04528F6D04628F4D047281AD193E15B
:104DE00018E0632835D0642879D0652812D18BE18A
:104DF000702873D008DC6728F1D069286FD06E283E
:104E00000DD06F2806D1ACE073282CD0752874D053
:104E1000782853D05246179990476D1C54E1C4F33B
:104E20000250022809D003280DD0D8F80010042819
:104E30000DD00D6008F1040846E1D8F80010EA171B
:104E4000C1E90052F6E7D8F800100D80F2E70D70C6
:104E5000F0E718F8041B8DF8001000208DF8010011
:104E6000EB46012003E058F804BB4FF0FF30610728
:104E70004FF0000102D40DE009F101018946B94269
:104E80000FDA8145F8DB1BF809100029F4D108E09E
:104E900009F1010189468142FADB1BF8091000295A
:104EA000F6D103985346A0EB090721463846179AD6
:104EB00000F080FA284400EB090507E044E008E12F
:104EC0000DE01BF8010B524617999047B9F1010903
:104ED000F7D2534621463846179AF2E039E00A21C4
:104EE000C4F302524FF0000B0091022A06D058F88A
:104EF000040BC117032A09D00AE023E008F10700D8
:104F000020F00702F2E80201904605E000B2C11766
:104F1000042A01D140B2C117002906DA0A4600214D
:104F2000404261EB02012D2202E0220504D52B2232
:104F30008DF80420012203E0E20701D02022F7E7E8
:104F4000914657E00A2100E010214FF0000B00913C
:104F50000BE010214FF0000B44F0040408270091EF
:104F600003E008204FF0000B0090C4F30252022A25
:104F700005D058F8040B0021032A08D008E008F1F6
:104F8000070020F00702F2E80201904603E080B239
:104F9000042A00D1C0B24FF0000922072AD5327886
:104FA000702A07D0DDF800C08CF0100C5CEA0B0C06
:104FB00005D00EE040228DF80420012208E050EADE
:104FC000010306D030238DF804308DF8052002222D
:104FD0009146009B83F0080353EA0B030AD150EA81
:104FE000010201D1620705D530228DF804204FF06F
:104FF00001097F1E3278582A04D039A20C920CAADB
:1050000002920BE03BA2F9E75B46009AFBF702F93C
:105010000C9B9B5C029A521E0292137050EA010292
:10502000F2D1029804A9081A00F1200B600702D5FA
:1050300024F4803400E001275F4502DDA7EB0B007C
:1050400000E0002000EB0B01009003984944401A57
:105050000390E00306D453462146179A039800F0C4
:10506000A9F90544002706E001A85246C05D17993A
:1050700090476D1C7F1C4F45F6DBE0030CD5534673
:105080002146179A039800F095F9054404E0302072
:105090005246179990476D1C0099481E00900029B0
:1050A000F5DC08E00298029952460078491C02910A
:1050B000179990476D1CBBF10001ABF1010BF1DCBE
:1050C0005BE100F065F90544761C307800287FF438
:1050D0000DAE19B02846BDE8F08F00000928010088
:1050E000303132333435363738396162636465665E
:1050F0000000000030313233343536373839414220
:105100004344454600000000600700D4062708F12C
:10511000070020F00700F0E80223804603F0004C6F
:105120005FEA0C0001D097A009E0200501D596A008
:1051300005E0E00701D095A001E0AFF24C0013902C
:10514000307823F0004365280CD006DC452809D0D0
:1051500046281DD047287FD13BE0662818D0672815
:105160007AD136E00021112F01DB112000E0781CFC
:10517000CDE9000104A90CA8FFF7EEFCDDE90D0163
:105180000C9A4FF0000B07F10109109200914EE0CC
:105190004FF000400097CDE9011004A90CA8FFF7DB
:1051A000DBFCDDE90D020C9B0F994FF0000B9146E3
:1051B0001093009211B9791C00EB0109B7EB0900BB
:1051C00003D4C0F1FF3B07F10109A9EB07000190EF
:1051D00042E0012F00DA01270021112F01DD11200B
:1051E00000E03846CDE9000104A90CA8FFF7B4FCA3
:1051F000DDE90D010C9A00914FF0000BB9461092B9
:1052000021070FD4009A4A4503DA914601E0A9F13B
:105210000109B9F1010F05DD109AA9F10101515CF5
:105220003029F4D0B84202DA10F1040F03DA012178
:10523000CDE9011010E0002803DC8344A9EB000154
:1052400002E0411C494500DD8946A0EB0B00401CF3
:1052500001904FF000400290200705D40198484586
:1052600002DB4FF0FF30019000208DF84B000298D8
:105270000DF14B07B0F1004F25D002200C902B20F0
:105280000D90029800280CDA404202902D200D90DB
:1052900007E00A210298FBF713F83031029007F873
:1052A000011D0C99481E0C900029F2DC0298002880
:1052B000EFD1791E0D980870307800F0200040F092
:1052C000450007F8020D11A8C01BC01D02901398DD
:1052D000007800B1012000EB0901019801EBE071B9
:1052E000029801440398401A401E0390E00306D43C
:1052F00053462146179A039800F05CF8054413982A
:10530000007818B15246179990476D1CE00323D5D9
:1053100053462146179A039800F04CF805441BE0C9
:10532000BBF1000F07DB0098584504DD1098179972
:1053300010F80B0001E01799302052469047019871
:105340000BF1010B401E05F10105019004D12E2047
:105350005246179990476D1CB9F10001A9F1010956
:10536000DEDC05E017F8010B5246179990476D1CDB
:105370000299481E02900029F4DC53462146179AF0
:1053800003989EE62D0000002B0000002000000086
:105390002DE9F041044600251E461746880404D432
:1053A00005E039462020B0476D1C641EF9D528461B
:1053B000BDE8F0812DE9F041044600251E469046E7
:1053C000C80301D5302700E02027880404D505E074
:1053D00041463846B0476D1C641EF9D52846BDE8E5
:1053E000F0810A68531C0B601070704713B54FF0C2
:1053F000FF33012269460248FDF70EFE00981CBDEE
:105400009813002010B50448FBF7AAFEBDE8104031
:105410000148FBF773BD0000B812002086B0FCF70E
:1054200099F8FEF779FDFEF7B7F8FEF723F9FEF7D6
:10543000B9F9FEF783F9FEF771F87F214E48FBF7C3
:1054400001FBFDF71FFF4FF6FF742046FDF772FECC
:105450002046FDF771FF0020FDF782FFFEF766FE94
:10546000002246494648FCF72BFF4648FDF77CF9E9
:10547000012245494548FDF781FDDFF80081424C96
:1054800008F128080027153CFBF7CEFAA07810B1E8
:10549000A770FEF7B7FB60782178084210D06770DC
:1054A00094ED070AD4ED080A20EE200AD4ED0A0A8A
:1054B000B4EEE00AF1EE10FA06D2FDF7F5FF03E0D4
:1054C00011B90120FEF714FE207928B32B490022E0
:1054D00014392B48FCF762FE2B4900220F31284873
:1054E000FCF738FE206AFAF7D8FE05460E46A06A99
:1054F000FAF7D3FE41EC100B20481438817842783B
:105500000078CDE90202CDE90056049153EC102B4E
:105510001FA0FFF7DDFA277160790028B4D0608BF7
:1055200004281ED198F8000045466B2819D16878E8
:10553000302816D1A8782E2813D1E87831380828D9
:105540000FD819A0FFF7C4FAE878DFED180A303851
:1055500000EE100AB8EEC00A20EE200A84ED080A18
:1055600002E013A0FFF7B4FA0448678364212830EF
:10557000FAF788FE677187E7B81200202C12002026
:10558000241300204C130020ED110020981300205C
:10559000252E32662B252E31662B253032642530A0
:1055A0003264253032640A006F6B0A00CDCCCC3DEA
:1055B0004572726F720A00000100020004000600CA
:1055C00008000A000C0010002000400080000001CC
:1055D00001010103070100000804020408010101A0
:1055E0000000000000000000010203040607080993
:1055F000000000000102030418560008000000200B
:10560000181200009E070008B45C00081812002061
:1056100010060000484B00080006310000FFFF00A4
:10562000010316800102611EE13292CC02012A6A56
:1056300023600C02200F30063006FE1FFE1F3006CE
:10564000380718030A2007180318038C0102317267
:10565000201700E003F80F9C0E8C1C8C188C00980F
:1056600000F801E007800E800E100B189C18B80C93
:10567000F00FE0038026A15A10090E181B0C110C24
:1056800011060210110311039B018E01C038C06C7A
:1056900060446044300260071844186C0C38BE1037
:1056A00005E001F0037A10140618063003F001F04B
:1056B00000F8009C310E33061E061C02E0063FFC7B
:1056C00073F021B8920C020121E7100B0200038055
:1056D00001C000C0006002D230022114211C155EFE
:1056E00012032A15163220123570120302D2060256
:1056F000111425A2214ED6208821481008D806F87A
:1057000007E00130D2052AEAC405FC3FFC3FE80966
:105710002C30120002021B806C080532E007E00703
:105720008E41D6F57F750C155C351045624564D108
:105730007AE00A03F007380E180C0C1802D4091886
:105740000C380EF007E003B0214C0C071901F001F2
:105750009801880803A16043F80F5E220002219C93
:1057600035F025ECD0071800FC1FFC1F9010070136
:10577000F807180E0C0121C81805C003C007511105
:105780003C41920210F8904C0B0C000E000F000FE1
:10579000800DC03003116B270C0CB209148513F86F
:1057A0000F9031893009EC03FC071C0E001C981186
:1057B0005E0005101C0C180E602009C007F00F38A1
:1057C0001C1818325409CC03EC0F3C0E1C1C20068C
:1057D000121C2031D24582357C16C07A3AE0C85A74
:1057E00070DE051480215384073806F007F0078C1B
:1057F000E005380CF80F604130521C2430091C1CA5
:10580000381EF81BE019D1130C1CC00B1BF0018AC9
:10581000012114011F30091ACE1C0510001C8072D2
:105820000416F8DC1AF85C17800F600A1810F8C329
:10583000F81F080D1E1405180708003800F00114A1
:10584000121F61161F9C13013814091770796E6DB1
:105850002603FD2E033D7C03400C18180420C229AA
:10586000224A11440902EC0C221113E20C024004FA
:10587000201818980315D4200403C00602396E229C
:1058800018022C07F83FF83F1C70AF052119D910FA
:105890006C0503FC0F0C5E0310040CFC070E1A18B9
:1058A000A541021E180003FA0770BC0A1F38381CF5
:1058B000300C700660DD04E008600C701C30F01FD6
:1058C000903C08FE03FE0F060E06A105B1022DB3A3
:1058D00005E8050EFE0FFEA01DCC048DA20529AE25
:1058E000ADB0053D3803C5A211DC4DBB032D270328
:1058F0008005F81FF81F0E4DD303DDCA043C0C0FC2
:10590000F83F3C780E6006E007C0810411A11DC578
:10591000031533DC090EC03CF0F83FE00FBF03A2D3
:105920003002319EB1120F260C3080070D15A005F4
:10593000021406022531DC063807F003E0B0043516
:105940003A10140C060606038601C60066007600AF
:10595000DE008E01060312360C64DD4105021B18C1
:10596000022530CD210320050EE01EF0024336D87B
:10597000022366CC0252C601E40586C386C320100A
:10598000041C303C02126C0212CC0210058C310C4B
:105990003302123602123C02E638201C05E007F8FA
:1059A0001F9904193EA303C002F80806600E701C7C
:1059B00038F8401BFC0F02CA38920E190CC407912C
:1059C0006082E05E140907E006630E3F1C3CE0CEF7
:1059D000F79106198258041F06389C1E38C00876B5
:1059E000074C49B20E106030065DDE041D9B051B9E
:1059F000F80330331E00401C050E301C1C1005ED52
:105A0000000308042A7FFE7F10E95EA97E071018B4
:105A10001820430360BC6D14072D16072D9409143C
:105A20000570076003631DE005E13023C361028355
:105A3000663302236C1B02CC092C1A3C1E380E382C
:105A40000E31051C090FE00C70183030183F043C73
:105A5000040EC0075E04140503E00670F71D8107FD
:105A6000D006300E6007E0602D79044C08301C38F9
:105A70003818300C65030D1C80075C05FC7FFC7F2B
:105A80006D07DD7C072D2708253EED10082FE0036C
:105A9000AE06011E0221282DA60A6DA6094DA809F1
:105AA0001D64096D0E0B7E03A009F1600221000246
:105AB00061601D82071D4407256C3F6003D70429E0
:105AC00019013901CFFFFFF80B0D2DAE0A9D4A08D1
:105AD0001805F003F807AA2C070C000FF00FF8B117
