:020000040800F2
:10000000D8050020F101000867200008FF1E000845
:1000100065200008E50700088D27000800000000A3
:100020000000000000000000000000006B2000083D
:10003000A308000800000000692000086D200008E7
:100040000B0200080B0200080B0200080B0200085C
:100050000B0200080B0200080B0200080B0200084C
:100060000B0200080B0200080B020008E907000859
:10007000F50700080B0200080B0200080B0200083D
:100080000B020008000000000B0200080B02000831
:100090000B0200080B0200080B0200080B0200080C
:1000A0000B0200080B0200080B0200080B020008FC
:1000B0000B0200080B0200080B0200080B020008EC
:1000C0000B0200080B0200080B0200080B020008DC
:1000D0000B020008412700080B0200080B02000871
:1000E0000B0200080B0200080B0200080B020008BC
:1000F0000B0200080B0200080B02000800000000C1
:10010000000000000B020008000000000B020008C5
:100110000B020008000000000B0200080B020008A0
:100120000B0200080B0200080B0200080B0200087B
:100130000B02000800000000000000000B02000895
:100140000B0200080B020008000000000000000085
:10015000000000000000000000000000000000009F
:100160000000000000000000000000000B0200087A
:100170000B0200080000000000000000000000006A
:10018000000000000B02000800000000000000005A
:10019000000000000000000000000000000000005F
:1001A00000000000000000000B0200080B02000825
:1001B0000B0200080B0200080B0200080000000000
:1001C000000000000B02000800000000000000001A
:1001D0000B0200080B020008DFF810D000F03EF917
:1001E00000480047DD280008AFF30080D805002054
:1001F0000648804706480047FEE7FEE7FEE7FEE7C1
:10020000FEE7FEE7FEE7FEE7FEE7FEE7F520000873
:10021000D90100082DE9F05F0546002092469B4673
:1002200088460646814640241BE02846414647460C
:10023000224600F0CEF853465A46C01A914110D3D8
:1002400011461846224600F0B5F82D1A67EB010852
:100250004F4622460120002100F0ACF817EB0009C0
:100260004E41201EA4F10104DFDC484631462A46F7
:100270004346BDE8F09FD2B201E000F8012B491ED1
:10028000FBD270470022F6E710B513460A46044633
:100290001946FFF7F0FF204610BD00000FB400B56F
:1002A0008DB010A909900B9000914FF0FF300A908B
:1002B00000200C9005480690054807906A4609A85A
:1002C0000F9900F09DF80DB05DF814FB1D040008B7
:1002D0003B0400082DE9FF5FD2E901A74FF00008B9
:1002E000916999461446DDF838B04646019888472A
:1002F000054659EA0B0005D009E0A169761C019872
:1003000088470546216A284688470028F5D1681C99
:1003100003D05FEACA7005D015E04FF0FF3004B09B
:10032000BDE8F09F2068011D2160D0F800800AE040
:100330005FEACA7001D108F8015BA169761C7F1ED3
:10034000019888470546002F1ADD681C18D0B9F1BE
:10035000000F0DD0E81705EBD060421120F01F0010
:1003600059F822102A1A012090400142E0D107E0FA
:10037000BBF1000FDCD1216A284688470028D7D07E
:10038000E16901988847BBF1000F07D1002E05DD18
:100390005FEACA7002D1002188F80010A068B84254
:1003A00003DDBBF1000F03D017B16FF00100B6E71A
:1003B0003046B4E7202A04DB203A00FA02F100209C
:1003C00070479140C2F1200320FA03F31943904093
:1003D0007047202A04DB203A21FA02F000217047FE
:1003E00021FA02F3D040C2F120029140084319469D
:1003F0007047000002681144137801601846704786
:10040000D160044951610449116200211161114612
:1004100000F03CB8F503000881040008426842B1CE
:10042000016811F8013B23B1521EC0E900121846C1
:1004300070470121C160881E704742685AB1C36885
:10044000016843B983688B4205D0491E521CC0E93C
:100450000012002070474FF0FF307047064C074DE8
:1004600006E0E06840F0010394E807009847103484
:10047000AC42F6D3FFF7B4FE202A0008402A000859
:10048000C0B24FF4F05100F099B900002DE9F34FDC
:100490008BB04FF0000801F10C000C464FF0010B3F
:1004A00046460DF1080A01906269012101989047C2
:1004B000051E2DD0252D2CD0216A8847C0B1626938
:1004C000012101989047216A88470028F7D1411EF1
:1004D00062690198904700E0761CA1690B988847F3
:1004E000216A88470028F7D1E1690B988847DBE744
:1004F000A1690B9888470746A84201D1761CD3E72B
:10050000E1690B9888477F1C02D1B8F1000F6FD0CA
:1005100047E1002762693D463946019890472A28FD
:1005200004D162690121019890470125DFF8889282
:100530006269012101989047A0F130010A290AD28D
:100540004F45E5DC07EB870100EB4107303FDFD487
:1005500045F01005ECE7E90601D46FF000476C2880
:100560000AD04C2814D0682815D06A280DD07428D9
:100570001CD07A281AD01DE06269012101989047A9
:100580006C2802D045F0040514E045F002050DE0AA
:1005900045F020050AE0626901210198904768282A
:1005A00002D045F0080505E045F4006562690121C7
:1005B00001989047C4E9015765283DD019DC5828B7
:1005C0007AD00CDC452837D004DC252826D04128F9
:1005D00031D131E046282FD047282CD12CE05B28A0
:1005E00077D0612828D063287CD0642823D15AE0B2
:1005F000D1E06F2848D008DC66281DD067281BD0C2
:10060000692821D06E2816D127E0702845D073289C
:1006100068D0752847D078280DD14DE0A1690B9896
:100620008847054625283FF469AFE1690B9888475C
:100630006D1C3FF46AAFB4E023466A466FF00100D8
:100640000B99AFF300809FE045F040006060A80781
:1006500023464FF0000236D43EE0E8077FF447AF70
:100660002068011D21600068290501D506701BE77F
:10067000290701D5068017E7A90703D5F117C0E9B7
:10068000006111E706600FE745F040006060A807D1
:1006900023464FF0080216D41EE040F60E0125EA6C
:1006A0000100606016E045F040006060A807234646
:1006B0004FF00A0207D40FE045F040006060A80741
:1006C00008D5234610226FF001000B99AFF300808C
:1006D0005AE007E0234610226FF001000B99AFF3B8
:1006E000008051E04FF000094F464B46632802D08E
:1006F0005B2807D041E02079C00601D40120A0602A
:1007000001273AE062690121019890475E2805D1EE
:100710004FF001096269494601989047216939B94A
:1007200000210A46534643F82120491C0829FADBD8
:10073000B0B3216969B9C11700EBD16253110AEB5B
:10074000830122F01F02821A01200B6890400343AC
:100750000B6062690121019890475D28E8D1B9F1E9
:10076000000F09D00020514651F82020D24341F813
:100770002020401C0828F7DB02AB224600976FF0D0
:1007800001000B99FFF7A6FD00280CDA401C08D1E8
:10079000BBF1000F05D04FF0FF300DB0BDE8F08F7A
:1007A000FFE74046F9E7E90701D108F101080644EF
:1007B0004FF0000B78E60000CCCCCC0C7F2801D9A0
:1007C000002208E0064A02EB5002C007127800D16E
:1007D000120902F00F02012090400840704700000B
:1007E000E0290008FEE70000014800F0D0B8000052
:1007F00018010020014800F0CAB80000780100206C
:100800000D4902688A4201D20C4901E00B492031AE
:10081000D2B21423083AB2FBF3F2436C02F01F0287
:1008200023F003031944816404498031C164012128
:100830009140016570470000080402400008024032
:100840000179074A02EB81024265054A4432491E9A
:10085000826501F01F0201219140C16570470000CF
:10086000FC08024030B5D0E913456560446D14B111
:10087000D0E91645656090F8444004F01F05012456
:10088000AC40056C6C60046863608368102B03687F
:1008900003D099600068C26030BD9A600068C16092
:1008A00030BD704772B6FEE710B590F825300021D4
:1008B0000122022B03D00421C163012122E003683D
:1008C0001C6824F00E041C60836C1C6824F4807483
:1008D0001C6003681C6824F001041C6090F844301C
:1008E000046C03F01F0302FA03F36360D0E91334CE
:1008F0005C60436D33B11C6824F480741C60D0E9E3
:1009000016345C6080F82520002280F824200846F8
:1009100010BD70B590F82520002401212346022A3D
:1009200007D00422C26380F8251080F82430012407
:1009300029E00268156825F00E0515600268156843
:1009400025F001051560826C156825F48075156029
:1009500090F84420056C02F01F0201FA02F26A606E
:10096000D0E913255560426D32B1156825F48075C4
:100970001560D0E91625556080F8251080F82430E0
:10098000816B01B18847204670BDC06B7047F0B4E1
:10099000016C0C6801680D6890F8442002F01F0695
:1009A000042202FA06F3234211D06B070FD50B681D
:1009B0009B0603D40B6823F004030B6090F84410EB
:1009C00001F01F018A40016C4A60016B1DE00223A7
:1009D00003FA06F727424FF0000C4FF0010218D03F
:1009E000AF0716D50C68A40605D40C6824F00A04D9
:1009F0000C6080F8252090F8441001F01F018B4016
:100A0000016C4B6080F824C0C16A00291AD0F0BC88
:100A100008470823B340234214D02B0712D50B6894
:100A200023F00E030B6090F84410036C01F01F01DB
:100A300002FA01F15960C26380F8252080F824C0D1
:100A4000416BE2E7F0BC704770B504000CD02B4A54
:100A500021681420914209D2294A0A44B2FBF0F0DD
:100A60008000606427480AE0012070BD234A52429A
:100A70000A44B2FBF0F0800060642048083820642B
:100A8000022084F825000A6847F6F0708243D4E912
:100A900002031843D4E904352B431843A3691843D0
:100AA000E3691843236A1843104308602046FFF7A0
:100AB000A7FEA0680025B0F5804F00D16560A16C4D
:100AC00020790860D4E9130141606068401E032862
:100AD00008D82046FFF7B4FE606D0560D4E9160122
:100AE000416002E06565A565E565E563012084F880
:100AF000250084F82450002070BD00000804024046
:100B0000F8FFFDBF0000024070B5044690F82400D5
:100B1000002501280CD0012084F8240094F82560D9
:100B20000020012E06D084F824000225284670BD3E
:100B3000022070BD022684F82560E0632068066804
:100B400026F0010606602046FFF78CFE206B002889
:100B50002068016802D041F00E0106E021F0040196
:100B600001602068016841F00A010160A06C016821
:100B7000C90303D5016841F480710160606D18B14B
:100B8000016841F4807101602068016841F0010151
:100B90000160CBE72DE9FC4FDFF8A0A10023012580
:100BA0000AF1040B03244FF00F0C0BF1040EBDE00F
:100BB00005FA03F632406FD04F68012F05D0022F9F
:100BC00003D0112F01D0122F17D1D0F808905F0059
:100BD00004FA07F829EA08090097D1F80C8008FA06
:100BE00007F848EA0908C0F808804768B7430E7953
:100BF000C6F300169E403E434660C6684FEA43086F
:100C000004FA08F7BE4301978F6807FA08F73743DD
:100C1000C7604E68022E01D0122E13D1DE0800EB01
:100C200086060096366A5F07FF0E0CFA07F926EA79
:100C30000906D1F8109009FA07F949EA0609009E59
:100C4000C6F820900668019FBE430F7907F003079E
:100C500007FA08F7374307604E68F60065D5384E47
:100C6000376E47F001073766366E23F0030706F04C
:100C700001060096334E3E44B146B6689F074FEAE0
:100C800017780CFA08F7BE43B0F1904F05D02E4FFD
:100C9000B84204D1012717E047E0002714E02B4FAA
:100CA000B84201D102270FE0294FB84201D10327F2
:100CB0000AE0284FB84201D1042705E0264FB84288
:100CC00001D1052700E0062707FA08F73743C9F8DE
:100CD0000870DAF800605746D1F8048096435FEA5E
:100CE000C83800D516433E60DBF800605F46D1F897
:100CF000048096435FEA883800D516433E60DEF8EC
:100D000000607746D1F8048096435FEAC82800D592
:100D100016433E60094F0C373E68D1F80480964375
:100D20005FEA882800D516433E605B1C0A6832FAE9
:100D300003F67FF43DAFBDE8FC8F000000040140E6
:100D40000010024000000140000400480008004874
:100D5000000C004800100048001400480AB18161EE
:100D6000704781627047000001488068704700004A
:100D70000400002002488168426811448160704785
:100D80000400002010B50024032000F073F80020B8
:100D900000F008F808B1012401E000F025F8204631
:100DA00010BD000070B50E4E05460024706898B165
:100DB0004FF47A71B1FBF0F00A490968B1FBF0F029
:100DC00000F064FD40B9102D06D200222946501EC5
:100DD00000F030F8356000E00124204670BD0000CE
:100DE00004000020100000200A4882B0016E41F08B
:100DF00001010166016E01F001010091816D41F078
:100E000080518165806D00F08050009002B000F04C
:100E1000A1B8000000100240002809DB00F01F020A
:100E2000012191404009800000F1E020C0F800114C
:100E300070470000F0B40E4B1B680C46C3F302234E
:100E4000C3F10705042D00D90425191D072901D276
:100E5000002300E0DB1E012606FA05F1491E2140B1
:100E600099409E40761E16403143F0BC01F0A0BC74
:100E70000CED00E0064900F0070208684FF6FF039A
:100E8000184040EA0220034A1043086070470000FF
:100E90000CED00E00000FA052B492C4B0A683221CA
:100EA0004A432B4940B1B0F5007F086829D020F4AF
:100EB000C06040F480602CE00868C0F34120022844
:100EC00004D051F8800F20F4807022E0D1F8800027
:100ED00020F48070C1F88000086820F4C06040F4FD
:100EE00000700860B2FBF3F0401C00E0401E4A694D
:100EF000520501D50028F9D1486940050AD50320DB
:100F00007047C0F34120022806D051F8800F40F40A
:100F10008070086000207047D1F8800040F4807035
:100F2000C1F88000086820F4C06040F400700860D8
:100F3000B2FBF3F0401C00E0401E4A695205DBD5CD
:100F40000028F9D1D8E700001000002040420F002F
:100F5000007000400248816841F480418160704720
:100F6000007000402DE9F8430446006800269D4DBE
:100F700000035ED5A86D0027C00008D4A86D40F01E
:100F80008050A865A86D012700F080500090DFF820
:100F90005892D9F8001041F48071C9F80010FFF799
:100FA000E3FE804606E000BFFFF7DEFEA0EB080090
:100FB00002282BD8D9F80000C005F5D5D5F8900047
:100FC00010F4407014D0216C814211D0D5F89000FB
:100FD000D5F8901020F4407041F48031C5F890109D
:100FE000D5F8901021F48031C5F89010C5F8900024
:100FF000C00711D0FFF7B8FE804641F2883907E0FC
:10100000FFF7B2FEA0EB0801494501D903260BE02A
:10101000D5F890008007F3D5D5F89000216C20F426
:1010200040700843C5F890001FB1A86D20F08050B3
:10103000A8652078C00707D0D5F88800616820F03F
:1010400003000843C5F888002078800707D5D5F845
:101050008800A16820F00C000843C5F888002078BB
:10106000400707D5D5F88800E16820F03000084334
:10107000C5F888002078000707D5D5F888002169D1
:1010800020F0C0000843C5F888002078800607D506
:10109000D5F88800616920F440600843C5F88800ED
:1010A0002078400607D5D5F88800A16920F4405083
:1010B0000843C5F888002078000607D5D5F88800D1
:1010C000E16920F440400843C5F888002088C00545
:1010D00007D5D5F88800216A20F440300843C5F8C8
:1010E00088002088800507D5D5F88800616A20F43B
:1010F00040200843C5F88800208840050FD5D5F862
:101100008800A16A20F440100843C5F88800A06A4E
:10111000B0F5801F03D1E86840F48010E8602088B3
:1011200000050FD5D5F88800E16A20F44000084397
:10113000C5F88800E06AB0F5800F03D1E86840F494
:101140008010E8602088C0040FD5D5F88800216B96
:1011500020F040700843C5F88800206BB0F1807F14
:1011600003D1E86840F48010E86020884FF0006107
:1011700080040ED5D5F88800626B20F040601043E3
:10118000C5F88800606B884203D1E86840F480109D
:10119000E860208840040ED5D5F88800A26B20F0C6
:1011A00040601043C5F88800A06B884203D1E8680E
:1011B00040F48010E860208800040FD5D5F888003E
:1011C000E16B20F040500843C5F88800E06BB0F1B7
:1011D000805F03D1E86840F48030E8603046BDE8C5
:1011E000F883000000100240007000402DE9F04735
:1011F0000E4605004FF0000725D0DFF8AC81D8F887
:10120000000000F00F00B0420CD2D8F8001021F01E
:101210000F013143C8F80010D8F8000000F00F00AB
:10122000B04210D12968614CC80741F2883A5AD0BF
:101230006868DFF87C91032808D0022820682DD048
:10124000400500282CDB0120BDE8F08720688001E4
:10125000F9D5E06800F00302E068C0F30310401C19
:10126000032A19D0534A00BFB2FBF0F0E268C2F380
:1012700006225043E268C2F34162521C5200B0FBA6
:10128000F2F0484517D9A06810F0F00F0CD088078D
:1012900011D5A86840B10EE0474AE5E78003D0E7E2
:1012A00000F0B6F8484506D9A06820F0F00040F0FC
:1012B0008000A0608027A068696820F003000843D0
:1012C000A060FFF751FD814606E000BFFFF74CFD2F
:1012D000A0EB090151453AD8A068696800F00C00FC
:1012E000B0EB810FF2D12868810714D5400703D5F0
:1012F000A06840F4E060A0602878000705D5A068E9
:1013000020F4605040F4E060A060A068A96820F07C
:10131000F000084304E0802F03D1A06820F0F00023
:10132000A060D8F80010404601F00F01B14216D974
:10133000016821F00F0131430160FFF715FD0746F9
:1013400007E000BFFFF710FDC11B514501D9032085
:101350007AE7D8F8000000F00F00B042F2D1287808
:10136000400705D5A068E96820F4E0600843A06064
:101370002878000706D5A068296920F4605040EA63
:10138000C100A06000F044F8A1680C4AC1F3031149
:10139000515C01F01F01C840094908600948006814
:1013A000BDE8F047FFF7FEBC0020024000100240FD
:1013B00000B4C4040024F40000366E01C8290008FB
:1013C00010000020040000200548064900688968D4
:1013D000054AC1F30221515C01F01F01C84070476A
:1013E0001000002000100240D829000805480649D6
:1013F00000688968054AC1F3C221515C01F01F01F0
:10140000C84070471000002000100240D829000892
:10141000184910B58868C0F381021748012A0BD01B
:101420008A68164BC2F38102022A06D08A68C2F388
:101430008102032A03D0002010BD184610BDCA68DF
:1014400002F00304CA68C2F30312521C032C02D038
:10145000B0FBF2F001E0B3FBF2F0CA68C968C2F376
:1014600006225043C1F34161491C4900B0FBF1F031
:1014700010BD0000001002400024F40000366E0190
:101480002DE9F84304007AD02078FA4DC00747D000
:10149000A868E96800F00C0001F003010C2802D0F4
:1014A000082817D001E0032914D06068B0F5803F08
:1014B00017D0B0F5A02F286817D020F4803028600E
:1014C000286820F4802028606068E0B1FFF74CFCB9
:1014D000064614E02868800322D560680028D2D030
:1014E0001EE0286840F48030EDE740F4802028605A
:1014F000F7E700BFFFF738FC801B642870D8286826
:101500008003F7D50CE0FFF72FFC064605E000BF8F
:10151000FFF72AFC801B6428F0D828688003F7D4E2
:10152000207880074CD5A868E96800F00C0001F02D
:1015300003010C2802D004280DD001E002290AD0B2
:10154000E068002828682BD040F480702860FFF7FE
:101550000BFC064619E02868400502D5E068002823
:1015600091D06868217C20F0FE4040EA016068600C
:10157000C1480068FFF716FC002800D120E076E1A2
:10158000FFF7F2FB801B0228B8D828684005F7D582
:101590006868217C20F0FE4040EA016068600FE04E
:1015A00020F480702860FFF7DFFB064605E000BFEF
:1015B000FFF7DAFB801B0228A0D828684005F7D483
:1015C0002078000729D560690028D5F8940013D049
:1015D00040F00100C5F89400FFF7C6FB064606E0A0
:1015E00090E000BFFFF7C0FB801B022886D8D5F82B
:1015F00094008007F6D510E020F00100C5F89400B3
:10160000FFF7B2FB064604E0FFF7AEFB801B0228A3
:1016100078D8D5F894008007F6D42078400761D5B3
:10162000A86D0026C00008D4A86D40F08050A865C1
:10163000A86D012600F08050009090480168C9050F
:1016400011D40168804641F480710160FFF78CFB82
:10165000074604E0FFF788FBC01B022852D8D8F8E1
:101660000000C005F6D5A068012815D00528D5F8DA
:10167000900016D020F00100C5F89000D5F8900039
:1016800020F00400C5F89000A06841F28838B8B195
:10169000FFF76AFB07460EE0D5F8900040F0010026
:1016A000F0E740F00400C5F89000F5E7FFF75CFBB9
:1016B000C11B414526D8D5F890008007F6D50CE02F
:1016C000FFF752FB074604E0FFF74EFBC11B414505
:1016D00018D8D5F890008007F6D41EB1A86D20F078
:1016E0008050A8652078800629D5A0690028D5F803
:1016F000980013D040F00100C5F89800FFF734FBC4
:10170000064606E077E000BFFFF72EFB801B0228AD
:1017100077D8D5F898008007F6D510E020F00100C2
:10172000C5F89800FFF720FB064604E0FFF71CFB16
:10173000801B022865D8D5F898008007F6D4E069A8
:10174000F0B3A968C1F38101032961D00228286898
:1017500020F0807028600BD0E86820F00300E8607B
:10176000E86847490840E860FFF7FEFA04464BE0A6
:10177000FFF7FAFA064604E0FFF7F6FA801B0228A4
:101780003FD828688001F7D4F4E908016FF00F0210
:1017900002EB01110843218A5204490802EB41512E
:1017A000A26841EA02210843217D4FF07E424908A8
:1017B00002EB41610843217B40EAC160E96800E037
:1017C00062E0304A11400843E860286840F08070C9
:1017D0002860E86840F08070E860FFF7C5FA0446CA
:1017E00005E000BFFFF7C0FA001B022809D82868EF
:1017F0008001F7D548E004E0FFF7B6FA001B0228A5
:1018000002D90320BDE8F88328688001F4D43BE0C6
:101810000128F7D0E868226A00F00301914226D13E
:10182000616A00F0F0020901103991421FD1A26AE9
:1018300000F4FE41B1EB022F19D194F82C2000F0F6
:101840007841B1EBC26F12D1218E00F4C002490879
:101850004905A1F50011914209D194F8341000F026
:10186000C06049084906A1F1007181420CD00120F5
:10187000C8E7000000100240040000200070004093
:10188000FFFFEEFE0C809F010020BBE710B5401E5D
:10189000B0F1807F01D3012010BD4FF0E0246061E2
:1018A0000F21601700F084FF0020A0610720206155
:1018B000002010BD10B5044690F8800001281CD00F
:1018C000012084F880002420C4F884002068016886
:1018D000026822F00102026041F000504FF0005116
:1018E000616621680860204600F00CFC2020C4F8E6
:1018F0008400002084F8800010BD022010BD7047D5
:10190000704770B5044690F8800001281DD0012072
:1019100084F880002420C4F88400206805680268E8
:1019200022F0010202602068826822F060620A43AD
:101930008260204600F0E6FB206805602020C4F8A5
:101940008400002084F8800070BD022070BD70B556
:10195000044690F8800001281DD0012084F8800002
:101960002420C4F8840020680568026822F001027F
:1019700002602068826822F060420A43826020464A
:1019800000F0C0FB206805602020C4F8840000201F
:1019900084F8800070BD022070BD70477047000061
:1019A00070B504460068016821F4907101602068F8
:1019B00081681B4A11408160E06E012804D12068D3
:1019C000016821F010010160206881684FF0000576
:1019D00049060FD5816821F040018160E06F48B170
:1019E0008563E06FFEF760FF20B1E06FFEF7CDFF8B
:1019F00020280FD0A4F85E5021680F2008622068CC
:101A0000816941F0080181612020C4F88800E56601
:101A1000002070BD1020C4F88C00032070BD0000B1
:101A2000FEFFFFEF704700002DE9F0410368044618
:101A3000D86919689A6840F60F0528424FF00005EA
:101A400009D186067ED501F0200602F080573E437C
:101A500078D0216FFFE0924E924F16400F403743EF
:101A600070D0C70709D0CF0507D501271F62D4F86A
:101A70008C3043F00103C4F88C3083070AD5D307B8
:101A800008D0276802233B62D4F88C3043F004036B
:101A9000C4F88C3043070AD5D30708D0276804233D
:101AA0003B62D4F88C3043F00203C4F88C30030757
:101AB0000CD501F02003334308D026680823336295
:101AC000D4F88C3043F00803C4F88C3003050BD5F0
:101AD0004B0109D526684FF400633362D4F88C308B
:101AE00043F02003C4F88C30D4F88C30002B34D071
:101AF000800609D501F0200002F08051084303D090
:101B0000216F09B120468847D4F88C002168896884
:101B1000490602D410F0280F21D0204600F018FC0E
:101B200020688168490615D5816821F040018160EF
:101B3000E06F78B15C498163E06FFEF7EAFE002850
:101B40000BD000E011E0E06F816B00E02046BDE8C3
:101B5000F04108472046FFF765FFBDE8F0812046C9
:101B6000FFF760FFC4F88C50F7E7E76E2026012FDF
:101B70005CD1C7065AD5CF0658D510201862206808
:101B8000816849062FD5E26F116849680904090C7C
:101B9000E3D0B4F85C308B42DFD9A4F85E10116852
:101BA0000968890618D4016821F4807101602068F1
:101BB000816821F0010181602068816821F0400185
:101BC0008160C4F88860E5662068016821F0100132
:101BD0000160E06FFEF768FEB4F85C00B4F85E10D8
:101BE000401A81B21EE0B4F85C10B4F85E20891A85
:101BF000B4F85E2089B2002AAFD00029ADD00268C7
:101C000022F49072026020688268254BDB431A4000
:101C10008260C4F88860E56625672068026822F063
:101C2000100202602046FFF76AFE96E7C70209D558
:101C3000570207D54FF4801018622046BDE8F041E6
:101C4000FFF7ACBE07060AD501F0800702F40002D8
:101C5000174304D0616F00297FF478AF7DE7420617
:101C60000CD54A060AD51968204621F040011960B2
:101C7000C4F88460656700F041F96EE7020206D59A
:101C80004A0004D52046BDE8F041FFF786BEC001FA
:101C9000CBD50029C9DA2046BDE8F041FFF730BEB8
:101CA00001000010200100047122000810B504009A
:101CB00003D0D4F8840010B107E0012010BD00204B
:101CC00084F88000204600F027F82420C4F884001F
:101CD0002068016821F001010160204600F062FBEC
:101CE0000128EBD0A06A10B1204600F02DFA206840
:101CF000416821F4904141602068816821F02A0107
:101D000081602068016841F0010101602046BDE862
:101D1000104000F07DBA0000F0B587B006461421EF
:101D20006846FEF7AFFA2D493068884253D12C48F7
:101D3000016E41F480410166016E01F4804105911C
:101D4000C16C41F00101C164C06C002400F00100CD
:101D500005904FF4C06000900220CDE901040720F7
:101D6000CDE9034069464FF09040FEF713FF1E4D4A
:101D70001C48802728601820C5E90104C5E90347ED
:101D80006C61AC61EC6128462C62FEF75DFE08B127
:101D9000FEF788FDF567AE621248144D143005F168
:101DA0000801286019206860102081E891006C61AA
:101DB000AC61EC6128462C62FEF746FE08B1FEF7E6
:101DC00071FDB567002211462520AE62FFF732F89B
:101DD0002520FFF721F807B0F0BD000000380140D2
:101DE0000010024008000240180100207801002085
:101DF00030B4D0F88830202B1BD1B9B1B2B190F8F3
:101E00008030012B15D0012380F880300023C36679
:101E1000094C0368A34206D05C68240203D51C6801
:101E200044F080641C6030BC00F0F6BB012030BC84
:101E300070470220FBE700000080004070477047B9
:101E40002DE9F8430446D0F884001F4616460D4697
:101E5000202851D1DDB1D6B194F8800001284BD0B3
:101E6000012084F880004FF00008C4F88C80212005
:101E7000C4F884001834FEF777FFA6878146E6870A
:101E800054F8100C183CB0F5805F03D004E001203A
:101E9000BDE8F883206920B12E46002584F88080B3
:101EA00010E00026FAE78021204600F0F7FBB8B9E1
:101EB000C6B116F8010B21688862B4F85600401EBE
:101EC000A4F85600B4F856004B464FF000020097B5
:101ED0000028E8D14FF04001204600F0DFFB30B190
:101EE0000320D5E735F8020BC0F30800E3E7202014
:101EF000C4F884000020CBE70220C9E77047FEE762
:101F00002DE9F04F87B014216846FEF7BBF9384839
:101F1000C16C41F00401C164C16C01F00401059180
:101F2000C16C41F02001C164C16C01F02001059138
:101F3000C16C41F00101C164C16C01F00101059166
:101F4000C16C41F00801C164C16C01F00801059148
:101F5000C16C41F00201C164C06CDFF8988000F0F0
:101F600002004FF6FF740590002221464046FEF71E
:101F7000F5FE4FF480764FF09049002231464846F6
:101F8000FEF7ECFEDFF870A0002204215046FEF7B9
:101F9000E5FEDFF868B04FF448770022394658462E
:101FA000FEF7DCFE0125CDE90045002402946946D8
:101FB00040460394FEF7EEFD0096CDE901546946D4
:101FC00048460394FEF7E6FD04200090CDE9015455
:101FD000694650460394FEF7DDFD0097CDE90154B4
:101FE000694658460394FEF7D5FD07B0BDE8F08F6B
:101FF0000010024000080048000C0048000400489F
:10200000174810B5154901604FF416514160002181
:1020100081600C22C160C0E904128161C16101626A
:1020200041628162FFF742FE08B172B6FEE700210D
:102030000B48FFF78CFC08B172B6FEE70021084898
:10204000FFF75FFC08B172B6FEE70548FFF732FC08
:10205000002801D072B6FEE710BD00000038014034
:1020600088000020FEE7FEE770477047FEF782BE5B
:1020700010B5A4B038216846FEF704F914211FA852
:10208000FEF700F944210EA8FEF7FCF84FF40070AB
:10209000FEF702FF0220C10103914021049100904C
:1020A000079008901421CDE909010B900C900D9038
:1020B0006846FFF7E5F908B172B6FEE70F20002485
:1020C0001F900320CDE92004229402211FA823940D
:1020D000FFF78CF808B172B6FEE70120CDE90E04D7
:1020E0000EA8FEF73FFF002801D072B6FEE724B02D
:1020F00010BD00000248016841F4700101607047A2
:1021000088ED00E030B5416EB9B10268916892681F
:10211000C1F342610B4B520F9C5CE50003F10804D4
:10212000A25CB5FBF2F2A0F86A205A5C615CD200B6
:10213000B2FBF1F1A0F8681030BD0121A0F86A10DF
:10214000F8E70000B829000890F82810C90706D061
:1021500001684A68C36A22F400321A434A6090F860
:102160002810890706D501684A68036B22F480327B
:102170001A434A6090F82810490706D501684A6852
:10218000436B22F480221A434A6090F82810090712
:1021900006D501684A68836B22F400421A434A60FC
:1021A00090F82810C90606D501688A68C36B22F426
:1021B00080521A438A6090F82810890606D5016873
:1021C0008A68036C22F400521A438A6090F828103F
:1021D000490611D501684A68436C22F480121A43FB
:1021E0004A60416CB1F5801F06D101684A68836C72
:1021F00022F4C0021A434A6090F82810090606D556
:1022000001684A68C06C22F4002202434A607047A9
:10221000F8B500260446C0F88C60FEF7A5FD05461B
:10222000206800686FF07E47000708D52B46002223
:102230004FF400112046009700F030FA60B9206892
:10224000006840070AD52B4600224FF48001204643
:10225000009700F023FA08B10320F8BD2020C4F84D
:102260008400C4F8880044F86C6F00202675F8BD1F
:1022700010B5806A0021A0F85E10A0F85610FFF794
:10228000D1FB10BD70B5846AD4F88400D4F88850AE
:10229000216889684FF00006090606D5212804D177
:1022A000A4F85660204600F06FF820688068400669
:1022B00006D5222D04D1A4F85E60204600F048F82F
:1022C000D4F88C0040F01000C4F88C002046FFF7D2
:1022D000A9FB70BD10B50146806A096809688906C6
:1022E0001CD40021A0F85E1001680A6822F48072F4
:1022F0000A6001688A6822F001028A6001688A68BF
:1023000022F040028A602021C0F88810C16E0129A5
:1023100004D101680A6822F010020A60C16E012926
:1023200002D0FFF78BFD10BDB0F85C10FFF7E7FAA5
:1023300010BD10B5806AC16E012902D0FFF77FFD84
:1023400010BDB0F85C104908FFF7D9FA10BD0000C5
:1023500001680A6822F490720A6001688A68094B71
:102360001A408A60C16E012904D101680A6822F00E
:1023700010020A602021C0F888100021C1660167A0
:1023800070470000FEFFFFEF01680A6822F0C002FC
:102390000A6001688A6822F400028A602021C0F87D
:1023A000841070472DE9F041044601688068226975
:1023B000E3691043626900251A431043DFF82CC219
:1023C0000A688B4B1A4002430A6020684168E26841
:1023D00021F44051114341602168A069614501D059
:1023E000226A10438A68834B1A4002438A6020683D
:1023F000C16A626A21F00F011143C1627E492368FC
:102400007E488B420DD1D0F8880010F0030006D032
:10241000012855D0022842D003283FD152E00120A4
:102420003DE077498B420BD1D0F8880010F00C00CA
:1024300035D0042833D0082840D00C282ED141E0D4
:1024400070498B420BD1D0F8880010F0300026D0B4
:10245000102835D0202831D030281FD132E06A49E9
:102460008B420BD1D0F8880010F0C00017D0402864
:1024700026D0802822D0C02810D123E063450DD17A
:10248000D0F8880010F4406009D0B0F5806F17D004
:10249000B0F5006F12D0B0F5406F13D010205B4A3A
:1024A0005B4F00264FF40041634539D160B10228EB
:1024B0000DD004280DD0082831D10EE00220EEE71F
:1024C0000420ECE70820EAE7FEF77EFF03E0114670
:1024D00003E0FEF79DFF01007DD0606A37F8102011
:1024E0006768B1FBF2F007EB470383426CD8B0EBAF
:1024F000073F69D8002308461946FDF78BFE0902FD
:1025000041EA106102027808101871413A4600232E
:10251000FDF780FE3F4AA0F54071914259D953E042
:10252000E3694FF6EF788B422DD109284CD2DFE8D2
:1025300000F005080D4B274B4B4B0E00FEF744FFF8
:1025400001E0FEF753FF010001D144E01146606A4B
:1025500037F81000B1FBF0F04100606801EB50016A
:10256000B1FBF0F080B2A0F1100141452CD84FF63C
:10257000F0710140C0F3420001432068C1602AE0CD
:10258000FEF746FFDFE709281ED2DFE800F0050866
:102590000D1D1F1D1D1D0E00FEF716FF01E0FEF7AD
:1025A00025FF010001D116E01146606A37F81000DE
:1025B000B1FBF0F1606801EB5001B1FBF0F080B2CB
:1025C000A0F11001414504D9012504E0FEF720FFE8
:1025D000E7E72168C8600120A4F86A0024F8680FC2
:1025E0002846A660E660BDE8F0810000008000405B
:1025F000F369FFCFFFF4FF110038014000100240E3
:102600000044004000480040004C00400024F4001A
:10261000A0290008FFFC0F0070B58165A0F85C20C0
:1026200000250446C0F88C502220C4F88800E06FD2
:10263000D8B11749C162E16F164813460863E16FCC
:1026400015484863E06F8563A66D216832462431E2
:10265000E06FFEF759FA40B11020C4F88C0004F87E
:10266000805F20206060012070BD84F88050206869
:10267000016841F4807101602068816841F00101C6
:1026800081602068816841F040018160002070BD58
:10269000D522000833230008852200082DE9F047E1
:1026A0009A4617460E4604464FF000094FF02008A0
:1026B000089D39E0681C37D0FEF756FBA0EB0A00F6
:1026C000A84222D80DB32068016849072CD5C069FB
:1026D000C043000528D421684FF4006008622068D8
:1026E000016821F4D07101602068816821F0010146
:1026F0008160C4F88480C4F88880C4F88C8000BFEE
:1027000084F880900320BDE8F0872068016821F4F8
:10271000D07101602068816821F001018160C4F8F6
:102720008480C4F88880EBE72068C06936EA00003E
:1027300004D00020B842BDD00020E4E70120F9E732
:1027400010B50E48FFF770F90C490868C269D2430A
:10275000D20611D4102202620868C169406A074893
:10276000FFF71EF90648006840680649C0F164009A
:10277000088005490120087010BD00008800002075
:10278000180100200200002000000020FEE70000E9
:102790000FB4054B10B503A9044A029800F027F8BE
:1027A00010BC5DF814FB0000C528000814000020D0
:1027B0000907090E002804DB00F1E02080F800146E
:1027C000704700F00F0000F1E02080F8141D704702
:1027D00002E008C8121F08C1002AFAD170477047EA
:1027E000002001E001C1121F002AFBD170472DE932
:1027F000F84F9946924688460546002706E0252868
:102800000AD051464A4690476D1C7F1C2878002804
:10281000F5D13846BDE8F88F002315F8011F18469A
:102820002E2915D115F8011F04232A290DD06FF088
:102830002F022978A1F13004092C09D800EB80007F
:1028400002EB400008446D1CF3E758F8040B6D1CC4
:102850002A78002ADDD0632A07D0732A0FD01046C9
:1028600051464A4690477F1C2AE018F8042B8DF801
:10287000002000218DF801106E46012103E058F878
:10288000046B4FF0FF315A074FF0000401D409E008
:10289000641C84420BDA8C42FADB325D002AF7D1E9
:1028A00005E0641C8C42FCDB305D0028F9D1274434
:1028B00004E016F8010B51464A469047641EF8D2D0
:1028C0006D1CA3E713B54FF0FF33012269460248A0
:1028D000FFF7B6FA00981CBD8800002008B5FEF787
:1028E00051FAFFF7C5FBFFF70BFB2448816C41F061
:1028F00004018164816C01F004010091816C41F05C
:1029000001018164806C002200F0010000901146FA
:102910000B20FEF78FFA0B20FEF77EFA00221146FD
:102920000C20FEF787FA0C20FEF776FAFFF768FB1B
:1029300013480068016841F01001016010496422E9
:1029400070390F48FFF754FA0E4D00240C4A0EA1BF
:102950000C3A0FA0FDF7A2FC09490FA00C39FFF7B4
:1029600017FF28780128F1D105496C802C7064226A
:1029700070390348FFF73CFAE8E700000010024016
:102980008800002000000020255B412D5A5D0000DA
:102990005345543A313A320025730D0A00000000C5
:1029A000010002000400060008000A000C001000EC
:1029B0002000400080000001010101030701000028
:1029C00008040204080101010000000000000000EA
:1029D00001020304060708090000000001020304C5
:1029E000DDDDDDDDDCBBBBDDDDDDDDDDDDDDDDDD5C
:1029F000988888888888888877777777778888889C
:102A00008555555666666666666666666668888833
:102A10008333333222222222222222222228888D2C
:102A2000402A00080000002018000000D0270008FD
:102A3000582A000818000020C0050000E027000800
:102A40000000000010000000010000000000000075
:082A50000024F4000000000066
:04000005080001D915
:00000001FF
