:020000040800F2
:10000000F0150020F101000883120008AD0D000872
:1000100081120008E70200085116000800000000E5
:100020000000000000000000000000009B15000818
:10003000E902000800000000851200089D15000874
:100040000B0200080B0200080B0200080B0200085C
:100050000B0200080B0200080B0200080B0200084C
:100060000B0200080B0200080B0200080B0200083C
:100070000B0200080B0200080B0200080B0200082C
:100080000B020008000000000B0200080B02000831
:100090000B0200080B0200080B0200080B0200080C
:1000A0000B0200080B0200080B0200080B020008FC
:1000B0000B0200080B0200080B0200080B020008EC
:1000C0000B0200080B0200080B0200080B020008DC
:1000D0000B0200080B0200080B0200080B020008CC
:1000E0000B0200080B0200080B0200080B020008BC
:1000F0000B0200080B0200080B02000800000000C1
:10010000000000000B020008000000000B020008C5
:100110000B020008000000000B0200080B020008A0
:100120000B0200080B0200080B0200080B0200087B
:100130000B02000800000000000000000B02000895
:100140000B0200080B020008000000000000000085
:10015000000000000000000000000000000000009F
:100160000000000000000000000000000B0200087A
:100170000B0200080000000000000000000000006A
:10018000000000000B02000800000000000000005A
:10019000000000000000000000000000000000005F
:1001A00000000000000000000B0200080B02000825
:1001B0000B0200080B0200080B0200080000000000
:1001C000000000000B02000800000000000000001A
:1001D0000B0200080B020008DFF810D000F042F814
:1001E000004800471D180008AFF30080F0150020FC
:1001F0000648804706480047FEE7FEE7FEE7FEE7C1
:10020000FEE7FEE7FEE7FEE7FEE7FEE70916000869
:10021000D9010008D2B201E000F8012B491EFBD23F
:1002200070470022F6E710B513460A460446194601
:10023000FFF7F0FF204610BD30B50B460146002009
:100240002022012409E021FA02F59D4205D303FA98
:1002500002F5491B04FA02F52844151EA2F1010219
:10026000F1DC30BD064C074D06E0E06840F00103CC
:1002700094E8070098471034AC42F6D3FFF7B0FF7C
:100280007C1800089C18000870B58D1810F8014BF8
:1002900014F0030201D110F8012B231106D110F83C
:1002A000013B03E010F8016B01F8016B521EF9D11C
:1002B000ABB110F8012B04F00C048A1A0C2C03D0FB
:1002C000A2EB84129B1C08E010F8014BA2EB042265
:1002D000F8E712F8014B01F8014B5B1EF9D5A94272
:1002E000D4D3002070BDFEE77047002240F6B8333B
:1002F00006E00021491C89B29942FBD3521C92B2FC
:100300008242F6D37047000000B589B009A1684663
:1003100001F0A0F96946002000F0DEFD0A480BA1BB
:100320000278684601F096F96946182000F0D4FD7D
:1003300009B000BD5468652076616C7565206F66F4
:1003400020692069733A2000000000202020202529
:100350006400000070B5044600F0F8F80546601C23
:1003600002D004484068044400F0F0F8401BA0426A
:10037000FAD370BDDC1100202DE9FC4FDFF8A0A1FD
:10038000002301250AF1040B03244FF00F0C0BF19D
:10039000040EBDE005FA03F632406FD04F68012F1E
:1003A00005D0022F03D0112F01D0122F17D1D0F872
:1003B00008905F0004FA07F829EA08090097D1F8C5
:1003C0000C8008FA07F848EA0908C0F8088047686E
:1003D000B7430E79C6F300169E403E434660C6689A
:1003E0004FEA430804FA08F7BE4301978F6807FAFB
:1003F00008F73743C7604E68022E01D0122E13D182
:10040000DE0800EB86060096366A5F07FF0E0CFAE0
:1004100007F926EA0906D1F8109009FA07F949EA1E
:100420000609009EC6F820900668019FBE430F791A
:1004300007F0030707FA08F7374307604E68F6002E
:1004400065D5384E376E47F001073766366E23F0B4
:10045000030706F001060096334E3E44B146B668E7
:100460009F074FEA17780CFA08F7BE43B0F1904F98
:1004700005D02E4FB84204D1012717E047E00027EE
:1004800014E02B4FB84201D102270FE0294FB842A8
:1004900001D103270AE0284FB84201D1042705E023
:1004A000264FB84201D1052700E0062707FA08F7D2
:1004B0003743C9F80870DAF800605746D1F804806D
:1004C00096435FEAC83800D516433E60DBF800600B
:1004D0005F46D1F8048096435FEA883800D516431A
:1004E0003E60DEF800607746D1F8048096435FEA0C
:1004F000C82800D516433E60094F0C373E68D1F836
:10050000048096435FEA882800D516433E605B1C52
:100510000A6832FA03F67FF43DAFBDE8FC8F0000B5
:1005200000040140001002400000014000040048A7
:1005300000080048000C0048001000480014004863
:100540000AB181617047816270470000014880688C
:1005500070470000DC1100200248816842681144A5
:1005600081607047DC11002010B50024032000F0EA
:1005700065F8002000F008F808B1012401E000F05F
:1005800025F8204610BD000070B50E4E054600242B
:10059000706898B14FF47A71B1FBF0F00A490968BC
:1005A000B1FBF0F000F0EEFB40B9102D06D20022B6
:1005B0002946501E00F022F8356000E00124204654
:1005C00070BD0000DC110020E81100200A4882B054
:1005D000016E41F001010166016E01F0010100911F
:1005E000816D41F080518165806D00F080500090F8
:1005F00002B000F093B8000000100240F0B40E4BBF
:100600001B680C46C3F30223C3F10705042D00D970
:100610000425191D072901D2002300E0DB1E012655
:1006200006FA05F1491E214099409E40761E16406B
:100630003143F0BC01F022B80CED00E0064900F0B7
:10064000070208684FF6FF03184040EA0220034AF9
:1006500010430860704700000CED00E00000FA0550
:100660002B492C4B0A6832214A432B4940B1B0F543
:10067000007F086829D020F4C06040F480602CE03E
:100680000868C0F34120022804D051F8800F20F4FC
:10069000807022E0D1F8800020F48070C1F88000E2
:1006A000086820F4C06040F400700860B2FBF3F00A
:1006B000401C00E0401E4A69520501D50028F9D1CE
:1006C000486940050AD503207047C0F3412002283D
:1006D00006D051F8800F40F4807008600020704709
:1006E000D1F8800040F48070C1F88000086820F4E0
:1006F000C06040F400700860B2FBF3F0401C00E002
:10070000401E4A695205DBD50028F9D1D8E7000020
:10071000E811002040420F0000700040024881684C
:1007200041F4804181607047007000402DE9F0473E
:100730000E4605004FF0000725D0DFF8AC81D8F851
:10074000000000F00F00B0420CD2D8F8001021F0E9
:100750000F013143C8F80010D8F8000000F00F0076
:10076000B04210D12968614CC80741F2883A5AD08A
:100770006868DFF87C91032808D0022820682DD013
:10078000400500282CDB0120BDE8F08720688001AF
:10079000F9D5E06800F00302E068C0F30310401CE4
:1007A000032A19D0534A00BFB2FBF0F0E268C2F34B
:1007B00006225043E268C2F34162521C5200B0FB71
:1007C000F2F0484517D9A06810F0F00F0CD0880758
:1007D00011D5A86840B10EE0474AE5E78003D0E7AD
:1007E00000F092F8484506D9A06820F0F00040F0EB
:1007F0008000A0608027A068696820F0030008439B
:10080000A060FFF7A3FE814606E000BFFFF79EFE53
:10081000A0EB090151453AD8A068696800F00C00C6
:10082000B0EB810FF2D12868810714D5400703D5BA
:10083000A06840F4E060A0602878000705D5A068B3
:1008400020F4605040F4E060A060A068A96820F047
:10085000F000084304E0802F03D1A06820F0F000EE
:10086000A060D8F80010404601F00F01B14216D93F
:10087000016821F00F0131430160FFF767FE074671
:1008800007E000BFFFF762FEC11B514501D90320FD
:100890007AE7D8F8000000F00F00B042F2D12878D3
:1008A000400705D5A068E96820F4E0600843A0602F
:1008B0002878000706D5A068296920F4605040EA2E
:1008C000C100A06000F020F8A1680C4AC1F3031138
:1008D000515C01F01F01C8400949086009480068DF
:1008E000BDE8F047FFF750BE002002400010024074
:1008F00000B4C4040024F40000366E016C18000833
:10090000E8110020DC110020184910B58868C0F3F8
:1009100081021748012A0BD08A68164BC2F3810264
:10092000022A06D08A68C2F38102032A03D000207B
:1009300010BD184610BDCA6802F00304CA68C2F3AD
:100940000312521C032C02D0B0FBF2F001E0B3FB07
:10095000F2F0CA68C968C2F306225043C1F341618C
:10096000491C4900B0FBF1F010BD0000001002402E
:100970000024F40000366E012DE9F84304007AD01B
:100980002078FA4DC00747D0A868E96800F00C004D
:1009900001F003010C2802D0082817D001E0032938
:1009A00014D06068B0F5803F17D0B0F5A02F28684C
:1009B00017D020F480302860286820F48020286038
:1009C0006068E0B1FFF7C2FD064614E028688003C6
:1009D00022D560680028D2D01EE0286840F480301C
:1009E000EDE740F480202860F7E700BFFFF7AEFD99
:1009F000801B642870D828688003F7D50CE0FFF7C7
:100A0000A5FD064605E000BFFFF7A0FD801B64289A
:100A1000F0D828688003F7D4207880074CD5A868E0
:100A2000E96800F00C0001F003010C2802D0042852
:100A30000DD001E002290AD0E068002828682BD0F8
:100A400040F480702860FFF781FD064619E02868B1
:100A5000400502D5E068002891D06868217C20F02C
:100A6000FE4040EA01606860C1480068FFF78CFD05
:100A7000002800D120E076E1FFF768FD801B022806
:100A8000B8D828684005F7D56868217C20F0FE407A
:100A900040EA016068600FE020F480702860FFF792
:100AA00055FD064605E000BFFFF750FD801B0228FC
:100AB000A0D828684005F7D42078000729D56069B8
:100AC0000028D5F8940013D040F00100C5F8940038
:100AD000FFF73CFD064606E090E000BFFFF736FD5D
:100AE000801B022886D8D5F894008007F6D510E040
:100AF00020F00100C5F89400FFF728FD064604E049
:100B0000FFF724FD801B022878D8D5F894008007D1
:100B1000F6D42078400761D5A86D0026C00008D41F
:100B2000A86D40F08050A865A86D012600F08050A7
:100B3000009090480168C90511D40168804641F4CD
:100B400080710160FFF702FD074604E0FFF7FEFC3D
:100B5000C01B022852D8D8F80000C005F6D5A068FE
:100B6000012815D00528D5F8900016D020F00100F6
:100B7000C5F89000D5F8900020F00400C5F890006A
:100B8000A06841F28838B8B1FFF7E0FC07460EE0F4
:100B9000D5F8900040F00100F0E740F00400C5F8FF
:100BA0009000F5E7FFF7D2FCC11B414526D8D5F8E8
:100BB00090008007F6D50CE0FFF7C8FC074604E07C
:100BC000FFF7C4FCC11B414518D8D5F89000800739
:100BD000F6D41EB1A86D20F08050A865207880065C
:100BE00029D5A0690028D5F8980013D040F001005D
:100BF000C5F89800FFF7AAFC064606E077E000BFBC
:100C0000FFF7A4FC801B022877D8D5F8980080074E
:100C1000F6D510E020F00100C5F89800FFF796FC2B
:100C2000064604E0FFF792FC801B022865D8D5F841
:100C300098008007F6D4E069F0B3A968C1F3810198
:100C4000032961D00228286820F0807028600BD02A
:100C5000E86820F00300E860E86847490840E86079
:100C6000FFF774FC04464BE0FFF770FC064604E017
:100C7000FFF76CFC801B02283FD828688001F7D45E
:100C8000F4E908016FF00F0202EB01110843218A19
:100C90005204490802EB4151A26841EA022108438B
:100CA000217D4FF07E42490802EB41610843217BE0
:100CB00040EAC160E96800E062E0304A1140084360
:100CC000E860286840F080702860E86840F0807034
:100CD000E860FFF73BFC044605E000BFFFF736FC89
:100CE000001B022809D828688001F7D548E004E0F5
:100CF000FFF72CFC001B022802D90320BDE8F88373
:100D000028688001F4D43BE00128F7D0E868226A23
:100D100000F00301914226D1616A00F0F00209015E
:100D2000103991421FD1A26A00F4FE41B1EB022FAB
:100D300019D194F82C2000F07841B1EBC26F12D198
:100D4000218E00F4C00249084905A1F50011914225
:100D500009D194F8341000F0C06049084906A1F1A7
:100D6000007181420CD00120C8E700000010024051
:100D7000DC11002000700040FFFFEEFE0C809F01A0
:100D80000020BBE710B5401EB0F1807F01D30120E9
:100D900010BD4FF0E02460610F21601700F06EFC81
:100DA0000020A06107202061002010BDFEE70000A8
:100DB00000B585B014216846FFF733FA4FF6FF708F
:100DC000009000200321CDE902010190694602480C
:100DD000FFF7D2FA05B000BD0008004800B585B0A5
:100DE00014216846FFF71DFA4FF6FF7000900120AE
:100DF0000190032003900020029069460248FFF70B
:100E0000BBFA05B000BD00000008004870B5002422
:100E100006462146204600F003F900F045F94FF45C
:100E20009635304600F010F9641CAC42F9D370BD21
:100E300030B587B014216846FFF7F3F91E48C16C3E
:100E400041F00401C164C16C01F004010591C16C61
:100E500041F00101C164C16C01F001010591C16C57
:100E600041F00201C164C06C012500F00200059050
:100E70004FF44870CDE900050024039469460294BC
:100E80000E48FFF779FA280203940090CDE9015447
:100E90004FF0904469462046FFF76EFAFFF79EFF39
:100EA000A06940F48070A06104481830016841F4E2
:100EB0000871016007B030BD001002400004004816
:100EC000203AD2B2034B02EB420203EB021200F0D3
:100ED00019B800000A000020F0B50E4607460025AC
:100EE00040F23F1407E021463846FFF7E9FF103C87
:100EF0006D1CA4B2761C3278002A01D0142DF2D3D6
:100F0000F0BD00002DE9F04791468A4600260446D0
:100F100000F086F8DFF84080012700BF00F0C4F839
:100F20005FF0000539F8160007FA05F1084240465F
:100F300001D1408800E0008800F086F86D1C102D7B
:100F4000F0D3641CE4B25146204600F069F8761CE8
:100F5000182EE3D3BDE8F0870400002010B5FFF79A
:100F600067FF002000F014F8084CA080A088A0F5CE
:100F70000241303906D000F00FFA002000F008F8E6
:100F8000A08010BD00F07FF9F7E70000040000200A
:100F900070B51D490A6842F400720A600A6842F49A
:100FA00080720A60184C103C226842F020022260D5
:100FB000164A1060086840F02000086000BF00BFBB
:100FC00000BF206840F020002060206840F480705E
:100FD0002060FFF7EDFE4FF09041886A40F480708A
:100FE000886200BF00BF00BF0848001F006885B2CC
:100FF000886940F480708861FFF7F0FE206840F453
:1010000000702060284670BD28040048140800487D
:1010100001B5BDF800000149488008BD040000206A
:1010200010B50C460146202000F070F82146BDE8BE
:101030001040212000F06AB801B5BDF80000014958
:10104000088008BD0400002030B5154B1968154A0A
:101050008CB2116841F400711160124910390D68A9
:1010600045F480750D600D6845F020050D60186031
:10107000106840F02000106000BF00BF00BF08688B
:1010800040F020000860086840F48070086000BFED
:1010900000BF00BF086840F4007008601C6030BDED
:1010A0001408004828040048164A10B5106816496C
:1010B00083B2086840F400700860086840F48070EB
:1010C000086011481038046844F0200404602224A9
:1010D00014600C6844F020040C6000BF00BF00BF27
:1010E000016841F020010160016841F480710160F4
:1010F00000BF00BF00BF016841F4007101601360D0
:1011000010BD0000140800482804004870B51A4CAF
:1011100022681A4B95B21A6842F400721A601A6873
:1011200042F480721A60154A103A166846F020069A
:1011300016602060186840F02000186000BF00BFF3
:1011400000BF106840F020001060106840F480700C
:1011500010602160186840F02000186000BF00BFD8
:1011600000BF106840F020001060106840F48070EC
:101170001060256070BD0000140800482804004875
:101180002DE9F04F87B014216846FFF74AF8384838
:10119000C16C41F00401C164C16C01F0040105910E
:1011A000C16C41F02001C164C16C01F020010591C6
:1011B000C16C41F00101C164C16C01F001010591F4
:1011C000C16C41F00801C164C16C01F008010591D6
:1011D000C16C41F00201C164C06CDFF8988000F07E
:1011E00002004FF6FF740590002221464046FFF7AB
:1011F000A7F94FF480764FF09049002231464846D7
:10120000FFF79EF9DFF870A0002204215046FFF797
:1012100097F9DFF868B04FF448770022394658460E
:10122000FFF78EF90125CDE90045002402946946B7
:1012300040460394FFF7A0F80096CDE901546946B3
:1012400048460394FFF798F804200090CDE9015434
:10125000694650460394FFF78FF80097CDE9015493
:10126000694658460394FFF787F807B0BDE8F08F4A
:101270000010024000080048000C0048000400482C
:10128000FEE7FEE7704730B501210020FFF73EFF83
:101290004FF47A70FFF729F800210120FFF736FF9D
:1012A00041F290711020FFF731FF4FF41C51602084
:1012B000FFF72CFF01216120FFF728FF02214620C4
:1012C000FFF724FF48F210011320FFF71FFF48F239
:1012D000FE011220FFF71AFF4FF4A0610220FFF772
:1012E00015FF41F230010320FFF710FF40F20334F5
:1012F00021463020FFF70AFF21463120FFF706FF85
:1013000021463220FFF702FFE51E29463320FFF772
:10131000FDFE03213420FFF7F9FE21463520FFF7BB
:10132000F5FE14213620FFF7F1FE21463720FFF7A6
:10133000EDFE21463820FFF7E9FE21463920FFF770
:10134000E5FE29463A20FFF7E1FE03213B20FFF7A7
:10135000DDFE21463C20FFF7D9FE4FF4A0513D2091
:10136000FFF7D4FE4FF400719220FFF7CFFE214625
:101370009320FFF7CBFE40F60D019020FFF7C6FE4D
:1013800041F218010320FFF7C1FEBDE8304040F2F2
:1013900073110720FFF7BABE10B543F20801E3202E
:1013A000FFF7B4FE1221E720FFF7B0FE41F2312132
:1013B000EF20FFF7ABFE00210120FFF7A7FE4FF45F
:1013C000E0610220FFF7A2FE41F230010320FFF7A7
:1013D0009DFE00210420FFF799FE40F2072108201E
:1013E000FFF794FE00210920FFF790FE00210A205C
:1013F000FFF78CFE00210C20FFF788FE00210D2056
:10140000FFF784FE00210F20FFF780FE002110204F
:10141000FFF77CFE07211120FFF778FE0021122044
:10142000FFF774FE00211320FFF770FEC820FEF7BF
:1014300091FF41F290611020FFF768FE40F22721F2
:101440001120FFF763FE3220FEF784FF1D211220DA
:10145000FFF75CFE3220FEF77DFF4FF400611320A2
:10146000FFF754FE14212920FFF750FE0B212B20FB
:10147000FFF74CFE3220FEF76DFF00212020FFF722
:1014800045FE00212120FFF741FE07213020FFF714
:101490003DFE40F207713120FFF738FE0621322071
:1014A000FFF734FE40F204713520FFF72FFE41F6BE
:1014B00004713620FFF72AFE04213720FFF726FEAD
:1014C00000213820FFF722FE40F206713920FFF795
:1014D0001DFE40F201713C20FFF718FE0F213D2058
:1014E000FFF714FE00215020FFF710FEEF215120DE
:1014F000FFF70CFE00215220FFF708FE40F23F11DB
:101500005320FFF703FE4FF41C516020FFF7FEFD50
:1015100001216120FFF7FAFD00216A20FFF7F6FDA7
:1015200000218020FFF7F2FD00218120FFF7EEFD72
:1015300000218220FFF7EAFD00218320FFF7E6FD6E
:1015400000218420FFF7E2FD00218520FFF7DEFD6A
:1015500010219020FFF7DAFD00219220FFF7D6FD41
:1015600003219320FFF7D2FD4FF488719520FFF7F8
:10157000CDFD00219720FFF7C9FD00219820FFF73E
:10158000C5FD41F218010320FFF7C0FDBDE8104082
:1015900040F273110720FFF7B9BD7047FEF7DCBFBB
:1015A00000B593B038216846FEF73BFE14210EA823
:1015B000FEF737FE4FF40070FFF752F80220C1012A
:1015C0000391402104910090079008901421CDE9E7
:1015D00009010B900C900D906846FFF7CDF908B10A
:1015E00072B6FEE70F200E9003200F90002010909F
:1015F0001190129002210EA8FFF798F8002801D050
:1016000072B6FEE713B000BD0248016841F47001F4
:101610000160704788ED00E070B50A4C4FF47F40E0
:10162000094D6080012204212846FEF789FF074901
:10163000608808602846BDE8704000220421FEF75B
:101640007FBF000000000020000C00481408004884
:10165000FEE700000FB4084B10B504A902AA0398D6
:1016600000F02CF8044602A9002000F0D1F8204632
:1016700010BC5DF814FB0000111800080907090EE2
:10168000002804DB00F1E02080F80014704700F02F
:101690000F0000F1E02080F8141D704702E008C838
:1016A000121F08C1002AFAD170477047002001E0DC
:1016B00001C1121F002AFBD1704700002DE9FF4F26
:1016C00089B09B460446002506E025280BD05A46E3
:1016D0000B999047641C6D1C20780028F5D10DB043
:1016E0002846BDE8F08F0027B8460122474900E0B0
:1016F000074314F8013F203B02FA03F00842F7D1F8
:1017000020782E2819D114F8010F47F004072A2851
:101710000ED06FF02F022078A0F1300109290CD8EB
:1017200008EB880102EB410100EB0108641CF2E7C1
:101730000A98641C50F8048B0A9020780028CED0B8
:10174000642808D0692806D075281ED05A460B99FF
:1017500090476D1C58E00A994FF00A0901C90A9197
:10176000002802DA40422D2102E0390504D52B2160
:101770008DF82010012103E0F90704D02021F7E7BC
:101780008A4608AE0DE00021FAE70A994FF00A09EF
:1017900001C90A91F7E74946FEF74EFD303106F8D8
:1017A000011D0028F7D1ADEB060000F120097807F4
:1017B00001D44FF00108C84502DDA8EB090000E0A4
:1017C00000208046002706E008A85A46C05D0B9915
:1017D00090476D1C7F1C5745F6DB04E030205A46CD
:1017E0000B9990476D1CB8F10001A8F10108F5DCD8
:1017F00005E016F8010B5A460B9990476D1CB9F19C
:101800000001A9F10109F4DC641C65E70928010065
:101810000A68531C0B60107070470000FEF7A4FEAE
:10182000FFF7BEFEFFF7ACFCFFF798FB4FF6FF7427
:101830002046FFF7EBFA2046FFF7EAFB0020FFF710
:10184000FBFBFFF7E9FE084C002500BFFEF75CFD3F
:101850002078401CC0B22070642800D1257064201C
:10186000FEF778FDF2E70000000000200000000015
:101870000000000001020304060708099C18000884
:1018800000000020EC11000088020008281F00085A
:10189000EC11002004040000AC1600083200010026
:1018A0000431FFFF00010316800102611EE1329244
:1018B000CC02012A6A23600C02200F30063006FE9B
:1018C0001FFE1F3006380718030A200718031803E5
:1018D0008C01023172201700E003F80F9C0E8C1C63
:1018E0008C188C009800F801E007800E800E100B19
:1018F000189C18B80CF00FE0038026A15A10090EAE
:10190000181B0C110C11060210110311039B018E00
:1019100001C038C06C60446044300260071844184D
:101920006C0C38BE1005E001F0037A10140618069E
:101930003003F001F000F8009C310E33061E061C47
:1019400002E0063FFC73F021B8920C020121E7107F
:101950000B0200038001C000C0006002D2300221EF
:1019600014211C155E12032A15163220123570122E
:101970000302D20602111425A2214ED62088214846
:101980001008D806F807E00130D2052AEAC405FCA1
:101990003FFC3FE8092C30120002021B806C080556
:1019A00032E007E0078E41D6F57F750C155C3510E7
:1019B00045624564D17AE00A03F007380E180C0C32
:1019C0001802D409180C380EF007E003B0214C0CB3
:1019D000071901F0019801880803A16043F80F5E20
:1019E000220002219C35F025ECD0071800FC1FFCDA
:1019F0001F90100701F807180E0C0121C81805C028
:101A000003C00751113C41920210F8904C0B0C009E
:101A10000E000F000F800DC03003116B270C0CB2AD
:101A200009148513F80F9031893009EC03FC071C69
:101A30000E001C98115E0005101C0C180E60200989
:101A4000C007F00F381C1818325409CC03EC0F3CB7
:101A50000E1C1C2006121C2031D24582357C16C07B
:101A60007A3AE0C85A70DE0514802153840738069C
:101A7000F007F0078CE005380CF80F604130521C7D
:101A80002430091C1C381EF81BE019D1130C1CC093
:101A90000B1BF0018A012114011F30091ACE1C050D
:101AA00010001C80720416F8DC1AF85C17800F60B6
:101AB0000A1810F8C3F81F080D1E140518070800AF
:101AC0003800F00114121F61161F9C13013814090D
:101AD0001770796E6D2603FD2E033D7C03400C18B4
:101AE000180420C229224A11440902EC0C221113C5
:101AF000E20C024004201818980315D4200403C0F7
:101B00000602396E2218022C07F83FF83F1C70AF0E
:101B1000052119D9106C0503FC0F0C5E0310040C91
:101B2000FC070E1A18A541021E180003FA0770BC24
:101B30000A1F38381C300C700660DD04E008600CA9
:101B4000701C30F01F903C08FE03FE0F060E06A12D
:101B500005B1022DB305E8050EFE0FFEA01DCC0455
:101B60008DA20529AEADB0053D3803C5A211DC4DEF
:101B7000BB032D27038005F81FF81F0E4DD303DD8F
:101B8000CA043C0C0FF83F3C780E6006E007C081A9
:101B90000411A11DC5031533DC090EC03CF0F83F4C
:101BA000E00FBF03A23002319EB1120F260C30802D
:101BB000070D15A005021406022531DC063807F0D2
:101BC00003E0B004353A10140C060606038601C67D
:101BD0000066007600DE008E01060312360C64DD1E
:101BE0004105021B18022530CD210320050EE01E01
:101BF000F0024336D8022366CC0252C601E40586C1
:101C0000C386C32010041C303C02126C0212CC02AA
:101C100010058C310C3302123602123C02E63820D9
:101C20001C05E007F81F9904193EA303C002F80839
:101C300006600E701C38F8401BFC0F02CA38920E6A
:101C4000190CC407916082E05E140907E006630E78
:101C50003F1C3CE0CEF79106198258041F06389CC1
:101C60001E38C00876074C49B20E106030065DDEA3
:101C7000041D9B051BF80330331E00401C050E306D
:101C80001C1C1005ED000308042A7FFE7F10E95E8E
:101C9000A97E0710181820430360BC6D14072D1689
:101CA000072D9409140570076003631DE005E130FA
:101CB00023C3610283663302236C1B02CC092C1AF6
:101CC0003C1E380E380E31051C090FE00C70183020
:101CD00030183F043C040EC0075E04140503E00600
:101CE00070F71D8107D006300E6007E0602D790483
:101CF0004C08301C383818300C65030D1C80075C0C
:101D000005FC7FFC7F6D07DD7C072D2708253EED58
:101D100010082FE003AE06011E0221282DA60A6D31
:101D2000A6094DA8091D64096D0E0B7E03A009F1DB
:101D3000600221000261601D82071D4407256C3F7F
:101D40006003D7042919013901CFFFFFF80B0D2DCE
:101D5000AE0A9D4A081805F003F807AA2C070C00E4
:101D60000FF00FF8B1081F0C1C5C080F16F01820BC
:101D7000041ED8A80B1E38370881012DE0070F1765
:101D8000D803DA091D9A096F300E39092DA3081EF0
:101D9000309009EEC00009711F2805C01BF01F36E6
:101DA0008160000719301CF01FC01B601E0F8306E6
:101DB0006E18D4051952EC051CF00FC0F00644044F
:101DC0000FC00FDA2D9C0855E4B1020D17D40A1E7E
:101DD0000DFA093DCA0961011D600924050FE00DD6
:101DE000002A6E06AA0895204F07F86A09D1010D4E
:101DF00016F00A0215C002012E3041DEEC04F80094
:101E000078BE0C1C050C0C060C6A0D100DCC006C79
:101E100000FC009C018C030C03120E100C560C01EC
:101E20001C020D169009E0097C3CFF7EC7E383C1CC
:101E3000020D16EA0B062398200510E099101D0EDE
:101E40000E0A17C0700916A00D16EA070917700DC3
:101E5000151B081EB06E07FE70E20D0E1830140D33
:101E60001E037A0E1D1A0B1DF2093D060C0D15906E
:101E70000C1D020F0919A00F170780EA0D09106A3F
:101E80001238C01D4C0B0D15DB0A4DFE053E189295
:101E90000F1DB7060E140300068DF80F3008C14160
:101EA000C141C3616301323601321C010D16F00FCE
:101EB0003E1CF70952605A1D5E061D75061E38E16C
:101EC0000B0117C01D36061D38062E1828102FE0EE
:101ED0000C940A2D3E064DF00D1DA20D1D700C0D2B
:101EE000159A0C0D1B800D8D300B8D320E2DE205D9
:101EF000BA40D63D900F0D259009CD22119E602449
:101F0000069DC60FB3030048FEC0A80E5D74050C05
:101F1000061A10F81F080F36112D6D0C7D030700EF
:081F2000040024F4000000009D
:04000005080001D915
:00000001FF
