:020000040800F2
:1000000080170020F10100082B2C0008DF220008D7
:10001000292C000887030008713D0008000000003B
:10002000000000000000000000000000B1300008E7
:1000300089030008000000002D2C0008B3300008E0
:100040000B0200080B0200080B0200080B0200085C
:100050000B0200080B0200080B0200080B0200084C
:100060000B0200080B0200080B0200080B0200083C
:100070000B0200080B0200080B0200080B0200082C
:100080000B020008000000000B0200080B02000831
:100090000B0200080B0200080B0200080B0200080C
:1000A0000B0200080B0200080B0200080B020008FC
:1000B0000B0200080B020008613100080B02000867
:1000C0000B0200080B0200080B0200080B020008DC
:1000D0000B020008653D00080B0200080B02000837
:1000E0000B0200080B0200080B0200080B020008BC
:1000F0000B0200080B0200080B02000800000000C1
:10010000000000000B020008000000000B020008C5
:100110000B020008000000000B0200080B020008A0
:100120000B0200080B0200080B0200080B0200087B
:100130000B02000800000000000000000B02000895
:100140000B0200080B020008000000000000000085
:10015000000000000000000000000000000000009F
:100160000000000000000000000000000B0200087A
:100170000B0200080000000000000000000000006A
:10018000000000000B02000800000000000000005A
:10019000000000000000000000000000000000005F
:1001A00000000000000000000B0200080B02000825
:1001B0000B0200080B0200080B0200080000000000
:1001C000000000000B02000800000000000000001A
:1001D0000B0200080B020008DFF810D000F092F8C4
:1001E00000480047A1410008AFF3008080170020BD
:1001F0000648804706480047FEE7FEE7FEE7FEE7C1
:10020000FEE7FEE7FEE7FEE7FEE7FEE74531000812
:10021000D90100082DE9F05F0546002092469B4673
:1002200088460646814640241BE02846414647460C
:10023000224600F057F853465A46C01A914110D34F
:1002400011461846224600F03EF82D1A67EB0108C9
:100250004F4622460120002100F035F817EB000937
:100260004E41201EA4F10104DFDC484631462A46F7
:100270004346BDE8F09FD2B201E000F8012B491ED1
:10028000FBD270470022F6E710B513460A46044633
:100290001946FFF7F0FF204610BD30B50B4601466A
:1002A00000202022012409E021FA02F59D4205D315
:1002B00003FA02F5491B04FA02F52844151EA2F1BF
:1002C0000102F1DC30BD202A04DB203A00FA02F101
:1002D000002070479140C2F1200320FA03F3194334
:1002E00090407047202A04DB203A21FA02F00021D6
:1002F000704721FA02F3D040C2F120029140084336
:1003000019467047064C074D06E0E06840F00103CF
:1003100094E8070098471034AC42F6D3FFF760FF2B
:100320004C4400086C44000870B58D1810F8014B5F
:1003300014F0030201D110F8012B231106D110F89B
:10034000013B03E010F8016B01F8016B521EF9D17B
:10035000ABB110F8012B04F00C048A1A0C2C03D05A
:10036000A2EB84129B1C08E010F8014BA2EB0422C4
:10037000F8E712F8014B01F8014B5B1EF9D5A942D1
:10038000D4D3002070BDFEE77047002240F6B8339A
:1003900006E00021491C89B29942FBD3521C92B25B
:1003A0008242F6D37047000010B5234C8AB023A1D7
:1003B000627B01A803F0DEFC01A9182002F0A4F979
:1003C000A27B23A101A803F0D5FC01A9302002F0F3
:1003D0009BF900222349244800F062FF002204F127
:1003E0002001214800F038FF1E48027862824378DD
:1003F000A3828178E1828088208300911BA101A8DB
:1004000003F0B8FC01A9482002F07EF9E27B6AB152
:100410001CA101A803F0AEFC01A9602002F074F950
:100420001DA1782002F070F90AB010BD1DA101A82D
:1004300003F0A0FCF0E70000D61100202020505768
:100440004D2D5041313A20253032642525202000A1
:10045000202050574D2D5041323A2025303264250E
:10046000252020000C12002030120020202054698A
:100470006D653A253032643A20253032643A2025C1
:100480003032640020204368616E6E656C3A5041E2
:1004900025642020000000002020436F6D6D616EF8
:1004A000643A000020204368616E6E656C3A4E6FBE
:1004B0006E6520200000000072B6FEE770B590F86F
:1004C0002520002401212346022A07D00422C263EA
:1004D00080F8251080F82430012429E0026815688E
:1004E00025F00E0515600268156825F001051560F8
:1004F000826C156825F48075156090F84420056CB1
:1005000002F01F0201FA02F26A60D0E91325556079
:10051000426D32B1156825F480751560D0E9162555
:10052000556080F8251080F82430816B01B1884730
:10053000204670BD70B5044600F0FCF80546601C0E
:1005400002D004484068044400F0F4F8401BA04284
:10055000FAD370BDFC1100202DE9FC4FDFF8A0A1FB
:10056000002301250AF1040B03244FF00F0C0BF1BB
:10057000040EBDE005FA03F632406FD04F68012F3C
:1005800005D0022F03D0112F01D0122F17D1D0F890
:1005900008905F0004FA07F829EA08090097D1F8E3
:1005A0000C8008FA07F848EA0908C0F8088047688C
:1005B000B7430E79C6F300169E403E434660C668B8
:1005C0004FEA430804FA08F7BE4301978F6807FA19
:1005D00008F73743C7604E68022E01D0122E13D1A0
:1005E000DE0800EB86060096366A5F07FF0E0CFAFF
:1005F00007F926EA0906D1F8109009FA07F949EA3D
:100600000609009EC6F820900668019FBE430F7938
:1006100007F0030707FA08F7374307604E68F6004C
:1006200065D5384E376E47F001073766366E23F0D2
:10063000030706F001060096334E3E44B146B66805
:100640009F074FEA17780CFA08F7BE43B0F1904FB6
:1006500005D02E4FB84204D1012717E047E000270C
:1006600014E02B4FB84201D102270FE0294FB842C6
:1006700001D103270AE0284FB84201D1042705E041
:10068000264FB84201D1052700E0062707FA08F7F0
:100690003743C9F80870DAF800605746D1F804808B
:1006A00096435FEAC83800D516433E60DBF8006029
:1006B0005F46D1F8048096435FEA883800D5164338
:1006C0003E60DEF800607746D1F8048096435FEA2A
:1006D000C82800D516433E60094F0C373E68D1F854
:1006E000048096435FEA882800D516433E605B1C71
:1006F0000A6832FA03F67FF43DAFBDE8FC8F0000D4
:1007000000040140001002400000014000040048C5
:1007100000080048000C0048001000480014004881
:100720000069084000D0012070470AB1816170471C
:10073000816270470148806870470000FC1100200A
:10074000024881684268114481607047FC110020B2
:1007500010B50024032000F073F8002000F008F822
:1007600008B1012401E000F025F8204610BD00008A
:1007700070B50E4E05460024706898B14FF47A713A
:10078000B1FBF0F00A490968B1FBF0F000F0E6FEB9
:1007900040B9102D06D200222946501E00F030F834
:1007A000356000E00124204670BD0000FC110020EF
:1007B000081200200A4882B0016E41F00101016672
:1007C000016E01F001010091816D41F08051816560
:1007D000806D00F08050009002B000F0A1B80000E1
:1007E00000100240002809DB00F01F0201219140A7
:1007F0004009800000F1E020C0F8001170470000BF
:10080000F0B40E4B1B680C46C3F30223C3F107057B
:10081000042D00D90425191D072901D2002300E069
:10082000DB1E012606FA05F1491E214099409E4033
:10083000761E16403143F0BC03F0B0BA0CED00E078
:10084000064900F0070208684FF6FF03184040EA27
:100850000220034A10430860704700000CED00E0DE
:100860000000FA052B492C4B0A6832214A432B49D8
:1008700040B1B0F5007F086829D020F4C06040F492
:1008800080602CE00868C0F34120022804D051F8B1
:10089000800F20F4807022E0D1F8800020F4807076
:1008A000C1F88000086820F4C06040F4007008605F
:1008B000B2FBF3F0401C00E0401E4A69520501D52E
:1008C0000028F9D1486940050AD503207047C0F3D4
:1008D0004120022806D051F8800F40F48070086053
:1008E00000207047D1F8800040F48070C1F880008B
:1008F000086820F4C06040F400700860B2FBF3F0B8
:10090000401C00E0401E4A695205DBD50028F9D1A1
:10091000D8E700000812002040420F00007000409D
:100920000248816841F48041816070470070004056
:100930002DE9F8430446006800269D4D00035ED56E
:10094000A86D0027C00008D4A86D40F08050A865AD
:10095000A86D012700F080500090DFF85892D9F878
:10096000001041F48071C9F80010FFF7E3FE8046E3
:1009700006E000BFFFF7DEFEA0EB080002282BD840
:10098000D9F80000C005F5D5D5F8900010F44070F6
:1009900014D0216C814211D0D5F89000D5F8901078
:1009A00020F4407041F48031C5F89010D5F89010D3
:1009B00021F48031C5F89010C5F89000C00711D01F
:1009C000FFF7B8FE804641F2883907E0FFF7B2FE34
:1009D000A0EB0801494501D903260BE0D5F89000AA
:1009E0008007F3D5D5F89000216C20F440700843BF
:1009F000C5F890001FB1A86D20F08050A865207840
:100A0000C00707D0D5F88800616820F003000843CC
:100A1000C5F888002078800707D5D5F88800A16838
:100A200020F00C000843C5F888002078400707D55F
:100A3000D5F88800E16820F030000843C5F8880048
:100A40002078000707D5D5F88800216920F0C0007C
:100A50000843C5F888002078800607D5D5F88800B7
:100A6000616920F440600843C5F88800207840069A
:100A700007D5D5F88800A16920F440500843C5F88F
:100A800088002078000607D5D5F88800E16920F4B1
:100A900040400843C5F888002088C00507D5D5F830
:100AA0008800216A20F440300843C5F88800208877
:100AB000800507D5D5F88800616A20F440200843F6
:100AC000C5F88800208840050FD5D5F88800A16AB0
:100AD00020F440100843C5F88800A06AB0F5801FD4
:100AE00003D1E86840F48010E860208800050FD545
:100AF000D5F88800E16A20F440000843C5F8880072
:100B0000E06AB0F5800F03D1E86840F48010E86037
:100B10002088C0040FD5D5F88800216B20F04070E4
:100B20000843C5F88800206BB0F1807F03D1E868E6
:100B300040F48010E86020884FF0006180040ED5FA
:100B4000D5F88800626B20F040601043C5F888003B
:100B5000606B884203D1E86840F48010E860208828
:100B600040040ED5D5F88800A26B20F040601043F9
:100B7000C5F88800A06B884203D1E86840F4801073
:100B8000E860208800040FD5D5F88800E16B20F0DC
:100B900040500843C5F88800E06BB0F1805F03D196
:100BA000E86840F48030E8603046BDE8F883000033
:100BB00000100240007000402DE9F0470E4605008D
:100BC0004FF0000725D0DFF8AC81D8F8000000F026
:100BD0000F00B0420CD2D8F8001021F00F013143C1
:100BE000C8F80010D8F8000000F00F00B04210D193
:100BF0002968614CC80741F2883A5AD06868DFF822
:100C00007C91032808D0022820682DD040050028B8
:100C10002CDB0120BDE8F08720688001F9D5E06871
:100C200000F00302E068C0F30310401C032A19D04F
:100C3000534A00BFB2FBF0F0E268C2F30622504311
:100C4000E268C2F34162521C5200B0FBF2F0484528
:100C500017D9A06810F0F00F0CD0880711D5A8683C
:100C600040B10EE0474AE5E78003D0E700F0B6F870
:100C7000484506D9A06820F0F00040F08000A06050
:100C80008027A068696820F003000843A060FFF790
:100C900051FD814606E000BFFFF74CFDA0EB0901C6
:100CA00051453AD8A068696800F00C00B0EB810F9C
:100CB000F2D12868810714D5400703D5A06840F415
:100CC000E060A0602878000705D5A06820F4605097
:100CD00040F4E060A060A068A96820F0F00008433C
:100CE00004E0802F03D1A06820F0F000A060D8F8C5
:100CF0000010404601F00F01B14216D9016821F001
:100D00000F0131430160FFF715FD074607E000BF03
:100D1000FFF710FDC11B514501D903207AE7D8F830
:100D2000000000F00F00B042F2D12878400705D54E
:100D3000A068E96820F4E0600843A0602878000714
:100D400006D5A068296920F4605040EAC100A0607F
:100D500000F044F8A1680C4AC1F30311515C01F0A2
:100D60001F01C8400949086009480068BDE8F0470C
:100D7000FFF7FEBC002002400010024000B4C40493
:100D80000024F40000366E013444000808120020EC
:100D9000FC1100200548064900688968054AC1F32E
:100DA0000221515C01F01F01C84070470812002069
:100DB000001002404444000805480649006889685C
:100DC000054AC1F3C221515C01F01F01C8407047C0
:100DD000081200200010024044440008184910B5D1
:100DE0008868C0F381021748012A0BD08A68164B25
:100DF000C2F38102022A06D08A68C2F38102032A62
:100E000003D0002010BD184610BDCA6802F00304CC
:100E1000CA68C2F30312521C032C02D0B0FBF2F0DA
:100E200001E0B3FBF2F0CA68C968C2F3062250437E
:100E3000C1F34161491C4900B0FBF1F010BD000055
:100E4000001002400024F40000366E012DE9F84342
:100E500004007AD02078FA4DC00747D0A868E96826
:100E600000F00C0001F003010C2802D0082817D074
:100E700001E0032914D06068B0F5803F17D0B0F5C9
:100E8000A02F286817D020F480302860286820F42C
:100E9000802028606068E0B1FFF74CFC064614E053
:100EA0002868800322D560680028D2D01EE0286818
:100EB00040F48030EDE740F480202860F7E700BF81
:100EC000FFF738FC801B642870D828688003F7D5AA
:100ED0000CE0FFF72FFC064605E000BFFFF72AFCF9
:100EE000801B6428F0D828688003F7D42078800716
:100EF0004CD5A868E96800F00C0001F003010C284B
:100F000002D004280DD001E002290AD0E0680028B0
:100F100028682BD040F480702860FFF70BFC064651
:100F200019E02868400502D5E068002891D068687B
:100F3000217C20F0FE4040EA01606860C148006802
:100F4000FFF716FC002800D120E076E1FFF7F2FB66
:100F5000801B0228B8D828684005F7D56868217C2E
:100F600020F0FE4040EA016068600FE020F48070ED
:100F70002860FFF7DFFB064605E000BFFFF7DAFB5E
:100F8000801B0228A0D828684005F7D420780007E5
:100F900029D560690028D5F8940013D040F00100ED
:100FA000C5F89400FFF7C6FB064606E090E000BFD8
:100FB000FFF7C0FB801B022886D8D5F89400800775
:100FC000F6D510E020F00100C5F89400FFF7B2FB61
:100FD000064604E0FFF7AEFB801B022878D8D5F860
:100FE00094008007F6D42078400761D5A86D0026CC
:100FF000C00008D4A86D40F08050A865A86D0126F7
:1010000000F08050009090480168C90511D4016833
:10101000804641F480710160FFF78CFB074604E0D5
:10102000FFF788FBC01B022852D8D8F80000C00583
:10103000F6D5A068012815D00528D5F8900016D05F
:1010400020F00100C5F89000D5F8900020F00400D1
:10105000C5F89000A06841F28838B8B1FFF76AFB84
:1010600007460EE0D5F8900040F00100F0E740F0B0
:101070000400C5F89000F5E7FFF75CFBC11B414594
:1010800026D8D5F890008007F6D50CE0FFF752FB84
:10109000074604E0FFF74EFBC11B414518D8D5F8C1
:1010A00090008007F6D41EB1A86D20F08050A8658E
:1010B0002078800629D5A0690028D5F8980013D09B
:1010C00040F00100C5F89800FFF734FB064606E043
:1010D00077E000BFFFF72EFB801B022877D8D5F8FA
:1010E00098008007F6D510E020F00100C5F89800C0
:1010F000FFF720FB064604E0FFF71CFB801B0228DD
:1011000065D8D5F898008007F6D4E069F0B3A968EF
:10111000C1F38101032961D00228286820F0807082
:1011200028600BD0E86820F00300E860E8684749D1
:101130000840E860FFF7FEFA04464BE0FFF7FAFAD2
:10114000064604E0FFF7F6FA801B02283FD828681D
:101150008001F7D4F4E908016FF00F0202EB0111EE
:101160000843218A5204490802EB4151A26841EA2E
:1011700002210843217D4FF07E42490802EB416184
:101180000843217B40EAC160E96800E062E0304A40
:1011900011400843E860286840F080702860E868E3
:1011A00040F08070E860FFF7C5FA044605E000BF34
:1011B000FFF7C0FA001B022809D828688001F7D57C
:1011C00048E004E0FFF7B6FA001B022802D903202A
:1011D000BDE8F88328688001F4D43BE00128F7D00B
:1011E000E868226A00F00301914226D1616A00F0AA
:1011F000F0020901103991421FD1A26A00F4FE41A8
:10120000B1EB022F19D194F82C2000F07841B1EB0A
:10121000C26F12D1218E00F4C00249084905A1F520
:101220000011914209D194F8341000F0C0604908CF
:101230004906A1F1007181420CD00120C8E70000ED
:1012400000100240FC11002000700040FFFFEEFE85
:101250000C809F010020BBE70F4810B50B460168CA
:101260000E480140080CD870C1F304245C7001F0F2
:101270003F049C70C1F34231197052B901F061FE14
:10128000D870587801F05DFE5870987801F059FEDA
:101290009870002010BD0000042800403FFFFF00B0
:1012A000144810B500680B464860124808300068C2
:1012B000C0F30E0088600F48083801680E480140EE
:1012C000C1F305401870C1F306245C7001F07F047F
:1012D0009C70890DD97052B901F033FE187058789E
:1012E00001F02FFE5870987801F02BFE98700020C6
:1012F00010BD0000082800407F7F7F0070B504000B
:101300004FF001003ED094F8250028B9002084F861
:101310002400204600F03CF8022084F825001A4EF4
:10132000CA20306053203060204601F01FFE10BB01
:10133000154D0C3D286815490840286028686168EB
:10134000A269084321691143084328602189E068A4
:1013500040EA01400C4914390860204601F02CFE97
:1013600048B9D4E90721114362692B6823F060432F
:101370001A4311432960FF213160002802D1012165
:1013800084F8251070BD000024280040BFFF8FFBAB
:1013900000680549884205D1044850F8901F41F47F
:1013A000004101607047000000280040001002402A
:1013B0002DE9F041044690F824000B4601281AD08C
:1013C000012684F82460022084F82500B2B19878C0
:1013D000D97840EA014558781978000240EA41304E
:1013E00005431B4FCA20386053203860204601F067
:1013F000BDFDD8B122E00220BDE8F0815878C106D9
:1014000003D500F0EF000A305870D87801F0A2FD43
:101410000504587801F09EFD45EA0025987801F012
:1014200099FD0543187845EA4035DAE70948054053
:10143000074820380560204601F0BEFDFF213960D5
:1014400008B984F82560002184F82410D4E700004E
:10145000242800403FFFFF002DE9F047054690F8A3
:10146000240017460C46012814D04FF0010985F8D6
:101470002490022085F82500DFF8A480CA21C8F84E
:1014800000105321C8F80010284601F06FFD002617
:1014900018B127E00220BDE8F087214B0C3B18680B
:1014A0004FEA40601FB3002800DBE670A078217887
:1014B000E27840EA01406178090241EA825108433A
:1014C00018490840164924390860186820F480201B
:1014D0001860D4E9030108431968084318602846D6
:1014E00001F06AFDFF22C8F80020A0B115E0002835
:1014F00000DBE670207801F02DFD0704607801F034
:1015000029FD47EA0027A07801F024FD0743E07891
:1015100047EA8050D4E785F8259085F82460BAE73B
:10152000242800407F7F7F0070B50B4D286860F055
:10153000A0002860FFF7FEF804464FF47A7606E034
:10154000FFF7F8F8001BB04201D9032070BD2868EE
:101550008006F5D5002070BD0C28004010B5401E57
:10156000B0F1807F01D3012010BD4FF0E024606115
:101570000F21601702F012FC0020A06107202061FB
:10158000002010BD70477047704770477047704724
:10159000F0B590F83C20012A3AD0012580F83C5063
:1015A000022280F83D2003685A689C68194E1A4F41
:1015B000B34201D0BB4204D122F4700C4A6842EA23
:1015C0000C02DFF858C002EA0C02D1F800C04CEA65
:1015D000020CC3F804C00268B2420DD0B2F1804FD1
:1015E0000AD00F4B9A4207D00E4B9A4204D0BA420F
:1015F00002D00D4B9A4204D1896824F0800319432C
:10160000916080F83D50002180F83C100846F0BD04
:101610000220F0BD002C0140003401408FFFFFFD8F
:10162000000400400008004000400140704710B531
:10163000040003D094F83D0010B107E0012010BD74
:10164000002084F83C00204600F022F8022084F8B4
:101650003D00211D206801F089FD012084F848002B
:1016600084F83E0084F83F0084F8400084F841008C
:1016700084F8420084F8430084F8440084F845006C
:1016800084F8460084F8470084F83D00002010BD2F
:1016900008B500680B49884212D10B48816D41F0B2
:1016A00004018165806D002200F004000090114665
:1016B0001E20FFF7A5F8BDE808401E20FFF792B8EE
:1016C00008BD0000000800400010024090F83D10E6
:1016D000012901D001207047022180F83D100168E6
:1016E000CA6842F00102CA600068104988420ED000
:1016F000B0F1804F0BD00E49884208D00D49884286
:1017000005D00D49884202D00C49884207D1816832
:101710000B4A1140062906D0B1F5803F03D001687D
:1017200041F001010160002070470000002C0140E1
:101730000004004000080040003401400040014027
:101740000700010070B5044690F83C00012814D051
:10175000012584F83C50022084F83D0022689068FE
:10176000344B184020F47F4090600868702827D0E0
:1017700010DC10F00F0F03D04AE04FF0020070BDF4
:101780004FEA2012072A43D2DFE802F050505050AF
:1017900048313900284BC21A984247D009DCB0F5CD
:1017A000805F35D0B0F5005F15D0B0F1101F2FD19C
:1017B0003CE0102A3AD0202A38D0502A28D135E0EF
:1017C000CB68D1E90121206801F035FD20688168EE
:1017D00041F0770109E0CB68D1E90121206801F0EF
:1017E0002AFD2068816841F48041816010E0CA6868
:1017F0004968206801F0CAFE5021206806E0CA68E6
:101800004968206801F0D3FE6021206801F01EFDC8
:1018100084F83D50002084F83C0070BDCA684968D7
:10182000206801F0B3FE40212068EFE722680146FE
:101830001046EBE788FFCEFF20001000704770B520
:101840000446006801694FF00005C943890715D4B3
:10185000C168C943890711D4E91E016101202077BD
:10186000206880698007204602D0FFF7E7FF04E088
:1018700000F00AF9204600F0DBF9257720680169BD
:10188000C943490717D4C168C943490713D46FF046
:1018900004010161022020772068806910F4407FF4
:1018A000204602D0FFF7CAFF04E000F0EDF8204622
:1018B00000F0BEF9257720680169C943090716D4ED
:1018C000C168C943090712D46FF0080101610420FF
:1018D00020772068C0698007204602D0FFF7AEFF5E
:1018E00004E000F0D1F8204600F0A2F92577206846
:1018F0000169C943C90617D4C168C943C90613D4CD
:101900006FF010010161082020772068C06910F491
:10191000407F204602D0FFF791FF04E000F0B4F8CA
:10192000204600F085F9257720680169C943C90779
:1019300008D1C168C943C90704D1891E0161204685
:1019400000F04CFA20680169C943090609D4C1684E
:10195000C943090605D46FF0800101612046FFF7F5
:1019600012FE20680169C943C90509D4C168C94389
:10197000090605D46FF4807101612046FFF702FE6D
:1019800020680169C943490609D4C168C9434906A9
:1019900005D46FF040010161204600F03BFA206859
:1019A0000169C943890609D4C168C943890605D4B8
:1019B0006FF0200101612046FFF7E6FD2068016914
:1019C000C943C90209D4C168C943C90205D46FF427
:1019D000801101612046FFF7D9FD20680169C943E4
:1019E000890209D4C168C943890205D46FF4001182
:1019F00001612046FFF7C9FD20680169C94349021A
:101A000009D4C168C943490205D46FF4800101615A
:101A10002046FFF7BCFD20680169C94309020BD4C9
:101A2000C168C943090207D46FF40001016120466F
:101A3000BDE87040FFF7FABD70BD000010B586B07C
:101A4000044614216846FEF71DFC2068B0F1804F63
:101A500016D10C48C16C41F00101C164C06C6946EB
:101A600000F0010005900620009002200190002067
:101A700002900390012004904FF09040FEF76CFD1F
:101A800006B010BD00100240704770B5044690F8D3
:101A90003C000D4601280BD0012084F83C000C2AA4
:101AA00045D007DC5AB1042A1BD0082A78D12CE093
:101AB000022070BD102A4ED0142A71D15DE020683A
:101AC00001F0CEFB2068816941F008018161206846
:101AD000816921F004018161206881692A691143CB
:101AE00011E0206801F00AFC2068816941F400617E
:101AF00081612068816921F4806181612068816948
:101B00002A6941EA022181614AE0206801F03EFC35
:101B10002068C16941F00801C1612068C16921F0F4
:101B20000401C1612068C1692A69114311E020687C
:101B300001F074FC2068C16941F40061C161206852
:101B4000C16921F48061C1612068C1692A6941EAE3
:101B50000221C16124E0206801F0A8FC2068016D29
:101B600041F0080101652068016D21F00401016563
:101B70002068016D2A69114311E0206801F0CEFC54
:101B80002068016D41F4006101652068016D21F458
:101B9000806101652068016D2A6941EA02210165C1
:101BA000002084F83C0070BD10B5040003D094F808
:101BB0003D0010B107E0012010BD002084F83C007A
:101BC000204600F023F8022084F83D00211D206803
:101BD00001F0CCFA012084F8480084F83E0084F833
:101BE0003F0084F8400084F8410084F8420084F803
:101BF000430084F8440084F8450084F8460084F8E3
:101C0000470084F83D00002010BD000008B50068C2
:101C1000B0F1804F08D10548816D41F00101816527
:101C2000806D00F00100009008BD0000001002402F
:101C30007047000030B50446022269B1042912D071
:101C4000082917D00C291CD0102921D094F8430062
:101C5000012824D0012030BD94F83E000128F9D19C
:101C600084F83E201DE094F83F000128F2D184F86A
:101C70003F2016E094F840000128EBD184F8402082
:101C80000FE094F841000128E4D184F8412008E0F5
:101C900094F842000128DDD184F8422001E084F864
:101CA00043200122206801F0B9FA194B2068194934
:101CB000194A984209D0884207D0904205D0174D62
:101CC000A84202D0164DA84203D1456C45F4004508
:101CD0004564206898420CD0B0F1804F09D0114B78
:101CE000984206D0104B984203D0884201D09042CF
:101CF00007D181680D4A1140062906D0B1F5803F11
:101D000003D0016841F001010160002030BD0000F6
:101D1000002C0140003401400040014000440140DB
:101D20000048014000040040000800400700010096
:101D300030B504460D460068002201F06FFA224BD0
:101D400041F2111120688A0098420BD01F4B984233
:101D500008D01F4B984205D01E4B984202D01E4B14
:101D6000984209D1036A0B4206D1036A134203D198
:101D7000436C23F4004343642068036A0B4206D19A
:101D8000016A114203D1016821F0010101600120C3
:101D90005DB1042D0CD0082D0DD00C2D0ED0102DC2
:101DA0000FD084F84300002030BD84F83E00FAE7ED
:101DB00084F83F00F7E784F84000F4E784F8410036
:101DC000F1E784F84200EEE7002C014000340140C6
:101DD00000400140004401400048014010B5044665
:101DE0000948FFF773FC0949206888420AD108486E
:101DF000817A491CC9B281720A2903D100218172FA
:101E00000121017010BD0000A41200200008004054
:101E1000D6110020704790F87C10012918D00121BC
:101E200080F87C102421C0F8801050F8601B0A68EC
:101E30000B6823F001030B6022F000510022426086
:101E400050F8603C1960202101620277104670470B
:101E500002207047704770B5044690F87C00012856
:101E60001DD0012084F87C002420C4F88000206864
:101E70000568026822F0010202602068826822F090
:101E800060620A438260204601F0FCFB2068056026
:101E90002020C4F88000002084F87C0070BD02205F
:101EA00070BD70B5044690F87C0001281DD001205B
:101EB00084F87C002420C4F880002068056802684B
:101EC00022F0010202602068826822F060420A4328
:101ED0008260204601F0D6FB206805602020C4F80F
:101EE0008000002084F87C0070BD022070BD704727
:101EF000704770472DE9F04103680446D8691968B6
:101F00009A6840F60F0528424FF0000509D1860671
:101F10007ED501F0200602F080573E4378D0E16E76
:101F20009EE0624E624F16400F40374370D0C707A5
:101F300009D0CF0507D501271F62D4F8883043F0B8
:101F40000103C4F8883083070AD5D30708D027686F
:101F500002233B62D4F8883043F00403C4F888308D
:101F600043070AD5D30708D0276804233B62D4F877
:101F7000883043F00203C4F8883003070CD501F021
:101F80002003334308D0266808233362D4F888300E
:101F900043F00803C4F8883003050BD54B0109D57D
:101FA00026684FF400633362D4F8883043F020038E
:101FB000C4F88830D4F88830002B34D0800609D596
:101FC00001F0200002F08051084303D0E16E09B116
:101FD00020468847D4F8880021688968490602D4D9
:101FE00010F0280F21D0204601F01CFC20688168E9
:101FF000490615D5816821F040018160A06F78B154
:102000002C498163A06FFEF759FA00280BD000E03D
:1020100011E0A06F816B00E02046BDE8F041084769
:102020002046FFF766FFBDE8F0812046FFF761FF1D
:10203000C4F88850F7E7C60209D5560207D54FF411
:10204000801018622046BDE8F041FFF751BF060638
:1020500009D501F0800602F40002164303D0216F77
:102060000029D9D1DFE742060DD54A060BD51968FC
:10207000204621F0400119602021C4F88010256716
:1020800000F02CF9CFE7020206D54A0004D520461D
:10209000BDE8F041FFF72BBFC001C4D50029C2DA6B
:1020A0002046BDE8F041FFF7D5BE0000010000105A
:1020B000200100040F38000810B5040003D0D4F844
:1020C000800010B107E0012010BD002084F87C00E2
:1020D000204600F027F82420C4F88000206801681A
:1020E00021F001010160204601F0AEFC0128EBD097
:1020F000A06A10B1204601F0F7FA2068416821F487
:10210000904141602068816821F02A018160206847
:10211000016841F0010101602046BDE8104001F076
:1021200047BB000010B586B0044614216846FEF790
:10213000A9F817492068884227D11648016E41F452
:1021400080410166016E01F480410591C16C41F04E
:102150000101C164C06C694600F0010005904FF4B4
:10216000C0600090022001900020029003900720A0
:1021700004904FF09040FEF7EFF900221146252021
:10218000FEF73EFB2520FEF72DFB06B010BD00003C
:10219000003801400010024070B5D0F88430202B88
:1021A0006DD1B9B1B2B190F87C30012B67D0012369
:1021B00080F87C308165A0F85C20A0F85E200021CA
:1021C000C16683684FF48056FF24B34207D1036988
:1021D00013B11CE0012070BD40F2FF131DE07F250C
:1021E0009BB1B3F1805F15D0A0F86010C0F88810E3
:1021F0002223C0F8843003689C6844F001049C608A
:10220000436EB3F1005F0ED027E0036943B9A0F835
:102210006040EBE703691BB13F23A0F86030E5E7BE
:10222000A0F86050E2E7B0F86830934215D88268B1
:10223000B24201D1026972B1124AC26680F87C10C2
:1022400001680A6842F480720A600068816841F09F
:10225000805181600FE00C4AEFE78268B24201D101
:10226000026952B1094AC26680F87C1000680168B0
:1022700041F490710160002070BD054AF3E702202F
:1022800070BD0000A9390008A938000849390008C4
:102290004938000800680D49884216D10C480121D0
:1022A0000C4A83783A2B08D143793A2B05D1037A2B
:1022B0002D2B02D1007B2D2805D011710F2204494E
:1022C0000548FFF769BFD170F8E770470038014053
:1022D00020120020D6110020F01200207047FEE7E7
:1022E00000B585B014216846FDF7CCFFC0200090F2
:1022F0000120019002900220039069460248FEF7F7
:102300002BF905B000BD00000004004870B508249A
:10231000002500F095FE13E06806050E002000F091
:1023200077FE142001F000FF142001F0FDFE0120D3
:1023300000F06EFE142001F0F7FE00F075FE05437C
:10234000641EE4B2E8D2002000F062FE142001F026
:10235000EBFE00F097FE284670BD70B504460825D8
:1023600016E000F055FE142001F0DEFE04F08000BF
:1023700000F07CFE142001F0D7FE6006040E14204D
:1023800001F0D2FE012000F043FE142001F0CCFE4B
:102390006D1EEDB24FF00000E3D200F039FEBDE853
:1023A0007040142001F0C0BE10B5012000F05EFEA8
:1023B000142001F0B9FE012000F02AFE142001F0E3
:1023C000B3FE002000F052FE142001F0ADFE00200C
:1023D00000F01EFEBDE81040142001F0A5BE10B5AF
:1023E000002000F015FE142001F09EFE002000F0F9
:1023F0003DFE142001F098FE012000F009FE14209B
:1024000001F092FE012000F031FEBDE810401420E2
:1024100001F08ABE10B5052400F012FE142001F070
:1024200083FE012000F0F4FD142001F07DFE05E0A4
:10243000641EA4B2142001F077FE64B100F0F4FD34
:102440000028F5D100F0E4FD142001F06DFE00F04D
:1024500019FE002010BD00F015FEFFF7C0FF01209F
:1024600010BD00002DE9F0415A4E01213046FEF723
:1024700057F9594C10B9A079401CA0710121304680
:10248000FEF74EF9554F0025012821D1A079F0B172
:10249000607890F0010060704FF0010011D001F001
:1024A000D3F804213846FFF7C5FB607B396800EBA1
:1024B000800040008863022001F08CF8A57008219C
:1024C00002E001F087F804214448FFF731FCA571D0
:1024D00002213046FEF724F9C0B9E079401CC0B2B1
:1024E000E071012812D1607B0A30C0B260736E289F
:1024F00000D16573617B012001F03AFE607828B15C
:10250000607B396800EB8000400088630221304620
:10251000FEF706F9012800D1E57104213046FEF7E7
:10252000FFF810B9207A401C207204213046FEF7D3
:10253000F7F8012824D1207A08B3A07890F00100A0
:10254000A0704FF0020014D001F07EF8082123485B
:10255000FFF770FBA07B396800EB80004000C86388
:10256000657004211D48FFF7E3FB012001F032F8FC
:1025700005E001F02FF808211848FFF7D9FB257274
:102580004FF0904601213046FEF7CAF8C0B9607A94
:10259000401CC0B26072012812D1A07B0A30C1B2C7
:1025A000A173022001F0E4FDA07B6E2800D1A57389
:1025B000A07828B1A07B396800EB80004000C86398
:1025C00001213046FEF7ACF8012800D16572BDE864
:1025D000F081000000040048D611002058120020AD
:1025E00000B585B014216846FDF74CFE4FF6FF702C
:1025F000009000200321CDE90201019069460248C4
:10260000FDF7AAFF05B000BD0008004800B585B081
:1026100014216846FDF736FE4FF6FF70009001204A
:102620000190032003900020029069460248FDF7C4
:1026300093FF05B000BD00000008004870B50024FD
:1026400006462146204600F0FBF800F03DF94FF425
:102650009635304600F008F9641CAC42F9D370BDE1
:1026600030B587B014216846FDF70CFE1E48C16CDA
:1026700041F00401C164C16C01F004010591C16C19
:1026800041F00101C164C16C01F001010591C16C0F
:1026900041F00201C164C06C012500F00200059008
:1026A0004FF44870CDE90005002403946946029474
:1026B0000E48FDF751FF280203940090CDE9015424
:1026C0004FF0904469462046FDF746FFFFF79EFF16
:1026D000A06940F48070A06104481830016841F49A
:1026E0000871016007B030BD0010024000040048CE
:1026F000203AD2B2034B02EB420203EB021200F08B
:1027000019B8000006000020F0B50E460746002567
:1027100040F23F1407E021463846FFF7E9FF103C3E
:102720006D1CA4B2761C3278002A01D0142DF2D38D
:10273000F0BD00002DE9F04791468A460026044688
:1027400000F07EF8DFF84080012700BF00F0BCF801
:102750005FF0000539F8160007FA05F10842404617
:1027600001D1408800E0008800F07EF86D1C102D3B
:10277000F0D3641CE4B25146204600F061F8761CA8
:10278000182EE3D3BDE8F0870000002010B5FFF756
:1027900067FF002000F014F8084CA080A088A0F586
:1027A0000241303906D000F0CBFA002000F008F8E2
:1027B000A08010BD00F03BFAF7E700000000002009
:1027C00070B51D490A6842F400720A600A6842F452
:1027D00080720A60184C103C226842F0200222608D
:1027E000164A1060086840F02000086000BF00BF73
:1027F00000BF206840F020002060206840F4807016
:102800002060FFF7EDFE4FF09041886A40F4807041
:10281000886200BF00BF00BF0848001F006885B283
:10282000886940F480708861FFF7F0FE206840F40A
:1028300000702060284670BD280400481408004835
:1028400010B50C460146202000F070F82146BDE886
:102850001040212000F06AB801B5BDF80000014920
:10286000088008BD0000002030B5154B1968154AD6
:102870008CB2116841F400711160124910390D6871
:1028800045F480750D600D6845F020050D601860F9
:10289000106840F02000106000BF00BF00BF086853
:1028A00040F020000860086840F48070086000BFB5
:1028B00000BF00BF086840F4007008601C6030BDB5
:1028C0001408004828040048164A10B51068164934
:1028D00083B2086840F400700860086840F48070B3
:1028E000086011481038046844F020040460222471
:1028F00014600C6844F020040C6000BF00BF00BFEF
:10290000016841F020010160016841F480710160BB
:1029100000BF00BF00BF016841F400710160136097
:1029200010BD0000140800482804004870B51A4C77
:1029300022681A4B95B21A6842F400721A601A683B
:1029400042F480721A60154A103A166846F0200662
:1029500016602060186840F02000186000BF00BFBB
:1029600000BF106840F020001060106840F48070D4
:1029700010602160186840F02000186000BF00BFA0
:1029800000BF106840F020001060106840F48070B4
:102990001060256070BD000014080048280400483D
:1029A00070B586B014216846FDF76CFC2148C16CF7
:1029B00041F02001C164C16C01F020010591C16C9E
:1029C00041F00101C164C16C01F001010591C16CCC
:1029D00041F00201C164C16C01F002010591C16CBA
:1029E00041F00801C164C06C134E00F0080005906E
:1029F000002204213046FDF798FE00240125CDE990
:102A0000005469464FF090400294FDF7A5FD072061
:102A1000CDE90004694609480294FDF79DFD0420B4
:102A20000090CDE90154694630460394FDF794FDCA
:102A300006B070BD00100240000C004800040048C1
:102A400010B586B014216846FDF71CFC1F48002411
:102A50001D490594C0E900147F218160FF21C0E970
:102A600003144FF080414461C0E906410462FEF75F
:102A700045FC08B1FDF720FD23208DF8000059200A
:102A80008DF8010050208DF802000194039401227A
:102A900069460E480494FEF7DFFC08B1FDF70CFD13
:102AA00001208DF814008DF815008DF816000246EF
:102AB0008DF8174005A90548FEF77AFC002801D0DB
:102AC000FDF7FAFC06B010BD0028004030120020CF
:102AD00010B58AB00024079408941C216846099414
:102AE000FDF7D0FB1B484FF0804101604F21C0E94A
:102AF00001144FF47A71C0E903148461FFF754F8AC
:102B000008B1FDF7D9FC079407A912480994FEF70C
:102B10003FFD08B1FDF7D0FC602000904FF44870F5
:102B2000CDE90104042269460A480494FEF7ADFF8A
:102B300008B1FDF7C1FC64200190082269460548F0
:102B4000FEF7A3FF08B1FDF7B7FC0248FEF776FFDA
:102B50000AB010BD5812002010B588B000241748E4
:102B600000940194029403940494059412490694E9
:102B700001604F21C0E9011440F2E731C0E90314BC
:102B80008461FEF754FD08B1FDF796FC4FF48050C8
:102B9000009069460948FEF7D5FD08B1FDF78CFCA9
:102BA000049404A905480694FEF7F2FC002801D01D
:102BB000FDF782FC08B010BD00080040A412002000
:102BC000184810B5164901604FF4165141600021B4
:102BD00081600C22C160C0E904128161C16101629F
:102BE00041628162FFF768FA08B1FDF765FC0021D8
:102BF0000C48FFF756F908B1FDF75EFC00210948C3
:102C0000FFF729F908B1FDF757FC0648FFF703F96C
:102C1000002803D0BDE81040FDF74EBC10BD0000F9
:102C200000380140F0120020FEE7FEE7704730B5A3
:102C300001210020FFF77AFE4FF47A70FDF7A5FB23
:102C400000210120FFF772FE41F290711020FFF782
:102C50006DFE4FF41C516020FFF768FE01216120DA
:102C6000FFF764FE02214620FFF760FE48F21001E4
:102C70001320FFF75BFE48F2FE011220FFF756FE1D
:102C80004FF4A0610220FFF751FE41F23001032012
:102C9000FFF74CFE40F2033421463020FFF746FE9A
:102CA00021463120FFF742FE21463220FFF73EFE4B
:102CB000E51E29463320FFF739FE03213420FFF7B4
:102CC00035FE21463520FFF731FE14213620FFF76F
:102CD0002DFE21463720FFF729FE21463820FFF739
:102CE00025FE21463920FFF721FE29463A20FFF72D
:102CF0001DFE03213B20FFF719FE21463C20FFF774
:102D000015FE4FF4A0513D20FFF710FE4FF4007167
:102D10009220FFF70BFE21469320FFF707FE40F6B7
:102D20000D019020FFF702FE41F218010320FFF78A
:102D3000FDFDBDE8304040F273110720FFF7F6BDFE
:102D400010B543F20801E320FFF7F0FD1221E72060
:102D5000FFF7ECFD41F23121EF20FFF7E7FD002105
:102D60000120FFF7E3FD4FF4E0610220FFF7DEFDF5
:102D700041F230010320FFF7D9FD00210420FFF7C5
:102D8000D5FD40F207210820FFF7D0FD00210920E2
:102D9000FFF7CCFD00210A20FFF7C8FD00210C2021
:102DA000FFF7C4FD00210D20FFF7C0FD00210F201B
:102DB000FFF7BCFD00211020FFF7B8FD072111200F
:102DC000FFF7B4FD00211220FFF7B0FD0021132012
:102DD000FFF7ACFDC820FDF7ADFB41F2906110207C
:102DE000FFF7A4FD40F227211120FFF79FFD3220BD
:102DF000FDF7A0FB1D211220FFF798FD3220FDF703
:102E000099FB4FF400611320FFF790FD1421292056
:102E1000FFF78CFD0B212B20FFF788FD3220FDF7FB
:102E200089FB00212020FFF781FD00212120FFF7F1
:102E30007DFD07213020FFF779FD40F20771312039
:102E4000FFF774FD06213220FFF770FD40F2047198
:102E50003520FFF76BFD41F604713620FFF766FD64
:102E600004213720FFF762FD00213820FFF75EFDC7
:102E700040F206713920FFF759FD40F201713C2004
:102E8000FFF754FD0F213D20FFF750FD002150209A
:102E9000FFF74CFDEF215120FFF748FD00215220A4
:102EA000FFF744FD40F23F115320FFF73FFD4FF481
:102EB0001C516020FFF73AFD01216120FFF736FD2C
:102EC00000216A20FFF732FD00218020FFF72EFD50
:102ED00000218120FFF72AFD00218220FFF726FD37
:102EE00000218320FFF722FD00218420FFF71EFD33
:102EF00000218520FFF71AFD10219020FFF716FD15
:102F000000219220FFF712FD03219320FFF70EFD11
:102F10004FF488719520FFF709FD00219720FFF7F6
:102F200005FD00219820FFF701FD41F21801032063
:102F3000FFF7FCFCBDE8104040F273110720FFF7DB
:102F4000F5BC010901EB810100F00F0000EB41002D
:102F5000C0B270470022014602E00A39C9B2521CD1
:102F60000A29FAD2100741EA106070472DE9F047AC
:102F7000104C814600252068400618D4206840F097
:102F800080002060FDF7D6FB06464FF47A780327D1
:102F900008E000BFFDF7CEFB801B404502D90325AA
:102FA00089F825702068400601D4032DF2D1284607
:102FB000BDE8F0870C2800402DE9F0410646134893
:102FC0000025016821F080010160104C0C3420685C
:102FD0004FF00307800607D43046FEF7A5FA90B1FC
:102FE00086F8257003250EE0206820F02000206080
:102FF0003046FEF799FA10B186F82570032520684F
:1030000040F0200020602846BDE8F0810C280040F8
:1030100008B1044801E003481030016841F0400164
:10302000016070471804004810B580210348FDF77F
:1030300077FB012800D0002010BD000000040048EC
:1030400000B585B014216846FDF71CF9802000907A
:10305000002001900120029002200390694602485E
:10306000FDF77AFA05B000BD0004004808B1044835
:1030700001E003481030016841F0800101607047B1
:103080001804004800B585B014216846FDF7FAF829
:1030900080200090112001900020029002200390D7
:1030A00069460248FDF758FA05B000BD0004004823
:1030B0007047FDF745BB000030B5A5B03821684624
:1030C000FDF7E0F814211FA8FDF7DCF844210EA855
:1030D000FDF7D8F84FF400752846FDF7C3FB09202B
:1030E0000090E80101900120059002210324CDE920
:1030F00007141420CDE90A0109940C9168460D913A
:10310000FDF7A4FE08B172B6FEE70F20CDE91F045B
:1031100000242194229402211FA82394FDF74CFD42
:1031200008B172B6FEE706481E95CDE90E040EA85A
:10313000FDF7FEFB002801D072B6FEE725B030BDDA
:10314000010008000548016841F47001016003496D
:103150004FF00060803908607047000088ED00E0A3
:103160000148FEF76CBB0000A41200202DE9F043DB
:103170000268234B234D244E244C4FF08049984243
:1031800007D0484505D0A84203D0B04201D0A042A4
:1031900003D122F070074A683A431D4FDFF874C02C
:1031A000DFF8748098420DD048450BD0A84209D072
:1031B000B04207D0A04205D0B84203D0604501D04C
:1031C000404503D122F44075CA682A434D6922F074
:1031D00080022A4302608A68C2620A688262984258
:1031E00007D0A04205D0B84203D0604501D0404589
:1031F00001D10969016301214161BDE8F08300004B
:10320000002C014000040040000800400034014050
:1032100000400140004401400048014010B501F069
:103220001F030121046A99408C430462016A9A4099
:103230001143016210BD10B5846842EA032224F4F0
:103240007F440A432243826010BD00008268034B22
:103250001A400A4342F00701816070478FFFCFFF99
:103260002DE9F043026A22F001020262056A436816
:1032700082691C4C25F0020522400C6822F00302F2
:1032800014438A68194E2A43174D194FDFF864C05A
:10329000DFF86490A84207D0B04205D0B84203D00E
:1032A000604501D0484506D122F00808CA6842EAC4
:1032B000080222F00402A84207D0B04205D0B8426A
:1032C00003D0604501D0484505D14D6923F44073D2
:1032D0001D438B692B4343608461496841630262EB
:1032E000BDE8F0838FFFFEFF002C01400034014059
:1032F000004001400044014000480140F0B5026A2E
:1033000022F010020262056A42688369194C1B4E62
:1033100023400C6823F4407343EA042425F020037F
:103320008D6843EA0513144DA84201D0B04206D17E
:10333000CF6823F0800343EA071323F04003A84239
:103340000AD0B04208D00E4DA84205D00D4DA8427B
:1033500002D00D4DA84207D14D6922F4406242EAE5
:1033600085028D6942EA8502426084614968816311
:103370000362F0BDFF8FFFFE002C014000340140CE
:10338000004001400044014000480140F0B5026A9D
:1033900022F480720262056A4368C269194C1B4EAE
:1033A00022400C6822F00302144325F400728D6859
:1033B00042EA0522144DA84201D0B04206D1CF689E
:1033C00022F4006242EA072222F48062A8420AD074
:1033D000B04208D00E4DA84205D00E4DA84202D0F2
:1033E0000D4DA84207D14D6923F4405343EA05131C
:1033F0008D6943EA05134360C4614968C163026291
:10340000F0BD00008FFFFEFF002C014000340140A2
:10341000004001400044014000480140F0B5026A0C
:1034200022F480520262056A4268C369194C1B4E3D
:1034300023400C6823F4407343EA042425F400532A
:103440008D6843EA0533144DA84201D0B04206D13D
:10345000CF6823F4004343EA073323F48043A842B0
:103460000AD0B04208D00E4DA84205D00D4DA8425A
:1034700002D00D4DA84207D14D6922F4404242EAE4
:1034800085128D6942EA85124260C461496801640F
:103490000362F0BDFF8FFFFE002C014000340140AD
:1034A00000400140004401400048014030B5026A3C
:1034B00022F480320262046A4268036D114D2B408F
:1034C0000D681D4324F400330C8943EA04430E4C79
:1034D000A0420BD00D4CA04208D00D4CA04205D00C
:1034E0000C4CA04202D00C4CA04204D14C6922F4F6
:1034F000803242EA042242600565496881640362C1
:1035000030BD00008FFFFEFF002C01400034014061
:1035100000400140004401400048014030B5026ACB
:1035200022F480120262046A4268036D114D24F491
:1035300000142B400D6843EA05230D8944EA055425
:103540000D4DA8420BD00D4DA84208D00C4DA842FD
:1035500005D00C4DA84202D00B4DA84204D14D69B4
:1035600022F4802242EA8522426003654968C164F0
:10357000046230BDFF8FFFFE002C0140003401408B
:1035800000400140004401400048014010B5036A7A
:10359000046A24F001040462846924F0F00444EA1B
:1035A000021423F00A020A438461026210BD10B5BE
:1035B000036A23F0100303628369046A23F47043EF
:1035C00043EA023224F0A00343EA0111826101625E
:1035D00010BD000070B50B4C0121C01D8140208A38
:1035E000094D01432182012204212846FDF79DF85F
:1035F0000649208A08602846BDE870400022042160
:10360000FDF793B8D6110020000C004814080048BC
:1036100070B50A4C4FF47F40094D208201220421ED
:103620002846FDF782F80749208A08602846BDE849
:10363000704000220421FDF778B80000D611002068
:10364000000C00481408004870B50B4C0121C01D47
:103650008140208A094D8843208201220421284686
:10366000FDF763F80649208A08602846BDE87040E7
:1036700000220421FDF759B8D6110020000C0048A3
:10368000140800483FB514A1D1E90021CDE900217B
:1036900013A2D2E90012CDE90212416EB9B102685B
:1036A00091689268C1F34261520F1DF80240E50033
:1036B00002ACA25CB5FBF2F2A0F86A201DF8012072
:1036C000615CD200B2FBF1F1A0F868103FBD0121AE
:1036D000A0F86A10F8E700000101010307010000EB
:1036E000080402040801010190F82810C90706D057
:1036F00001684A68C36A22F400321A434A6090F8AB
:103700002810890706D501684A68036B22F48032C5
:103710001A434A6090F82810490706D501684A689C
:10372000436B22F480221A434A6090F8281009075C
:1037300006D501684A68836B22F400421A434A6046
:1037400090F82810C90606D501688A68C36B22F470
:1037500080521A438A6090F82810890606D50168BD
:103760008A68036C22F400521A438A6090F8281089
:10377000490611D501684A68436C22F480121A4345
:103780004A60416CB1F5801F06D101684A68836CBC
:1037900022F4C0021A434A6090F82810090606D5A0
:1037A00001684A68C06C22F4002202434A607047F4
:1037B000F8B500260446C0F88860FCF7BBFF054654
:1037C000206800686FF07E47000708D52B4600226E
:1037D0004FF400112046009700F072FA60B920689B
:1037E000006840070AD52B4600224FF4800120468E
:1037F000009700F065FA08B10320F8BD2020C4F856
:103800008000C4F8840084F87C600020F8BD10B506
:10381000806A0021A0F85E10A0F85610FEF769FB40
:1038200010BD000001680A6822F490720A60016805
:103830008A68044B1A408A602021C0F88410002155
:10384000C1667047FEFFFFEF10B5B0F86020D0F8FA
:1038500084300168222B04D0886940F00800886118
:1038600010BD496A836D11401980816D891C816585
:10387000B0F85E10491EA0F85E10B0F85E10002986
:10388000EED101680A6822F490720A6001688A68C1
:1038900022F001028A602021C0F884100021C16654
:1038A000FEF7F8FC10BD000070B50446B0F860608B
:1038B000D0F88400222805D02068816941F00801F1
:1038C000816170BDB4F8685023E02068406AA16D42
:1038D00030400880A06D801CA065B4F85E00401EDA
:1038E000A4F85E00B4F85E0088B92068016821F48D
:1038F0008071016020688168114A11408160202038
:10390000C4F884000020E0662046FEF7C3FC6D1E6C
:10391000ADB2002DD9D1B4F85E000028D1D0B4F8F2
:1039200068108142CDD92068816821F08051816082
:103930000448E0662068016841F02001016070BD24
:10394000FEFFFFEF4938000810B5B0F86020D0F84E
:1039500084300168222B04D0886940F00800886117
:1039600010BD496A1140826D1170816D491C8165DD
:10397000B0F85E10491EA0F85E10B0F85E10002985
:10398000EED101680A6822F490720A6001688A68C0
:1039900022F001028A602021C0F884100021C16653
:1039A000FEF778FC10BD000070B50446B0F860600A
:1039B000D0F88400222805D02068816941F00801F0
:1039C000816170BDB4F8685023E02068406AA16D41
:1039D00030400870A06D401CA065B4F85E00401E29
:1039E000A4F85E00B4F85E0088B92068016821F48C
:1039F0008071016020688168114A11408160202037
:103A0000C4F884000020E0662046FEF743FC6D1EEB
:103A1000ADB2002DD9D1B4F85E000028D1D0B4F8F1
:103A200068108142CDD92068816821F08051816081
:103A30000448E0662068016841F02001016070BD23
:103A4000FEFFFFEF493900082DE9F0410446026806
:103A500080682169E36908436169002519430843C7
:103A6000616EDFF830C2014310688B4B1840084389
:103A7000106020684168E26821F4405111434160C0
:103A80002168A069614501D0226A10438A68834B8E
:103A90001A4002438A602068C16A626A21F00F01FD
:103AA0001143C1627E4923687E488B420DD1D0F814
:103AB000880010F0030006D0012855D0022842D01B
:103AC00003283FD152E001203DE077498B420BD1E2
:103AD000D0F8880010F00C0035D0042833D0082826
:103AE00040D00C282ED141E070498B420BD1D0F848
:103AF000880010F0300026D0102835D0202831D092
:103B000030281FD132E06A498B420BD1D0F88800AF
:103B100010F0C00017D0402826D0802822D0C0281E
:103B200010D123E063450DD1D0F8880010F4406037
:103B300009D0B0F5806F17D0B0F5006F12D0B0F596
:103B4000406F13D010205B495B4F00264FF40042BA
:103B5000634539D160B1022813D004280BD008285E
:103B600031D10DE00220EEE70420ECE70820EAE77F
:103B7000FDF710F901E0FDF731F9010001D17EE018
:103B80001146606A37F810206768B1FBF2F007EB66
:103B9000470383426FD8B0EB073F6CD80023084639
:103BA0001946FCF737FB090241EA10610202780866
:103BB000101871413A460023FCF72CFB3F4AA0F550
:103BC0004071914259D956E0E3694FF6EF7893423C
:103BD0002DD109284FD2DFE800F00508114E0D4E17
:103BE0004E4E1000FDF7D6F801E0FDF7E5F80100B4
:103BF00004D144E0FDF7F2F8F9E71146606A37F8BE
:103C00001000B1FBF0F04100606801EB5001B1FB26
:103C1000F0F080B2A0F1100141452CD84FF6F071C0
:103C20000140C0F3420001432068C16027E0092839
:103C300021D2DFE800F0050811200D20202010001F
:103C4000FDF7A8F801E0FDF7B7F8010004D116E090
:103C5000FDF7C4F8F9E71146606A37F81000B1FBC8
:103C6000F0F1606801EB5001B1FBF0F080B2A0F11F
:103C70001001414501D9012501E02168C8600120FA
:103C8000A4F86A0024F8680F28466660A660BDE8BC
:103C9000F081000000800040F369FFCFFFF4FF11C6
:103CA000003801400010024000440040004800403D
:103CB000004C00400024F4001C440008FFFC0F00EE
:103CC0002DE9F0479A4617460E4604464FF0000984
:103CD0004FF02008089D39E0681C37D0FCF72AFD1A
:103CE000A0EB0A00A84222D80DB32068016849075A
:103CF0002CD5C069C043000528D421684FF400606A
:103D000008622068016821F4D07101602068816830
:103D100021F001018160C4F88080C4F88480C4F877
:103D2000888000BF84F87C900320BDE8F08720687D
:103D3000016821F4D07101602068816821F00101DF
:103D40008160C4F88080C4F88480EBE72068C06993
:103D500036EA000004D00020B842BDD00020E4E7DD
:103D60000120F9E70148FEF7C5B80000F012002075
:103D7000FEE700000FB4084B10B504A902AA03988F
:103D800000F02CF8044602A9002000F0C8F92046F3
:103D900010BC5DF814FB00001F4100080907090E64
:103DA000002804DB00F1E02080F80014704700F0E8
:103DB0000F0000F1E02080F8141D704702E008C8F1
:103DC000121F08C1002AFAD170477047002001E095
:103DD00001C1121F002AFBD1704700002DE9FF4FDF
:103DE0008BB088460546002606E025280BD0DDE985
:103DF0000D1290476D1C761C28780028F5D10FB065
:103E00003046BDE8F08F0024A146A2460122AE490B
:103E100000E0044315F8013F203B02FA03F008429A
:103E2000F7D128782A2810D06FF02F022878A0F137
:103E30003001092915D809EB890102EB410144F051
:103E4000020400EB01096D1CF0E758F8041B5FEA5F
:103E5000010903D544F40054C9F1000944F00204F7
:103E60006D1C28782E2817D115F8010F44F0040492
:103E70002A280ED06FF02F022878A0F130010929EE
:103E80000AD80AEB8A0102EB410100EB010A6D1C22
:103E9000F2E758F804AB6D1C28786C280FD006DCCC
:103EA0004C2817D068280DD06A2814D104E0742853
:103EB00010D07A280FD10DE044F400140AE044F445
:103EC000801401E044F440146978814202D104F581
:103ED00080146D1C6D1C2878692865D006DC0028CC
:103EE0008DD0632827D0642806D15DE06E2808D0E5
:103EF00073282AD0752877D0DDE90D129047761CFB
:103F0000E0E0C4F30250022809D003280DD0D8F80D
:103F1000001004280DD00E6008F10408D2E0D8F893
:103F20000010F217C1E90062F6E7D8F800100E8021
:103F3000F2E70E70F0E718F8041B8DF8001000206F
:103F40008DF80100EB46012003E058F804BB4FF068
:103F5000FF3061074FF0000701D40AE07F1C57458E
:103F60000DDA8742FADB1BF807100029F6D106E0CC
:103F70007F1C8742FCDB1BF807100029F8D1DDE924
:103F80000D23A9EB07008146214600F0B1F830442B
:103F9000C61904E0DDE90D121BF8010B90477F1EE6
:103FA000F8D22146484688E058F8040BC4F3025181
:103FB0004FF00A0B032900D100B2042900D140B20E
:103FC000002802DA40422D2102E0210505D52B21EF
:103FD0008DF82410012104E006E0E10710D0202133
:103FE000F6E708AF089113E058F8040BC4F3025148
:103FF0004FF00A0B032900D180B2042900D1C0B2CE
:104000000021EEE75946FCF748F9303107F8011D69
:104010000028F7D1ADEB070000F1200B600702D5B7
:1040200024F4803401E04FF0010ADA4502DDAAEB06
:104030000B0000E00020824600EB0B0108980144D1
:10404000A9EB01000A90E00306D4DDE90D23214627
:104050000A9800F04DF806444FF0000908E009A95D
:1040600011F80900DDE90D12904709F10109761CEC
:1040700008998945F3DBE0030CD5DDE90D232146E2
:104080000A9800F035F8064404E0DDE90D1230200E
:104090009047761CBAF10001AAF1010AF5DC05E0AF
:1040A000DDE90D1217F8010B9047761CBBF10001FA
:1040B000ABF1010BF4DC0A982146DDE90D2300F099
:1040C00005F806446D1C97E6092801002DE9F0412A
:1040D000044600251E461746880404D405E03946E8
:1040E0002020B0476D1C641EF9D52846BDE8F0813C
:1040F0002DE9F041044600251E469046C80301D52F
:10410000302700E02027880404D505E041463846E2
:10411000B0476D1C641EF9D52846BDE8F0810A68D9
:10412000531C0B6010707047002100E0491C814255
:10413000FCD3704710B50446FEF736F9A020FEF711
:104140000CF9FEF767F92046FEF707F9FEF762F96A
:10415000FEF72AF9A120FEF700F9FEF75BF9FEF75A
:10416000D5F80446FEF756F9FEF739F9204610BD9A
:1041700070B50D460446FEF717F9A020FEF7EDF8DE
:10418000FEF748F92046FEF7E8F8FEF743F928461F
:10419000FEF7E3F8FEF73EF9BDE87040FEF71FB901
:1041A00088B0FCF7D5FAFEF787FFFEF7F9FBFEF7BC
:1041B0008FFCFEF7D1FCFEF703FDFEF741FC8448BF
:1041C000FDF784FA0F2283498348FDF7E5FFFEF7E8
:1041D00087F80020FFF7AEFF804C20B12120FFF7C9
:1041E000A9FF342860D054212020FFF7C1FF05200B
:1041F000FCF7A0F934212120FFF7BAFF0520FCF7D6
:1042000099F950210120FFF7B3FF0520FCF792F93F
:104210000A210220FFF7ACFF0520FCF78BF9607B39
:1042200000EB800041006E4802689163A17B00684A
:1042300001EB81014900C163FEF7A8FA4FF6FF7058
:10424000FEF7FCF90020FEF707FB66A19020FEF7C1
:104250005BFAFFF7DDF95F4E01270025FCF7A4F8B4
:10426000607900285BD0608A618B884237D1A08A50
:10427000A18B884233D1E08AE18B88422FD104217F
:104280005748FDF755FD08215548FDF751FD012020
:10429000FFF7A0F90220FFF79DF9E5736570A5709F
:1042A000E07A012809D010E00120FFF743FF607396
:1042B0000220FFF73FFFA073B1E767700120FFF70F
:1042C000C3F904214648FDF7B5FCE07A022806D17F
:1042D000A770FFF7B9F908214148FDF7ABFC608AE8
:1042E000618B88421BD1A08AA18B884217D1E08BB9
:1042F000217B0844E18A884211D104213848FDF726
:1043000017FD08213648FDF713FD0120FFF762F97C
:104310000220FFF75FF9E5736570A570657120797C
:1043200040B125710F212B48FBF7ACFF32A1902043
:10433000FEF7EAF9E078B0B3E570F07A312801D001
:10434000322831D1707B313809282DD2F07A3038BB
:10435000E072707B3038207330787178303800EB41
:1043600080026FF02F0000EB420211446183F1786C
:104370003279303901EB810100EB41011144A18315
:10438000B179F279303901EB810100EB4100104441
:10439000E08367710F4A1EA16846FFF7EBFC694690
:1043A0009020FEF7B1F900E02771617801B1E77361
:1043B000A07808B10222E273014300D1E5732078AE
:1043C00000283FF44BAF2570FEF74CF846E700009D
:1043D000A412002020120020F0120020D61100208C
:1043E0005812002020202020202020204E6F6E65B3
:1043F00020202020202020002020202020202020DD
:104400004572726F722020202020202000000000C2
:1044100020202025732020202020200001000200E1
:104420000400060008000A000C00100020004000F4
:1044300080000001000000000000000001020304F1
:104440000607080900000000010203046C4400088C
:10445000000000200C12000028030008F84A0008A1
:104460000C12002074050000CC3D0008000631004D
:1044700000FFFF00010316800102611EE13292CCB1
:1044800002012A6A23600C02200F30063006FE1F4C
:10449000FE1F3006380718030A2007180318038C7C
:1044A00001023172201700E003F80F9C0E8C1C8C67
:1044B000188C009800F801E007800E800E100B1891
:1044C0009C18B80CF00FE0038026A15A10090E18B2
:1044D0001B0C110C11060210110311039B018E011C
:1044E000C038C06C60446044300260071844186CE7
:1044F0000C38BE1005E001F0037A101406180630DF
:1045000003F001F000F8009C310E33061E061C0279
:10451000E0063FFC73F021B8920C020121E7100B7A
:104520000200038001C000C0006002D230022114EA
:10453000211C155E12032A15163220123570120343
:1045400002D20602111425A2214ED620882148103D
:1045500008D806F807E00130D2052AEAC405FC3F76
:10456000FC3FE8092C30120002021B806C08053267
:10457000E007E0078E41D6F57F750C155C351045D8
:10458000624564D17AE00A03F007380E180C0C1863
:1045900002D409180C380EF007E003B0214C0C07C8
:1045A0001901F0019801880803A16043F80F5E2209
:1045B0000002219C35F025ECD0071800FC1FFC1FE1
:1045C00090100701F807180E0C0121C81805C00348
:1045D000C00751113C41920210F8904C0B0C000E98
:1045E000000F000F800DC03003116B270C0CB209B7
:1045F000148513F80F9031893009EC03FC071C0E69
:10460000001C98115E0005101C0C180E602009C0DB
:1046100007F00F381C1818325409CC03EC0F3C0E6D
:104620001C1C2006121C2031D24582357C16C07A13
:104630003AE0C85A70DE051480215384073806F02A
:1046400007F0078CE005380CF80F604130521C244D
:1046500030091C1C381EF81BE019D1130C1CC00BB0
:104660001BF0018A012114011F30091ACE1C05100C
:10467000001C80720416F8DC1AF85C17800F600AC0
:104680001810F8C3F81F080D1E1405180708003885
:1046900000F00114121F61161F9C13013814091732
:1046A00070796E6D2603FD2E033D7C03400C1818B7
:1046B0000420C229224A11440902EC0C221113E2FF
:1046C0000C024004201818980315D4200403C006D7
:1046D00002396E2218022C07F83FF83F1C70AF0514
:1046E0002119D9106C0503FC0F0C5E0310040CFC9F
:1046F000070E1A18A541021E180003FA0770BC0A1B
:104700001F38381C300C700660DD04E008600C7047
:104710001C30F01F903C08FE03FE0F060E06A1059C
:10472000B1022DB305E8050EFE0FFEA01DCC048DD1
:10473000A20529AEADB0053D3803C5A211DC4DBBC5
:10474000032D27038005F81FF81F0E4DD303DDCA84
:10475000043C0C0FF83F3C780E6006E007C0810473
:1047600011A11DC5031533DC090EC03CF0F83FE074
:104770000FBF03A23002319EB1120F260C3080070A
:104780000D15A005021406022531DC063807F003DA
:10479000E0B004353A10140C060606038601C60084
:1047A00066007600DE008E01060312360C64DD41E1
:1047B00005021B18022530CD210320050EE01EF056
:1047C000024336D8022366CC0252C601E40586C3F2
:1047D00086C32010041C303C02126C0212CC021062
:1047E000058C310C3302123602123C02E638201CD2
:1047F00005E007F81F9904193EA303C002F8080654
:10480000600E701C38F8401BFC0F02CA38920E195B
:104810000CC407916082E05E140907E006630E3F56
:104820001C3CE0CEF79106198258041F06389C1EE6
:1048300038C00876074C49B20E106030065DDE04C1
:104840001D9B051BF80330331E00401C050E301C59
:104850001C1005ED000308042A7FFE7F10E95EA905
:104860007E0710181820430360BC6D14072D16072F
:104870002D9409140570076003631DE005E13023E2
:10488000C3610283663302236C1B02CC092C1A3CE1
:104890001E380E380E31051C090FE00C7018303030
:1048A000183F043C040EC0075E04140503E00670C4
:1048B000F71D8107D006300E6007E0602D79044CAB
:1048C00008301C383818300C65030D1C80075C0557
:1048D000FC7FFC7F6D07DD7C072D2708253EED1052
:1048E000082FE003AE06011E0221282DA60A6DA6A0
:1048F000094DA8091D64096D0E0B7E03A009F16026
:104900000221000261601D82071D4407256C3F6083
:1049100003D7042919013901CFFFFFF80B0D2DAE84
:104920000A9D4A081805F003F807AA2C070C000F87
:10493000F00FF8B1081F0C1C5C080F16F0182004CB
:104940001ED8A80B1E38370881012DE0070F17D895
:1049500003DA091D9A096F300E39092DA3081E309C
:104960009009EEC00009711F2805C01BF01F368199
:1049700060000719301CF01FC01B601E0F83066EFD
:1049800018D4051952EC051CF00FC0F00644040FB2
:10499000C00FDA2D9C0855E4B1020D17D40A1E0D84
:1049A000FA093DCA0961011D600924050FE00D00E7
:1049B0002A6E06AA0895204F07F86A09D1010D163C
:1049C000F00A0215C002012E3041DEEC04F8007836
:1049D000BE0C1C050C0C060C6A0D100DCC006C00F6
:1049E000FC009C018C030C03120E100C560C011CD5
:1049F000020D169009E0097C3CFF7EC7E383C102EB
:104A00000D16EA0B062398200510E099101D0E0ED6
:104A10000A17C0700916A00D16EA070917700D15C0
:104A20001B081EB06E07FE70E20D0E1830140D1E2E
:104A3000037A0E1D1A0B1DF2093D060C0D15900C84
:104A40001D020F0919A00F170780EA0D09106A123D
:104A500038C01D4C0B0D15DB0A4DFE053E18920F9C
:104A60001DB7060E140300068DF80F3008C141C1B2
:104A700041C3616301323601321C010D16F00F3E55
:104A80001CF70952605A1D5E061D75061E38E10BA3
:104A90000117C01D36061D38062E1828102FE00CF1
:104AA000940A2D3E064DF00D1DA20D1D700C0D1526
:104AB0009A0C0D1B800D8D300B8D320E2DE205BA38
:104AC00040D63D900F0D259009CD22119E60240601
:104AD0009DC60FB3030048FEC0A80E5D7405000715
:104AE0003D10F81F080F00012D910C7D27070004D1
:084AF0000024F40000000000A6
:04000005080001D915
:00000001FF
