:020000040800F2
:10000000C0160020F1010008E32E00087326000846
:10001000E12E0008D9080008D135000800000000D2
:10002000000000000000000000000000FB3100089C
:10003000DB08000800000000E52E0008513300082E
:100040000B0200080B0200080B0200080B0200085C
:100050000B0200080B0200080B0200080B0200084C
:100060000B0200080B0200080B0200080B0200083C
:100070000B0200080B0200080B0200080B0200082C
:100080000B02000800000000FD0700080B0200083A
:100090000B0200080B0200080B0200080B0200080C
:1000A0000B0200080B0200080B0200080B020008FC
:1000B0000B0200080B020008F53300080B020008D1
:1000C0000B0200080B0200080B0200080B020008DC
:1000D0000B0200080B0200080B0200080B020008CC
:1000E0000B0200080B0200080B0200080B020008BC
:1000F0000B0200080B0200080B02000800000000C1
:10010000000000000B020008000000000B020008C5
:100110000B020008000000000B0200080B020008A0
:100120000B0200080B0200080B0200080B0200087B
:100130000B02000800000000000000000B02000895
:100140000B0200080B020008000000000000000085
:10015000000000000000000000000000000000009F
:100160000000000000000000000000000B0200087A
:100170000B0200080000000000000000000000006A
:10018000000000000B02000800000000000000005A
:10019000000000000000000000000000000000005F
:1001A00000000000000000000B0200080B02000825
:1001B0000B0200080B0200080B0200080000000000
:1001C000000000000B02000800000000000000001A
:1001D0000B0200080B020008DFF810D000F03EFA16
:1001E00000480047ED3E0008AFF30080C016002035
:1001F0000648804706480047FEE7FEE7FEE7FEE7C1
:10020000FEE7FEE7FEE7FEE7FEE7FEE7D93300087C
:10021000D9010008D2B201E000F8012B491EFBD23F
:1002200070470022F6E710B513460A460446194601
:10023000FFF7F0FF204610BD00F0004230F0004014
:100240000AD0C10D01F56071C0F3160042EA0151F8
:10025000C20840071143704700200146704730B57F
:100260000B46014600202022012409E021FA02F574
:100270009D4205D303FA02F5491B04FA02F528440E
:10028000151EA2F10102F1DC30BD2DE9F05F05463B
:10029000002092469B4688460646814640241BE045
:1002A000284641464746224600F0F9F953465A4649
:1002B000C01A914110D311461846224600F0E0F9C9
:1002C0002D1A67EB01084F4622460120002100F05D
:1002D000D7F917EB00094E41201EA4F10104DFDC21
:1002E000484631462A464346BDE8F09F2DE9FE4F79
:1002F000804681EA0300C00F0C46009021F00041C7
:1003000023F00045B8EB0200A94105D24046214642
:1003100090461C460B46024623F00040104347D04F
:10032000270DC7F30A00C3F30A510290401A019047
:1003300040286BDAC3F3130040F4801B0098924608
:1003400020B10023D2EB030A63EB0B0B0198594653
:10035000C0F14002504600F093F906460D46504663
:100360005946019A00F0ABF910EB080061410024F6
:1003700087EA115284EAE7731A4340D0009A62B3C5
:10038000019A012A4FEA075215DC001B61EB0201BA
:100390004FF0004202EA0752CDE90042001C41F54D
:1003A000801132462B4600F0ABF903B0BDE8F08F68
:1003B00040462146F9E7001B61EB0201001C41F5B4
:1003C000801300185B412018A2F5001747EB0301CA
:1003D00040EAD570B6196D4111E06D084FEA360656
:1003E00045EAC0754FEA0752001B61EB0201001C91
:1003F00041F5801149084FEA300000195141324659
:100400002B4603B0BDE8F04F00F06BB90098012215
:1004100040000023D0EB020263EBE073009821461A
:100420004FEAE074B8EB000061EB0401E9E783F008
:1004300000435BE781F0004158E72DE9FE4F81EA78
:10044000030404F0004421F0004100944FF0000B3D
:1004500023F0004350EA01045ED052EA03045BD06B
:10046000C3F30A54C1F30A552C44A4F2F3340194A3
:10047000A0FB0254C1F3130141F48011C3F3130331
:1004800043F4801301FB024400FB034E840A970AE5
:1004900044EA815447EA8357A4FB076802958D0A12
:1004A00005FB07854FEA932C04FB0C542705029D9E
:1004B0004FEA065847EA1637B5EB08056EEB070C0E
:1004C000870E920E47EA811742EA8312A7FB0201C8
:1004D000B6EB0B0164EB00042B0D43EA0C335E1802
:1004E00044EB1C50DA465146E7FB0201C5F3130406
:1004F0004FEA0B3343EA14534FEA0432019C43EAB8
:100500000603A4F10C040294009CCDE900B400F0B1
:10051000F7F803B0BDE8F08F00200146F9E72DE9B8
:10052000F04D81EA030404F0004B21F0004514462D
:100530004FF0000A23F0004150EA050220D054EAAF
:1005400001021DD0C5F30A570246C5F31303C1F3D8
:100550001300C1F30A5640F4801543F48013A7EB4F
:100560000608101BD64608F2FD3873EB050002D3CF
:1005700008F1010801E092185B41B8F1000F03DABD
:1005800000200146BDE8F08D00204FF480110646A2
:1005900084460EE0171B73EB050705D3121B63EBB4
:1005A000050306434CEA010C49084FEA3000921853
:1005B0005B4150EA0107EDD152EA030012D082EA12
:1005C000040083EA0501084305D0101BAB4106D2A5
:1005D0000122002306E000224FF0004302E06FF00A
:1005E000010253101AEB06004CEB085110EB0A0005
:1005F00041EB0B01BDE8F04D00F073B8C1F30A52B6
:10060000C1F3130140F2FF3341F480119A4202DA40
:1006100000200146704740F233439A42A2F233422F
:1006200002DC524200F03BB800F02AB830B5041E9C
:1006300071F1000404DB4FF00044404264EB01011F
:10064000141E73F1000405DB1C464FF000435242B8
:1006500063EB0403994208BF904230BD064C074D3E
:1006600006E0E06840F0010394E807009847103482
:10067000AC42F6D3FFF7B4FDCC3F0008EC3F0008D6
:10068000202A04DB203A00FA02F100207047914052
:10069000C2F1200320FA03F3194390407047202A47
:1006A00004DB203A21FA02F00021704721FA02F31C
:1006B000D040C2F120029140084319467047202AD9
:1006C00006DBCB17203A41FA02F043EAE07306E07A
:1006D00041FA02F3D040C2F120029140084319468A
:1006E000704710B5141E73F1000408DA401C41F184
:1006F000000192185B411A4301D120F0010010BDA6
:100700002DE9F04D92469B4611B1B1FA81F202E01B
:10071000B0FA80F220329046FFF7B2FF04460F464F
:1007200040EA0A0041EA0B0153465A46084313D0F7
:10073000114653EA010019D0C8F140025046FFF7B4
:10074000AEFF05460E46504659464246FFF798FF13
:10075000084305D0012004E020463946BDE8F08D6D
:100760000020054346EAE0762C4337430A986305A8
:10077000E40AA0EB08000022FD0A44EA47540A30CC
:1007800002D500200146E9E7010510196941DDE9BC
:10079000084500196941BDE8F04DA2E770B58D1814
:1007A00010F8014B14F0030201D110F8012B2311B2
:1007B00006D110F8013B03E010F8016B01F8016B62
:1007C000521EF9D1ABB110F8012B04F00C048A1AB7
:1007D0000C2C03D0A2EB84129B1C08E010F8014BF8
:1007E000A2EB0422F8E712F8014B01F8014B5B1E63
:1007F000F9D5A942D4D3002070BD0000014800F013
:1008000045BB00000812002070B5044600688168EE
:100810008268C1F3400112F0010F24D019BB816836
:1008200001F00D01012910D18168104A1140891C85
:10083000816021680320086000F00EFF05460EE08D
:1008400000F00AFF401B022809D9E06D40F01000BB
:10085000E065206E40F001002066012070BD206838
:100860008068C007ECD1002070BD0000C0FFFF7F92
:1008700070B504460068816811F0010F28D18168C5
:10088000144A114215D18168D5432940491C816021
:1008900000F0E2FE064616E0816811F0010F03D178
:1008A00081682940491C816000F0D6FE801B022827
:1008B00009D9E06D40F01000E065206E40F00100C5
:1008C0002066012070BD20680168C943C907E3D1D3
:1008D000002070BD3F000080FEE77047002240F618
:1008E000B83306E00021491C89B29942FBD3521C5F
:1008F00092B28242F6D3704710B588B011A1182089
:1009000002F09AF8134CE069FFF796FC41EC100BEB
:1009100011A153EC102B684602F05CFE694648209A
:1009200002F08AF8207B48B1012809D0022803D1BF
:100930000DA1602002F080F808B010BD0FA1F8E70B
:1009400013A1F6E720202020202020204D61696E91
:1009500020202000D811002020202020566F6C7409
:100960003A20252E326656002020202053746174D0
:1009700075733A204E6F726D616C0000202020204C
:100980005374617475733A2055707065722000005D
:10099000202020205374617475733A204C6F776562
:1009A000722000000448007818B1012803D102F039
:1009B00025BCFFF7A1BF7047D811002072B6FEE733
:1009C000F8B500260446009690F858000D46012818
:1009D0000BD0012084F858002046FFF715FF0100D6
:1009E000E06D04D040F010002AE00220F8BD20F4B1
:1009F000885040F00200E06520688268134B1A407E
:100A000005F080431A4342F000428260104A206899
:100A10000EE0009B5B1C0093934209D3E06D20F035
:100A2000020040F01000E06584F858600120F8BD35
:100A30008368DB0FEDD1E06D20F0020040F0010093
:100A4000E06584F858600846F8BD0000C0FFFF3F2D
:100A500002DE04007047704770477047704700001F
:100A60002DE9F84F00270446009790F85800DFF86A
:100A7000DC930D46B846012811D0012684F8586051
:100A8000206802F037F960B1E06D40F02000E065C9
:100A90005FF0010784F858803846BDE8F88F0220DF
:100AA000FBE7D5E900210C23206803EA91131844E1
:100AB000036B01F01F014FF01F0C0CFA01FCC2F395
:100AC000846223EA0C038A4013430363206802F024
:100AD00011F98246206802F009F95AEA00003CD177
:100AE000AA6829682068B2F1004F37D002F00EF9E9
:100AF0002068416921F00041416120686969C2684C
:100B0000C2F3C102520091402A69042A31D000EB9D
:100B100082002B68026EDFF838C303F0F84302EA64
:100B20000C020B431A4342F0004101662268286917
:100B3000A96902EB8000026E22F080720A4302660D
:100B4000297F20682A69012910D0002100EB82004A
:100B5000026E22F000720A4302667DE0002202F07B
:100B6000D5F82068416941F00041C5E74FF00071B8
:100B7000ECE7002102F0B4F8400320684FF00001D8
:100B800072D002F0ADF890FAA0F0B0FA80F12868C7
:100B900042036ED090FAA0F0B0FA80F0814204D106
:100BA00000221146206802F0C0F80121206802F0FE
:100BB00097F8400320684FF001015DD002F090F8F3
:100BC00090FAA0F0B0FA80F12868420359D090FA68
:100BD000A0F0B0FA80F0814204D100220121206807
:100BE00002F0A3F80221206802F07AF8400320689E
:100BF0004FF0020148D002F073F890FAA0F0B0FA7A
:100C000080F12868420344D090FAA0F0B0FA80F056
:100C1000814204D100220221206802F086F80321DB
:100C2000206802F05DF8400320684FF0030133D0E4
:100C300002F056F890FAA0F0B0FA80F1286842036A
:100C40002FD090FAA0F0B0FA80F0814204D10022B7
:100C50000321206802F069F82068816811F0010F13
:100C600022D0ACE000E004E002F03AF8C0F3846186
:100C70008DE7C0F3846091E702F032F8C0F384613D
:100C8000A2E7C0F38460A6E702F02AF8C0F384610B
:100C9000B7E7C0F38460BBE702F022F8C0F38461D9
:100CA000CCE7C0F38460D0E72A7B296850F8B03FD6
:100CB000C1F3120C23EA0C0302F0180C654A22FA65
:100CC0000CF20A4013430360E968494577D128686C
:100CD00041031CD090FAA0F1B1FA81F1491C01F056
:100CE0001F0109294FEA403132D8002912D000BF34
:100CF00090FAA0F1B1FA81F101F1010101F01F01B7
:100D000006FA01F609D100BFC0F3846109E0C0F31F
:100D10008461E3E7C0F38461EEE790FAA0F1B1FAF1
:100D200081F101F1010101F01F0146EA816102D167
:100D3000C0F3846003E090FAA0F0B0FA80F000F114
:100D4000010000F01F0000EB400041EA005132E0DA
:100D500000290ED090FAA0F1B1FA81F101F1010160
:100D600001F01F0106FA01F606D100BFC0F384614D
:100D700006E0C0F38461F1E790FAA0F1B1FA81F1E5
:100D800001F1010101F01F0146EA816102D1C0F3C6
:100D9000846003E090FAA0F0B0FA80F000F1010066
:100DA00000F01F002C4A00EB400002EB005041EA2B
:100DB000000141F00071AA68206801F0A7FF2748F0
:100DC0002A6802423FF466AE25488168254B01F04F
:100DD000E0719A4202D0244B9A421BD10B0219D4E3
:100DE0002268B2F1A04F7FF455AE826841F4000151
:100DF00022F0E0720A4382601C481D490068B0FB83
:100E0000F1F000EB4000800000E0401E0090002860
:100E1000FBD13FE6174D184BAA4207D1CD0105D4AF
:100E200022689A42F5D041F0807109E0134DAA4240
:100E3000EFD14A02EDD422689A42EAD041F480010F
:100E4000826822F0E0720A43826023E600007F405D
:100E500000F0FF03FFFF0700000020FE00000880F5
:100E600000030050000021C31000C09004120020B5
:100E7000400D0300000052C700010050000084CB69
:100E8000704770470068006C704700002DE9F05F04
:100E90000446006806684568DFF854B2DBF80800CD
:100EA00000F01F07B0070ED5A8070CD5E06DC006EF
:100EB00003D4E06D40F40060E0652046FFF7CAFD12
:100EC000216802200860DFF82CA270074FF0A048CC
:100ED00001D5680703D4300737D5280735D5E06D2D
:100EE000C00603D4E06D40F40070E065206801F0B6
:100EF00005FF20B32068504501D1424600E002467C
:100F0000824208D03FB1052F05D0092F03D05045AC
:100F100003D1414602E0C16801E00146C968890485
:100F20000DD4016809070AD501F0E4FE58B3E06D5D
:100F300040F01000E065206E40F001002066204681
:100F4000FFF79EFF21680C200860B00601D5A806B7
:100F500003D4700658D5680656D5E06DC00603D494
:100F6000E06D40F40050E0652068C16C11F4C07F72
:100F70001AD00021894601F0C1FE02462068504582
:100F800014D1434613E02068416821F00C01416010
:100F9000E06D20F48070E065E06DC004CFD4E06DBA
:100FA00040F00100E065CAE70121E3E70346834220
:100FB00008D03FB1062F05D0072F03D0504503D1ED
:100FC000414602E0C16801E00146C968B9F1000F7D
:100FD00004D18B0112D48AB18A040FD4026852065C
:100FE0000CD589020AD401F081FEE8B3E06D40F02F
:100FF0001000E065206E40F0010020662046FFF7FB
:101000002AFD21686020086030060BD5280609D526
:10101000E06D40F48030E065204600F069F9216819
:1010200080200860F0050CD5E8050AD5E06D40F495
:101030000030E0652046FFF710FD21684FF4807016
:101040000860B0050CD5A8050AD5E06D40F48020F5
:10105000E0652046FFF702FD21684FF4007008604C
:10106000F0062ED5E80600E008E02AD5E06BD0B106
:10107000AFB1DBF8080000F4604013E0206841687D
:1010800021F060014160E06D20F48050E065E06D8A
:10109000C005B3D4E06D40F00100E065AEE7206824
:1010A000C068C00750B1E06D40F48060E065206E1C
:1010B00040F0020020662046FFF7E3FE2168102082
:1010C0000860700512D5680510D5E06D40F48040C9
:1010D000E065206E40F00800206621684FF48060D3
:1010E00008602046BDE8F05FFFF7B6BCBDE8F09FA2
:1010F0000003005000010050F8B54FF00005040057
:101100002E46009502D0E06D10B107E00120F8BD39
:10111000204600F0EFF8266684F858602068816861
:10112000C1F3407119B18168694A1140816020683A
:101130008168C1F3007179B98168664A114041F054
:1011400080518160644865490068B0FBF1F000E0BF
:10115000401E00900028FBD120688168C1F3007117
:1011600041B9E16D41F01001E165216E41F00101ED
:101170002166012501F0BEFDE16DC90600D430B144
:10118000E06D40F01000E06501252846F8BDE06DF7
:1011900020F4807040F00200E0652068806810F064
:1011A000010F11D14FF0A04080684D4900F00100BF
:1011B000896801F00101084306D14A4861688268E4
:1011C00022F47C120A438260E168E06B627F08438C
:1011D000A16841EA4231084394F8241040EA0140F2
:1011E000012904D1218D404A02EB41410843E16AC3
:1011F00029B101F47871226B014342EA01002168B0
:10120000CA683A4B1A400243CA6020680169626B9F
:1012100021F0406111430161206801F06BFD064639
:10122000206801F063FD30432ED1207F94F8381000
:10123000800340EA41022068C16844F202039943F6
:101240001143C16020690028206801690AD041F477
:1012500080310161206850F8C01F22696FF30D01D1
:10126000114307E021F480310161206850F8C01F6C
:101270006FF30D01016094F8400001280CD0206844
:10128000016921F001010161606901282068016B99
:1012900021F00F0111D013E0D4E911010843D4E982
:1012A00013121143084321680A6940F2FC739A4300
:1012B000104340F001000861E6E7226A521E114324
:1012C0000163E06D20F0020040F00100E0655CE7A2
:1012D000C0FFFF5FC0FFFF7F04120020400D03002E
:1012E00000010050000300500000FEFF0740F0FF27
:1012F0007047000010B586B0044614216846FEF71A
:1013000090FF15492068884223D11448C16C41F4EC
:101310000051C164C16C01F400510591C16C41F0F0
:101320000201C164C06C694600F0020005904FF4F0
:10133000004000900320019000200290084800F037
:101340009DF800221146122000F0ECF9122000F066
:10135000DBF906B010BD0000000100500010024093
:10136000000400482DE9F04104463848806800F048
:101370001F05206801F0BEFC18B102210846BDE837
:10138000F08194F8580001280CD0012084F858000E
:101390002046FFF76DFA01004FF0000304D084F8F7
:1013A0005830EBE70220EAE7E06D40F60162904337
:1013B00040F48070E065264A20684FF0A0469042D5
:1013C00001D1374600E00746874200D01DB9E76DDE
:1013D00027F48017E765E76DFF0404D5276E27F033
:1013E0000607276600E023661C27076084F858304C
:1013F0002068904201D1334600E00346834215D075
:10140000A5B1052D12D0092D10D0E36D43F4801342
:10141000E365904200D13046C0688001AED5E06DF2
:1014200020F4005040F48050E065A7E7C2689201C4
:1014300005D5E26D22F4005242F48052E2658268E2
:10144000044B1A40121D826098E700000003005010
:1014500000010050C0FFFF7F70B5044600F0FCF8AB
:101460000546601C02D004484068044400F0F4F8CB
:10147000401BA042FAD370BDF81100202DE9FC4FAB
:10148000DFF8A0A1002301250AF1040B03244FF08B
:101490000F0C0BF1040EBDE005FA03F632406FD0DD
:1014A0004F68012F05D0022F03D0112F01D0122F2A
:1014B00017D1D0F808905F0004FA07F829EA080964
:1014C0000097D1F80C8008FA07F848EA0908C0F834
:1014D00008804768B7430E79C6F300169E403E4326
:1014E0004660C6684FEA430804FA08F7BE4301970E
:1014F0008F6807FA08F73743C7604E68022E01D09D
:10150000122E13D1DE0800EB86060096366A5F07BE
:10151000FF0E0CFA07F926EA0906D1F8109009FA2D
:1015200007F949EA0609009EC6F820900668019F5F
:10153000BE430F7907F0030707FA08F73743076040
:101540004E68F60065D5384E376E47F001073766AE
:10155000366E23F0030706F001060096334E3E4434
:10156000B146B6689F074FEA17780CFA08F7BE43F2
:10157000B0F1904F05D02E4FB84204D1012717E0AB
:1015800047E0002714E02B4FB84201D102270FE0BB
:10159000294FB84201D103270AE0284FB84201D1B0
:1015A000042705E0264FB84201D1052700E00627B1
:1015B00007FA08F73743C9F80870DAF800605746A9
:1015C000D1F8048096435FEAC83800D516433E60E0
:1015D000DBF800605F46D1F8048096435FEA883804
:1015E00000D516433E60DEF800607746D1F80480EF
:1015F00096435FEAC82800D516433E60094F0C3772
:101600003E68D1F8048096435FEA882800D51643E7
:101610003E605B1C0A6832FA03F67FF43DAFBDE81A
:10162000FC8F000000040140001002400000014057
:101630000004004800080048000C00480010004862
:10164000001400480069084000D0012070470AB12A
:10165000816170478162704701488068704700006F
:10166000F811002002488168426811448160704787
:10167000F811002010B50024032000F073F80020BA
:1016800000F008F808B1012401E000F025F8204638
:1016900010BD000070B50E4E05460024706898B16C
:1016A0004FF47A71B1FBF0F00A490968B1FBF0F030
:1016B00000F040FD40B9102D06D200222946501EF0
:1016C00000F030F8356000E00124204670BD0000D5
:1016D000F8110020041200200A4882B0016E41F087
:1016E00001010166016E01F001010091816D41F07F
:1016F00080518165806D00F08050009002B000F054
:10170000A1B8000000100240002809DB00F01F0211
:10171000012191404009800000F1E020C0F8001153
:1017200070470000F0B40E4B1B680C46C3F3022355
:10173000C3F10705042D00D90425191D072901D27D
:10174000002300E0DB1E012606FA05F1491E2140B8
:1017500099409E40761E16403143F0BC01F04EBFCA
:101760000CED00E0064900F0070208684FF6FF03A1
:10177000184040EA0220034A104308607047000006
:101780000CED00E00000FA052B492C4B0A683221D1
:101790004A432B4940B1B0F5007F086829D020F4B6
:1017A000C06040F480602CE00868C0F3412002284B
:1017B00004D051F8800F20F4807022E0D1F880002E
:1017C00020F48070C1F88000086820F4C06040F404
:1017D00000700860B2FBF3F0401C00E0401E4A6954
:1017E000520501D50028F9D1486940050AD50320E2
:1017F0007047C0F34120022806D051F8800F40F412
:101800008070086000207047D1F8800040F480703C
:10181000C1F88000086820F4C06040F400700860DF
:10182000B2FBF3F0401C00E0401E4A695205DBD5D4
:101830000028F9D1D8E700000412002040420F0030
:10184000007000400248816841F480418160704727
:10185000007000402DE9F8430446006800269D4DC5
:1018600000035ED5A86D0027C00008D4A86D40F025
:101870008050A865A86D012700F080500090DFF827
:101880005892D9F8001041F48071C9F80010FFF7A0
:10189000E3FE804606E000BFFFF7DEFEA0EB080097
:1018A00002282BD8D9F80000C005F5D5D5F890004E
:1018B00010F4407014D0216C814211D0D5F8900002
:1018C000D5F8901020F4407041F48031C5F89010A4
:1018D000D5F8901021F48031C5F89010C5F890002B
:1018E000C00711D0FFF7B8FE804641F2883907E003
:1018F000FFF7B2FEA0EB0801494501D903260BE032
:10190000D5F890008007F3D5D5F89000216C20F42D
:1019100040700843C5F890001FB1A86D20F08050BA
:10192000A8652078C00707D0D5F88800616820F046
:1019300003000843C5F888002078800707D5D5F84C
:101940008800A16820F00C000843C5F888002078C2
:10195000400707D5D5F88800E16820F0300008433B
:10196000C5F888002078000707D5D5F888002169D8
:1019700020F0C0000843C5F888002078800607D50D
:10198000D5F88800616920F440600843C5F88800F4
:101990002078400607D5D5F88800A16920F440508A
:1019A0000843C5F888002078000607D5D5F88800D8
:1019B000E16920F440400843C5F888002088C0054C
:1019C00007D5D5F88800216A20F440300843C5F8CF
:1019D00088002088800507D5D5F88800616A20F442
:1019E00040200843C5F88800208840050FD5D5F869
:1019F0008800A16A20F440100843C5F88800A06A56
:101A0000B0F5801F03D1E86840F48010E8602088BA
:101A100000050FD5D5F88800E16A20F4400008439E
:101A2000C5F88800E06AB0F5800F03D1E86840F49B
:101A30008010E8602088C0040FD5D5F88800216B9D
:101A400020F040700843C5F88800206BB0F1807F1B
:101A500003D1E86840F48010E86020884FF000610E
:101A600080040ED5D5F88800626B20F040601043EA
:101A7000C5F88800606B884203D1E86840F48010A4
:101A8000E860208840040ED5D5F88800A26B20F0CD
:101A900040601043C5F88800A06B884203D1E86815
:101AA00040F48010E860208800040FD5D5F8880045
:101AB000E16B20F040500843C5F88800E06BB0F1BE
:101AC000805F03D1E86840F48030E8603046BDE8CC
:101AD000F883000000100240007000402DE9F0473C
:101AE0000E4605004FF0000725D0DFF8AC81D8F88E
:101AF000000000F00F00B0420CD2D8F8001021F026
:101B00000F013143C8F80010D8F8000000F00F00B2
:101B1000B04210D12968614CC80741F2883A5AD0C6
:101B20006868DFF87C91032808D0022820682DD04F
:101B3000400500282CDB0120BDE8F08720688001EB
:101B4000F9D5E06800F00302E068C0F30310401C20
:101B5000032A19D0534A00BFB2FBF0F0E268C2F387
:101B600006225043E268C2F34162521C5200B0FBAD
:101B7000F2F0484517D9A06810F0F00F0CD0880794
:101B800011D5A86840B10EE0474AE5E78003D0E7E9
:101B900000F092F8484506D9A06820F0F00040F027
:101BA0008000A0608027A068696820F003000843D7
:101BB000A060FFF751FD814606E000BFFFF74CFD36
:101BC000A0EB090151453AD8A068696800F00C0003
:101BD000B0EB810FF2D12868810714D5400703D5F7
:101BE000A06840F4E060A0602878000705D5A068F0
:101BF00020F4605040F4E060A060A068A96820F084
:101C0000F000084304E0802F03D1A06820F0F0002A
:101C1000A060D8F80010404601F00F01B14216D97B
:101C2000016821F00F0131430160FFF715FD074600
:101C300007E000BFFFF710FDC11B514501D903208C
:101C40007AE7D8F8000000F00F00B042F2D128780F
:101C5000400705D5A068E96820F4E0600843A0606B
:101C60002878000706D5A068296920F4605040EA6A
:101C7000C100A06000F020F8A1680C4AC1F3031174
:101C8000515C01F01F01C84009490860094800681B
:101C9000BDE8F047FFF7FEBC002002400010024004
:101CA00000B4C4040024F40000366E01BC3F0008F8
:101CB00004120020F8110020184910B58868C0F3FC
:101CC00081021748012A0BD08A68164BC2F38102A1
:101CD000022A06D08A68C2F38102032A03D00020B8
:101CE00010BD184610BDCA6802F00304CA68C2F3EA
:101CF0000312521C032C02D0B0FBF2F001E0B3FB44
:101D0000F2F0CA68C968C2F306225043C1F34161C8
:101D1000491C4900B0FBF1F010BD0000001002406A
:101D20000024F40000366E012DE9F84304007AD057
:101D30002078FA4DC00747D0A868E96800F00C0089
:101D400001F003010C2802D0082817D001E0032974
:101D500014D06068B0F5803F17D0B0F5A02F286888
:101D600017D020F480302860286820F48020286074
:101D70006068E0B1FFF770FC064614E02868800355
:101D800022D560680028D2D01EE0286840F4803058
:101D9000EDE740F480202860F7E700BFFFF75CFC28
:101DA000801B642870D828688003F7D50CE0FFF703
:101DB00053FC064605E000BFFFF74EFC801B64287D
:101DC000F0D828688003F7D4207880074CD5A8681D
:101DD000E96800F00C0001F003010C2802D004288F
:101DE0000DD001E002290AD0E068002828682BD035
:101DF00040F480702860FFF72FFC064619E0286841
:101E0000400502D5E068002891D06868217C20F068
:101E1000FE4040EA01606860C1480068FFF73AFC94
:101E2000002800D120E076E1FFF716FC801B022895
:101E3000B8D828684005F7D56868217C20F0FE40B6
:101E400040EA016068600FE020F480702860FFF7CE
:101E500003FC064605E000BFFFF7FEFB801B0228DF
:101E6000A0D828684005F7D42078000729D56069F4
:101E70000028D5F8940013D040F00100C5F8940074
:101E8000FFF7EAFB064606E090E000BFFFF7E4FB41
:101E9000801B022886D8D5F894008007F6D510E07C
:101EA00020F00100C5F89400FFF7D6FB064604E0D9
:101EB000FFF7D2FB801B022878D8D5F89400800762
:101EC000F6D42078400761D5A86D0026C00008D45C
:101ED000A86D40F08050A865A86D012600F08050E4
:101EE000009090480168C90511D40168804641F40A
:101EF00080710160FFF7B0FB074604E0FFF7ACFB21
:101F0000C01B022852D8D8F80000C005F6D5A0683A
:101F1000012815D00528D5F8900016D020F0010032
:101F2000C5F89000D5F8900020F00400C5F89000A6
:101F3000A06841F28838B8B1FFF78EFB07460EE083
:101F4000D5F8900040F00100F0E740F00400C5F83B
:101F50009000F5E7FFF780FBC11B414526D8D5F877
:101F600090008007F6D50CE0FFF776FB074604E00B
:101F7000FFF772FBC11B414518D8D5F890008007C8
:101F8000F6D41EB1A86D20F08050A8652078800698
:101F900029D5A0690028D5F8980013D040F0010099
:101FA000C5F89800FFF758FB064606E077E000BF4B
:101FB000FFF752FB801B022877D8D5F898008007DE
:101FC000F6D510E020F00100C5F89800FFF744FBBB
:101FD000064604E0FFF740FB801B022865D8D5F8D1
:101FE00098008007F6D4E069F0B3A968C1F38101D5
:101FF000032961D00228286820F0807028600BD067
:10200000E86820F00300E860E86847490840E860B5
:10201000FFF722FB04464BE0FFF71EFB064604E0F9
:10202000FFF71AFB801B02283FD828688001F7D4ED
:10203000F4E908016FF00F0202EB01110843218A55
:102040005204490802EB4151A26841EA02210843C7
:10205000217D4FF07E42490802EB41610843217B1C
:1020600040EAC160E96800E062E0304A114008439C
:10207000E860286840F080702860E86840F0807070
:10208000E860FFF7E9FA044605E000BFFFF7E4FA6D
:10209000001B022809D828688001F7D548E004E031
:1020A000FFF7DAFA001B022802D90320BDE8F88303
:1020B00028688001F4D43BE00128F7D0E868226A60
:1020C00000F00301914226D1616A00F0F00209019B
:1020D000103991421FD1A26A00F4FE41B1EB022FE8
:1020E00019D194F82C2000F07841B1EBC26F12D1D5
:1020F000218E00F4C00249084905A1F50011914262
:1021000009D194F8341000F0C06049084906A1F1E3
:10211000007181420CD00120C8E70000001002408D
:10212000F811002000700040FFFFEEFE0C809F01C0
:102130000020BBE710B5401EB0F1807F01D3012025
:1021400010BD4FF0E02460610F21601701F056FAD6
:102150000020A06107202061002010BD704770475B
:102160007047704770477047F0B590F83C20012ADF
:102170003AD0012580F83C50022280F83D200368C7
:102180005A689C68194E1A4FB34201D0BB4204D121
:1021900022F4700C4A6842EA0C02DFF858C002EAE6
:1021A0000C02D1F800C04CEA020CC3F804C002686B
:1021B000B2420DD0B2F1804F0AD00F4B9A4207D0F5
:1021C0000E4B9A4204D0BA4202D00D4B9A4204D12F
:1021D000896824F080031943916080F83D50002104
:1021E00080F83C100846F0BD0220F0BD002C0140F4
:1021F000003401408FFFFFFD000400400008004054
:1022000000400140704710B5040003D094F83D0031
:1022100010B107E0012010BD002084F83C002046EA
:1022200000F022F8022084F83D00211D206801F012
:10223000E7F8012084F8480084F83E0084F83F0065
:1022400084F8400084F8410084F8420084F8430098
:1022500084F8440084F8450084F8460084F8470078
:1022600084F83D00002010BD08B500680B49884285
:1022700012D10B48816D41F004018165806D00220F
:1022800000F00400009011461E20FFF74BFABDE855
:1022900008401E20FFF738BA08BD000000080040C3
:1022A0000010024090F83D10012901D00120704734
:1022B000022180F83D100168CA6842F00102CA603C
:1022C0000068104988420ED0B0F1804F0BD00E4903
:1022D000884208D00D49884205D00D49884202D075
:1022E0000C49884207D181680B4A1140062906D063
:1022F000B1F5803F03D0016841F001010160002089
:1023000070470000002C014000040040000800401D
:1023100000340140004001400700010070B5044650
:1023200090F83C00012814D0012584F83C5002208C
:1023300084F83D0022689068344B184020F47F40B8
:1023400090600868702827D010DC10F00F0F03D0C1
:102350004AE04FF0020070BD4FEA2012072A43D234
:10236000DFE802F05050505048313900284BC21A73
:10237000984247D009DCB0F5805F35D0B0F5005FFA
:1023800015D0B0F1101F2FD13CE0102A3AD0202AEE
:1023900038D0502A28D135E0CB68D1E90121206816
:1023A00001F086F82068816841F0770109E0CB6888
:1023B000D1E90121206801F07BF82068816841F4AF
:1023C0008041816010E0CA684968206801F084F8A3
:1023D0005021206806E0CA684968206801F08DF83D
:1023E0006021206801F06EF884F83D50002084F8E8
:1023F0003C0070BDCA684968206801F06DF8402152
:102400002068EFE7226801461046EBE788FFCEFF21
:1024100020001000704770B50446006801694FF055
:102420000005C943890715D4C168C943890711D478
:10243000E91E01610120207720688069800720461D
:1024400002D0FFF7E7FF04E000F0E3F8204600F0D9
:10245000E1F8257720680169C943490717D4C168A5
:10246000C943490713D46FF00401016102202077AA
:102470002068806910F4407F204602D0FFF7CAFF31
:1024800004E000F0C6F8204600F0C4F82577206884
:102490000169C943090716D4C168C943090712D4A1
:1024A0006FF008010161042020772068C06980076F
:1024B000204602D0FFF7AEFF04E000F0AAF8204665
:1024C00000F0A8F8257720680169C943C90617D428
:1024D000C168C943C90613D46FF010010161082017
:1024E00020772068C06910F4407F204602D0FFF7B3
:1024F00091FF04E000F08DF8204600F08BF825777E
:1025000020680169C943C90708D1C168C943C9071F
:1025100004D1891E0161204600F07EF8206801691F
:10252000C943090609D4C168C943090605D46FF037
:10253000800101612046FFF712FE20680169C9434E
:10254000C90509D4C168C943090605D46FF480716F
:1025500001612046FFF702FE20680169C943490670
:1025600009D4C168C943490605D46FF0400101612F
:10257000204600F07DF820680169C943890609D426
:10258000C168C943890605D46FF020010161204666
:10259000FFF7E6FD20680169C943C90209D4C16893
:1025A000C943C90205D46FF4801101612046FFF7C9
:1025B000D9FD20680169C943890209D4C168C943AA
:1025C000890205D46FF4001101612046FFF7C9FDAF
:1025D00020680169C943490209D4C168C943490255
:1025E00005D46FF4800101612046FFF7BCFD20682F
:1025F0000169C94309020BD4C168C943090207D460
:102600006FF4000101612046BDE87040FFF7FABD9C
:1026100070BD70477047000010B504461148FFF7C1
:1026200041FE1149206888421BD110480122817A5D
:10263000491CCBB2002183720A2B01D181724270F6
:10264000C37A5B1CDBB2C372C82B01D1C17282702A
:10265000038A5B1C9BB20382B3F5FA7F01D101822E
:10266000C27010BD7412002000080040D811002074
:102670007047FEE770B5994E01212DED028B304673
:10268000FEF7E0FF964C002530B101213046FEF701
:10269000D9FF012816D016E0A079401CC0B2A07165
:1026A000012810D121784FF6FF7011B101290AD10C
:1026B00004E000F04BF90120207004E000F046F93E
:1026C000257000E0A57102213046FEF7BBFF30B156
:1026D00002213046FEF7B6FF012814D014E0E0795D
:1026E000401CC0B2E07101280ED12078012804D12D
:1026F000607B00F00300401C6073607B401CC0B234
:1027000000F036F900E0E57104213046FEF79AFF4B
:10271000DFED748A9FED748A30B104213046FEF7F4
:1027200091FF01286AD06AE0207A401CC0B2207272
:10273000012864D12078012861D1607B012807D06D
:10274000022818D0072603282AD0042857D13EE0B3
:1027500094ED050AD4ED060AB4EEE00AF1EE10FAA3
:102760004DDD30EE080A614910EE100A884246DC61
:1027700084ED050A43E094ED060A94ED051A70EE27
:10278000280AF4EEC10AF1EE10FA38D2B5EEC00A0A
:10279000F1EE10FA33DB30EE080A84ED060A2EE083
:1027A000207908282BD200F0D9FE2079401CC0B235
:1027B00020716179884204D1082802D0401C207120
:1027C0001DE088421BD1082819D1267117E06079D5
:1027D000082814D200F0C2FE6079401CC0B26071BB
:1027E0002179814204D1082802D0401C607106E0A2
:1027F000814204D1082802D1667100E025724FF0B1
:10280000904601213046FEF71DFF48B101213046B8
:10281000FEF718FF012800D16572BDEC028B70BD78
:10282000607A401CC0B260720128F6D1207801287D
:10283000F3D1607B012817D0022825D00225032878
:102840002ED00428E9D160790128E6D900F086FE6F
:102850006079401EC0B260712179814237D1012870
:1028600035D0401E6071D8E794ED050A94ED061A44
:1028700070EE680AF4EEC10AF1EE10FACDDD30EE2A
:10288000480A84ED050AC8E794ED060A30EE480AC6
:10289000B5EEC00AF1EE10FABFDB84ED060ABCE724
:1028A00020790128B9D900F059FE2079401EC0B224
:1028B00020716179884204D1012802D0401E207124
:1028C000ABE78842A9D10128A7D12571A5E78142AC
:1028D000A3D10128A1D165719FE700000004004841
:1028E000D8110020CDCCCC3E9A99993E3333534039
:1028F00000B585B014216846FDF793FC4FF6FF70D4
:10290000009000200321CDE90201019069460248B0
:10291000FEF7B4FD05B000BD0008004800B585B065
:1029200014216846FDF77DFC4FF6FF7000900120F2
:102930000190032003900020029069460248FEF7B0
:102940009DFD05B000BD00000008004870B50024E2
:1029500006462146204600F013F900F055F94FF4E1
:102960009635304600F020F9641CAC42F9D370BDB6
:1029700001A100F061B800002020202020202020AC
:1029800020202020202020202020202000000000C7
:1029900030B587B014216846FDF743FC1E48C16C72
:1029A00041F00401C164C16C01F004010591C16CE6
:1029B00041F00101C164C16C01F001010591C16CDC
:1029C00041F00201C164C06C012500F002000590D5
:1029D0004FF44870CDE90005002403946946029441
:1029E0000E48FEF74BFD280203940090CDE90154F8
:1029F0004FF0904469462046FEF740FDFFF78EFFFA
:102A0000A06940F48070A06104481830016841F466
:102A10000871016007B030BD00100240000400489A
:102A2000203AD2B2034B02EB420203EB021200F057
:102A300019B8000006000020F0B50E460746002534
:102A400040F23F1407E021463846FFF7E9FF103C0B
:102A50006D1CA4B2761C3278002A01D0142DF2D35A
:102A6000F0BD00002DE9F04791468A460026044655
:102A700000F086F8DFF84080012700BF00F0C4F8BE
:102A80005FF0000539F8160007FA05F108424046E4
:102A900001D1408800E0008800F086F86D1C102D00
:102AA000F0D3641CE4B25146204600F069F8761C6D
:102AB000182EE3D3BDE8F0870000002010B5FFF723
:102AC00067FF002000F014F8084CA080A088A0F553
:102AD0000241303906D000F08FFA002000F008F8EB
:102AE000A08010BD00F0FFF9F7E700000000002013
:102AF00070B51D490A6842F400720A600A6842F41F
:102B000080720A60184C103C226842F02002226059
:102B1000164A1060086840F02000086000BF00BF3F
:102B200000BF206840F020002060206840F48070E2
:102B30002060FFF7DDFE4FF09041886A40F480701E
:102B4000886200BF00BF00BF0848001F006885B250
:102B5000886940F480708861FFF7E0FE206840F4E7
:102B600000702060284670BD280400481408004802
:102B700001B5BDF800000149488008BD00000020F3
:102B800010B50C460146202000F070F82146BDE843
:102B90001040212000F06AB801B5BDF800000149DD
:102BA000088008BD0000002030B5154B1968154A93
:102BB0008CB2116841F400711160124910390D682E
:102BC00045F480750D600D6845F020050D601860B6
:102BD000106840F02000106000BF00BF00BF086810
:102BE00040F020000860086840F48070086000BF72
:102BF00000BF00BF086840F4007008601C6030BD72
:102C00001408004828040048164A10B510681649F0
:102C100083B2086840F400700860086840F480706F
:102C2000086011481038046844F02004046022242D
:102C300014600C6844F020040C6000BF00BF00BFAB
:102C4000016841F020010160016841F48071016078
:102C500000BF00BF00BF016841F400710160136054
:102C600010BD0000140800482804004870B51A4C34
:102C700022681A4B95B21A6842F400721A601A68F8
:102C800042F480721A60154A103A166846F020061F
:102C900016602060186840F02000186000BF00BF78
:102CA00000BF106840F020001060106840F4807091
:102CB00010602160186840F02000186000BF00BF5D
:102CC00000BF106840F020001060106840F4807071
:102CD0001060256070BD00001408004828040048FA
:102CE00000EB8100006E00F0F84070478068C0F390
:102CF000C00070478068C0F380007047C06810F45F
:102D0000406F01D00020704701207047042303EA80
:102D1000D15310B518444369C1F3045107248C40C2
:102D2000A3438A401343436110BD00EB8100016E51
:102D300021F00041114301667047000010B5064CB8
:102D4000A17B11B100F026FC01E000F0E9FBA07BC3
:102D500080F00100A07310BDD811002030B589B0FB
:102D600020216846FDF75DFA1948184900240160E2
:102D70004902C0E90114C46004250461C0E90545A5
:102D8000047744770121016280F82440C46204631F
:102D900080F83840C46380F84040FEF7ADF908B1D0
:102DA000FDF70CFE0B4800900620CDE901047F20C2
:102DB0000594CDE9030569460548FDF751FE002855
:102DC00001D0FDF7FBFD09B030BD0000000100504F
:102DD000081200200080F03E70B586B014216846CD
:102DE000FDF71FFA2148C16C41F02001C164C16C9C
:102DF00001F020010591C16C41F00101C164C16C79
:102E000001F001010591C16C41F00201C164C16C86
:102E100001F002010591C16C41F00801C164C06C70
:102E2000134E00F008000590002204213046FEF702
:102E30000EFC00240125CDE9005469464FF0904076
:102E40000294FEF71BFB0720CDE900046946094800
:102E50000294FEF713FB04200090CDE9015469466B
:102E600030460394FEF70AFB06B070BD0010024026
:102E7000000C00480004004810B588B00024174832
:102E800000940194029403940494059412490694C6
:102E900001604F21C0E9011440F2E731C0E9031499
:102EA0008461FFF7B0F908B1FDF788FD4FF4805059
:102EB000009069460948FFF731FA08B1FDF77EFD39
:102EC000049404A905480694FFF74EF9002801D0A0
:102ED000FDF774FD08B010BD00080040741200201A
:102EE000FEE7FEE7704730B501210020FFF7BEFE88
:102EF0004FF47A70FDF7F2FC00210120FFF7B6FED7
:102F000041F290711020FFF7B1FE4FF41C51602088
:102F1000FFF7ACFE01216120FFF7A8FE0221462049
:102F2000FFF7A4FE48F210011320FFF79FFE48F2BE
:102F3000FE011220FFF79AFE4FF4A0610220FFF776
:102F400095FE41F230010320FFF790FE40F203347A
:102F500021463020FFF78AFE21463120FFF786FE0A
:102F600021463220FFF782FEE51E29463320FFF777
:102F70007DFE03213420FFF779FE21463520FFF73F
:102F800075FE14213620FFF771FE21463720FFF72A
:102F90006DFE21463820FFF769FE21463920FFF7F4
:102FA00065FE29463A20FFF761FE03213B20FFF72B
:102FB0005DFE21463C20FFF759FE4FF4A0513D2015
:102FC000FFF754FE4FF400719220FFF74FFE2146A9
:102FD0009320FFF74BFE40F60D019020FFF746FED1
:102FE00041F218010320FFF741FEBDE8304040F2F6
:102FF00073110720FFF73ABE10B543F20801E32032
:10300000FFF734FE1221E720FFF730FE41F23121B5
:10301000EF20FFF72BFE00210120FFF727FE4FF4E2
:10302000E0610220FFF722FE41F230010320FFF7AA
:103030001DFE00210420FFF719FE40F207210820A1
:10304000FFF714FE00210920FFF710FE00210A20DF
:10305000FFF70CFE00210C20FFF708FE00210D20D9
:10306000FFF704FE00210F20FFF700FE00211020D3
:10307000FFF7FCFD07211120FFF7F8FD00211220CA
:10308000FFF7F4FD00211320FFF7F0FDC820FEF745
:10309000E3F941F290611020FFF7E8FD40F22721AB
:1030A0001120FFF7E3FD3220FEF7D6F91D21122093
:1030B000FFF7DCFD3220FEF7CFF94FF4006113205B
:1030C000FFF7D4FD14212920FFF7D0FD0B212B2081
:1030D000FFF7CCFD3220FEF7BFF900212020FFF7DB
:1030E000C5FD00212120FFF7C1FD07213020FFF79A
:1030F000BDFD40F207713120FFF7B8FD06213220F7
:10310000FFF7B4FD40F204713520FFF7AFFD41F643
:1031100004713620FFF7AAFD04213720FFF7A6FD32
:1031200000213820FFF7A2FD40F206713920FFF799
:103130009DFD40F201713C20FFF798FD0F213D20DD
:10314000FFF794FD00215020FFF790FDEF21512063
:10315000FFF78CFD00215220FFF788FD40F23F1160
:103160005320FFF783FD4FF41C516020FFF77EFDD5
:1031700001216120FFF77AFD00216A20FFF776FD2B
:1031800000218020FFF772FD00218120FFF76EFDF6
:1031900000218220FFF76AFD00218320FFF766FDF2
:1031A00000218420FFF762FD00218520FFF75EFDEE
:1031B00010219020FFF75AFD00219220FFF756FDC5
:1031C00003219320FFF752FD4FF488719520FFF7FC
:1031D0004DFD00219720FFF749FD00219820FFF7C2
:1031E00045FD41F218010320FFF740FDBDE8104006
:1031F00040F273110720FFF739BD704770B588B0F2
:1032000040F21F50FFF7C8FC39A11820FFF714FC4B
:103210003C4C6069FDF710F841EC100B3AA153ECFF
:10322000102B684600F0D6F9607B4FF4FC654FF632
:10323000FF7601282FD069463020FFF7FDFBA069FB
:10324000FCF7FAFF41EC100B34A153EC102B68464D
:1032500000F0C0F9607B022828D069464820FFF7BB
:10326000EBFB227932A1684600F0B4F9607B0328B9
:1032700027D069466020FFF7DFFB627930A16846FE
:1032800000F0A8F9607B042826D069467820FFF773
:10329000D3FB08B070BD2846FFF76AFC69463020B2
:1032A000FFF7CAFB3046FFF763FCC8E72846FFF785
:1032B0005FFC69464820FFF7BFFB3046FFF758FC2C
:1032C000CFE72846FFF754FC69466020FFF7B4FBC0
:1032D0003046FFF74DFCD0E72846FFF749FC69462A
:1032E0007820FFF7A9FB3046FFF742FCD1E700004A
:1032F000202020202020202053657474696E6720D0
:1033000020200000D81100202020204D6178205678
:103310006F6C743A20252E32665600002020204D16
:10332000696E20566F6C743A20252E326656000066
:1033300020202055707065723A204C4425640000AE
:103340002020204C6F7765723A204C4425640000A1
:10335000FEF788B910B5A4B038216846FCF761FFC4
:1033600014211FA8FCF75DFF44210EA8FCF759FFAC
:103370004FF40070FEF708FA01200090000401905D
:1033800002200324CDE907041421CDE90A100C9092
:103390000D9009946846FEF7C7FC08B172B6FEE7C7
:1033A0000F20CDE91F0400202190229023900221BC
:1033B0001FA8FEF793FB08B172B6FEE74FF400407A
:1033C0000E9080031D900EA8FEF744FA002801D04D
:1033D00072B6FEE724B010BD0548016841F47001E3
:1033E000016003494FF000608039086070470000B9
:1033F00088ED00E00148FFF70EB8000074120020CD
:103400002DE9F0430268234B234D244E244C4FF00A
:103410008049984207D0484505D0A84203D0B04221
:1034200001D0A04203D122F070074A683A431D4FF1
:10343000DFF874C0DFF8748098420DD048450BD097
:10344000A84209D0B04207D0A04205D0B84203D06C
:10345000604501D0404503D122F44075CA682A4333
:103460004D6922F080022A4302608A68C2620A68BB
:103470008262984207D0A04205D0B84203D060458E
:1034800001D0404501D10969016301214161BDE8D5
:10349000F0830000002C01400004004000080040C0
:1034A0000034014000400140004401400048014018
:1034B00010B5846842EA032224F47F440A4322437D
:1034C000826010BD8268034B1A400A4342F0070134
:1034D000816070478FFFCFFF10B5036A046A24F044
:1034E00001040462846924F0F00444EA021423F025
:1034F0000A020A438461026210BD10B5036A23F018
:10350000100303628369046A23F4704343EA0232BE
:1035100024F0A00343EA01118261016210BD0000A2
:1035200070B50B4C0121C01D8140608A094D0143DB
:103530006182012204212846FEF789F80649608A43
:1035400008602846BDE8704000220421FEF77FB8DD
:10355000D8110020000C00481408004870B50A4C2F
:103560004FF47F40094D6082012204212846FEF776
:103570006EF80749608A08602846BDE8704000225E
:103580000421FEF764B80000D8110020000C0048A8
:103590001408004870B50B4C0121C01D8140608AA1
:1035A000094D88436082012204212846FEF74FF826
:1035B0000649608A08602846BDE870400022042160
:1035C000FEF745B8D8110020000C00481408004848
:1035D000FEE700000FB4084B10B504A902AA039837
:1035E00000F0EEF8044602A9002000F06CFC204632
:1035F00010BC5DF814FB0000C73E00080907090E67
:10360000002804DB00F1E02080F80014704700F08F
:103610000F0000F1E02080F8141D704702E008C898
:10362000121F08C1002AFAD170477047002001E03C
:1036300001C1121F002AFBD1704700002DE9FF5F76
:1036400082B00021DDE90430020DDDF840B0034313
:1036500018D044F61050A2F2FF32424315141198CC
:1036600001281FD0A5EB0B00401C5FEA000A4FF0B9
:1036700000064E4FDFF83891B046504615D5CAF1D6
:10368000000413E0119801244AA3012801D16FEA34
:103690000B010298119AC0E90031C0E9024206B05C
:1036A000BDE8F09FCBF10000DFE704460021404A6F
:1036B000491842EB0450CDE9001012E0E00707D0B2
:1036C00032463B4640464946FCF7B7FE80468946AF
:1036D00032463B4610461946FCF7AFFE06460F46FB
:1036E0006410002CEAD1DDE90401DDE90023BAF120
:1036F000000F06DAFCF7A1FE42464B46FCF79DFEA2
:1037000005E0FCF70CFF42464B46FCF708FF044679
:103710000E460022284BFCF789FF03D84FF0FF30FC
:10372000014607E00022254B20463146FCF7DEFD2E
:10373000FCF764FF102409E0002C0ADB0A220023B6
:10374000FCF7A3FD039B30321A55641E50EA0102B8
:10375000F2D1641C039AC4F111031444119A012A92
:1037600003D0012208430DD10AE0084304D0002011
:103770004FF0110B119072E7A3EB0B056D1E0DE0DE
:103780005B4504DD4FF0000205F1010504E003DABA
:103790004FF00002A5F10105002AECD00298119922
:1037A000C0E90231C0E9004579E70000000014409B
:1037B0000000F03F300000000000F0430000E03F58
:1037C0002DE9FF4F95B09A46884606460025EEE162
:1037D000252877D100242746F94A0121039400E0E7
:1037E000044316F8013F203B01FA03F01042F7D1E1
:1037F00030782A2811D06FF02F033078A0F13002F2
:10380000092A16D8039A44F0020402EB820203EB61
:1038100042021044761C0390EFE758F8042B039201
:10382000002A03DA504244F40054039044F00204A6
:10383000761C30782E2816D116F8010F44F00404B7
:103840002A280DD06FF02F023078A0F13003092B19
:1038500009D807EB870302EB4303C718761CF3E78D
:1038600058F8047B761C30786C280FD006DC4C2886
:1038700017D068280DD06A2814D104E0742810D01D
:103880007A280FD10DE044F400140AE044F48014C7
:1038900001E044F440147278824202D104F58014AD
:1038A000761C761C307866280BD013DC582877D02D
:1038B00009DC002875D04528F6D04628F4D04728E2
:1038C0001AD193E118E0632835D0642879D06528AF
:1038D00012D18BE1702873D008DC6728F1D06928F9
:1038E0006FD06E280DD06F2806D1ACE073282CD095
:1038F000752874D0782853D05246179990476D1C7C
:1039000054E1C4F30250022809D003280DD0D8F89E
:10391000001004280DD00D6008F1040846E1D8F825
:103920000010EA17C1E90052F6E7D8F800100D8040
:10393000F2E70D70F0E718F8041B8DF80010002076
:103940008DF80100EB46012003E058F804BB4FF06E
:10395000FF3061074FF0000102D40DE009F10101D1
:103960008946B9420FDA8145F8DB1BF809100029B6
:10397000F4D108E009F1010189468142FADB1BF824
:1039800009100029F6D103985346A0EB09072146F8
:103990003846179A00F080FA284400EB090507E042
:1039A00044E008E10DE01BF8010B524617999047DF
:1039B000B9F10109F7D2534621463846179AF2E089
:1039C00039E00A21C4F302524FF0000B0091022AA1
:1039D00006D058F8040BC117032A09D00AE023E0E7
:1039E00008F1070020F00702F2E80201904605E026
:1039F00000B2C117042A01D140B2C117002906DA6A
:103A00000A460021404261EB02012D2202E022051C
:103A100004D52B228DF80420012203E0E20701D017
:103A20002022F7E7914657E00A2100E010214FF0ED
:103A3000000B00910BE010214FF0000B44F0040448
:103A40000827009103E008204FF0000B0090C4F31A
:103A50000252022A05D058F8040B0021032A08D08C
:103A600008E008F1070020F00702F2E802019046A2
:103A700003E080B2042A00D1C0B24FF0000922074F
:103A80002AD53278702A07D0DDF800C08CF0100CEF
:103A90005CEA0B0C05D00EE040228DF804200122D8
:103AA00008E050EA010306D030238DF804308DF889
:103AB000052002229146009B83F0080353EA0B0382
:103AC0000AD150EA010201D1620705D530228DF8F2
:103AD00004204FF001097F1E3278582A04D039A201
:103AE0000C920CAA02920BE03BA2F9E75B46009A0B
:103AF000FCF7CBFB0C9B9B5C029A521E029213704C
:103B000050EA0102F2D1029804A9081A00F1200B30
:103B1000600702D524F4803400E001275F4502DD10
:103B2000A7EB0B0000E0002000EB0B0100900398D6
:103B30004944401A0390E00306D453462146179A9D
:103B4000039800F0A9F90544002706E001A85246B1
:103B5000C05D179990476D1C7F1C4F45F6DBE00355
:103B60000CD553462146179A039800F095F9054461
:103B700004E030205246179990476D1C0099481E6A
:103B800000900029F5DC08E002980299524600787E
:103B9000491C0291179990476D1CBBF10001ABF1D4
:103BA000010BF1DC5BE100F065F90544761C30782F
:103BB00000287FF40DAE19B02846BDE8F08F000054
:103BC00009280100303132333435363738396162F3
:103BD00063646566000000003031323334353637B7
:103BE000383941424344454600000000600700D494
:103BF000062708F1070020F00700F0E802238046BE
:103C000003F0004C5FEA0C0001D097A009E020050A
:103C100001D596A005E0E00701D095A001E0AFF244
:103C20004C001390307823F0004365280CD006DC5C
:103C3000452809D046281DD047287FD13BE066287B
:103C400018D067287AD136E00021112F01DB11202E
:103C500000E0781CCDE9000104A90CA8FFF7EEFCF8
:103C6000DDE90D010C9A4FF0000B07F101091092EC
:103C700000914EE04FF000400097CDE9011004A9FB
:103C80000CA8FFF7DBFCDDE90D020C9B0F994FF050
:103C9000000B91461093009211B9791C00EB0109B9
:103CA000B7EB090003D4C0F1FF3B07F10109A9EB11
:103CB0000700019042E0012F00DA01270021112FB7
:103CC00001DD112000E03846CDE9000104A90CA86F
:103CD000FFF7B4FCDDE90D010C9A00914FF0000BE9
:103CE000B946109221070FD4009A4A4503DA91464B
:103CF00001E0A9F10109B9F1010F05DD109AA9F15F
:103D00000101515C3029F4D0B84202DA10F1040FFD
:103D100003DA0121CDE9011010E0002803DC83441F
:103D2000A9EB000102E0411C494500DD8946A0EBFA
:103D30000B00401C01904FF000400290200705D47A
:103D40000198484502DB4FF0FF30019000208DF8CC
:103D50004B0002980DF14B07B0F1004F25D0022027
:103D60000C902B200D90029800280CDA4042029013
:103D70002D200D9007E00A210298FCF770FA3031EF
:103D8000029007F8011D0C99481E0C900029F2DCE6
:103D900002980028EFD1791E0D980870307800F055
:103DA000200040F0450007F8020D11A8C01BC01DFF
:103DB00002901398007800B1012000EB09010198EE
:103DC00001EBE071029801440398401A401E0390F1
:103DD000E00306D453462146179A039800F05CF896
:103DE00005441398007818B15246179990476D1CF6
:103DF000E00323D553462146179A039800F04CF868
:103E000005441BE0BBF1000F07DB0098584504DDBB
:103E10001098179910F80B0001E0179930205246BE
:103E2000904701980BF1010B401E05F1010501902F
:103E300004D12E205246179990476D1CB9F100010C
:103E4000A9F10109DEDC05E017F8010B52461799CC
:103E500090476D1C0299481E02900029F4DC5346DD
:103E60002146179A03989EE62D0000002B000000C3
:103E7000200000002DE9F041044600251E461746AB
:103E8000880404D405E039462020B0476D1C641E28
:103E9000F9D52846BDE8F0812DE9F041044600251A
:103EA0001E469046C80301D5302700E0202788042D
:103EB00004D505E041463846B0476D1C641EF9D56F
:103EC0002846BDE8F0810A68531C0B6010707047EB
:103ED00010B50548FDF746FA0348FCF7D3FF00EE9E
:103EE000100AB8EE400A10BD08120020FDF7C2FB10
:103EF000FFF730FAFEF770FFFEF7BEFFFEF72EFF6A
:103F0000FEF7DCFD4FF6FF742046FEF71FFD20464E
:103F1000FEF72EFE40F21F50FEF73EFEFFF71EFB9F
:103F20007F212148FCF74CFD2048FEF7BBF9204CCF
:103F3000002500BFFCF736FD607810B16570FEF714
:103F400099FBA078F0B1A57094ED070AD4ED050AAD
:103F5000B4EEE00AF1EE10FA04DD2079FEF7EEFE91
:103F600025730FE0D4ED060AB4EEE00AF1EE10FA84
:103F700004D26079FEF7E2FE012002E0FFF7EEFADC
:103F800002202073E0780028D4D0E570FFF7A0FF6E
:103F9000DFED080A80EE201A9FED070A21EE000AE5
:103FA00084ED070AC6E70000081200207412002002
:103FB000D811002000F07F4533335340000000004B
:103FC000000000000102030406070809EC3F000896
:103FD00000000020081200009C070008844600082A
:103FE00008120020B80400002C360008000631003A
:103FF00000FFFF00010316800102611EE13292CC36
:1040000002012A6A23600C02200F30063006FE1FD0
:10401000FE1F3006380718030A2007180318038C00
:1040200001023172201700E003F80F9C0E8C1C8CEB
:10403000188C009800F801E007800E800E100B1815
:104040009C18B80CF00FE0038026A15A10090E1836
:104050001B0C110C11060210110311039B018E01A0
:10406000C038C06C60446044300260071844186C6B
:104070000C38BE1005E001F0037A10140618063063
:1040800003F001F000F8009C310E33061E061C02FE
:10409000E0063FFC73F021B8920C020121E7100BFF
:1040A0000200038001C000C0006002D2300221146F
:1040B000211C155E12032A151632201235701203C8
:1040C00002D20602111425A2214ED62088214810C2
:1040D00008D806F807E00130D2052AEAC405FC3FFB
:1040E000FC3FE8092C30120002021B806C080532EC
:1040F000E007E0078E41D6F57F750C155C3510455D
:10410000624564D17AE00A03F007380E180C0C18E7
:1041100002D409180C380EF007E003B0214C0C074C
:104120001901F0019801880803A16043F80F5E228D
:104130000002219C35F025ECD0071800FC1FFC1F65
:1041400090100701F807180E0C0121C81805C003CC
:10415000C00751113C41920210F8904C0B0C000E1C
:10416000000F000F800DC03003116B270C0CB2093B
:10417000148513F80F9031893009EC03FC071C0EED
:10418000001C98115E0005101C0C180E602009C060
:1041900007F00F381C1818325409CC03EC0F3C0EF2
:1041A0001C1C2006121C2031D24582357C16C07A98
:1041B0003AE0C85A70DE051480215384073806F0AF
:1041C00007F0078CE005380CF80F604130521C24D2
:1041D00030091C1C381EF81BE019D1130C1CC00B35
:1041E0001BF0018A012114011F30091ACE1C051091
:1041F000001C80720416F8DC1AF85C17800F600A45
:104200001810F8C3F81F080D1E1405180708003809
:1042100000F00114121F61161F9C130138140917B6
:1042200070796E6D2603FD2E033D7C03400C18183B
:104230000420C229224A11440902EC0C221113E283
:104240000C024004201818980315D4200403C0065B
:1042500002396E2218022C07F83FF83F1C70AF0598
:104260002119D9106C0503FC0F0C5E0310040CFC23
:10427000070E1A18A541021E180003FA0770BC0A9F
:104280001F38381C300C700660DD04E008600C70CC
:104290001C30F01F903C08FE03FE0F060E06A10521
:1042A000B1022DB305E8050EFE0FFEA01DCC048D56
:1042B000A20529AEADB0053D3803C5A211DC4DBB4A
:1042C000032D27038005F81FF81F0E4DD303DDCA09
:1042D000043C0C0FF83F3C780E6006E007C08104F8
:1042E00011A11DC5031533DC090EC03CF0F83FE0F9
:1042F0000FBF03A23002319EB1120F260C3080078F
:104300000D15A005021406022531DC063807F0035E
:10431000E0B004353A10140C060606038601C60008
:1043200066007600DE008E01060312360C64DD4165
:1043300005021B18022530CD210320050EE01EF0DA
:10434000024336D8022366CC0252C601E40586C376
:1043500086C32010041C303C02126C0212CC0210E6
:10436000058C310C3302123602123C02E638201C56
:1043700005E007F81F9904193EA303C002F80806D8
:10438000600E701C38F8401BFC0F02CA38920E19E0
:104390000CC407916082E05E140907E006630E3FDB
:1043A0001C3CE0CEF79106198258041F06389C1E6B
:1043B00038C00876074C49B20E106030065DDE0446
:1043C0001D9B051BF80330331E00401C050E301CDE
:1043D0001C1005ED000308042A7FFE7F10E95EA98A
:1043E0007E0710181820430360BC6D14072D1607B4
:1043F0002D9409140570076003631DE005E1302367
:10440000C3610283663302236C1B02CC092C1A3C65
:104410001E380E380E31051C090FE00C70183030B4
:10442000183F043C040EC0075E04140503E0067048
:10443000F71D8107D006300E6007E0602D79044C2F
:1044400008301C383818300C65030D1C80075C05DB
:10445000FC7FFC7F6D07DD7C072D2708253EED10D6
:10446000082FE003AE06011E0221282DA60A6DA624
:10447000094DA8091D64096D0E0B7E03A009F160AA
:104480000221000261601D82071D4407256C3F6008
:1044900003D7042919013901CFFFFFF80B0D2DAE09
:1044A0000A9D4A081805F003F807AA2C070C000F0C
:1044B000F00FF8B1081F0C1C5C080F16F018200450
:1044C0001ED8A80B1E38370881012DE0070F17D81A
:1044D00003DA091D9A096F300E39092DA3081E3021
:1044E0009009EEC00009711F2805C01BF01F36811E
:1044F00060000719301CF01FC01B601E0F83066E82
:1045000018D4051952EC051CF00FC0F00644040F36
:10451000C00FDA2D9C0855E4B1020D17D40A1E0D08
:10452000FA093DCA0961011D600924050FE00D006B
:104530002A6E06AA0895204F07F86A09D1010D16C0
:10454000F00A0215C002012E3041DEEC04F80078BA
:10455000BE0C1C050C0C060C6A0D100DCC006C007A
:10456000FC009C018C030C03120E100C560C011C59
:10457000020D169009E0097C3CFF7EC7E383C1026F
:104580000D16EA0B062398200510E099101D0E0E5B
:104590000A17C0700916A00D16EA070917700D1545
:1045A0001B081EB06E07FE70E20D0E1830140D1EB3
:1045B000037A0E1D1A0B1DF2093D060C0D15900C09
:1045C0001D020F0919A00F170780EA0D09106A12C2
:1045D00038C01D4C0B0D15DB0A4DFE053E18920F21
:1045E0001DB7060E140300068DF80F3008C141C137
:1045F00041C3616301323601321C010D16F00F3EDA
:104600001CF70952605A1D5E061D75061E38E10B27
:104610000117C01D36061D38062E1828102FE00C75
:10462000940A2D3E064DF00D1DA20D1D700C0D15AA
:104630009A0C0D1B800D8D300B8D320E2DE205BABC
:1046400040D63D900F0D259009CD22119E60240685
:104650009DC60FB3030048FEC0A80E5D74050C068E
:104660001E10F81F080F5310CB01027A3C089A99CC
:1046700019409A9999DA0A2D8D0C7D2307000400C0
:0446800024F400001E
:04000005080001D915
:00000001FF
